{"contracts/TicketSale.sol":{"TicketSale":{"abi":[{"inputs":[],"stateMutability":"nonpayable","type":"constructor"},{"anonymous":false,"inputs":[{"indexed":true,"internalType":"address","name":"owner","type":"address"},{"indexed":true,"internalType":"address","name":"approved","type":"address"},{"indexed":true,"internalType":"uint256","name":"tokenId","type":"uint256"}],"name":"Approval","type":"event"},{"anonymous":false,"inputs":[{"indexed":true,"internalType":"address","name":"owner","type":"address"},{"indexed":true,"internalType":"address","name":"operator","type":"address"},{"indexed":false,"internalType":"bool","name":"approved","type":"bool"}],"name":"ApprovalForAll","type":"event"},{"anonymous":false,"inputs":[{"indexed":true,"internalType":"address","name":"gatekeeper","type":"address"},{"indexed":false,"internalType":"bool","name":"status","type":"bool"}],"name":"GatekeeperUpdated","type":"event"},{"anonymous":false,"inputs":[{"indexed":true,"internalType":"address","name":"previousOwner","type":"address"},{"indexed":true,"internalType":"address","name":"newOwner","type":"address"}],"name":"OwnershipTransferred","type":"event"},{"anonymous":false,"inputs":[{"indexed":false,"internalType":"address","name":"account","type":"address"}],"name":"Paused","type":"event"},{"anonymous":false,"inputs":[{"indexed":true,"internalType":"uint256","name":"ticketId","type":"uint256"},{"indexed":false,"internalType":"string","name":"eventName","type":"string"},{"indexed":true,"internalType":"address","name":"seller","type":"address"},{"indexed":false,"internalType":"uint256","name":"price","type":"uint256"},{"indexed":false,"internalType":"uint256","name":"eventDate","type":"uint256"}],"name":"TicketCreated","type":"event"},{"anonymous":false,"inputs":[{"indexed":true,"internalType":"uint256","name":"ticketId","type":"uint256"},{"indexed":true,"internalType":"address","name":"buyer","type":"address"}],"name":"TicketDownloaded","type":"event"},{"anonymous":false,"inputs":[{"indexed":true,"internalType":"uint256","name":"ticketId","type":"uint256"},{"indexed":true,"internalType":"address","name":"buyer","type":"address"},{"indexed":false,"internalType":"uint256","name":"price","type":"uint256"}],"name":"TicketPurchased","type":"event"},{"anonymous":false,"inputs":[{"indexed":true,"internalType":"uint256","name":"ticketId","type":"uint256"},{"indexed":true,"internalType":"address","name":"buyer","type":"address"},{"indexed":false,"internalType":"uint256","name":"refundAmount","type":"uint256"}],"name":"TicketRefunded","type":"event"},{"anonymous":false,"inputs":[{"indexed":true,"internalType":"uint256","name":"ticketId","type":"uint256"},{"indexed":true,"internalType":"address","name":"from","type":"address"},{"indexed":true,"internalType":"address","name":"to","type":"address"},{"indexed":false,"internalType":"address","name":"executedBy","type":"address"}],"name":"TicketTransferred","type":"event"},{"anonymous":false,"inputs":[{"indexed":true,"internalType":"uint256","name":"ticketId","type":"uint256"},{"indexed":true,"internalType":"address","name":"buyer","type":"address"},{"indexed":false,"internalType":"uint256","name":"timestamp","type":"uint256"}],"name":"TicketUsed","type":"event"},{"anonymous":false,"inputs":[{"indexed":true,"internalType":"address","name":"from","type":"address"},{"indexed":true,"internalType":"address","name":"to","type":"address"},{"indexed":true,"internalType":"uint256","name":"tokenId","type":"uint256"}],"name":"Transfer","type":"event"},{"anonymous":false,"inputs":[{"indexed":false,"internalType":"address","name":"account","type":"address"}],"name":"Unpaused","type":"event"},{"inputs":[{"internalType":"address","name":"to","type":"address"},{"internalType":"uint256","name":"tokenId","type":"uint256"}],"name":"approve","outputs":[],"stateMutability":"nonpayable","type":"function"},{"inputs":[{"internalType":"address","name":"owner","type":"address"}],"name":"balanceOf","outputs":[{"internalType":"uint256","name":"","type":"uint256"}],"stateMutability":"view","type":"function"},{"inputs":[{"internalType":"uint256","name":"ticketId","type":"uint256"}],"name":"buyTicket","outputs":[],"stateMutability":"payable","type":"function"},{"inputs":[{"internalType":"string","name":"eventName","type":"string"},{"internalType":"string","name":"organizer","type":"string"},{"internalType":"uint256","name":"eventDate","type":"uint256"},{"internalType":"uint256","name":"saleEndDate","type":"uint256"},{"internalType":"uint256","name":"price","type":"uint256"},{"internalType":"uint256","name":"totalTickets","type":"uint256"},{"internalType":"string","name":"posterCID","type":"string"},{"internalType":"string","name":"ticketCID","type":"string"}],"name":"createSale","outputs":[],"stateMutability":"nonpayable","type":"function"},{"inputs":[{"internalType":"uint256","name":"ticketId","type":"uint256"}],"name":"downloadTicket","outputs":[],"stateMutability":"nonpayable","type":"function"},{"inputs":[{"internalType":"string","name":"","type":"string"}],"name":"eventToTicketId","outputs":[{"internalType":"uint256","name":"","type":"uint256"}],"stateMutability":"view","type":"function"},{"inputs":[{"internalType":"uint256","name":"tokenId","type":"uint256"}],"name":"getApproved","outputs":[{"internalType":"address","name":"","type":"address"}],"stateMutability":"view","type":"function"},{"inputs":[],"name":"getAvailableTickets","outputs":[{"internalType":"uint256[]","name":"","type":"uint256[]"}],"stateMutability":"view","type":"function"},{"inputs":[],"name":"getMyTickets","outputs":[{"internalType":"uint256[]","name":"","type":"uint256[]"}],"stateMutability":"view","type":"function"},{"inputs":[{"internalType":"uint256","name":"ticketId","type":"uint256"}],"name":"getTicket","outputs":[{"components":[{"internalType":"uint256","name":"ticketId","type":"uint256"},{"internalType":"string","name":"eventName","type":"string"},{"internalType":"string","name":"organizer","type":"string"},{"internalType":"uint256","name":"eventDate","type":"uint256"},{"internalType":"uint256","name":"saleEndDate","type":"uint256"},{"internalType":"uint256","name":"price","type":"uint256"},{"internalType":"string","name":"posterUrl","type":"string"},{"internalType":"string","name":"ticketImageUrl","type":"string"},{"internalType":"address","name":"seller","type":"address"},{"internalType":"address","name":"buyer","type":"address"},{"internalType":"bool","name":"isSold","type":"bool"},{"internalType":"bool","name":"isDownloaded","type":"bool"},{"internalType":"bool","name":"isRefunded","type":"bool"},{"internalType":"bool","name":"isSecondHand","type":"bool"},{"internalType":"uint256","name":"totalTickets","type":"uint256"},{"internalType":"uint256","name":"availableTickets","type":"uint256"}],"internalType":"struct TicketSale.Ticket","name":"","type":"tuple"}],"stateMutability":"view","type":"function"},{"inputs":[{"internalType":"uint256","name":"ticketId","type":"uint256"}],"name":"getTicketEntryTime","outputs":[{"internalType":"uint256","name":"","type":"uint256"}],"stateMutability":"view","type":"function"},{"inputs":[{"internalType":"address","name":"","type":"address"},{"internalType":"string","name":"","type":"string"}],"name":"hasBoughtTicketForEvent","outputs":[{"internalType":"bool","name":"","type":"bool"}],"stateMutability":"view","type":"function"},{"inputs":[{"internalType":"uint256","name":"ticketId","type":"uint256"}],"name":"hasTicketBeenUsed","outputs":[{"internalType":"bool","name":"","type":"bool"}],"stateMutability":"view","type":"function"},{"inputs":[{"internalType":"address","name":"owner","type":"address"},{"internalType":"address","name":"operator","type":"address"}],"name":"isApprovedForAll","outputs":[{"internalType":"bool","name":"","type":"bool"}],"stateMutability":"view","type":"function"},{"inputs":[{"internalType":"address","name":"","type":"address"}],"name":"isGatekeeper","outputs":[{"internalType":"bool","name":"","type":"bool"}],"stateMutability":"view","type":"function"},{"inputs":[{"internalType":"uint256","name":"ticketId","type":"uint256"}],"name":"markTicketUsed","outputs":[],"stateMutability":"nonpayable","type":"function"},{"inputs":[],"name":"name","outputs":[{"internalType":"string","name":"","type":"string"}],"stateMutability":"view","type":"function"},{"inputs":[{"internalType":"address","name":"from","type":"address"},{"internalType":"address","name":"to","type":"address"},{"internalType":"uint256","name":"ticketId","type":"uint256"}],"name":"organizerTransferTicket","outputs":[],"stateMutability":"nonpayable","type":"function"},{"inputs":[],"name":"owner","outputs":[{"internalType":"address","name":"","type":"address"}],"stateMutability":"view","type":"function"},{"inputs":[{"internalType":"uint256","name":"tokenId","type":"uint256"}],"name":"ownerOf","outputs":[{"internalType":"address","name":"","type":"address"}],"stateMutability":"view","type":"function"},{"inputs":[],"name":"pause","outputs":[],"stateMutability":"nonpayable","type":"function"},{"inputs":[],"name":"paused","outputs":[{"internalType":"bool","name":"","type":"bool"}],"stateMutability":"view","type":"function"},{"inputs":[],"name":"renounceOwnership","outputs":[],"stateMutability":"nonpayable","type":"function"},{"inputs":[{"internalType":"uint256","name":"ticketId","type":"uint256"},{"internalType":"uint256","name":"newTotalTickets","type":"uint256"}],"name":"resetTicketQuantities","outputs":[],"stateMutability":"nonpayable","type":"function"},{"inputs":[{"internalType":"address","name":"from","type":"address"},{"internalType":"address","name":"to","type":"address"},{"internalType":"uint256","name":"tokenId","type":"uint256"}],"name":"safeTransferFrom","outputs":[],"stateMutability":"nonpayable","type":"function"},{"inputs":[{"internalType":"address","name":"from","type":"address"},{"internalType":"address","name":"to","type":"address"},{"internalType":"uint256","name":"tokenId","type":"uint256"},{"internalType":"bytes","name":"data","type":"bytes"}],"name":"safeTransferFrom","outputs":[],"stateMutability":"nonpayable","type":"function"},{"inputs":[{"internalType":"address","name":"operator","type":"address"},{"internalType":"bool","name":"approved","type":"bool"}],"name":"setApprovalForAll","outputs":[],"stateMutability":"nonpayable","type":"function"},{"inputs":[{"internalType":"address","name":"gatekeeper","type":"address"},{"internalType":"bool","name":"status","type":"bool"}],"name":"setGatekeeper","outputs":[],"stateMutability":"nonpayable","type":"function"},{"inputs":[{"internalType":"bytes4","name":"interfaceId","type":"bytes4"}],"name":"supportsInterface","outputs":[{"internalType":"bool","name":"","type":"bool"}],"stateMutability":"view","type":"function"},{"inputs":[],"name":"symbol","outputs":[{"internalType":"string","name":"","type":"string"}],"stateMutability":"view","type":"function"},{"inputs":[{"internalType":"uint256","name":"","type":"uint256"}],"name":"ticketEntryTime","outputs":[{"internalType":"uint256","name":"","type":"uint256"}],"stateMutability":"view","type":"function"},{"inputs":[{"internalType":"uint256","name":"","type":"uint256"}],"name":"tickets","outputs":[{"internalType":"uint256","name":"ticketId","type":"uint256"},{"internalType":"string","name":"eventName","type":"string"},{"internalType":"string","name":"organizer","type":"string"},{"internalType":"uint256","name":"eventDate","type":"uint256"},{"internalType":"uint256","name":"saleEndDate","type":"uint256"},{"internalType":"uint256","name":"price","type":"uint256"},{"internalType":"string","name":"posterUrl","type":"string"},{"internalType":"string","name":"ticketImageUrl","type":"string"},{"internalType":"address","name":"seller","type":"address"},{"internalType":"address","name":"buyer","type":"address"},{"internalType":"bool","name":"isSold","type":"bool"},{"internalType":"bool","name":"isDownloaded","type":"bool"},{"internalType":"bool","name":"isRefunded","type":"bool"},{"internalType":"bool","name":"isSecondHand","type":"bool"},{"internalType":"uint256","name":"totalTickets","type":"uint256"},{"internalType":"uint256","name":"availableTickets","type":"uint256"}],"stateMutability":"view","type":"function"},{"inputs":[{"internalType":"uint256","name":"tokenId","type":"uint256"}],"name":"tokenURI","outputs":[{"internalType":"string","name":"","type":"string"}],"stateMutability":"view","type":"function"},{"inputs":[{"internalType":"address","name":"from","type":"address"},{"internalType":"address","name":"to","type":"address"},{"internalType":"uint256","name":"tokenId","type":"uint256"}],"name":"transferFrom","outputs":[],"stateMutability":"nonpayable","type":"function"},{"inputs":[{"internalType":"address","name":"newOwner","type":"address"}],"name":"transferOwnership","outputs":[],"stateMutability":"nonpayable","type":"function"},{"inputs":[],"name":"unpause","outputs":[],"stateMutability":"nonpayable","type":"function"},{"inputs":[],"name":"updateExpiredTickets","outputs":[],"stateMutability":"nonpayable","type":"function"},{"inputs":[{"internalType":"address","name":"","type":"address"},{"internalType":"uint256","name":"","type":"uint256"}],"name":"userHasPurchased","outputs":[{"internalType":"bool","name":"","type":"bool"}],"stateMutability":"view","type":"function"},{"inputs":[{"internalType":"address","name":"","type":"address"},{"internalType":"uint256","name":"","type":"uint256"}],"name":"userPurchases","outputs":[{"internalType":"uint256","name":"","type":"uint256"}],"stateMutability":"view","type":"function"},{"inputs":[{"internalType":"uint256","name":"ticketId","type":"uint256"}],"name":"verifyTicket","outputs":[{"internalType":"bool","name":"isValid","type":"bool"}],"stateMutability":"view","type":"function"},{"inputs":[],"name":"withdraw","outputs":[],"stateMutability":"nonpayable","type":"function"}],"evm":{"bytecode":{"linkReferences":{},"object":"60803462000365576001600160401b03906040818101838111838210176200034f578152600d82526020916c10dbdb98d95c9d151a58dad95d609a1b83820152815193828501858110828211176200034f5783526006855265151250d2d15560d21b8486015281518181116200034f576000948554916001948584811c9416801562000344575b8385101462000330578190601f94858111620002dd575b508390858311600114620002795789926200026d575b5050600019600383901b1c191690851b1786555b8651928311620002595783548481811c911680156200024e575b828210146200023a57828111620001f2575b50809183116001146200018b5750849582939495926200017f575b5050600019600383901b1c191690821b1781555b60065560075490519133906001600160a01b038316907f8be0079c531659141344cd1fd0a4f28419497f9722a3daafe3b4186f6b6457e09080a36001600160a81b0319163360ff60a01b191617600755613e7890816200036b8239f35b0151905038806200010e565b90601f198316968487528287209287905b898210620001da575050838596979810620001c0575b505050811b01815562000122565b015160001960f88460031b161c19169055388080620001b2565b8087859682949686015181550195019301906200019c565b8487528187208380860160051c82019284871062000230575b0160051c019085905b82811062000224575050620000f3565b88815501859062000214565b925081926200020b565b634e487b7160e01b87526022600452602487fd5b90607f1690620000e1565b634e487b7160e01b86526041600452602486fd5b015190503880620000b3565b898052848a208894509190601f1984168b5b87828210620002c65750508411620002ac575b505050811b018655620000c7565b015160001960f88460031b161c191690553880806200029e565b8385015186558b979095019493840193016200028b565b9091508880528389208580850160051c82019286861062000326575b918991869594930160051c01915b828110620003175750506200009d565b8b815585945089910162000307565b92508192620002f9565b634e487b7160e01b88526022600452602488fd5b93607f169362000086565b634e487b7160e01b600052604160045260246000fd5b600080fdfe608080604052600436101561001357600080fd5b60003560e01c90816301ffc9a7146130175750806304d2abe914612f6057806306fdde0314612ebd578063081812fc14612e9f578063095ea7b314612e6c57806323b872dd14612e485780633ccfd60b14612e045780633f4ba83a14612d6857806342842e0e14612d35578063454270af14612cd957806345895ee51461229b57806348005dab146121ee57806350b44712146120aa578063543cb81f146120825780635a8acacc14611ead5780635c975abb14611e875780636246928914611c3a5780636352211e14611c0a57806363ad6c6f14611b8c57806367dd74ca146112795780636c27c1381461112a57806370a0823114611093578063715018a6146110365780637dc379fa14610d91578063827826e014610d4457806383bb9e2114610c0d5780638456cb5914610bab57806386fe2e0b146102d95780638da5cb5b14610b8257806395d89b4114610aa3578063966fb80d1461053f578063a22cb46514610512578063ab736d4f146104d3578063b88d4fde1461044c578063c87b56dd146103df578063cf2c033414610387578063e1d10d851461035b578063e985e9c514610305578063ea8457be146102d9578063f2fde38b146102155763f7e05d18146101e257600080fd5b3461021057602036600319011261021057600435600052600e60205260206040600020541515604051908152f35b600080fd5b346102105760203660031901126102105761022e613082565b61023661336b565b6001600160a01b0390811690811561028557600754826001600160601b0360a01b821617600755167f8be0079c531659141344cd1fd0a4f28419497f9722a3daafe3b4186f6b6457e0600080a3005b60405162461bcd60e51b815260206004820152602660248201527f4f776e61626c653a206e6577206f776e657220697320746865207a65726f206160448201526564647265737360d01b6064820152608490fd5b3461021057602036600319011261021057600435600052600e6020526020604060002054604051908152f35b346102105760403660031901126102105761031e613082565b610326613098565b9060018060a01b03809116600052600560205260406000209116600052602052602060ff604060002054166040519015158152f35b3461021057600036600319011261021057610383610377613d8e565b60405191829182613302565b0390f35b34610210576040366003190112610210576103a0613082565b6001600160a01b03166000908152600c6020526040902080546024359190821015610210576020916103d19161333d565b90546040519160031b1c8152f35b3461021057602036600319011261021057600435600090815260026020526040902054610416906001600160a01b031615156133c3565b600060405161042481613176565b5261038360405161043481613176565b60008152604051918291602083526020830190613100565b3461021057608036600319011261021057610465613082565b61046d613098565b90606435906044356001600160401b0383116102105736602384011215610210576104d1936104a96104cc9436906024816004013591016131cd565b926104bc6104b78433613545565b613470565b6104c783838361360d565b6138a4565b613525565b005b34610210576020366003190112610210576001600160a01b036104f4613082565b16600052600f602052602060ff604060002054166040519015158152f35b3461021057610520366130ae565b505060405162461bcd60e51b81528061053b60048201613e0a565b0390fd5b346102105761054d36613125565b610558929192613987565b610560613b18565b6001600160a01b0392808416918215610a5e578060005260206009815260406000209461058f865415156139ce565b6009860193845460ff8160b81c16610a08578860075416331480156109f9575b1561098e5760ff8160a81c16600014610936576105cb8561340f565b898085169116036108f15760ff905b60b01c166108ac5785600052600a835260406000209460ff6106016001809a019788613a5e565b541661085257879883169586600052600d8552604060002086600052855260406000209060ff199182815416905587600052600c865260406000208a6000905b610739575b5050908798996106db8899937f4419f53c76d7302f46aec0c9d110b7a0c6806dce4479a5f8f47102e93f6547d499969594600052600a895261068c604060002082613a5e565b8481541690558c600052600d89526040600020876000528952604060002083858254161790558c600052600c89526106c8876040600020613af0565b8c600052600a8952604060002090613a5e565b80549092161790558054600163ff00ff0160a01b0319168917600160b81b1790556000828152600260205260409020546001600160a01b0316610728575b505050604051338152a4600655005b6107319261360d565b868381610719565b81548082101561084c57899061074f838561333d565b929054600393841b1c146107735750509061076b8c9392613bf8565b909192610641565b90999a9b9c506000969594939192961992838201918211610836576107ab61079e6107c4938a61333d565b9054908d1b1c918961333d565b90919082549060031b91821b91600019901b1916179055565b8554908115610820577f4419f53c76d7302f46aec0c9d110b7a0c6806dce4479a5f8f47102e93f6547d4998b978f94806106db950192610804848461333d565b81939154921b1b19169055559293949550819b9a999850610646565b634e487b7160e01b600052603160045260246000fd5b634e487b7160e01b600052601160045260246000fd5b50610646565b60405162461bcd60e51b815260048101859052602c60248201527f526563656976657220616c7265616479206861732061207469636b657420666f60448201526b1c881d1a1a5cc8195d995b9d60a21b6064820152608490fd5b60405162461bcd60e51b815260048101849052601f60248201527f43616e6e6f74207472616e7366657220726566756e646564207469636b6574006044820152606490fd5b60405162461bcd60e51b815260048101859052601a60248201527f53656e646572206973206e6f74207469636b6574206f776e65720000000000006044820152606490fd5b888316898216036109495760ff906105da565b60405162461bcd60e51b815260048101859052601a60248201527f53656e646572206973206e6f74207469636b65742062757965720000000000006044820152606490fd5b60405162461bcd60e51b815260048101859052603d60248201527f4e6f7420617574686f72697a65643a204f6e6c79204f7267616e697a6572206f60448201527f7220436f6e7472616374204f776e65722063616e207472616e736665720000006064820152608490fd5b508860088901541633146105af565b60405162461bcd60e51b815260048101859052602860248201527f5469636b65742068617320616c7265616479206265656e207472616e73666572604482015267726564206f6e636560c01b6064820152608490fd5b60405162461bcd60e51b815260206004820152601f60248201527f43616e6e6f74207472616e7366657220746f207a65726f2061646472657373006044820152606490fd5b346102105760003660031901126102105760405160006001805490610ac782613222565b80855291818116908115610b5b5750600114610b02575b61038384610aee81860382613191565b604051918291602083526020830190613100565b600081815292507fb10e2d527612073b26eecdfd717e6a320cf44b4afac2b0732d9fcbe2b7fa0cf65b828410610b43575050508101602001610aee82610ade565b80546020858701810191909152909301928101610b2b565b60ff191660208087019190915292151560051b85019092019250610aee9150839050610ade565b34610210576000366003190112610210576007546040516001600160a01b039091168152602090f35b3461021057600036600319011261021057610bc461336b565b610bcc613987565b6007805460ff60a01b1916600160a01b1790556040513381527f62e78cea01bee320cd4e420270b5ea74000d11b0c9f74754ebdbfc544b05a25890602090a1005b3461021057600036600319011261021057610c26613987565b610c2e613b18565b600854600190815b81811115610c45576006839055005b80610c7f9160005260098160208281526040600020928354151580610d33575b80610d22575b80610d15575b610c84575b50505050613bf8565b610c36565b83019081549160ff8360a01c16610c9c575b50610c76565b60ff60b01b198316600160b01b1781556001600160a01b039283166000908152600a8352604090207f8c8fd3da31954f4657d981e2a89ea3421ef5d7bfa0998012eaff5f24a61a867a936005929091610cf790888d01613a5e565b60ff1981541690555416940154604051908152a38481818080610c96565b5060048401544211610c71565b5060ff8185015460a81c1615610c6b565b5060ff8185015460b01c1615610c65565b34610210576040366003190112610210576001600160a01b03610d65613082565b16600052600d6020526040600020602435600052602052602060ff604060002054166040519015158152f35b346102105760203660031901126102105760006101e0604051610db38161315a565b82815260606020820152606060408201528260608201528260808201528260a0820152606060c0820152606060e08201528261010082015282610120820152826101408201528261016082015282610180820152826101a0820152826101c08201520152600435806000526009602052610e3360406000205415156139ce565b60005260096020526040600020600b60405191610e4f8361315a565b80548352610e5f6001820161325c565b6020840152610e706002820161325c565b60408401526003810154606084015260048101546080840152600581015460a0840152610e9f6006820161325c565b60c0840152610eb06007820161325c565b60e084015260018060a01b0360088201541661010084015260ff600982015460018060a01b038116610120860152818160a01c161515610140860152818160a81c161515610160860152818160b01c16151561018086015260b81c1615156101a0840152600a8101546101c084015201546101e0820152604051809160208252805160208301526101e0610fbf610f5860208401516102006040870152610220860190613100565b610fa9610f77604086015192601f1993848983030160608a0152613100565b60608601516080880152608086015160a088015260a086015160c088015260c0860151838883030160e0890152613100565b9060e08501519086830301610100870152613100565b9160018060a01b036101008201511661012085015260018060a01b03610120820151166101408501526101408101511515610160850152610160810151151561018085015261018081015115156101a08501526101a081015115156101c08501526101c08101518285015201516102008301520390f35b346102105760003660031901126102105761104f61336b565b600780546001600160a01b031981169091556000906001600160a01b03167f8be0079c531659141344cd1fd0a4f28419497f9722a3daafe3b4186f6b6457e08280a3005b34610210576020366003190112610210576001600160a01b036110b4613082565b1680156110d35760005260036020526020604060002054604051908152f35b60405162461bcd60e51b815260206004820152602960248201527f4552433732313a2061646472657373207a65726f206973206e6f7420612076616044820152683634b21037bbb732b960b91b6064820152608490fd5b346102105760208060031936011261021057600435611147613987565b33600052600f825260ff604060002054161561123457806000526009825260096040600020611178815415156139ce565b0161119860ff825461118e828260a01c16613b6e565b60b01c1615613a12565b81600052600e83526040600020546111ef577f4f9c6210874b14266ea0f64418a0f7403a875226eae9483f5d9cd7663234db9a9082600052600e84524260406000205560018060a01b0390541692604051428152a3005b60405162461bcd60e51b815260048101849052601d60248201527f5469636b657420616c7265616479207573656420666f7220656e7472790000006044820152606490fd5b60405162461bcd60e51b815260048101839052601f60248201527f4f6e6c7920676174656b6565706572732063616e206d61726b20656e747279006044820152606490fd5b60203660031901126102105761128d613987565b611295613b18565b600435600052600960205260406000206112b1815415156139ce565b6112c560ff600983015460b01c1615613a12565b60048101544211611b565760058101543403611b1157600b81015415611ad55733600052600a60205260ff611301604060002060018401613a5e565b5416611a7f57600080808060018060a01b0360088601541681903415611a75575b3491f115611a6957600160085401908160085560038101546004820154600583015460018060a01b03600885015416916040519361135f8561315a565b86855261136e6001870161325c565b602086015261137f6002870161325c565b60408601526060850152608084015260a083015261139f6006840161325c565b60c08301526113b06007840161325c565b60e08301526101008201523361012082015260016101408201526000610160820152600061018082015260006101a082015260016101c082015260006101e08201528260005260096020526040600020908051825560208101518051906001600160401b0382116117e357819061142a6001860154613222565b601f8111611a16575b50602090601f83116001146119a457600092611999575b50508160011b916000199060031b1c19161760018301555b60408101518051906001600160401b0382116117e35781906114876002860154613222565b601f8111611946575b50602090601f83116001146118d4576000926118c9575b50508160011b916000199060031b1c19161760028301555b606081015160038301556080810151600483015560a0810151600583015560c08101518051906001600160401b0382116117e35781906115026006860154613222565b601f8111611876575b50602090601f8311600114611804576000926117f9575b50508160011b916000199060031b1c19161760068301555b60e08101518051906001600160401b0382116117e35761155d6007850154613222565b601f811161179c575b50602090601f8311600114611726579180600b94926101e09460009261171b575b50508160011b916000199060031b1c19161760078501555b6101008101516008850180546001600160a01b039283166001600160a01b031990911617905561012082015160098601805461014085015160ff60a01b90151560a01b16929093166001600160a81b03199093169290921717815561165b905b610160830151815460ff60a81b191690151560a81b60ff60a81b16178155610180830151815460ff60b01b191690151560b01b60ff60b01b161781556101a0830151815460ff60b81b191690151560b81b60ff60b81b16179055565b6101c0810151600a8501550151910155600b81015460001981019190821161083657600591600b82015533600052600c60205261169c836040600020613af0565b33600052600d602052604060002083600052602052604060002060ff199060018282541617905533600052600a60205260016116de6040600020828501613a5e565b918254161790550154906040519182527fdbaaf4c87ce30816c961a81d110622a3227ede77953d4383d514ff88ab2e0fd360203393a36001600655005b015190508880611587565b906007850160005260206000209160005b601f1985168110611784575092600b94926001926101e09583601f1981161061176b575b505050811b01600785015561159f565b015160001960f88460031b161c1916905588808061175b565b91926020600181928685015181550194019201611737565b600785016000526020600020601f840160051c8101602085106117dc575b601f830160051c820181106117d0575050611566565b600081556001016117ba565b50806117ba565b634e487b7160e01b600052604160045260246000fd5b015190508680611522565b9250600685016000526020600020906000935b601f198416851061185b576001945083601f19811610611842575b505050811b01600683015561153a565b015160001960f88460031b161c19169055868080611832565b81810151835560209485019460019093019290910190611817565b909150600685016000526020600020601f840160051c8101602085106118c2575b90849392915b601f830160051c820181106118b357505061150b565b6000815585945060010161189d565b5080611897565b0151905086806114a7565b9250600285016000526020600020906000935b601f198416851061192b576001945083601f19811610611912575b505050811b0160028301556114bf565b015160001960f88460031b161c19169055868080611902565b818101518355602094850194600190930192909101906118e7565b909150600285016000526020600020601f840160051c810160208510611992575b90849392915b601f830160051c82018110611983575050611490565b6000815585945060010161196d565b5080611967565b01519050868061144a565b9250600185016000526020600020906000935b601f19841685106119fb576001945083601f198116106119e2575b505050811b016001830155611462565b015160001960f88460031b161c191690558680806119d2565b818101518355602094850194600190930192909101906119b7565b909150600185016000526020600020601f840160051c810160208510611a62575b90849392915b601f830160051c82018110611a53575050611433565b60008155859450600101611a3d565b5080611a37565b6040513d6000823e3d90fd5b6108fc9150611322565b60405162461bcd60e51b815260206004820152602860248201527f596f7520616c726561647920686176652061207469636b657420666f722074686044820152671a5cc8195d995b9d60c21b6064820152608490fd5b60405162461bcd60e51b81526020600482015260146024820152734e6f207469636b65747320617661696c61626c6560601b6044820152606490fd5b60405162461bcd60e51b815260206004820152601860248201527f496e636f7272656374207061796d656e7420616d6f756e7400000000000000006044820152606490fd5b60405162461bcd60e51b815260206004820152600e60248201526d14d85b19481a185cc8195b99195960921b6044820152606490fd5b3461021057604036600319011261021057611ba5613082565b6024356001600160401b03811161021057611bf560208093611bcd60ff943690600401613204565b9060018060a01b0316600052600a8252604060002082604051948386809551938492016130dd565b82019081520301902054166040519015158152f35b34610210576020366003190112610210576020611c2860043561340f565b6040516001600160a01b039091168152f35b34610210576020806003193601126102105760043590611c58613987565b611c60613b18565b816000526009815260096040600020611c7b815415156139ce565b01908154611c8e60ff8260a01c16613b6e565b336001600160a01b03821603611e4b5760ff8160a81c16611e065760ff611cb99160b01c1615613a12565b60405190611cc682613176565b600082523315611dc357611d849160026104cc92611d02611cfc88600052600260205260018060a01b0360406000205416151590565b15613bac565b600087815260026020526040902054611d25906001600160a01b03161515611cfc565b336000526003815260406000206001815401905586600052526040600020336001600160601b0360a01b825416179055843360007fddf252ad1be2c89b69c2b068fc378daa952ba7f163c4a11628f55a4df523b3ef8180a48433613784565b805460ff60a81b1916600160a81b17905533907f4c3f8ff3b3376dbd255cab935257c5c6f095b27b816f6f0b1ae35b828e6838a8600080a36001600655005b6064906040519062461bcd60e51b825280600483015260248201527f4552433732313a206d696e7420746f20746865207a65726f20616464726573736044820152fd5b60405162461bcd60e51b815260048101839052601960248201527f5469636b657420616c726561647920646f776e6c6f61646564000000000000006044820152606490fd5b60405162461bcd60e51b81526004810183905260146024820152732737ba103a3432903a34b1b5b2ba10313abcb2b960611b6044820152606490fd5b3461021057600036600319011261021057602060ff60075460a01c166040519015158152f35b34610210576000366003190112610210576008805490611ecc82613d48565b916000916001805b83811115611f24578585611ee781613d48565b9160005b828110611f0057604051806103838682613302565b80611f0e611f1f9284613d7a565b51611f198287613d7a565b52613bf8565b611eeb565b8060005260096020818152604060002060405191611f418361315a565b81548352611f5086830161325c565b90830152611f606002820161325c565b604083015260038101546060830152600b6004820154916080840192835260058101549460a09586860152611f976006830161325c565b60c0860152611fa86007830161325c565b60e086015260018060a01b0390818a84015416610100870152820154958691821661012087015260ff9182911c161515610140860152808660a81c161515610160860152808660b01c161595861561018087015260b81c1615156101a0850152600a8101546101c0850152015491826101e0820152511515928361207a575b508261206e575b5081612064575b50612049575b61204490613bf8565b611ed4565b9361205c8186611f19612044948a613d7a565b94905061203b565b9050151587612035565b5142111591508861202e565b925089612027565b346102105760203660031901126102105760206120a0600435613c07565b6040519015158152f35b3461021057602036600319011261021057600435600052600960205260406000208054600182016120da9061325c565b916120e76002820161325c565b60038201546004830154600584015493916121046006840161325c565b6121106007850161325c565b90600160a01b60019003928360088701541697600987015495600a88015497600b0154986040519c8d9c8d528c6102006020819201528d0161215191613100565b8c810360408e015261216291613100565b9260608c015260808b015260a08a015288810360c08a015261218391613100565b87810360e089015261219491613100565b9461010087015281166101208601528060a01c60ff1615156101408601528060a81c60ff1615156101608601528060b01c60ff16151561018086015260b81c60ff1615156101a08501526101c08401526101e08301520390f35b34610210576040366003190112610210576024356004356000526009602052604060002061221e815415156139ce565b6008810154336001600160a01b039182161490811561228d575b501561225757600b9061224c83151561392f565b600a81018390550155005b60405162461bcd60e51b815260206004820152600e60248201526d139bdd08185d5d1a1bdc9a5e995960921b6044820152606490fd5b905060075416331483612238565b3461021057610100366003190112610210576004356001600160401b038111610210576122cc903690600401613204565b6024356001600160401b038111610210576122eb903690600401613204565b60c4356001600160401b0381116102105761230a903690600401613204565b9060e4356001600160401b0381116102105761232a903690600401613204565b612332613987565b835115612c9457815115612c4f57426044351115612c0b57426064351115612bba576044356064351015612b755760843515612b305761237560a435151561392f565b825115612aeb57805115612aa65760405160208186516123988183858b016130dd565b8101600b81520301902054612a6a5760016008540192836008556124236027604051926123f5828566697066733a2f2f60c81b938460208301526123e581518092602086860191016130dd565b8101036007810187520185613191565b604051948591602083015261241381518092602086860191016130dd565b8101036007810185520183613191565b604051926124308461315a565b84845285602085015260408401526044356060840152606435608084015260843560a084015260c083015260e082015233610100820152600061012082015260006101408201526000610160820152600061018082015260006101a082015260a4356101c082015260a4356101e08201528160005260096020526040600020908051825560208101518051906001600160401b0382116117e35781906124d96001860154613222565b601f8111612a17575b50602090601f83116001146129a55760009261299a575b50508160011b916000199060031b1c19161760018301555b60408101518051906001600160401b0382116117e35781906125366002860154613222565b601f8111612947575b50602090601f83116001146128d5576000926128ca575b50508160011b916000199060031b1c19161760028301555b606081015160038301556080810151600483015560a0810151600583015560c08101518051906001600160401b0382116117e35781906125b16006860154613222565b601f8111612877575b50602090601f8311600114612805576000926127fa575b50508160011b916000199060031b1c19161760068301555b60e08101518051906001600160401b0382116117e35761260c6007850154613222565b601f81116127b3575b50602090601f831160011461273d579180600b94926101e094600092612732575b50508160011b916000199060031b1c19161760078501555b6101008101516008850180546001600160a01b039283166001600160a01b031990911617905561012082015160098601805461014085015160ff60a01b90151560a01b16929093166001600160a81b0319909316929092171781556126b2906115ff565b6101c0810151600a85015501519101558060405160208185516126d88183858a016130dd565b8101600b815203019020557f57f13ab4f405dee432e813c363e9bbf98b6e2703d4e28b09ad4af92f689d5fba61271960405193606085526060850190613100565b92608435602082015260443560408201528033940390a3005b015190508880612636565b906007850160005260206000209160005b601f198516811061279b575092600b94926001926101e09583601f19811610612782575b505050811b01600785015561264e565b015160001960f88460031b161c19169055888080612772565b9192602060018192868501518155019401920161274e565b600785016000526020600020601f840160051c8101602085106127f3575b601f830160051c820181106127e7575050612615565b600081556001016127d1565b50806127d1565b0151905086806125d1565b9250600685016000526020600020906000935b601f198416851061285c576001945083601f19811610612843575b505050811b0160068301556125e9565b015160001960f88460031b161c19169055868080612833565b81810151835560209485019460019093019290910190612818565b909150600685016000526020600020601f840160051c8101602085106128c3575b90849392915b601f830160051c820181106128b45750506125ba565b6000815585945060010161289e565b5080612898565b015190508680612556565b9250600285016000526020600020906000935b601f198416851061292c576001945083601f19811610612913575b505050811b01600283015561256e565b015160001960f88460031b161c19169055868080612903565b818101518355602094850194600190930192909101906128e8565b909150600285016000526020600020601f840160051c810160208510612993575b90849392915b601f830160051c8201811061298457505061253f565b6000815585945060010161296e565b5080612968565b0151905086806124f9565b9250600185016000526020600020906000935b601f19841685106129fc576001945083601f198116106129e3575b505050811b016001830155612511565b015160001960f88460031b161c191690558680806129d3565b818101518355602094850194600190930192909101906129b8565b909150600185016000526020600020601f840160051c810160208510612a63575b90849392915b601f830160051c82018110612a545750506124e2565b60008155859450600101612a3e565b5080612a38565b60405162461bcd60e51b81526020600482015260146024820152734576656e7420616c72656164792065786973747360601b6044820152606490fd5b60405162461bcd60e51b815260206004820152601a60248201527f5469636b6574204349442063616e6e6f7420626520656d7074790000000000006044820152606490fd5b60405162461bcd60e51b815260206004820152601a60248201527f506f73746572204349442063616e6e6f7420626520656d7074790000000000006044820152606490fd5b60405162461bcd60e51b815260206004820152601c60248201527f5072696365206d7573742062652067726561746572207468616e2030000000006044820152606490fd5b60405162461bcd60e51b815260206004820152601a60248201527f53616c65206d75737420656e64206265666f7265206576656e740000000000006044820152606490fd5b60405162461bcd60e51b815260206004820152602360248201527f53616c6520656e642064617465206d75737420626520696e207468652066757460448201526275726560e81b6064820152608490fd5b606460405162461bcd60e51b815260206004820152602060248201527f4576656e742064617465206d75737420626520696e20746865206675747572656044820152fd5b60405162461bcd60e51b815260206004820152601960248201527f4f7267616e697a65722063616e6e6f7420626520656d707479000000000000006044820152606490fd5b60405162461bcd60e51b815260206004820152601a60248201527f4576656e74206e616d652063616e6e6f7420626520656d7074790000000000006044820152606490fd5b34610210576020366003190112610210576004356001600160401b03811161021057612d226020612d0f81933690600401613204565b81604051938285809451938492016130dd565b8101600b81520301902054604051908152f35b34610210576104d16104cc612d4936613125565b9060405192612d5784613176565b600084526104bc6104b78433613545565b3461021057600036600319011261021057612d8161336b565b60075460ff8160a01c1615612dc85760ff60a01b19166007556040513381527f5db9ee0a495bf2e6ff9c91a7834c1ba4fdd244a5e8aa4e537bd38aeae4b073aa90602090a1005b60405162461bcd60e51b815260206004820152601460248201527314185d5cd8589b194e881b9bdd081c185d5cd95960621b6044820152606490fd5b3461021057600036600319011261021057612e1d61336b565b600080808060018060a01b03600754164790828215612e3f575bf115611a6957005b506108fc612e37565b34610210576104d1612e5936613125565b91612e676104b78433613545565b61360d565b3461021057604036600319011261021057612e85613082565b5060405162461bcd60e51b81528061053b60048201613e0a565b34610210576020366003190112610210576020611c28600435613432565b346102105760003660031901126102105760405160008054612ede81613222565b80845290600190818116908115610b5b5750600114612f075761038384610aee81860382613191565b600080805292507f290decd9548b62a8d60345a988386fc84ba6bc95484008f6362f93160ef3e5635b828410612f48575050508101602001610aee82610ade565b80546020858701810191909152909301928101612f30565b3461021057612f6e366130ae565b90612f7761336b565b6001600160a01b0316908115612fd25760207fa8eec2d2d416e596c8297a3f142564eb940a4dc7200409b9ca519688b95a73619183600052600f825260406000209015159060ff1981541660ff8316179055604051908152a2005b60405162461bcd60e51b815260206004820152601a60248201527f496e76616c696420676174656b656570657220616464726573730000000000006044820152606490fd5b34610210576020366003190112610210576004359063ffffffff60e01b8216809203610210576020916380ac58cd60e01b8114908115613071575b8115613060575b5015158152f35b6301ffc9a760e01b14905083613059565b635b5e139f60e01b81149150613052565b600435906001600160a01b038216820361021057565b602435906001600160a01b038216820361021057565b6040906003190112610210576004356001600160a01b0381168103610210579060243580151581036102105790565b60005b8381106130f05750506000910152565b81810151838201526020016130e0565b90602091613119815180928185528580860191016130dd565b601f01601f1916010190565b6060906003190112610210576001600160a01b0390600435828116810361021057916024359081168103610210579060443590565b61020081019081106001600160401b038211176117e357604052565b602081019081106001600160401b038211176117e357604052565b90601f801991011681019081106001600160401b038211176117e357604052565b6001600160401b0381116117e357601f01601f191660200190565b9291926131d9826131b2565b916131e76040519384613191565b829481845281830111610210578281602093846000960137010152565b9080601f830112156102105781602061321f933591016131cd565b90565b90600182811c92168015613252575b602083101461323c57565b634e487b7160e01b600052602260045260246000fd5b91607f1691613231565b906040519182600082549261327084613222565b9081845260019485811690816000146132df575060011461329c575b505061329a92500383613191565b565b9093915060005260209081600020936000915b8183106132c757505061329a9350820101388061328c565b855488840185015294850194879450918301916132af565b91505061329a94506020925060ff191682840152151560051b820101388061328c565b6020908160408183019282815285518094520193019160005b828110613329575050505090565b83518552938101939281019260010161331b565b80548210156133555760005260206000200190600090565b634e487b7160e01b600052603260045260246000fd5b6007546001600160a01b0316330361337f57565b606460405162461bcd60e51b815260206004820152602060248201527f4f776e61626c653a2063616c6c6572206973206e6f7420746865206f776e65726044820152fd5b156133ca57565b60405162461bcd60e51b815260206004820152601860248201527f4552433732313a20696e76616c696420746f6b656e20494400000000000000006044820152606490fd5b6000908152600260205260409020546001600160a01b031661321f8115156133c3565b600081815260026020526040902054613455906001600160a01b031615156133c3565b6000908152600460205260409020546001600160a01b031690565b1561347757565b60405162461bcd60e51b815260206004820152602d60248201527f4552433732313a2063616c6c6572206973206e6f7420746f6b656e206f776e6560448201526c1c881bdc88185c1c1c9bdd9959609a1b6064820152608490fd5b60809060208152603260208201527f4552433732313a207472616e7366657220746f206e6f6e20455243373231526560408201527131b2b4bb32b91034b6b83632b6b2b73a32b960711b60608201520190565b1561352c57565b60405162461bcd60e51b81528061053b600482016134d2565b906001600160a01b0380806135598461340f565b1693169183831493841561358c575b508315613576575b50505090565b61358291929350613432565b1614388080613570565b909350600052600560205260406000208260005260205260ff604060002054169238613568565b156135ba57565b60405162461bcd60e51b815260206004820152602560248201527f4552433732313a207472616e736665722066726f6d20696e636f72726563742060448201526437bbb732b960d91b6064820152608490fd5b906136359161361b8461340f565b6001600160a01b03939184169284929091831684146135b3565b16918215613733578115801561372b575b801561371e575b8015613702575b156136e9578161366e916136678661340f565b16146135b3565b7fddf252ad1be2c89b69c2b068fc378daa952ba7f163c4a11628f55a4df523b3ef60008481526004602052604081206001600160601b0360a01b9081815416905583825260036020526040822060001981540190558482526040822060018154019055858252600260205284604083209182541617905580a4565b60405162461bcd60e51b81528061053b60048201613e0a565b5083600052600960205280600860406000200154163314613654565b508060075416331461364d565b506000613646565b60405162461bcd60e51b8152602060048201526024808201527f4552433732313a207472616e7366657220746f20746865207a65726f206164646044820152637265737360e01b6064820152608490fd5b9192600092909190803b1561389a576137d2946040518092630a85bd0160e11b9485835233600484015287602484015260448301526080606483015281878160209a8b966084830190613100565b03926001600160a01b03165af1849181613856575b50613845575050503d60001461383d573d613801816131b2565b9061380f6040519283613191565b81528091833d92013e5b8051918261383a5760405162461bcd60e51b81528061053b600482016134d2565b01fd5b506060613819565b6001600160e01b0319161492509050565b9091508581813d8311613893575b61386e8183613191565b8101031261388f57516001600160e01b03198116810361388f5790386137e7565b8480fd5b503d613864565b5050915050600190565b9293600093909291803b15613924579484916138fe9660405180948193630a85bd0160e11b9788845233600485015260018060a01b0380921660248501526044840152608060648401528260209b8c976084830190613100565b0393165af18491816138565750613845575050503d60001461383d573d613801816131b2565b505050915050600190565b1561393657565b60405162461bcd60e51b8152602060048201526024808201527f546f74616c207469636b657473206d75737420626520677265617465722074686044820152630616e20360e41b6064820152608490fd5b60ff60075460a01c1661399657565b60405162461bcd60e51b815260206004820152601060248201526f14185d5cd8589b194e881c185d5cd95960821b6044820152606490fd5b156139d557565b60405162461bcd60e51b8152602060048201526015602482015274151a58dad95d08191bd95cc81b9bdd08195e1a5cdd605a1b6044820152606490fd5b15613a1957565b60405162461bcd60e51b815260206004820152601860248201527f5469636b657420686173206265656e20726566756e64656400000000000000006044820152606490fd5b9060405180926000908054613a7281613222565b91600191808316908115613ad65750600114613a98575b50505060209281520301902090565b60009081526020808220969450915b838210613ac05750505060209350820190923880613a89565b8654888301529586019587955090820190613aa7565b60ff19168652505050801515028201905060203880613a89565b90815491680100000000000000008310156117e357826107ab91600161329a9501815561333d565b600260065414613b29576002600655565b60405162461bcd60e51b815260206004820152601f60248201527f5265656e7472616e637947756172643a207265656e7472616e742063616c6c006044820152606490fd5b15613b7557565b60405162461bcd60e51b815260206004820152600f60248201526e151a58dad95d081b9bdd081cdbdb19608a1b6044820152606490fd5b15613bb357565b60405162461bcd60e51b815260206004820152601c60248201527f4552433732313a20746f6b656e20616c7265616479206d696e746564000000006044820152606490fd5b60001981146108365760010190565b60009080825260096020526040822090604051613c238161315a565b82548152613c336001840161325c565b6020820152613c446002840161325c565b60408201526003830154606082015260048301546080820152600583015460a0820152613c736006840161325c565b60c0820152613c846007840161325c565b60e082015260018060a01b03928360088201541661010083015260098101549184831661012082015260ff8360a01c161515610140820152600b60ff8460a81c161592831561016084015260ff808660b01c161515958661018086015260b81c1615156101a0840152600a8101546101c084015201546101e08201525115613d2a5761357057613d2557613d179061340f565b3391160361321f5750600190565b505090565b5050505090565b6001600160401b0381116117e35760051b60200190565b90613d5282613d31565b613d5f6040519182613191565b8281528092613d70601f1991613d31565b0190602036910137565b80518210156133555760209160051b010190565b6000338152602090600c825260408120916040518093849183825491828152019185528385209385905b828210613df057505050613dce92500383613191565b815115613dd9575090565b6040519150613de782613176565b80825236813790565b855484526001958601958895509381019390910190613db8565b60609060208152601c60208201527f5469636b65747320617265206e6f6e2d7472616e7366657261626c65000000006040820152019056fea26469706673582212201d7ff3aca816bf01d7b189480248cbf4ff79514d160db2019867a890bde18ff664736f6c63430008130033","opcodes":"PUSH1 0x80 CALLVALUE PUSH3 0x365 JUMPI PUSH1 0x1 PUSH1 0x1 PUSH1 0x40 SHL SUB SWAP1 PUSH1 0x40 DUP2 DUP2 ADD DUP4 DUP2 GT DUP4 DUP3 LT OR PUSH3 0x34F JUMPI DUP2 MSTORE PUSH1 0xD DUP3 MSTORE PUSH1 0x20 SWAP2 PUSH13 0x10DBDB98D95C9D151A58DAD95D PUSH1 0x9A SHL DUP4 DUP3 ADD MSTORE DUP2 MLOAD SWAP4 DUP3 DUP6 ADD DUP6 DUP2 LT DUP3 DUP3 GT OR PUSH3 0x34F JUMPI DUP4 MSTORE PUSH1 0x6 DUP6 MSTORE PUSH6 0x151250D2D155 PUSH1 0xD2 SHL DUP5 DUP7 ADD MSTORE DUP2 MLOAD DUP2 DUP2 GT PUSH3 0x34F JUMPI PUSH1 0x0 SWAP5 DUP6 SLOAD SWAP2 PUSH1 0x1 SWAP5 DUP6 DUP5 DUP2 SHR SWAP5 AND DUP1 ISZERO PUSH3 0x344 JUMPI JUMPDEST DUP4 DUP6 LT EQ PUSH3 0x330 JUMPI DUP2 SWAP1 PUSH1 0x1F SWAP5 DUP6 DUP2 GT PUSH3 0x2DD JUMPI JUMPDEST POP DUP4 SWAP1 DUP6 DUP4 GT PUSH1 0x1 EQ PUSH3 0x279 JUMPI DUP10 SWAP3 PUSH3 0x26D JUMPI JUMPDEST POP POP PUSH1 0x0 NOT PUSH1 0x3 DUP4 SWAP1 SHL SHR NOT AND SWAP1 DUP6 SHL OR DUP7 SSTORE JUMPDEST DUP7 MLOAD SWAP3 DUP4 GT PUSH3 0x259 JUMPI DUP4 SLOAD DUP5 DUP2 DUP2 SHR SWAP2 AND DUP1 ISZERO PUSH3 0x24E JUMPI JUMPDEST DUP3 DUP3 LT EQ PUSH3 0x23A JUMPI DUP3 DUP2 GT PUSH3 0x1F2 JUMPI JUMPDEST POP DUP1 SWAP2 DUP4 GT PUSH1 0x1 EQ PUSH3 0x18B JUMPI POP DUP5 SWAP6 DUP3 SWAP4 SWAP5 SWAP6 SWAP3 PUSH3 0x17F JUMPI JUMPDEST POP POP PUSH1 0x0 NOT PUSH1 0x3 DUP4 SWAP1 SHL SHR NOT AND SWAP1 DUP3 SHL OR DUP2 SSTORE JUMPDEST PUSH1 0x6 SSTORE PUSH1 0x7 SLOAD SWAP1 MLOAD SWAP2 CALLER SWAP1 PUSH1 0x1 PUSH1 0x1 PUSH1 0xA0 SHL SUB DUP4 AND SWAP1 PUSH32 0x8BE0079C531659141344CD1FD0A4F28419497F9722A3DAAFE3B4186F6B6457E0 SWAP1 DUP1 LOG3 PUSH1 0x1 PUSH1 0x1 PUSH1 0xA8 SHL SUB NOT AND CALLER PUSH1 0xFF PUSH1 0xA0 SHL NOT AND OR PUSH1 0x7 SSTORE PUSH2 0x3E78 SWAP1 DUP2 PUSH3 0x36B DUP3 CODECOPY RETURN JUMPDEST ADD MLOAD SWAP1 POP CODESIZE DUP1 PUSH3 0x10E JUMP JUMPDEST SWAP1 PUSH1 0x1F NOT DUP4 AND SWAP7 DUP5 DUP8 MSTORE DUP3 DUP8 KECCAK256 SWAP3 DUP8 SWAP1 JUMPDEST DUP10 DUP3 LT PUSH3 0x1DA JUMPI POP POP DUP4 DUP6 SWAP7 SWAP8 SWAP9 LT PUSH3 0x1C0 JUMPI JUMPDEST POP POP POP DUP2 SHL ADD DUP2 SSTORE PUSH3 0x122 JUMP JUMPDEST ADD MLOAD PUSH1 0x0 NOT PUSH1 0xF8 DUP5 PUSH1 0x3 SHL AND SHR NOT AND SWAP1 SSTORE CODESIZE DUP1 DUP1 PUSH3 0x1B2 JUMP JUMPDEST DUP1 DUP8 DUP6 SWAP7 DUP3 SWAP5 SWAP7 DUP7 ADD MLOAD DUP2 SSTORE ADD SWAP6 ADD SWAP4 ADD SWAP1 PUSH3 0x19C JUMP JUMPDEST DUP5 DUP8 MSTORE DUP2 DUP8 KECCAK256 DUP4 DUP1 DUP7 ADD PUSH1 0x5 SHR DUP3 ADD SWAP3 DUP5 DUP8 LT PUSH3 0x230 JUMPI JUMPDEST ADD PUSH1 0x5 SHR ADD SWAP1 DUP6 SWAP1 JUMPDEST DUP3 DUP2 LT PUSH3 0x224 JUMPI POP POP PUSH3 0xF3 JUMP JUMPDEST DUP9 DUP2 SSTORE ADD DUP6 SWAP1 PUSH3 0x214 JUMP JUMPDEST SWAP3 POP DUP2 SWAP3 PUSH3 0x20B JUMP JUMPDEST PUSH4 0x4E487B71 PUSH1 0xE0 SHL DUP8 MSTORE PUSH1 0x22 PUSH1 0x4 MSTORE PUSH1 0x24 DUP8 REVERT JUMPDEST SWAP1 PUSH1 0x7F AND SWAP1 PUSH3 0xE1 JUMP JUMPDEST PUSH4 0x4E487B71 PUSH1 0xE0 SHL DUP7 MSTORE PUSH1 0x41 PUSH1 0x4 MSTORE PUSH1 0x24 DUP7 REVERT JUMPDEST ADD MLOAD SWAP1 POP CODESIZE DUP1 PUSH3 0xB3 JUMP JUMPDEST DUP10 DUP1 MSTORE DUP5 DUP11 KECCAK256 DUP9 SWAP5 POP SWAP2 SWAP1 PUSH1 0x1F NOT DUP5 AND DUP12 JUMPDEST DUP8 DUP3 DUP3 LT PUSH3 0x2C6 JUMPI POP POP DUP5 GT PUSH3 0x2AC JUMPI JUMPDEST POP POP POP DUP2 SHL ADD DUP7 SSTORE PUSH3 0xC7 JUMP JUMPDEST ADD MLOAD PUSH1 0x0 NOT PUSH1 0xF8 DUP5 PUSH1 0x3 SHL AND SHR NOT AND SWAP1 SSTORE CODESIZE DUP1 DUP1 PUSH3 0x29E JUMP JUMPDEST DUP4 DUP6 ADD MLOAD DUP7 SSTORE DUP12 SWAP8 SWAP1 SWAP6 ADD SWAP5 SWAP4 DUP5 ADD SWAP4 ADD PUSH3 0x28B JUMP JUMPDEST SWAP1 SWAP2 POP DUP9 DUP1 MSTORE DUP4 DUP10 KECCAK256 DUP6 DUP1 DUP6 ADD PUSH1 0x5 SHR DUP3 ADD SWAP3 DUP7 DUP7 LT PUSH3 0x326 JUMPI JUMPDEST SWAP2 DUP10 SWAP2 DUP7 SWAP6 SWAP5 SWAP4 ADD PUSH1 0x5 SHR ADD SWAP2 JUMPDEST DUP3 DUP2 LT PUSH3 0x317 JUMPI POP POP PUSH3 0x9D JUMP JUMPDEST DUP12 DUP2 SSTORE DUP6 SWAP5 POP DUP10 SWAP2 ADD PUSH3 0x307 JUMP JUMPDEST SWAP3 POP DUP2 SWAP3 PUSH3 0x2F9 JUMP JUMPDEST PUSH4 0x4E487B71 PUSH1 0xE0 SHL DUP9 MSTORE PUSH1 0x22 PUSH1 0x4 MSTORE PUSH1 0x24 DUP9 REVERT JUMPDEST SWAP4 PUSH1 0x7F AND SWAP4 PUSH3 0x86 JUMP JUMPDEST PUSH4 0x4E487B71 PUSH1 0xE0 SHL PUSH1 0x0 MSTORE PUSH1 0x41 PUSH1 0x4 MSTORE PUSH1 0x24 PUSH1 0x0 REVERT JUMPDEST PUSH1 0x0 DUP1 REVERT INVALID PUSH1 0x80 DUP1 PUSH1 0x40 MSTORE PUSH1 0x4 CALLDATASIZE LT ISZERO PUSH2 0x13 JUMPI PUSH1 0x0 DUP1 REVERT JUMPDEST PUSH1 0x0 CALLDATALOAD PUSH1 0xE0 SHR SWAP1 DUP2 PUSH4 0x1FFC9A7 EQ PUSH2 0x3017 JUMPI POP DUP1 PUSH4 0x4D2ABE9 EQ PUSH2 0x2F60 JUMPI DUP1 PUSH4 0x6FDDE03 EQ PUSH2 0x2EBD JUMPI DUP1 PUSH4 0x81812FC EQ PUSH2 0x2E9F JUMPI DUP1 PUSH4 0x95EA7B3 EQ PUSH2 0x2E6C JUMPI DUP1 PUSH4 0x23B872DD EQ PUSH2 0x2E48 JUMPI DUP1 PUSH4 0x3CCFD60B EQ PUSH2 0x2E04 JUMPI DUP1 PUSH4 0x3F4BA83A EQ PUSH2 0x2D68 JUMPI DUP1 PUSH4 0x42842E0E EQ PUSH2 0x2D35 JUMPI DUP1 PUSH4 0x454270AF EQ PUSH2 0x2CD9 JUMPI DUP1 PUSH4 0x45895EE5 EQ PUSH2 0x229B JUMPI DUP1 PUSH4 0x48005DAB EQ PUSH2 0x21EE JUMPI DUP1 PUSH4 0x50B44712 EQ PUSH2 0x20AA JUMPI DUP1 PUSH4 0x543CB81F EQ PUSH2 0x2082 JUMPI DUP1 PUSH4 0x5A8ACACC EQ PUSH2 0x1EAD JUMPI DUP1 PUSH4 0x5C975ABB EQ PUSH2 0x1E87 JUMPI DUP1 PUSH4 0x62469289 EQ PUSH2 0x1C3A JUMPI DUP1 PUSH4 0x6352211E EQ PUSH2 0x1C0A JUMPI DUP1 PUSH4 0x63AD6C6F EQ PUSH2 0x1B8C JUMPI DUP1 PUSH4 0x67DD74CA EQ PUSH2 0x1279 JUMPI DUP1 PUSH4 0x6C27C138 EQ PUSH2 0x112A JUMPI DUP1 PUSH4 0x70A08231 EQ PUSH2 0x1093 JUMPI DUP1 PUSH4 0x715018A6 EQ PUSH2 0x1036 JUMPI DUP1 PUSH4 0x7DC379FA EQ PUSH2 0xD91 JUMPI DUP1 PUSH4 0x827826E0 EQ PUSH2 0xD44 JUMPI DUP1 PUSH4 0x83BB9E21 EQ PUSH2 0xC0D JUMPI DUP1 PUSH4 0x8456CB59 EQ PUSH2 0xBAB JUMPI DUP1 PUSH4 0x86FE2E0B EQ PUSH2 0x2D9 JUMPI DUP1 PUSH4 0x8DA5CB5B EQ PUSH2 0xB82 JUMPI DUP1 PUSH4 0x95D89B41 EQ PUSH2 0xAA3 JUMPI DUP1 PUSH4 0x966FB80D EQ PUSH2 0x53F JUMPI DUP1 PUSH4 0xA22CB465 EQ PUSH2 0x512 JUMPI DUP1 PUSH4 0xAB736D4F EQ PUSH2 0x4D3 JUMPI DUP1 PUSH4 0xB88D4FDE EQ PUSH2 0x44C JUMPI DUP1 PUSH4 0xC87B56DD EQ PUSH2 0x3DF JUMPI DUP1 PUSH4 0xCF2C0334 EQ PUSH2 0x387 JUMPI DUP1 PUSH4 0xE1D10D85 EQ PUSH2 0x35B JUMPI DUP1 PUSH4 0xE985E9C5 EQ PUSH2 0x305 JUMPI DUP1 PUSH4 0xEA8457BE EQ PUSH2 0x2D9 JUMPI DUP1 PUSH4 0xF2FDE38B EQ PUSH2 0x215 JUMPI PUSH4 0xF7E05D18 EQ PUSH2 0x1E2 JUMPI PUSH1 0x0 DUP1 REVERT JUMPDEST CALLVALUE PUSH2 0x210 JUMPI PUSH1 0x20 CALLDATASIZE PUSH1 0x3 NOT ADD SLT PUSH2 0x210 JUMPI PUSH1 0x4 CALLDATALOAD PUSH1 0x0 MSTORE PUSH1 0xE PUSH1 0x20 MSTORE PUSH1 0x20 PUSH1 0x40 PUSH1 0x0 KECCAK256 SLOAD ISZERO ISZERO PUSH1 0x40 MLOAD SWAP1 DUP2 MSTORE RETURN JUMPDEST PUSH1 0x0 DUP1 REVERT JUMPDEST CALLVALUE PUSH2 0x210 JUMPI PUSH1 0x20 CALLDATASIZE PUSH1 0x3 NOT ADD SLT PUSH2 0x210 JUMPI PUSH2 0x22E PUSH2 0x3082 JUMP JUMPDEST PUSH2 0x236 PUSH2 0x336B JUMP JUMPDEST PUSH1 0x1 PUSH1 0x1 PUSH1 0xA0 SHL SUB SWAP1 DUP2 AND SWAP1 DUP2 ISZERO PUSH2 0x285 JUMPI PUSH1 0x7 SLOAD DUP3 PUSH1 0x1 PUSH1 0x1 PUSH1 0x60 SHL SUB PUSH1 0xA0 SHL DUP3 AND OR PUSH1 0x7 SSTORE AND PUSH32 0x8BE0079C531659141344CD1FD0A4F28419497F9722A3DAAFE3B4186F6B6457E0 PUSH1 0x0 DUP1 LOG3 STOP JUMPDEST PUSH1 0x40 MLOAD PUSH3 0x461BCD PUSH1 0xE5 SHL DUP2 MSTORE PUSH1 0x20 PUSH1 0x4 DUP3 ADD MSTORE PUSH1 0x26 PUSH1 0x24 DUP3 ADD MSTORE PUSH32 0x4F776E61626C653A206E6577206F776E657220697320746865207A65726F2061 PUSH1 0x44 DUP3 ADD MSTORE PUSH6 0x646472657373 PUSH1 0xD0 SHL PUSH1 0x64 DUP3 ADD MSTORE PUSH1 0x84 SWAP1 REVERT JUMPDEST CALLVALUE PUSH2 0x210 JUMPI PUSH1 0x20 CALLDATASIZE PUSH1 0x3 NOT ADD SLT PUSH2 0x210 JUMPI PUSH1 0x4 CALLDATALOAD PUSH1 0x0 MSTORE PUSH1 0xE PUSH1 0x20 MSTORE PUSH1 0x20 PUSH1 0x40 PUSH1 0x0 KECCAK256 SLOAD PUSH1 0x40 MLOAD SWAP1 DUP2 MSTORE RETURN JUMPDEST CALLVALUE PUSH2 0x210 JUMPI PUSH1 0x40 CALLDATASIZE PUSH1 0x3 NOT ADD SLT PUSH2 0x210 JUMPI PUSH2 0x31E PUSH2 0x3082 JUMP JUMPDEST PUSH2 0x326 PUSH2 0x3098 JUMP JUMPDEST SWAP1 PUSH1 0x1 DUP1 PUSH1 0xA0 SHL SUB DUP1 SWAP2 AND PUSH1 0x0 MSTORE PUSH1 0x5 PUSH1 0x20 MSTORE PUSH1 0x40 PUSH1 0x0 KECCAK256 SWAP2 AND PUSH1 0x0 MSTORE PUSH1 0x20 MSTORE PUSH1 0x20 PUSH1 0xFF PUSH1 0x40 PUSH1 0x0 KECCAK256 SLOAD AND PUSH1 0x40 MLOAD SWAP1 ISZERO ISZERO DUP2 MSTORE RETURN JUMPDEST CALLVALUE PUSH2 0x210 JUMPI PUSH1 0x0 CALLDATASIZE PUSH1 0x3 NOT ADD SLT PUSH2 0x210 JUMPI PUSH2 0x383 PUSH2 0x377 PUSH2 0x3D8E JUMP JUMPDEST PUSH1 0x40 MLOAD SWAP2 DUP3 SWAP2 DUP3 PUSH2 0x3302 JUMP JUMPDEST SUB SWAP1 RETURN JUMPDEST CALLVALUE PUSH2 0x210 JUMPI PUSH1 0x40 CALLDATASIZE PUSH1 0x3 NOT ADD SLT PUSH2 0x210 JUMPI PUSH2 0x3A0 PUSH2 0x3082 JUMP JUMPDEST PUSH1 0x1 PUSH1 0x1 PUSH1 0xA0 SHL SUB AND PUSH1 0x0 SWAP1 DUP2 MSTORE PUSH1 0xC PUSH1 0x20 MSTORE PUSH1 0x40 SWAP1 KECCAK256 DUP1 SLOAD PUSH1 0x24 CALLDATALOAD SWAP2 SWAP1 DUP3 LT ISZERO PUSH2 0x210 JUMPI PUSH1 0x20 SWAP2 PUSH2 0x3D1 SWAP2 PUSH2 0x333D JUMP JUMPDEST SWAP1 SLOAD PUSH1 0x40 MLOAD SWAP2 PUSH1 0x3 SHL SHR DUP2 MSTORE RETURN JUMPDEST CALLVALUE PUSH2 0x210 JUMPI PUSH1 0x20 CALLDATASIZE PUSH1 0x3 NOT ADD SLT PUSH2 0x210 JUMPI PUSH1 0x4 CALLDATALOAD PUSH1 0x0 SWAP1 DUP2 MSTORE PUSH1 0x2 PUSH1 0x20 MSTORE PUSH1 0x40 SWAP1 KECCAK256 SLOAD PUSH2 0x416 SWAP1 PUSH1 0x1 PUSH1 0x1 PUSH1 0xA0 SHL SUB AND ISZERO ISZERO PUSH2 0x33C3 JUMP JUMPDEST PUSH1 0x0 PUSH1 0x40 MLOAD PUSH2 0x424 DUP2 PUSH2 0x3176 JUMP JUMPDEST MSTORE PUSH2 0x383 PUSH1 0x40 MLOAD PUSH2 0x434 DUP2 PUSH2 0x3176 JUMP JUMPDEST PUSH1 0x0 DUP2 MSTORE PUSH1 0x40 MLOAD SWAP2 DUP3 SWAP2 PUSH1 0x20 DUP4 MSTORE PUSH1 0x20 DUP4 ADD SWAP1 PUSH2 0x3100 JUMP JUMPDEST CALLVALUE PUSH2 0x210 JUMPI PUSH1 0x80 CALLDATASIZE PUSH1 0x3 NOT ADD SLT PUSH2 0x210 JUMPI PUSH2 0x465 PUSH2 0x3082 JUMP JUMPDEST PUSH2 0x46D PUSH2 0x3098 JUMP JUMPDEST SWAP1 PUSH1 0x64 CALLDATALOAD SWAP1 PUSH1 0x44 CALLDATALOAD PUSH1 0x1 PUSH1 0x1 PUSH1 0x40 SHL SUB DUP4 GT PUSH2 0x210 JUMPI CALLDATASIZE PUSH1 0x23 DUP5 ADD SLT ISZERO PUSH2 0x210 JUMPI PUSH2 0x4D1 SWAP4 PUSH2 0x4A9 PUSH2 0x4CC SWAP5 CALLDATASIZE SWAP1 PUSH1 0x24 DUP2 PUSH1 0x4 ADD CALLDATALOAD SWAP2 ADD PUSH2 0x31CD JUMP JUMPDEST SWAP3 PUSH2 0x4BC PUSH2 0x4B7 DUP5 CALLER PUSH2 0x3545 JUMP JUMPDEST PUSH2 0x3470 JUMP JUMPDEST PUSH2 0x4C7 DUP4 DUP4 DUP4 PUSH2 0x360D JUMP JUMPDEST PUSH2 0x38A4 JUMP JUMPDEST PUSH2 0x3525 JUMP JUMPDEST STOP JUMPDEST CALLVALUE PUSH2 0x210 JUMPI PUSH1 0x20 CALLDATASIZE PUSH1 0x3 NOT ADD SLT PUSH2 0x210 JUMPI PUSH1 0x1 PUSH1 0x1 PUSH1 0xA0 SHL SUB PUSH2 0x4F4 PUSH2 0x3082 JUMP JUMPDEST AND PUSH1 0x0 MSTORE PUSH1 0xF PUSH1 0x20 MSTORE PUSH1 0x20 PUSH1 0xFF PUSH1 0x40 PUSH1 0x0 KECCAK256 SLOAD AND PUSH1 0x40 MLOAD SWAP1 ISZERO ISZERO DUP2 MSTORE RETURN JUMPDEST CALLVALUE PUSH2 0x210 JUMPI PUSH2 0x520 CALLDATASIZE PUSH2 0x30AE JUMP JUMPDEST POP POP PUSH1 0x40 MLOAD PUSH3 0x461BCD PUSH1 0xE5 SHL DUP2 MSTORE DUP1 PUSH2 0x53B PUSH1 0x4 DUP3 ADD PUSH2 0x3E0A JUMP JUMPDEST SUB SWAP1 REVERT JUMPDEST CALLVALUE PUSH2 0x210 JUMPI PUSH2 0x54D CALLDATASIZE PUSH2 0x3125 JUMP JUMPDEST PUSH2 0x558 SWAP3 SWAP2 SWAP3 PUSH2 0x3987 JUMP JUMPDEST PUSH2 0x560 PUSH2 0x3B18 JUMP JUMPDEST PUSH1 0x1 PUSH1 0x1 PUSH1 0xA0 SHL SUB SWAP3 DUP1 DUP5 AND SWAP2 DUP3 ISZERO PUSH2 0xA5E JUMPI DUP1 PUSH1 0x0 MSTORE PUSH1 0x20 PUSH1 0x9 DUP2 MSTORE PUSH1 0x40 PUSH1 0x0 KECCAK256 SWAP5 PUSH2 0x58F DUP7 SLOAD ISZERO ISZERO PUSH2 0x39CE JUMP JUMPDEST PUSH1 0x9 DUP7 ADD SWAP4 DUP5 SLOAD PUSH1 0xFF DUP2 PUSH1 0xB8 SHR AND PUSH2 0xA08 JUMPI DUP9 PUSH1 0x7 SLOAD AND CALLER EQ DUP1 ISZERO PUSH2 0x9F9 JUMPI JUMPDEST ISZERO PUSH2 0x98E JUMPI PUSH1 0xFF DUP2 PUSH1 0xA8 SHR AND PUSH1 0x0 EQ PUSH2 0x936 JUMPI PUSH2 0x5CB DUP6 PUSH2 0x340F JUMP JUMPDEST DUP10 DUP1 DUP6 AND SWAP2 AND SUB PUSH2 0x8F1 JUMPI PUSH1 0xFF SWAP1 JUMPDEST PUSH1 0xB0 SHR AND PUSH2 0x8AC JUMPI DUP6 PUSH1 0x0 MSTORE PUSH1 0xA DUP4 MSTORE PUSH1 0x40 PUSH1 0x0 KECCAK256 SWAP5 PUSH1 0xFF PUSH2 0x601 PUSH1 0x1 DUP1 SWAP11 ADD SWAP8 DUP9 PUSH2 0x3A5E JUMP JUMPDEST SLOAD AND PUSH2 0x852 JUMPI DUP8 SWAP9 DUP4 AND SWAP6 DUP7 PUSH1 0x0 MSTORE PUSH1 0xD DUP6 MSTORE PUSH1 0x40 PUSH1 0x0 KECCAK256 DUP7 PUSH1 0x0 MSTORE DUP6 MSTORE PUSH1 0x40 PUSH1 0x0 KECCAK256 SWAP1 PUSH1 0xFF NOT SWAP2 DUP3 DUP2 SLOAD AND SWAP1 SSTORE DUP8 PUSH1 0x0 MSTORE PUSH1 0xC DUP7 MSTORE PUSH1 0x40 PUSH1 0x0 KECCAK256 DUP11 PUSH1 0x0 SWAP1 JUMPDEST PUSH2 0x739 JUMPI JUMPDEST POP POP SWAP1 DUP8 SWAP9 SWAP10 PUSH2 0x6DB DUP9 SWAP10 SWAP4 PUSH32 0x4419F53C76D7302F46AEC0C9D110B7A0C6806DCE4479A5F8F47102E93F6547D4 SWAP10 SWAP7 SWAP6 SWAP5 PUSH1 0x0 MSTORE PUSH1 0xA DUP10 MSTORE PUSH2 0x68C PUSH1 0x40 PUSH1 0x0 KECCAK256 DUP3 PUSH2 0x3A5E JUMP JUMPDEST DUP5 DUP2 SLOAD AND SWAP1 SSTORE DUP13 PUSH1 0x0 MSTORE PUSH1 0xD DUP10 MSTORE PUSH1 0x40 PUSH1 0x0 KECCAK256 DUP8 PUSH1 0x0 MSTORE DUP10 MSTORE PUSH1 0x40 PUSH1 0x0 KECCAK256 DUP4 DUP6 DUP3 SLOAD AND OR SWAP1 SSTORE DUP13 PUSH1 0x0 MSTORE PUSH1 0xC DUP10 MSTORE PUSH2 0x6C8 DUP8 PUSH1 0x40 PUSH1 0x0 KECCAK256 PUSH2 0x3AF0 JUMP JUMPDEST DUP13 PUSH1 0x0 MSTORE PUSH1 0xA DUP10 MSTORE PUSH1 0x40 PUSH1 0x0 KECCAK256 SWAP1 PUSH2 0x3A5E JUMP JUMPDEST DUP1 SLOAD SWAP1 SWAP3 AND OR SWAP1 SSTORE DUP1 SLOAD PUSH1 0x1 PUSH4 0xFF00FF01 PUSH1 0xA0 SHL SUB NOT AND DUP10 OR PUSH1 0x1 PUSH1 0xB8 SHL OR SWAP1 SSTORE PUSH1 0x0 DUP3 DUP2 MSTORE PUSH1 0x2 PUSH1 0x20 MSTORE PUSH1 0x40 SWAP1 KECCAK256 SLOAD PUSH1 0x1 PUSH1 0x1 PUSH1 0xA0 SHL SUB AND PUSH2 0x728 JUMPI JUMPDEST POP POP POP PUSH1 0x40 MLOAD CALLER DUP2 MSTORE LOG4 PUSH1 0x6 SSTORE STOP JUMPDEST PUSH2 0x731 SWAP3 PUSH2 0x360D JUMP JUMPDEST DUP7 DUP4 DUP2 PUSH2 0x719 JUMP JUMPDEST DUP2 SLOAD DUP1 DUP3 LT ISZERO PUSH2 0x84C JUMPI DUP10 SWAP1 PUSH2 0x74F DUP4 DUP6 PUSH2 0x333D JUMP JUMPDEST SWAP3 SWAP1 SLOAD PUSH1 0x3 SWAP4 DUP5 SHL SHR EQ PUSH2 0x773 JUMPI POP POP SWAP1 PUSH2 0x76B DUP13 SWAP4 SWAP3 PUSH2 0x3BF8 JUMP JUMPDEST SWAP1 SWAP2 SWAP3 PUSH2 0x641 JUMP JUMPDEST SWAP1 SWAP10 SWAP11 SWAP12 SWAP13 POP PUSH1 0x0 SWAP7 SWAP6 SWAP5 SWAP4 SWAP2 SWAP3 SWAP7 NOT SWAP3 DUP4 DUP3 ADD SWAP2 DUP3 GT PUSH2 0x836 JUMPI PUSH2 0x7AB PUSH2 0x79E PUSH2 0x7C4 SWAP4 DUP11 PUSH2 0x333D JUMP JUMPDEST SWAP1 SLOAD SWAP1 DUP14 SHL SHR SWAP2 DUP10 PUSH2 0x333D JUMP JUMPDEST SWAP1 SWAP2 SWAP1 DUP3 SLOAD SWAP1 PUSH1 0x3 SHL SWAP2 DUP3 SHL SWAP2 PUSH1 0x0 NOT SWAP1 SHL NOT AND OR SWAP1 SSTORE JUMP JUMPDEST DUP6 SLOAD SWAP1 DUP2 ISZERO PUSH2 0x820 JUMPI PUSH32 0x4419F53C76D7302F46AEC0C9D110B7A0C6806DCE4479A5F8F47102E93F6547D4 SWAP10 DUP12 SWAP8 DUP16 SWAP5 DUP1 PUSH2 0x6DB SWAP6 ADD SWAP3 PUSH2 0x804 DUP5 DUP5 PUSH2 0x333D JUMP JUMPDEST DUP2 SWAP4 SWAP2 SLOAD SWAP3 SHL SHL NOT AND SWAP1 SSTORE SSTORE SWAP3 SWAP4 SWAP5 SWAP6 POP DUP2 SWAP12 SWAP11 SWAP10 SWAP9 POP PUSH2 0x646 JUMP JUMPDEST PUSH4 0x4E487B71 PUSH1 0xE0 SHL PUSH1 0x0 MSTORE PUSH1 0x31 PUSH1 0x4 MSTORE PUSH1 0x24 PUSH1 0x0 REVERT JUMPDEST PUSH4 0x4E487B71 PUSH1 0xE0 SHL PUSH1 0x0 MSTORE PUSH1 0x11 PUSH1 0x4 MSTORE PUSH1 0x24 PUSH1 0x0 REVERT JUMPDEST POP PUSH2 0x646 JUMP JUMPDEST PUSH1 0x40 MLOAD PUSH3 0x461BCD PUSH1 0xE5 SHL DUP2 MSTORE PUSH1 0x4 DUP2 ADD DUP6 SWAP1 MSTORE PUSH1 0x2C PUSH1 0x24 DUP3 ADD MSTORE PUSH32 0x526563656976657220616C7265616479206861732061207469636B657420666F PUSH1 0x44 DUP3 ADD MSTORE PUSH12 0x1C881D1A1A5CC8195D995B9D PUSH1 0xA2 SHL PUSH1 0x64 DUP3 ADD MSTORE PUSH1 0x84 SWAP1 REVERT JUMPDEST PUSH1 0x40 MLOAD PUSH3 0x461BCD PUSH1 0xE5 SHL DUP2 MSTORE PUSH1 0x4 DUP2 ADD DUP5 SWAP1 MSTORE PUSH1 0x1F PUSH1 0x24 DUP3 ADD MSTORE PUSH32 0x43616E6E6F74207472616E7366657220726566756E646564207469636B657400 PUSH1 0x44 DUP3 ADD MSTORE PUSH1 0x64 SWAP1 REVERT JUMPDEST PUSH1 0x40 MLOAD PUSH3 0x461BCD PUSH1 0xE5 SHL DUP2 MSTORE PUSH1 0x4 DUP2 ADD DUP6 SWAP1 MSTORE PUSH1 0x1A PUSH1 0x24 DUP3 ADD MSTORE PUSH32 0x53656E646572206973206E6F74207469636B6574206F776E6572000000000000 PUSH1 0x44 DUP3 ADD MSTORE PUSH1 0x64 SWAP1 REVERT JUMPDEST DUP9 DUP4 AND DUP10 DUP3 AND SUB PUSH2 0x949 JUMPI PUSH1 0xFF SWAP1 PUSH2 0x5DA JUMP JUMPDEST PUSH1 0x40 MLOAD PUSH3 0x461BCD PUSH1 0xE5 SHL DUP2 MSTORE PUSH1 0x4 DUP2 ADD DUP6 SWAP1 MSTORE PUSH1 0x1A PUSH1 0x24 DUP3 ADD MSTORE PUSH32 0x53656E646572206973206E6F74207469636B6574206275796572000000000000 PUSH1 0x44 DUP3 ADD MSTORE PUSH1 0x64 SWAP1 REVERT JUMPDEST PUSH1 0x40 MLOAD PUSH3 0x461BCD PUSH1 0xE5 SHL DUP2 MSTORE PUSH1 0x4 DUP2 ADD DUP6 SWAP1 MSTORE PUSH1 0x3D PUSH1 0x24 DUP3 ADD MSTORE PUSH32 0x4E6F7420617574686F72697A65643A204F6E6C79204F7267616E697A6572206F PUSH1 0x44 DUP3 ADD MSTORE PUSH32 0x7220436F6E7472616374204F776E65722063616E207472616E73666572000000 PUSH1 0x64 DUP3 ADD MSTORE PUSH1 0x84 SWAP1 REVERT JUMPDEST POP DUP9 PUSH1 0x8 DUP10 ADD SLOAD AND CALLER EQ PUSH2 0x5AF JUMP JUMPDEST PUSH1 0x40 MLOAD PUSH3 0x461BCD PUSH1 0xE5 SHL DUP2 MSTORE PUSH1 0x4 DUP2 ADD DUP6 SWAP1 MSTORE PUSH1 0x28 PUSH1 0x24 DUP3 ADD MSTORE PUSH32 0x5469636B65742068617320616C7265616479206265656E207472616E73666572 PUSH1 0x44 DUP3 ADD MSTORE PUSH8 0x726564206F6E6365 PUSH1 0xC0 SHL PUSH1 0x64 DUP3 ADD MSTORE PUSH1 0x84 SWAP1 REVERT JUMPDEST PUSH1 0x40 MLOAD PUSH3 0x461BCD PUSH1 0xE5 SHL DUP2 MSTORE PUSH1 0x20 PUSH1 0x4 DUP3 ADD MSTORE PUSH1 0x1F PUSH1 0x24 DUP3 ADD MSTORE PUSH32 0x43616E6E6F74207472616E7366657220746F207A65726F206164647265737300 PUSH1 0x44 DUP3 ADD MSTORE PUSH1 0x64 SWAP1 REVERT JUMPDEST CALLVALUE PUSH2 0x210 JUMPI PUSH1 0x0 CALLDATASIZE PUSH1 0x3 NOT ADD SLT PUSH2 0x210 JUMPI PUSH1 0x40 MLOAD PUSH1 0x0 PUSH1 0x1 DUP1 SLOAD SWAP1 PUSH2 0xAC7 DUP3 PUSH2 0x3222 JUMP JUMPDEST DUP1 DUP6 MSTORE SWAP2 DUP2 DUP2 AND SWAP1 DUP2 ISZERO PUSH2 0xB5B JUMPI POP PUSH1 0x1 EQ PUSH2 0xB02 JUMPI JUMPDEST PUSH2 0x383 DUP5 PUSH2 0xAEE DUP2 DUP7 SUB DUP3 PUSH2 0x3191 JUMP JUMPDEST PUSH1 0x40 MLOAD SWAP2 DUP3 SWAP2 PUSH1 0x20 DUP4 MSTORE PUSH1 0x20 DUP4 ADD SWAP1 PUSH2 0x3100 JUMP JUMPDEST PUSH1 0x0 DUP2 DUP2 MSTORE SWAP3 POP PUSH32 0xB10E2D527612073B26EECDFD717E6A320CF44B4AFAC2B0732D9FCBE2B7FA0CF6 JUMPDEST DUP3 DUP5 LT PUSH2 0xB43 JUMPI POP POP POP DUP2 ADD PUSH1 0x20 ADD PUSH2 0xAEE DUP3 PUSH2 0xADE JUMP JUMPDEST DUP1 SLOAD PUSH1 0x20 DUP6 DUP8 ADD DUP2 ADD SWAP2 SWAP1 SWAP2 MSTORE SWAP1 SWAP4 ADD SWAP3 DUP2 ADD PUSH2 0xB2B JUMP JUMPDEST PUSH1 0xFF NOT AND PUSH1 0x20 DUP1 DUP8 ADD SWAP2 SWAP1 SWAP2 MSTORE SWAP3 ISZERO ISZERO PUSH1 0x5 SHL DUP6 ADD SWAP1 SWAP3 ADD SWAP3 POP PUSH2 0xAEE SWAP2 POP DUP4 SWAP1 POP PUSH2 0xADE JUMP JUMPDEST CALLVALUE PUSH2 0x210 JUMPI PUSH1 0x0 CALLDATASIZE PUSH1 0x3 NOT ADD SLT PUSH2 0x210 JUMPI PUSH1 0x7 SLOAD PUSH1 0x40 MLOAD PUSH1 0x1 PUSH1 0x1 PUSH1 0xA0 SHL SUB SWAP1 SWAP2 AND DUP2 MSTORE PUSH1 0x20 SWAP1 RETURN JUMPDEST CALLVALUE PUSH2 0x210 JUMPI PUSH1 0x0 CALLDATASIZE PUSH1 0x3 NOT ADD SLT PUSH2 0x210 JUMPI PUSH2 0xBC4 PUSH2 0x336B JUMP JUMPDEST PUSH2 0xBCC PUSH2 0x3987 JUMP JUMPDEST PUSH1 0x7 DUP1 SLOAD PUSH1 0xFF PUSH1 0xA0 SHL NOT AND PUSH1 0x1 PUSH1 0xA0 SHL OR SWAP1 SSTORE PUSH1 0x40 MLOAD CALLER DUP2 MSTORE PUSH32 0x62E78CEA01BEE320CD4E420270B5EA74000D11B0C9F74754EBDBFC544B05A258 SWAP1 PUSH1 0x20 SWAP1 LOG1 STOP JUMPDEST CALLVALUE PUSH2 0x210 JUMPI PUSH1 0x0 CALLDATASIZE PUSH1 0x3 NOT ADD SLT PUSH2 0x210 JUMPI PUSH2 0xC26 PUSH2 0x3987 JUMP JUMPDEST PUSH2 0xC2E PUSH2 0x3B18 JUMP JUMPDEST PUSH1 0x8 SLOAD PUSH1 0x1 SWAP1 DUP2 JUMPDEST DUP2 DUP2 GT ISZERO PUSH2 0xC45 JUMPI PUSH1 0x6 DUP4 SWAP1 SSTORE STOP JUMPDEST DUP1 PUSH2 0xC7F SWAP2 PUSH1 0x0 MSTORE PUSH1 0x9 DUP2 PUSH1 0x20 DUP3 DUP2 MSTORE PUSH1 0x40 PUSH1 0x0 KECCAK256 SWAP3 DUP4 SLOAD ISZERO ISZERO DUP1 PUSH2 0xD33 JUMPI JUMPDEST DUP1 PUSH2 0xD22 JUMPI JUMPDEST DUP1 PUSH2 0xD15 JUMPI JUMPDEST PUSH2 0xC84 JUMPI JUMPDEST POP POP POP POP PUSH2 0x3BF8 JUMP JUMPDEST PUSH2 0xC36 JUMP JUMPDEST DUP4 ADD SWAP1 DUP2 SLOAD SWAP2 PUSH1 0xFF DUP4 PUSH1 0xA0 SHR AND PUSH2 0xC9C JUMPI JUMPDEST POP PUSH2 0xC76 JUMP JUMPDEST PUSH1 0xFF PUSH1 0xB0 SHL NOT DUP4 AND PUSH1 0x1 PUSH1 0xB0 SHL OR DUP2 SSTORE PUSH1 0x1 PUSH1 0x1 PUSH1 0xA0 SHL SUB SWAP3 DUP4 AND PUSH1 0x0 SWAP1 DUP2 MSTORE PUSH1 0xA DUP4 MSTORE PUSH1 0x40 SWAP1 KECCAK256 PUSH32 0x8C8FD3DA31954F4657D981E2A89EA3421EF5D7BFA0998012EAFF5F24A61A867A SWAP4 PUSH1 0x5 SWAP3 SWAP1 SWAP2 PUSH2 0xCF7 SWAP1 DUP9 DUP14 ADD PUSH2 0x3A5E JUMP JUMPDEST PUSH1 0xFF NOT DUP2 SLOAD AND SWAP1 SSTORE SLOAD AND SWAP5 ADD SLOAD PUSH1 0x40 MLOAD SWAP1 DUP2 MSTORE LOG3 DUP5 DUP2 DUP2 DUP1 DUP1 PUSH2 0xC96 JUMP JUMPDEST POP PUSH1 0x4 DUP5 ADD SLOAD TIMESTAMP GT PUSH2 0xC71 JUMP JUMPDEST POP PUSH1 0xFF DUP2 DUP6 ADD SLOAD PUSH1 0xA8 SHR AND ISZERO PUSH2 0xC6B JUMP JUMPDEST POP PUSH1 0xFF DUP2 DUP6 ADD SLOAD PUSH1 0xB0 SHR AND ISZERO PUSH2 0xC65 JUMP JUMPDEST CALLVALUE PUSH2 0x210 JUMPI PUSH1 0x40 CALLDATASIZE PUSH1 0x3 NOT ADD SLT PUSH2 0x210 JUMPI PUSH1 0x1 PUSH1 0x1 PUSH1 0xA0 SHL SUB PUSH2 0xD65 PUSH2 0x3082 JUMP JUMPDEST AND PUSH1 0x0 MSTORE PUSH1 0xD PUSH1 0x20 MSTORE PUSH1 0x40 PUSH1 0x0 KECCAK256 PUSH1 0x24 CALLDATALOAD PUSH1 0x0 MSTORE PUSH1 0x20 MSTORE PUSH1 0x20 PUSH1 0xFF PUSH1 0x40 PUSH1 0x0 KECCAK256 SLOAD AND PUSH1 0x40 MLOAD SWAP1 ISZERO ISZERO DUP2 MSTORE RETURN JUMPDEST CALLVALUE PUSH2 0x210 JUMPI PUSH1 0x20 CALLDATASIZE PUSH1 0x3 NOT ADD SLT PUSH2 0x210 JUMPI PUSH1 0x0 PUSH2 0x1E0 PUSH1 0x40 MLOAD PUSH2 0xDB3 DUP2 PUSH2 0x315A JUMP JUMPDEST DUP3 DUP2 MSTORE PUSH1 0x60 PUSH1 0x20 DUP3 ADD MSTORE PUSH1 0x60 PUSH1 0x40 DUP3 ADD MSTORE DUP3 PUSH1 0x60 DUP3 ADD MSTORE DUP3 PUSH1 0x80 DUP3 ADD MSTORE DUP3 PUSH1 0xA0 DUP3 ADD MSTORE PUSH1 0x60 PUSH1 0xC0 DUP3 ADD MSTORE PUSH1 0x60 PUSH1 0xE0 DUP3 ADD MSTORE DUP3 PUSH2 0x100 DUP3 ADD MSTORE DUP3 PUSH2 0x120 DUP3 ADD MSTORE DUP3 PUSH2 0x140 DUP3 ADD MSTORE DUP3 PUSH2 0x160 DUP3 ADD MSTORE DUP3 PUSH2 0x180 DUP3 ADD MSTORE DUP3 PUSH2 0x1A0 DUP3 ADD MSTORE DUP3 PUSH2 0x1C0 DUP3 ADD MSTORE ADD MSTORE PUSH1 0x4 CALLDATALOAD DUP1 PUSH1 0x0 MSTORE PUSH1 0x9 PUSH1 0x20 MSTORE PUSH2 0xE33 PUSH1 0x40 PUSH1 0x0 KECCAK256 SLOAD ISZERO ISZERO PUSH2 0x39CE JUMP JUMPDEST PUSH1 0x0 MSTORE PUSH1 0x9 PUSH1 0x20 MSTORE PUSH1 0x40 PUSH1 0x0 KECCAK256 PUSH1 0xB PUSH1 0x40 MLOAD SWAP2 PUSH2 0xE4F DUP4 PUSH2 0x315A JUMP JUMPDEST DUP1 SLOAD DUP4 MSTORE PUSH2 0xE5F PUSH1 0x1 DUP3 ADD PUSH2 0x325C JUMP JUMPDEST PUSH1 0x20 DUP5 ADD MSTORE PUSH2 0xE70 PUSH1 0x2 DUP3 ADD PUSH2 0x325C JUMP JUMPDEST PUSH1 0x40 DUP5 ADD MSTORE PUSH1 0x3 DUP2 ADD SLOAD PUSH1 0x60 DUP5 ADD MSTORE PUSH1 0x4 DUP2 ADD SLOAD PUSH1 0x80 DUP5 ADD MSTORE PUSH1 0x5 DUP2 ADD SLOAD PUSH1 0xA0 DUP5 ADD MSTORE PUSH2 0xE9F PUSH1 0x6 DUP3 ADD PUSH2 0x325C JUMP JUMPDEST PUSH1 0xC0 DUP5 ADD MSTORE PUSH2 0xEB0 PUSH1 0x7 DUP3 ADD PUSH2 0x325C JUMP JUMPDEST PUSH1 0xE0 DUP5 ADD MSTORE PUSH1 0x1 DUP1 PUSH1 0xA0 SHL SUB PUSH1 0x8 DUP3 ADD SLOAD AND PUSH2 0x100 DUP5 ADD MSTORE PUSH1 0xFF PUSH1 0x9 DUP3 ADD SLOAD PUSH1 0x1 DUP1 PUSH1 0xA0 SHL SUB DUP2 AND PUSH2 0x120 DUP7 ADD MSTORE DUP2 DUP2 PUSH1 0xA0 SHR AND ISZERO ISZERO PUSH2 0x140 DUP7 ADD MSTORE DUP2 DUP2 PUSH1 0xA8 SHR AND ISZERO ISZERO PUSH2 0x160 DUP7 ADD MSTORE DUP2 DUP2 PUSH1 0xB0 SHR AND ISZERO ISZERO PUSH2 0x180 DUP7 ADD MSTORE PUSH1 0xB8 SHR AND ISZERO ISZERO PUSH2 0x1A0 DUP5 ADD MSTORE PUSH1 0xA DUP2 ADD SLOAD PUSH2 0x1C0 DUP5 ADD MSTORE ADD SLOAD PUSH2 0x1E0 DUP3 ADD MSTORE PUSH1 0x40 MLOAD DUP1 SWAP2 PUSH1 0x20 DUP3 MSTORE DUP1 MLOAD PUSH1 0x20 DUP4 ADD MSTORE PUSH2 0x1E0 PUSH2 0xFBF PUSH2 0xF58 PUSH1 0x20 DUP5 ADD MLOAD PUSH2 0x200 PUSH1 0x40 DUP8 ADD MSTORE PUSH2 0x220 DUP7 ADD SWAP1 PUSH2 0x3100 JUMP JUMPDEST PUSH2 0xFA9 PUSH2 0xF77 PUSH1 0x40 DUP7 ADD MLOAD SWAP3 PUSH1 0x1F NOT SWAP4 DUP5 DUP10 DUP4 SUB ADD PUSH1 0x60 DUP11 ADD MSTORE PUSH2 0x3100 JUMP JUMPDEST PUSH1 0x60 DUP7 ADD MLOAD PUSH1 0x80 DUP9 ADD MSTORE PUSH1 0x80 DUP7 ADD MLOAD PUSH1 0xA0 DUP9 ADD MSTORE PUSH1 0xA0 DUP7 ADD MLOAD PUSH1 0xC0 DUP9 ADD MSTORE PUSH1 0xC0 DUP7 ADD MLOAD DUP4 DUP9 DUP4 SUB ADD PUSH1 0xE0 DUP10 ADD MSTORE PUSH2 0x3100 JUMP JUMPDEST SWAP1 PUSH1 0xE0 DUP6 ADD MLOAD SWAP1 DUP7 DUP4 SUB ADD PUSH2 0x100 DUP8 ADD MSTORE PUSH2 0x3100 JUMP JUMPDEST SWAP2 PUSH1 0x1 DUP1 PUSH1 0xA0 SHL SUB PUSH2 0x100 DUP3 ADD MLOAD AND PUSH2 0x120 DUP6 ADD MSTORE PUSH1 0x1 DUP1 PUSH1 0xA0 SHL SUB PUSH2 0x120 DUP3 ADD MLOAD AND PUSH2 0x140 DUP6 ADD MSTORE PUSH2 0x140 DUP2 ADD MLOAD ISZERO ISZERO PUSH2 0x160 DUP6 ADD MSTORE PUSH2 0x160 DUP2 ADD MLOAD ISZERO ISZERO PUSH2 0x180 DUP6 ADD MSTORE PUSH2 0x180 DUP2 ADD MLOAD ISZERO ISZERO PUSH2 0x1A0 DUP6 ADD MSTORE PUSH2 0x1A0 DUP2 ADD MLOAD ISZERO ISZERO PUSH2 0x1C0 DUP6 ADD MSTORE PUSH2 0x1C0 DUP2 ADD MLOAD DUP3 DUP6 ADD MSTORE ADD MLOAD PUSH2 0x200 DUP4 ADD MSTORE SUB SWAP1 RETURN JUMPDEST CALLVALUE PUSH2 0x210 JUMPI PUSH1 0x0 CALLDATASIZE PUSH1 0x3 NOT ADD SLT PUSH2 0x210 JUMPI PUSH2 0x104F PUSH2 0x336B JUMP JUMPDEST PUSH1 0x7 DUP1 SLOAD PUSH1 0x1 PUSH1 0x1 PUSH1 0xA0 SHL SUB NOT DUP2 AND SWAP1 SWAP2 SSTORE PUSH1 0x0 SWAP1 PUSH1 0x1 PUSH1 0x1 PUSH1 0xA0 SHL SUB AND PUSH32 0x8BE0079C531659141344CD1FD0A4F28419497F9722A3DAAFE3B4186F6B6457E0 DUP3 DUP1 LOG3 STOP JUMPDEST CALLVALUE PUSH2 0x210 JUMPI PUSH1 0x20 CALLDATASIZE PUSH1 0x3 NOT ADD SLT PUSH2 0x210 JUMPI PUSH1 0x1 PUSH1 0x1 PUSH1 0xA0 SHL SUB PUSH2 0x10B4 PUSH2 0x3082 JUMP JUMPDEST AND DUP1 ISZERO PUSH2 0x10D3 JUMPI PUSH1 0x0 MSTORE PUSH1 0x3 PUSH1 0x20 MSTORE PUSH1 0x20 PUSH1 0x40 PUSH1 0x0 KECCAK256 SLOAD PUSH1 0x40 MLOAD SWAP1 DUP2 MSTORE RETURN JUMPDEST PUSH1 0x40 MLOAD PUSH3 0x461BCD PUSH1 0xE5 SHL DUP2 MSTORE PUSH1 0x20 PUSH1 0x4 DUP3 ADD MSTORE PUSH1 0x29 PUSH1 0x24 DUP3 ADD MSTORE PUSH32 0x4552433732313A2061646472657373207A65726F206973206E6F742061207661 PUSH1 0x44 DUP3 ADD MSTORE PUSH9 0x3634B21037BBB732B9 PUSH1 0xB9 SHL PUSH1 0x64 DUP3 ADD MSTORE PUSH1 0x84 SWAP1 REVERT JUMPDEST CALLVALUE PUSH2 0x210 JUMPI PUSH1 0x20 DUP1 PUSH1 0x3 NOT CALLDATASIZE ADD SLT PUSH2 0x210 JUMPI PUSH1 0x4 CALLDATALOAD PUSH2 0x1147 PUSH2 0x3987 JUMP JUMPDEST CALLER PUSH1 0x0 MSTORE PUSH1 0xF DUP3 MSTORE PUSH1 0xFF PUSH1 0x40 PUSH1 0x0 KECCAK256 SLOAD AND ISZERO PUSH2 0x1234 JUMPI DUP1 PUSH1 0x0 MSTORE PUSH1 0x9 DUP3 MSTORE PUSH1 0x9 PUSH1 0x40 PUSH1 0x0 KECCAK256 PUSH2 0x1178 DUP2 SLOAD ISZERO ISZERO PUSH2 0x39CE JUMP JUMPDEST ADD PUSH2 0x1198 PUSH1 0xFF DUP3 SLOAD PUSH2 0x118E DUP3 DUP3 PUSH1 0xA0 SHR AND PUSH2 0x3B6E JUMP JUMPDEST PUSH1 0xB0 SHR AND ISZERO PUSH2 0x3A12 JUMP JUMPDEST DUP2 PUSH1 0x0 MSTORE PUSH1 0xE DUP4 MSTORE PUSH1 0x40 PUSH1 0x0 KECCAK256 SLOAD PUSH2 0x11EF JUMPI PUSH32 0x4F9C6210874B14266EA0F64418A0F7403A875226EAE9483F5D9CD7663234DB9A SWAP1 DUP3 PUSH1 0x0 MSTORE PUSH1 0xE DUP5 MSTORE TIMESTAMP PUSH1 0x40 PUSH1 0x0 KECCAK256 SSTORE PUSH1 0x1 DUP1 PUSH1 0xA0 SHL SUB SWAP1 SLOAD AND SWAP3 PUSH1 0x40 MLOAD TIMESTAMP DUP2 MSTORE LOG3 STOP JUMPDEST PUSH1 0x40 MLOAD PUSH3 0x461BCD PUSH1 0xE5 SHL DUP2 MSTORE PUSH1 0x4 DUP2 ADD DUP5 SWAP1 MSTORE PUSH1 0x1D PUSH1 0x24 DUP3 ADD MSTORE PUSH32 0x5469636B657420616C7265616479207573656420666F7220656E747279000000 PUSH1 0x44 DUP3 ADD MSTORE PUSH1 0x64 SWAP1 REVERT JUMPDEST PUSH1 0x40 MLOAD PUSH3 0x461BCD PUSH1 0xE5 SHL DUP2 MSTORE PUSH1 0x4 DUP2 ADD DUP4 SWAP1 MSTORE PUSH1 0x1F PUSH1 0x24 DUP3 ADD MSTORE PUSH32 0x4F6E6C7920676174656B6565706572732063616E206D61726B20656E74727900 PUSH1 0x44 DUP3 ADD MSTORE PUSH1 0x64 SWAP1 REVERT JUMPDEST PUSH1 0x20 CALLDATASIZE PUSH1 0x3 NOT ADD SLT PUSH2 0x210 JUMPI PUSH2 0x128D PUSH2 0x3987 JUMP JUMPDEST PUSH2 0x1295 PUSH2 0x3B18 JUMP JUMPDEST PUSH1 0x4 CALLDATALOAD PUSH1 0x0 MSTORE PUSH1 0x9 PUSH1 0x20 MSTORE PUSH1 0x40 PUSH1 0x0 KECCAK256 PUSH2 0x12B1 DUP2 SLOAD ISZERO ISZERO PUSH2 0x39CE JUMP JUMPDEST PUSH2 0x12C5 PUSH1 0xFF PUSH1 0x9 DUP4 ADD SLOAD PUSH1 0xB0 SHR AND ISZERO PUSH2 0x3A12 JUMP JUMPDEST PUSH1 0x4 DUP2 ADD SLOAD TIMESTAMP GT PUSH2 0x1B56 JUMPI PUSH1 0x5 DUP2 ADD SLOAD CALLVALUE SUB PUSH2 0x1B11 JUMPI PUSH1 0xB DUP2 ADD SLOAD ISZERO PUSH2 0x1AD5 JUMPI CALLER PUSH1 0x0 MSTORE PUSH1 0xA PUSH1 0x20 MSTORE PUSH1 0xFF PUSH2 0x1301 PUSH1 0x40 PUSH1 0x0 KECCAK256 PUSH1 0x1 DUP5 ADD PUSH2 0x3A5E JUMP JUMPDEST SLOAD AND PUSH2 0x1A7F JUMPI PUSH1 0x0 DUP1 DUP1 DUP1 PUSH1 0x1 DUP1 PUSH1 0xA0 SHL SUB PUSH1 0x8 DUP7 ADD SLOAD AND DUP2 SWAP1 CALLVALUE ISZERO PUSH2 0x1A75 JUMPI JUMPDEST CALLVALUE SWAP2 CALL ISZERO PUSH2 0x1A69 JUMPI PUSH1 0x1 PUSH1 0x8 SLOAD ADD SWAP1 DUP2 PUSH1 0x8 SSTORE PUSH1 0x3 DUP2 ADD SLOAD PUSH1 0x4 DUP3 ADD SLOAD PUSH1 0x5 DUP4 ADD SLOAD PUSH1 0x1 DUP1 PUSH1 0xA0 SHL SUB PUSH1 0x8 DUP6 ADD SLOAD AND SWAP2 PUSH1 0x40 MLOAD SWAP4 PUSH2 0x135F DUP6 PUSH2 0x315A JUMP JUMPDEST DUP7 DUP6 MSTORE PUSH2 0x136E PUSH1 0x1 DUP8 ADD PUSH2 0x325C JUMP JUMPDEST PUSH1 0x20 DUP7 ADD MSTORE PUSH2 0x137F PUSH1 0x2 DUP8 ADD PUSH2 0x325C JUMP JUMPDEST PUSH1 0x40 DUP7 ADD MSTORE PUSH1 0x60 DUP6 ADD MSTORE PUSH1 0x80 DUP5 ADD MSTORE PUSH1 0xA0 DUP4 ADD MSTORE PUSH2 0x139F PUSH1 0x6 DUP5 ADD PUSH2 0x325C JUMP JUMPDEST PUSH1 0xC0 DUP4 ADD MSTORE PUSH2 0x13B0 PUSH1 0x7 DUP5 ADD PUSH2 0x325C JUMP JUMPDEST PUSH1 0xE0 DUP4 ADD MSTORE PUSH2 0x100 DUP3 ADD MSTORE CALLER PUSH2 0x120 DUP3 ADD MSTORE PUSH1 0x1 PUSH2 0x140 DUP3 ADD MSTORE PUSH1 0x0 PUSH2 0x160 DUP3 ADD MSTORE PUSH1 0x0 PUSH2 0x180 DUP3 ADD MSTORE PUSH1 0x0 PUSH2 0x1A0 DUP3 ADD MSTORE PUSH1 0x1 PUSH2 0x1C0 DUP3 ADD MSTORE PUSH1 0x0 PUSH2 0x1E0 DUP3 ADD MSTORE DUP3 PUSH1 0x0 MSTORE PUSH1 0x9 PUSH1 0x20 MSTORE PUSH1 0x40 PUSH1 0x0 KECCAK256 SWAP1 DUP1 MLOAD DUP3 SSTORE PUSH1 0x20 DUP2 ADD MLOAD DUP1 MLOAD SWAP1 PUSH1 0x1 PUSH1 0x1 PUSH1 0x40 SHL SUB DUP3 GT PUSH2 0x17E3 JUMPI DUP2 SWAP1 PUSH2 0x142A PUSH1 0x1 DUP7 ADD SLOAD PUSH2 0x3222 JUMP JUMPDEST PUSH1 0x1F DUP2 GT PUSH2 0x1A16 JUMPI JUMPDEST POP PUSH1 0x20 SWAP1 PUSH1 0x1F DUP4 GT PUSH1 0x1 EQ PUSH2 0x19A4 JUMPI PUSH1 0x0 SWAP3 PUSH2 0x1999 JUMPI JUMPDEST POP POP DUP2 PUSH1 0x1 SHL SWAP2 PUSH1 0x0 NOT SWAP1 PUSH1 0x3 SHL SHR NOT AND OR PUSH1 0x1 DUP4 ADD SSTORE JUMPDEST PUSH1 0x40 DUP2 ADD MLOAD DUP1 MLOAD SWAP1 PUSH1 0x1 PUSH1 0x1 PUSH1 0x40 SHL SUB DUP3 GT PUSH2 0x17E3 JUMPI DUP2 SWAP1 PUSH2 0x1487 PUSH1 0x2 DUP7 ADD SLOAD PUSH2 0x3222 JUMP JUMPDEST PUSH1 0x1F DUP2 GT PUSH2 0x1946 JUMPI JUMPDEST POP PUSH1 0x20 SWAP1 PUSH1 0x1F DUP4 GT PUSH1 0x1 EQ PUSH2 0x18D4 JUMPI PUSH1 0x0 SWAP3 PUSH2 0x18C9 JUMPI JUMPDEST POP POP DUP2 PUSH1 0x1 SHL SWAP2 PUSH1 0x0 NOT SWAP1 PUSH1 0x3 SHL SHR NOT AND OR PUSH1 0x2 DUP4 ADD SSTORE JUMPDEST PUSH1 0x60 DUP2 ADD MLOAD PUSH1 0x3 DUP4 ADD SSTORE PUSH1 0x80 DUP2 ADD MLOAD PUSH1 0x4 DUP4 ADD SSTORE PUSH1 0xA0 DUP2 ADD MLOAD PUSH1 0x5 DUP4 ADD SSTORE PUSH1 0xC0 DUP2 ADD MLOAD DUP1 MLOAD SWAP1 PUSH1 0x1 PUSH1 0x1 PUSH1 0x40 SHL SUB DUP3 GT PUSH2 0x17E3 JUMPI DUP2 SWAP1 PUSH2 0x1502 PUSH1 0x6 DUP7 ADD SLOAD PUSH2 0x3222 JUMP JUMPDEST PUSH1 0x1F DUP2 GT PUSH2 0x1876 JUMPI JUMPDEST POP PUSH1 0x20 SWAP1 PUSH1 0x1F DUP4 GT PUSH1 0x1 EQ PUSH2 0x1804 JUMPI PUSH1 0x0 SWAP3 PUSH2 0x17F9 JUMPI JUMPDEST POP POP DUP2 PUSH1 0x1 SHL SWAP2 PUSH1 0x0 NOT SWAP1 PUSH1 0x3 SHL SHR NOT AND OR PUSH1 0x6 DUP4 ADD SSTORE JUMPDEST PUSH1 0xE0 DUP2 ADD MLOAD DUP1 MLOAD SWAP1 PUSH1 0x1 PUSH1 0x1 PUSH1 0x40 SHL SUB DUP3 GT PUSH2 0x17E3 JUMPI PUSH2 0x155D PUSH1 0x7 DUP6 ADD SLOAD PUSH2 0x3222 JUMP JUMPDEST PUSH1 0x1F DUP2 GT PUSH2 0x179C JUMPI JUMPDEST POP PUSH1 0x20 SWAP1 PUSH1 0x1F DUP4 GT PUSH1 0x1 EQ PUSH2 0x1726 JUMPI SWAP2 DUP1 PUSH1 0xB SWAP5 SWAP3 PUSH2 0x1E0 SWAP5 PUSH1 0x0 SWAP3 PUSH2 0x171B JUMPI JUMPDEST POP POP DUP2 PUSH1 0x1 SHL SWAP2 PUSH1 0x0 NOT SWAP1 PUSH1 0x3 SHL SHR NOT AND OR PUSH1 0x7 DUP6 ADD SSTORE JUMPDEST PUSH2 0x100 DUP2 ADD MLOAD PUSH1 0x8 DUP6 ADD DUP1 SLOAD PUSH1 0x1 PUSH1 0x1 PUSH1 0xA0 SHL SUB SWAP3 DUP4 AND PUSH1 0x1 PUSH1 0x1 PUSH1 0xA0 SHL SUB NOT SWAP1 SWAP2 AND OR SWAP1 SSTORE PUSH2 0x120 DUP3 ADD MLOAD PUSH1 0x9 DUP7 ADD DUP1 SLOAD PUSH2 0x140 DUP6 ADD MLOAD PUSH1 0xFF PUSH1 0xA0 SHL SWAP1 ISZERO ISZERO PUSH1 0xA0 SHL AND SWAP3 SWAP1 SWAP4 AND PUSH1 0x1 PUSH1 0x1 PUSH1 0xA8 SHL SUB NOT SWAP1 SWAP4 AND SWAP3 SWAP1 SWAP3 OR OR DUP2 SSTORE PUSH2 0x165B SWAP1 JUMPDEST PUSH2 0x160 DUP4 ADD MLOAD DUP2 SLOAD PUSH1 0xFF PUSH1 0xA8 SHL NOT AND SWAP1 ISZERO ISZERO PUSH1 0xA8 SHL PUSH1 0xFF PUSH1 0xA8 SHL AND OR DUP2 SSTORE PUSH2 0x180 DUP4 ADD MLOAD DUP2 SLOAD PUSH1 0xFF PUSH1 0xB0 SHL NOT AND SWAP1 ISZERO ISZERO PUSH1 0xB0 SHL PUSH1 0xFF PUSH1 0xB0 SHL AND OR DUP2 SSTORE PUSH2 0x1A0 DUP4 ADD MLOAD DUP2 SLOAD PUSH1 0xFF PUSH1 0xB8 SHL NOT AND SWAP1 ISZERO ISZERO PUSH1 0xB8 SHL PUSH1 0xFF PUSH1 0xB8 SHL AND OR SWAP1 SSTORE JUMP JUMPDEST PUSH2 0x1C0 DUP2 ADD MLOAD PUSH1 0xA DUP6 ADD SSTORE ADD MLOAD SWAP2 ADD SSTORE PUSH1 0xB DUP2 ADD SLOAD PUSH1 0x0 NOT DUP2 ADD SWAP2 SWAP1 DUP3 GT PUSH2 0x836 JUMPI PUSH1 0x5 SWAP2 PUSH1 0xB DUP3 ADD SSTORE CALLER PUSH1 0x0 MSTORE PUSH1 0xC PUSH1 0x20 MSTORE PUSH2 0x169C DUP4 PUSH1 0x40 PUSH1 0x0 KECCAK256 PUSH2 0x3AF0 JUMP JUMPDEST CALLER PUSH1 0x0 MSTORE PUSH1 0xD PUSH1 0x20 MSTORE PUSH1 0x40 PUSH1 0x0 KECCAK256 DUP4 PUSH1 0x0 MSTORE PUSH1 0x20 MSTORE PUSH1 0x40 PUSH1 0x0 KECCAK256 PUSH1 0xFF NOT SWAP1 PUSH1 0x1 DUP3 DUP3 SLOAD AND OR SWAP1 SSTORE CALLER PUSH1 0x0 MSTORE PUSH1 0xA PUSH1 0x20 MSTORE PUSH1 0x1 PUSH2 0x16DE PUSH1 0x40 PUSH1 0x0 KECCAK256 DUP3 DUP6 ADD PUSH2 0x3A5E JUMP JUMPDEST SWAP2 DUP3 SLOAD AND OR SWAP1 SSTORE ADD SLOAD SWAP1 PUSH1 0x40 MLOAD SWAP2 DUP3 MSTORE PUSH32 0xDBAAF4C87CE30816C961A81D110622A3227EDE77953D4383D514FF88AB2E0FD3 PUSH1 0x20 CALLER SWAP4 LOG3 PUSH1 0x1 PUSH1 0x6 SSTORE STOP JUMPDEST ADD MLOAD SWAP1 POP DUP9 DUP1 PUSH2 0x1587 JUMP JUMPDEST SWAP1 PUSH1 0x7 DUP6 ADD PUSH1 0x0 MSTORE PUSH1 0x20 PUSH1 0x0 KECCAK256 SWAP2 PUSH1 0x0 JUMPDEST PUSH1 0x1F NOT DUP6 AND DUP2 LT PUSH2 0x1784 JUMPI POP SWAP3 PUSH1 0xB SWAP5 SWAP3 PUSH1 0x1 SWAP3 PUSH2 0x1E0 SWAP6 DUP4 PUSH1 0x1F NOT DUP2 AND LT PUSH2 0x176B JUMPI JUMPDEST POP POP POP DUP2 SHL ADD PUSH1 0x7 DUP6 ADD SSTORE PUSH2 0x159F JUMP JUMPDEST ADD MLOAD PUSH1 0x0 NOT PUSH1 0xF8 DUP5 PUSH1 0x3 SHL AND SHR NOT AND SWAP1 SSTORE DUP9 DUP1 DUP1 PUSH2 0x175B JUMP JUMPDEST SWAP2 SWAP3 PUSH1 0x20 PUSH1 0x1 DUP2 SWAP3 DUP7 DUP6 ADD MLOAD DUP2 SSTORE ADD SWAP5 ADD SWAP3 ADD PUSH2 0x1737 JUMP JUMPDEST PUSH1 0x7 DUP6 ADD PUSH1 0x0 MSTORE PUSH1 0x20 PUSH1 0x0 KECCAK256 PUSH1 0x1F DUP5 ADD PUSH1 0x5 SHR DUP2 ADD PUSH1 0x20 DUP6 LT PUSH2 0x17DC JUMPI JUMPDEST PUSH1 0x1F DUP4 ADD PUSH1 0x5 SHR DUP3 ADD DUP2 LT PUSH2 0x17D0 JUMPI POP POP PUSH2 0x1566 JUMP JUMPDEST PUSH1 0x0 DUP2 SSTORE PUSH1 0x1 ADD PUSH2 0x17BA JUMP JUMPDEST POP DUP1 PUSH2 0x17BA JUMP JUMPDEST PUSH4 0x4E487B71 PUSH1 0xE0 SHL PUSH1 0x0 MSTORE PUSH1 0x41 PUSH1 0x4 MSTORE PUSH1 0x24 PUSH1 0x0 REVERT JUMPDEST ADD MLOAD SWAP1 POP DUP7 DUP1 PUSH2 0x1522 JUMP JUMPDEST SWAP3 POP PUSH1 0x6 DUP6 ADD PUSH1 0x0 MSTORE PUSH1 0x20 PUSH1 0x0 KECCAK256 SWAP1 PUSH1 0x0 SWAP4 JUMPDEST PUSH1 0x1F NOT DUP5 AND DUP6 LT PUSH2 0x185B JUMPI PUSH1 0x1 SWAP5 POP DUP4 PUSH1 0x1F NOT DUP2 AND LT PUSH2 0x1842 JUMPI JUMPDEST POP POP POP DUP2 SHL ADD PUSH1 0x6 DUP4 ADD SSTORE PUSH2 0x153A JUMP JUMPDEST ADD MLOAD PUSH1 0x0 NOT PUSH1 0xF8 DUP5 PUSH1 0x3 SHL AND SHR NOT AND SWAP1 SSTORE DUP7 DUP1 DUP1 PUSH2 0x1832 JUMP JUMPDEST DUP2 DUP2 ADD MLOAD DUP4 SSTORE PUSH1 0x20 SWAP5 DUP6 ADD SWAP5 PUSH1 0x1 SWAP1 SWAP4 ADD SWAP3 SWAP1 SWAP2 ADD SWAP1 PUSH2 0x1817 JUMP JUMPDEST SWAP1 SWAP2 POP PUSH1 0x6 DUP6 ADD PUSH1 0x0 MSTORE PUSH1 0x20 PUSH1 0x0 KECCAK256 PUSH1 0x1F DUP5 ADD PUSH1 0x5 SHR DUP2 ADD PUSH1 0x20 DUP6 LT PUSH2 0x18C2 JUMPI JUMPDEST SWAP1 DUP5 SWAP4 SWAP3 SWAP2 JUMPDEST PUSH1 0x1F DUP4 ADD PUSH1 0x5 SHR DUP3 ADD DUP2 LT PUSH2 0x18B3 JUMPI POP POP PUSH2 0x150B JUMP JUMPDEST PUSH1 0x0 DUP2 SSTORE DUP6 SWAP5 POP PUSH1 0x1 ADD PUSH2 0x189D JUMP JUMPDEST POP DUP1 PUSH2 0x1897 JUMP JUMPDEST ADD MLOAD SWAP1 POP DUP7 DUP1 PUSH2 0x14A7 JUMP JUMPDEST SWAP3 POP PUSH1 0x2 DUP6 ADD PUSH1 0x0 MSTORE PUSH1 0x20 PUSH1 0x0 KECCAK256 SWAP1 PUSH1 0x0 SWAP4 JUMPDEST PUSH1 0x1F NOT DUP5 AND DUP6 LT PUSH2 0x192B JUMPI PUSH1 0x1 SWAP5 POP DUP4 PUSH1 0x1F NOT DUP2 AND LT PUSH2 0x1912 JUMPI JUMPDEST POP POP POP DUP2 SHL ADD PUSH1 0x2 DUP4 ADD SSTORE PUSH2 0x14BF JUMP JUMPDEST ADD MLOAD PUSH1 0x0 NOT PUSH1 0xF8 DUP5 PUSH1 0x3 SHL AND SHR NOT AND SWAP1 SSTORE DUP7 DUP1 DUP1 PUSH2 0x1902 JUMP JUMPDEST DUP2 DUP2 ADD MLOAD DUP4 SSTORE PUSH1 0x20 SWAP5 DUP6 ADD SWAP5 PUSH1 0x1 SWAP1 SWAP4 ADD SWAP3 SWAP1 SWAP2 ADD SWAP1 PUSH2 0x18E7 JUMP JUMPDEST SWAP1 SWAP2 POP PUSH1 0x2 DUP6 ADD PUSH1 0x0 MSTORE PUSH1 0x20 PUSH1 0x0 KECCAK256 PUSH1 0x1F DUP5 ADD PUSH1 0x5 SHR DUP2 ADD PUSH1 0x20 DUP6 LT PUSH2 0x1992 JUMPI JUMPDEST SWAP1 DUP5 SWAP4 SWAP3 SWAP2 JUMPDEST PUSH1 0x1F DUP4 ADD PUSH1 0x5 SHR DUP3 ADD DUP2 LT PUSH2 0x1983 JUMPI POP POP PUSH2 0x1490 JUMP JUMPDEST PUSH1 0x0 DUP2 SSTORE DUP6 SWAP5 POP PUSH1 0x1 ADD PUSH2 0x196D JUMP JUMPDEST POP DUP1 PUSH2 0x1967 JUMP JUMPDEST ADD MLOAD SWAP1 POP DUP7 DUP1 PUSH2 0x144A JUMP JUMPDEST SWAP3 POP PUSH1 0x1 DUP6 ADD PUSH1 0x0 MSTORE PUSH1 0x20 PUSH1 0x0 KECCAK256 SWAP1 PUSH1 0x0 SWAP4 JUMPDEST PUSH1 0x1F NOT DUP5 AND DUP6 LT PUSH2 0x19FB JUMPI PUSH1 0x1 SWAP5 POP DUP4 PUSH1 0x1F NOT DUP2 AND LT PUSH2 0x19E2 JUMPI JUMPDEST POP POP POP DUP2 SHL ADD PUSH1 0x1 DUP4 ADD SSTORE PUSH2 0x1462 JUMP JUMPDEST ADD MLOAD PUSH1 0x0 NOT PUSH1 0xF8 DUP5 PUSH1 0x3 SHL AND SHR NOT AND SWAP1 SSTORE DUP7 DUP1 DUP1 PUSH2 0x19D2 JUMP JUMPDEST DUP2 DUP2 ADD MLOAD DUP4 SSTORE PUSH1 0x20 SWAP5 DUP6 ADD SWAP5 PUSH1 0x1 SWAP1 SWAP4 ADD SWAP3 SWAP1 SWAP2 ADD SWAP1 PUSH2 0x19B7 JUMP JUMPDEST SWAP1 SWAP2 POP PUSH1 0x1 DUP6 ADD PUSH1 0x0 MSTORE PUSH1 0x20 PUSH1 0x0 KECCAK256 PUSH1 0x1F DUP5 ADD PUSH1 0x5 SHR DUP2 ADD PUSH1 0x20 DUP6 LT PUSH2 0x1A62 JUMPI JUMPDEST SWAP1 DUP5 SWAP4 SWAP3 SWAP2 JUMPDEST PUSH1 0x1F DUP4 ADD PUSH1 0x5 SHR DUP3 ADD DUP2 LT PUSH2 0x1A53 JUMPI POP POP PUSH2 0x1433 JUMP JUMPDEST PUSH1 0x0 DUP2 SSTORE DUP6 SWAP5 POP PUSH1 0x1 ADD PUSH2 0x1A3D JUMP JUMPDEST POP DUP1 PUSH2 0x1A37 JUMP JUMPDEST PUSH1 0x40 MLOAD RETURNDATASIZE PUSH1 0x0 DUP3 RETURNDATACOPY RETURNDATASIZE SWAP1 REVERT JUMPDEST PUSH2 0x8FC SWAP2 POP PUSH2 0x1322 JUMP JUMPDEST PUSH1 0x40 MLOAD PUSH3 0x461BCD PUSH1 0xE5 SHL DUP2 MSTORE PUSH1 0x20 PUSH1 0x4 DUP3 ADD MSTORE PUSH1 0x28 PUSH1 0x24 DUP3 ADD MSTORE PUSH32 0x596F7520616C726561647920686176652061207469636B657420666F72207468 PUSH1 0x44 DUP3 ADD MSTORE PUSH8 0x1A5CC8195D995B9D PUSH1 0xC2 SHL PUSH1 0x64 DUP3 ADD MSTORE PUSH1 0x84 SWAP1 REVERT JUMPDEST PUSH1 0x40 MLOAD PUSH3 0x461BCD PUSH1 0xE5 SHL DUP2 MSTORE PUSH1 0x20 PUSH1 0x4 DUP3 ADD MSTORE PUSH1 0x14 PUSH1 0x24 DUP3 ADD MSTORE PUSH20 0x4E6F207469636B65747320617661696C61626C65 PUSH1 0x60 SHL PUSH1 0x44 DUP3 ADD MSTORE PUSH1 0x64 SWAP1 REVERT JUMPDEST PUSH1 0x40 MLOAD PUSH3 0x461BCD PUSH1 0xE5 SHL DUP2 MSTORE PUSH1 0x20 PUSH1 0x4 DUP3 ADD MSTORE PUSH1 0x18 PUSH1 0x24 DUP3 ADD MSTORE PUSH32 0x496E636F7272656374207061796D656E7420616D6F756E740000000000000000 PUSH1 0x44 DUP3 ADD MSTORE PUSH1 0x64 SWAP1 REVERT JUMPDEST PUSH1 0x40 MLOAD PUSH3 0x461BCD PUSH1 0xE5 SHL DUP2 MSTORE PUSH1 0x20 PUSH1 0x4 DUP3 ADD MSTORE PUSH1 0xE PUSH1 0x24 DUP3 ADD MSTORE PUSH14 0x14D85B19481A185CC8195B991959 PUSH1 0x92 SHL PUSH1 0x44 DUP3 ADD MSTORE PUSH1 0x64 SWAP1 REVERT JUMPDEST CALLVALUE PUSH2 0x210 JUMPI PUSH1 0x40 CALLDATASIZE PUSH1 0x3 NOT ADD SLT PUSH2 0x210 JUMPI PUSH2 0x1BA5 PUSH2 0x3082 JUMP JUMPDEST PUSH1 0x24 CALLDATALOAD PUSH1 0x1 PUSH1 0x1 PUSH1 0x40 SHL SUB DUP2 GT PUSH2 0x210 JUMPI PUSH2 0x1BF5 PUSH1 0x20 DUP1 SWAP4 PUSH2 0x1BCD PUSH1 0xFF SWAP5 CALLDATASIZE SWAP1 PUSH1 0x4 ADD PUSH2 0x3204 JUMP JUMPDEST SWAP1 PUSH1 0x1 DUP1 PUSH1 0xA0 SHL SUB AND PUSH1 0x0 MSTORE PUSH1 0xA DUP3 MSTORE PUSH1 0x40 PUSH1 0x0 KECCAK256 DUP3 PUSH1 0x40 MLOAD SWAP5 DUP4 DUP7 DUP1 SWAP6 MLOAD SWAP4 DUP5 SWAP3 ADD PUSH2 0x30DD JUMP JUMPDEST DUP3 ADD SWAP1 DUP2 MSTORE SUB ADD SWAP1 KECCAK256 SLOAD AND PUSH1 0x40 MLOAD SWAP1 ISZERO ISZERO DUP2 MSTORE RETURN JUMPDEST CALLVALUE PUSH2 0x210 JUMPI PUSH1 0x20 CALLDATASIZE PUSH1 0x3 NOT ADD SLT PUSH2 0x210 JUMPI PUSH1 0x20 PUSH2 0x1C28 PUSH1 0x4 CALLDATALOAD PUSH2 0x340F JUMP JUMPDEST PUSH1 0x40 MLOAD PUSH1 0x1 PUSH1 0x1 PUSH1 0xA0 SHL SUB SWAP1 SWAP2 AND DUP2 MSTORE RETURN JUMPDEST CALLVALUE PUSH2 0x210 JUMPI PUSH1 0x20 DUP1 PUSH1 0x3 NOT CALLDATASIZE ADD SLT PUSH2 0x210 JUMPI PUSH1 0x4 CALLDATALOAD SWAP1 PUSH2 0x1C58 PUSH2 0x3987 JUMP JUMPDEST PUSH2 0x1C60 PUSH2 0x3B18 JUMP JUMPDEST DUP2 PUSH1 0x0 MSTORE PUSH1 0x9 DUP2 MSTORE PUSH1 0x9 PUSH1 0x40 PUSH1 0x0 KECCAK256 PUSH2 0x1C7B DUP2 SLOAD ISZERO ISZERO PUSH2 0x39CE JUMP JUMPDEST ADD SWAP1 DUP2 SLOAD PUSH2 0x1C8E PUSH1 0xFF DUP3 PUSH1 0xA0 SHR AND PUSH2 0x3B6E JUMP JUMPDEST CALLER PUSH1 0x1 PUSH1 0x1 PUSH1 0xA0 SHL SUB DUP3 AND SUB PUSH2 0x1E4B JUMPI PUSH1 0xFF DUP2 PUSH1 0xA8 SHR AND PUSH2 0x1E06 JUMPI PUSH1 0xFF PUSH2 0x1CB9 SWAP2 PUSH1 0xB0 SHR AND ISZERO PUSH2 0x3A12 JUMP JUMPDEST PUSH1 0x40 MLOAD SWAP1 PUSH2 0x1CC6 DUP3 PUSH2 0x3176 JUMP JUMPDEST PUSH1 0x0 DUP3 MSTORE CALLER ISZERO PUSH2 0x1DC3 JUMPI PUSH2 0x1D84 SWAP2 PUSH1 0x2 PUSH2 0x4CC SWAP3 PUSH2 0x1D02 PUSH2 0x1CFC DUP9 PUSH1 0x0 MSTORE PUSH1 0x2 PUSH1 0x20 MSTORE PUSH1 0x1 DUP1 PUSH1 0xA0 SHL SUB PUSH1 0x40 PUSH1 0x0 KECCAK256 SLOAD AND ISZERO ISZERO SWAP1 JUMP JUMPDEST ISZERO PUSH2 0x3BAC JUMP JUMPDEST PUSH1 0x0 DUP8 DUP2 MSTORE PUSH1 0x2 PUSH1 0x20 MSTORE PUSH1 0x40 SWAP1 KECCAK256 SLOAD PUSH2 0x1D25 SWAP1 PUSH1 0x1 PUSH1 0x1 PUSH1 0xA0 SHL SUB AND ISZERO ISZERO PUSH2 0x1CFC JUMP JUMPDEST CALLER PUSH1 0x0 MSTORE PUSH1 0x3 DUP2 MSTORE PUSH1 0x40 PUSH1 0x0 KECCAK256 PUSH1 0x1 DUP2 SLOAD ADD SWAP1 SSTORE DUP7 PUSH1 0x0 MSTORE MSTORE PUSH1 0x40 PUSH1 0x0 KECCAK256 CALLER PUSH1 0x1 PUSH1 0x1 PUSH1 0x60 SHL SUB PUSH1 0xA0 SHL DUP3 SLOAD AND OR SWAP1 SSTORE DUP5 CALLER PUSH1 0x0 PUSH32 0xDDF252AD1BE2C89B69C2B068FC378DAA952BA7F163C4A11628F55A4DF523B3EF DUP2 DUP1 LOG4 DUP5 CALLER PUSH2 0x3784 JUMP JUMPDEST DUP1 SLOAD PUSH1 0xFF PUSH1 0xA8 SHL NOT AND PUSH1 0x1 PUSH1 0xA8 SHL OR SWAP1 SSTORE CALLER SWAP1 PUSH32 0x4C3F8FF3B3376DBD255CAB935257C5C6F095B27B816F6F0B1AE35B828E6838A8 PUSH1 0x0 DUP1 LOG3 PUSH1 0x1 PUSH1 0x6 SSTORE STOP JUMPDEST PUSH1 0x64 SWAP1 PUSH1 0x40 MLOAD SWAP1 PUSH3 0x461BCD PUSH1 0xE5 SHL DUP3 MSTORE DUP1 PUSH1 0x4 DUP4 ADD MSTORE PUSH1 0x24 DUP3 ADD MSTORE PUSH32 0x4552433732313A206D696E7420746F20746865207A65726F2061646472657373 PUSH1 0x44 DUP3 ADD MSTORE REVERT JUMPDEST PUSH1 0x40 MLOAD PUSH3 0x461BCD PUSH1 0xE5 SHL DUP2 MSTORE PUSH1 0x4 DUP2 ADD DUP4 SWAP1 MSTORE PUSH1 0x19 PUSH1 0x24 DUP3 ADD MSTORE PUSH32 0x5469636B657420616C726561647920646F776E6C6F6164656400000000000000 PUSH1 0x44 DUP3 ADD MSTORE PUSH1 0x64 SWAP1 REVERT JUMPDEST PUSH1 0x40 MLOAD PUSH3 0x461BCD PUSH1 0xE5 SHL DUP2 MSTORE PUSH1 0x4 DUP2 ADD DUP4 SWAP1 MSTORE PUSH1 0x14 PUSH1 0x24 DUP3 ADD MSTORE PUSH20 0x2737BA103A3432903A34B1B5B2BA10313ABCB2B9 PUSH1 0x61 SHL PUSH1 0x44 DUP3 ADD MSTORE PUSH1 0x64 SWAP1 REVERT JUMPDEST CALLVALUE PUSH2 0x210 JUMPI PUSH1 0x0 CALLDATASIZE PUSH1 0x3 NOT ADD SLT PUSH2 0x210 JUMPI PUSH1 0x20 PUSH1 0xFF PUSH1 0x7 SLOAD PUSH1 0xA0 SHR AND PUSH1 0x40 MLOAD SWAP1 ISZERO ISZERO DUP2 MSTORE RETURN JUMPDEST CALLVALUE PUSH2 0x210 JUMPI PUSH1 0x0 CALLDATASIZE PUSH1 0x3 NOT ADD SLT PUSH2 0x210 JUMPI PUSH1 0x8 DUP1 SLOAD SWAP1 PUSH2 0x1ECC DUP3 PUSH2 0x3D48 JUMP JUMPDEST SWAP2 PUSH1 0x0 SWAP2 PUSH1 0x1 DUP1 JUMPDEST DUP4 DUP2 GT ISZERO PUSH2 0x1F24 JUMPI DUP6 DUP6 PUSH2 0x1EE7 DUP2 PUSH2 0x3D48 JUMP JUMPDEST SWAP2 PUSH1 0x0 JUMPDEST DUP3 DUP2 LT PUSH2 0x1F00 JUMPI PUSH1 0x40 MLOAD DUP1 PUSH2 0x383 DUP7 DUP3 PUSH2 0x3302 JUMP JUMPDEST DUP1 PUSH2 0x1F0E PUSH2 0x1F1F SWAP3 DUP5 PUSH2 0x3D7A JUMP JUMPDEST MLOAD PUSH2 0x1F19 DUP3 DUP8 PUSH2 0x3D7A JUMP JUMPDEST MSTORE PUSH2 0x3BF8 JUMP JUMPDEST PUSH2 0x1EEB JUMP JUMPDEST DUP1 PUSH1 0x0 MSTORE PUSH1 0x9 PUSH1 0x20 DUP2 DUP2 MSTORE PUSH1 0x40 PUSH1 0x0 KECCAK256 PUSH1 0x40 MLOAD SWAP2 PUSH2 0x1F41 DUP4 PUSH2 0x315A JUMP JUMPDEST DUP2 SLOAD DUP4 MSTORE PUSH2 0x1F50 DUP7 DUP4 ADD PUSH2 0x325C JUMP JUMPDEST SWAP1 DUP4 ADD MSTORE PUSH2 0x1F60 PUSH1 0x2 DUP3 ADD PUSH2 0x325C JUMP JUMPDEST PUSH1 0x40 DUP4 ADD MSTORE PUSH1 0x3 DUP2 ADD SLOAD PUSH1 0x60 DUP4 ADD MSTORE PUSH1 0xB PUSH1 0x4 DUP3 ADD SLOAD SWAP2 PUSH1 0x80 DUP5 ADD SWAP3 DUP4 MSTORE PUSH1 0x5 DUP2 ADD SLOAD SWAP5 PUSH1 0xA0 SWAP6 DUP7 DUP7 ADD MSTORE PUSH2 0x1F97 PUSH1 0x6 DUP4 ADD PUSH2 0x325C JUMP JUMPDEST PUSH1 0xC0 DUP7 ADD MSTORE PUSH2 0x1FA8 PUSH1 0x7 DUP4 ADD PUSH2 0x325C JUMP JUMPDEST PUSH1 0xE0 DUP7 ADD MSTORE PUSH1 0x1 DUP1 PUSH1 0xA0 SHL SUB SWAP1 DUP2 DUP11 DUP5 ADD SLOAD AND PUSH2 0x100 DUP8 ADD MSTORE DUP3 ADD SLOAD SWAP6 DUP7 SWAP2 DUP3 AND PUSH2 0x120 DUP8 ADD MSTORE PUSH1 0xFF SWAP2 DUP3 SWAP2 SHR AND ISZERO ISZERO PUSH2 0x140 DUP7 ADD MSTORE DUP1 DUP7 PUSH1 0xA8 SHR AND ISZERO ISZERO PUSH2 0x160 DUP7 ADD MSTORE DUP1 DUP7 PUSH1 0xB0 SHR AND ISZERO SWAP6 DUP7 ISZERO PUSH2 0x180 DUP8 ADD MSTORE PUSH1 0xB8 SHR AND ISZERO ISZERO PUSH2 0x1A0 DUP6 ADD MSTORE PUSH1 0xA DUP2 ADD SLOAD PUSH2 0x1C0 DUP6 ADD MSTORE ADD SLOAD SWAP2 DUP3 PUSH2 0x1E0 DUP3 ADD MSTORE MLOAD ISZERO ISZERO SWAP3 DUP4 PUSH2 0x207A JUMPI JUMPDEST POP DUP3 PUSH2 0x206E JUMPI JUMPDEST POP DUP2 PUSH2 0x2064 JUMPI JUMPDEST POP PUSH2 0x2049 JUMPI JUMPDEST PUSH2 0x2044 SWAP1 PUSH2 0x3BF8 JUMP JUMPDEST PUSH2 0x1ED4 JUMP JUMPDEST SWAP4 PUSH2 0x205C DUP2 DUP7 PUSH2 0x1F19 PUSH2 0x2044 SWAP5 DUP11 PUSH2 0x3D7A JUMP JUMPDEST SWAP5 SWAP1 POP PUSH2 0x203B JUMP JUMPDEST SWAP1 POP ISZERO ISZERO DUP8 PUSH2 0x2035 JUMP JUMPDEST MLOAD TIMESTAMP GT ISZERO SWAP2 POP DUP9 PUSH2 0x202E JUMP JUMPDEST SWAP3 POP DUP10 PUSH2 0x2027 JUMP JUMPDEST CALLVALUE PUSH2 0x210 JUMPI PUSH1 0x20 CALLDATASIZE PUSH1 0x3 NOT ADD SLT PUSH2 0x210 JUMPI PUSH1 0x20 PUSH2 0x20A0 PUSH1 0x4 CALLDATALOAD PUSH2 0x3C07 JUMP JUMPDEST PUSH1 0x40 MLOAD SWAP1 ISZERO ISZERO DUP2 MSTORE RETURN JUMPDEST CALLVALUE PUSH2 0x210 JUMPI PUSH1 0x20 CALLDATASIZE PUSH1 0x3 NOT ADD SLT PUSH2 0x210 JUMPI PUSH1 0x4 CALLDATALOAD PUSH1 0x0 MSTORE PUSH1 0x9 PUSH1 0x20 MSTORE PUSH1 0x40 PUSH1 0x0 KECCAK256 DUP1 SLOAD PUSH1 0x1 DUP3 ADD PUSH2 0x20DA SWAP1 PUSH2 0x325C JUMP JUMPDEST SWAP2 PUSH2 0x20E7 PUSH1 0x2 DUP3 ADD PUSH2 0x325C JUMP JUMPDEST PUSH1 0x3 DUP3 ADD SLOAD PUSH1 0x4 DUP4 ADD SLOAD PUSH1 0x5 DUP5 ADD SLOAD SWAP4 SWAP2 PUSH2 0x2104 PUSH1 0x6 DUP5 ADD PUSH2 0x325C JUMP JUMPDEST PUSH2 0x2110 PUSH1 0x7 DUP6 ADD PUSH2 0x325C JUMP JUMPDEST SWAP1 PUSH1 0x1 PUSH1 0xA0 SHL PUSH1 0x1 SWAP1 SUB SWAP3 DUP4 PUSH1 0x8 DUP8 ADD SLOAD AND SWAP8 PUSH1 0x9 DUP8 ADD SLOAD SWAP6 PUSH1 0xA DUP9 ADD SLOAD SWAP8 PUSH1 0xB ADD SLOAD SWAP9 PUSH1 0x40 MLOAD SWAP13 DUP14 SWAP13 DUP14 MSTORE DUP13 PUSH2 0x200 PUSH1 0x20 DUP2 SWAP3 ADD MSTORE DUP14 ADD PUSH2 0x2151 SWAP2 PUSH2 0x3100 JUMP JUMPDEST DUP13 DUP2 SUB PUSH1 0x40 DUP15 ADD MSTORE PUSH2 0x2162 SWAP2 PUSH2 0x3100 JUMP JUMPDEST SWAP3 PUSH1 0x60 DUP13 ADD MSTORE PUSH1 0x80 DUP12 ADD MSTORE PUSH1 0xA0 DUP11 ADD MSTORE DUP9 DUP2 SUB PUSH1 0xC0 DUP11 ADD MSTORE PUSH2 0x2183 SWAP2 PUSH2 0x3100 JUMP JUMPDEST DUP8 DUP2 SUB PUSH1 0xE0 DUP10 ADD MSTORE PUSH2 0x2194 SWAP2 PUSH2 0x3100 JUMP JUMPDEST SWAP5 PUSH2 0x100 DUP8 ADD MSTORE DUP2 AND PUSH2 0x120 DUP7 ADD MSTORE DUP1 PUSH1 0xA0 SHR PUSH1 0xFF AND ISZERO ISZERO PUSH2 0x140 DUP7 ADD MSTORE DUP1 PUSH1 0xA8 SHR PUSH1 0xFF AND ISZERO ISZERO PUSH2 0x160 DUP7 ADD MSTORE DUP1 PUSH1 0xB0 SHR PUSH1 0xFF AND ISZERO ISZERO PUSH2 0x180 DUP7 ADD MSTORE PUSH1 0xB8 SHR PUSH1 0xFF AND ISZERO ISZERO PUSH2 0x1A0 DUP6 ADD MSTORE PUSH2 0x1C0 DUP5 ADD MSTORE PUSH2 0x1E0 DUP4 ADD MSTORE SUB SWAP1 RETURN JUMPDEST CALLVALUE PUSH2 0x210 JUMPI PUSH1 0x40 CALLDATASIZE PUSH1 0x3 NOT ADD SLT PUSH2 0x210 JUMPI PUSH1 0x24 CALLDATALOAD PUSH1 0x4 CALLDATALOAD PUSH1 0x0 MSTORE PUSH1 0x9 PUSH1 0x20 MSTORE PUSH1 0x40 PUSH1 0x0 KECCAK256 PUSH2 0x221E DUP2 SLOAD ISZERO ISZERO PUSH2 0x39CE JUMP JUMPDEST PUSH1 0x8 DUP2 ADD SLOAD CALLER PUSH1 0x1 PUSH1 0x1 PUSH1 0xA0 SHL SUB SWAP2 DUP3 AND EQ SWAP1 DUP2 ISZERO PUSH2 0x228D JUMPI JUMPDEST POP ISZERO PUSH2 0x2257 JUMPI PUSH1 0xB SWAP1 PUSH2 0x224C DUP4 ISZERO ISZERO PUSH2 0x392F JUMP JUMPDEST PUSH1 0xA DUP2 ADD DUP4 SWAP1 SSTORE ADD SSTORE STOP JUMPDEST PUSH1 0x40 MLOAD PUSH3 0x461BCD PUSH1 0xE5 SHL DUP2 MSTORE PUSH1 0x20 PUSH1 0x4 DUP3 ADD MSTORE PUSH1 0xE PUSH1 0x24 DUP3 ADD MSTORE PUSH14 0x139BDD08185D5D1A1BDC9A5E9959 PUSH1 0x92 SHL PUSH1 0x44 DUP3 ADD MSTORE PUSH1 0x64 SWAP1 REVERT JUMPDEST SWAP1 POP PUSH1 0x7 SLOAD AND CALLER EQ DUP4 PUSH2 0x2238 JUMP JUMPDEST CALLVALUE PUSH2 0x210 JUMPI PUSH2 0x100 CALLDATASIZE PUSH1 0x3 NOT ADD SLT PUSH2 0x210 JUMPI PUSH1 0x4 CALLDATALOAD PUSH1 0x1 PUSH1 0x1 PUSH1 0x40 SHL SUB DUP2 GT PUSH2 0x210 JUMPI PUSH2 0x22CC SWAP1 CALLDATASIZE SWAP1 PUSH1 0x4 ADD PUSH2 0x3204 JUMP JUMPDEST PUSH1 0x24 CALLDATALOAD PUSH1 0x1 PUSH1 0x1 PUSH1 0x40 SHL SUB DUP2 GT PUSH2 0x210 JUMPI PUSH2 0x22EB SWAP1 CALLDATASIZE SWAP1 PUSH1 0x4 ADD PUSH2 0x3204 JUMP JUMPDEST PUSH1 0xC4 CALLDATALOAD PUSH1 0x1 PUSH1 0x1 PUSH1 0x40 SHL SUB DUP2 GT PUSH2 0x210 JUMPI PUSH2 0x230A SWAP1 CALLDATASIZE SWAP1 PUSH1 0x4 ADD PUSH2 0x3204 JUMP JUMPDEST SWAP1 PUSH1 0xE4 CALLDATALOAD PUSH1 0x1 PUSH1 0x1 PUSH1 0x40 SHL SUB DUP2 GT PUSH2 0x210 JUMPI PUSH2 0x232A SWAP1 CALLDATASIZE SWAP1 PUSH1 0x4 ADD PUSH2 0x3204 JUMP JUMPDEST PUSH2 0x2332 PUSH2 0x3987 JUMP JUMPDEST DUP4 MLOAD ISZERO PUSH2 0x2C94 JUMPI DUP2 MLOAD ISZERO PUSH2 0x2C4F JUMPI TIMESTAMP PUSH1 0x44 CALLDATALOAD GT ISZERO PUSH2 0x2C0B JUMPI TIMESTAMP PUSH1 0x64 CALLDATALOAD GT ISZERO PUSH2 0x2BBA JUMPI PUSH1 0x44 CALLDATALOAD PUSH1 0x64 CALLDATALOAD LT ISZERO PUSH2 0x2B75 JUMPI PUSH1 0x84 CALLDATALOAD ISZERO PUSH2 0x2B30 JUMPI PUSH2 0x2375 PUSH1 0xA4 CALLDATALOAD ISZERO ISZERO PUSH2 0x392F JUMP JUMPDEST DUP3 MLOAD ISZERO PUSH2 0x2AEB JUMPI DUP1 MLOAD ISZERO PUSH2 0x2AA6 JUMPI PUSH1 0x40 MLOAD PUSH1 0x20 DUP2 DUP7 MLOAD PUSH2 0x2398 DUP2 DUP4 DUP6 DUP12 ADD PUSH2 0x30DD JUMP JUMPDEST DUP2 ADD PUSH1 0xB DUP2 MSTORE SUB ADD SWAP1 KECCAK256 SLOAD PUSH2 0x2A6A JUMPI PUSH1 0x1 PUSH1 0x8 SLOAD ADD SWAP3 DUP4 PUSH1 0x8 SSTORE PUSH2 0x2423 PUSH1 0x27 PUSH1 0x40 MLOAD SWAP3 PUSH2 0x23F5 DUP3 DUP6 PUSH7 0x697066733A2F2F PUSH1 0xC8 SHL SWAP4 DUP5 PUSH1 0x20 DUP4 ADD MSTORE PUSH2 0x23E5 DUP2 MLOAD DUP1 SWAP3 PUSH1 0x20 DUP7 DUP7 ADD SWAP2 ADD PUSH2 0x30DD JUMP JUMPDEST DUP2 ADD SUB PUSH1 0x7 DUP2 ADD DUP8 MSTORE ADD DUP6 PUSH2 0x3191 JUMP JUMPDEST PUSH1 0x40 MLOAD SWAP5 DUP6 SWAP2 PUSH1 0x20 DUP4 ADD MSTORE PUSH2 0x2413 DUP2 MLOAD DUP1 SWAP3 PUSH1 0x20 DUP7 DUP7 ADD SWAP2 ADD PUSH2 0x30DD JUMP JUMPDEST DUP2 ADD SUB PUSH1 0x7 DUP2 ADD DUP6 MSTORE ADD DUP4 PUSH2 0x3191 JUMP JUMPDEST PUSH1 0x40 MLOAD SWAP3 PUSH2 0x2430 DUP5 PUSH2 0x315A JUMP JUMPDEST DUP5 DUP5 MSTORE DUP6 PUSH1 0x20 DUP6 ADD MSTORE PUSH1 0x40 DUP5 ADD MSTORE PUSH1 0x44 CALLDATALOAD PUSH1 0x60 DUP5 ADD MSTORE PUSH1 0x64 CALLDATALOAD PUSH1 0x80 DUP5 ADD MSTORE PUSH1 0x84 CALLDATALOAD PUSH1 0xA0 DUP5 ADD MSTORE PUSH1 0xC0 DUP4 ADD MSTORE PUSH1 0xE0 DUP3 ADD MSTORE CALLER PUSH2 0x100 DUP3 ADD MSTORE PUSH1 0x0 PUSH2 0x120 DUP3 ADD MSTORE PUSH1 0x0 PUSH2 0x140 DUP3 ADD MSTORE PUSH1 0x0 PUSH2 0x160 DUP3 ADD MSTORE PUSH1 0x0 PUSH2 0x180 DUP3 ADD MSTORE PUSH1 0x0 PUSH2 0x1A0 DUP3 ADD MSTORE PUSH1 0xA4 CALLDATALOAD PUSH2 0x1C0 DUP3 ADD MSTORE PUSH1 0xA4 CALLDATALOAD PUSH2 0x1E0 DUP3 ADD MSTORE DUP2 PUSH1 0x0 MSTORE PUSH1 0x9 PUSH1 0x20 MSTORE PUSH1 0x40 PUSH1 0x0 KECCAK256 SWAP1 DUP1 MLOAD DUP3 SSTORE PUSH1 0x20 DUP2 ADD MLOAD DUP1 MLOAD SWAP1 PUSH1 0x1 PUSH1 0x1 PUSH1 0x40 SHL SUB DUP3 GT PUSH2 0x17E3 JUMPI DUP2 SWAP1 PUSH2 0x24D9 PUSH1 0x1 DUP7 ADD SLOAD PUSH2 0x3222 JUMP JUMPDEST PUSH1 0x1F DUP2 GT PUSH2 0x2A17 JUMPI JUMPDEST POP PUSH1 0x20 SWAP1 PUSH1 0x1F DUP4 GT PUSH1 0x1 EQ PUSH2 0x29A5 JUMPI PUSH1 0x0 SWAP3 PUSH2 0x299A JUMPI JUMPDEST POP POP DUP2 PUSH1 0x1 SHL SWAP2 PUSH1 0x0 NOT SWAP1 PUSH1 0x3 SHL SHR NOT AND OR PUSH1 0x1 DUP4 ADD SSTORE JUMPDEST PUSH1 0x40 DUP2 ADD MLOAD DUP1 MLOAD SWAP1 PUSH1 0x1 PUSH1 0x1 PUSH1 0x40 SHL SUB DUP3 GT PUSH2 0x17E3 JUMPI DUP2 SWAP1 PUSH2 0x2536 PUSH1 0x2 DUP7 ADD SLOAD PUSH2 0x3222 JUMP JUMPDEST PUSH1 0x1F DUP2 GT PUSH2 0x2947 JUMPI JUMPDEST POP PUSH1 0x20 SWAP1 PUSH1 0x1F DUP4 GT PUSH1 0x1 EQ PUSH2 0x28D5 JUMPI PUSH1 0x0 SWAP3 PUSH2 0x28CA JUMPI JUMPDEST POP POP DUP2 PUSH1 0x1 SHL SWAP2 PUSH1 0x0 NOT SWAP1 PUSH1 0x3 SHL SHR NOT AND OR PUSH1 0x2 DUP4 ADD SSTORE JUMPDEST PUSH1 0x60 DUP2 ADD MLOAD PUSH1 0x3 DUP4 ADD SSTORE PUSH1 0x80 DUP2 ADD MLOAD PUSH1 0x4 DUP4 ADD SSTORE PUSH1 0xA0 DUP2 ADD MLOAD PUSH1 0x5 DUP4 ADD SSTORE PUSH1 0xC0 DUP2 ADD MLOAD DUP1 MLOAD SWAP1 PUSH1 0x1 PUSH1 0x1 PUSH1 0x40 SHL SUB DUP3 GT PUSH2 0x17E3 JUMPI DUP2 SWAP1 PUSH2 0x25B1 PUSH1 0x6 DUP7 ADD SLOAD PUSH2 0x3222 JUMP JUMPDEST PUSH1 0x1F DUP2 GT PUSH2 0x2877 JUMPI JUMPDEST POP PUSH1 0x20 SWAP1 PUSH1 0x1F DUP4 GT PUSH1 0x1 EQ PUSH2 0x2805 JUMPI PUSH1 0x0 SWAP3 PUSH2 0x27FA JUMPI JUMPDEST POP POP DUP2 PUSH1 0x1 SHL SWAP2 PUSH1 0x0 NOT SWAP1 PUSH1 0x3 SHL SHR NOT AND OR PUSH1 0x6 DUP4 ADD SSTORE JUMPDEST PUSH1 0xE0 DUP2 ADD MLOAD DUP1 MLOAD SWAP1 PUSH1 0x1 PUSH1 0x1 PUSH1 0x40 SHL SUB DUP3 GT PUSH2 0x17E3 JUMPI PUSH2 0x260C PUSH1 0x7 DUP6 ADD SLOAD PUSH2 0x3222 JUMP JUMPDEST PUSH1 0x1F DUP2 GT PUSH2 0x27B3 JUMPI JUMPDEST POP PUSH1 0x20 SWAP1 PUSH1 0x1F DUP4 GT PUSH1 0x1 EQ PUSH2 0x273D JUMPI SWAP2 DUP1 PUSH1 0xB SWAP5 SWAP3 PUSH2 0x1E0 SWAP5 PUSH1 0x0 SWAP3 PUSH2 0x2732 JUMPI JUMPDEST POP POP DUP2 PUSH1 0x1 SHL SWAP2 PUSH1 0x0 NOT SWAP1 PUSH1 0x3 SHL SHR NOT AND OR PUSH1 0x7 DUP6 ADD SSTORE JUMPDEST PUSH2 0x100 DUP2 ADD MLOAD PUSH1 0x8 DUP6 ADD DUP1 SLOAD PUSH1 0x1 PUSH1 0x1 PUSH1 0xA0 SHL SUB SWAP3 DUP4 AND PUSH1 0x1 PUSH1 0x1 PUSH1 0xA0 SHL SUB NOT SWAP1 SWAP2 AND OR SWAP1 SSTORE PUSH2 0x120 DUP3 ADD MLOAD PUSH1 0x9 DUP7 ADD DUP1 SLOAD PUSH2 0x140 DUP6 ADD MLOAD PUSH1 0xFF PUSH1 0xA0 SHL SWAP1 ISZERO ISZERO PUSH1 0xA0 SHL AND SWAP3 SWAP1 SWAP4 AND PUSH1 0x1 PUSH1 0x1 PUSH1 0xA8 SHL SUB NOT SWAP1 SWAP4 AND SWAP3 SWAP1 SWAP3 OR OR DUP2 SSTORE PUSH2 0x26B2 SWAP1 PUSH2 0x15FF JUMP JUMPDEST PUSH2 0x1C0 DUP2 ADD MLOAD PUSH1 0xA DUP6 ADD SSTORE ADD MLOAD SWAP2 ADD SSTORE DUP1 PUSH1 0x40 MLOAD PUSH1 0x20 DUP2 DUP6 MLOAD PUSH2 0x26D8 DUP2 DUP4 DUP6 DUP11 ADD PUSH2 0x30DD JUMP JUMPDEST DUP2 ADD PUSH1 0xB DUP2 MSTORE SUB ADD SWAP1 KECCAK256 SSTORE PUSH32 0x57F13AB4F405DEE432E813C363E9BBF98B6E2703D4E28B09AD4AF92F689D5FBA PUSH2 0x2719 PUSH1 0x40 MLOAD SWAP4 PUSH1 0x60 DUP6 MSTORE PUSH1 0x60 DUP6 ADD SWAP1 PUSH2 0x3100 JUMP JUMPDEST SWAP3 PUSH1 0x84 CALLDATALOAD PUSH1 0x20 DUP3 ADD MSTORE PUSH1 0x44 CALLDATALOAD PUSH1 0x40 DUP3 ADD MSTORE DUP1 CALLER SWAP5 SUB SWAP1 LOG3 STOP JUMPDEST ADD MLOAD SWAP1 POP DUP9 DUP1 PUSH2 0x2636 JUMP JUMPDEST SWAP1 PUSH1 0x7 DUP6 ADD PUSH1 0x0 MSTORE PUSH1 0x20 PUSH1 0x0 KECCAK256 SWAP2 PUSH1 0x0 JUMPDEST PUSH1 0x1F NOT DUP6 AND DUP2 LT PUSH2 0x279B JUMPI POP SWAP3 PUSH1 0xB SWAP5 SWAP3 PUSH1 0x1 SWAP3 PUSH2 0x1E0 SWAP6 DUP4 PUSH1 0x1F NOT DUP2 AND LT PUSH2 0x2782 JUMPI JUMPDEST POP POP POP DUP2 SHL ADD PUSH1 0x7 DUP6 ADD SSTORE PUSH2 0x264E JUMP JUMPDEST ADD MLOAD PUSH1 0x0 NOT PUSH1 0xF8 DUP5 PUSH1 0x3 SHL AND SHR NOT AND SWAP1 SSTORE DUP9 DUP1 DUP1 PUSH2 0x2772 JUMP JUMPDEST SWAP2 SWAP3 PUSH1 0x20 PUSH1 0x1 DUP2 SWAP3 DUP7 DUP6 ADD MLOAD DUP2 SSTORE ADD SWAP5 ADD SWAP3 ADD PUSH2 0x274E JUMP JUMPDEST PUSH1 0x7 DUP6 ADD PUSH1 0x0 MSTORE PUSH1 0x20 PUSH1 0x0 KECCAK256 PUSH1 0x1F DUP5 ADD PUSH1 0x5 SHR DUP2 ADD PUSH1 0x20 DUP6 LT PUSH2 0x27F3 JUMPI JUMPDEST PUSH1 0x1F DUP4 ADD PUSH1 0x5 SHR DUP3 ADD DUP2 LT PUSH2 0x27E7 JUMPI POP POP PUSH2 0x2615 JUMP JUMPDEST PUSH1 0x0 DUP2 SSTORE PUSH1 0x1 ADD PUSH2 0x27D1 JUMP JUMPDEST POP DUP1 PUSH2 0x27D1 JUMP JUMPDEST ADD MLOAD SWAP1 POP DUP7 DUP1 PUSH2 0x25D1 JUMP JUMPDEST SWAP3 POP PUSH1 0x6 DUP6 ADD PUSH1 0x0 MSTORE PUSH1 0x20 PUSH1 0x0 KECCAK256 SWAP1 PUSH1 0x0 SWAP4 JUMPDEST PUSH1 0x1F NOT DUP5 AND DUP6 LT PUSH2 0x285C JUMPI PUSH1 0x1 SWAP5 POP DUP4 PUSH1 0x1F NOT DUP2 AND LT PUSH2 0x2843 JUMPI JUMPDEST POP POP POP DUP2 SHL ADD PUSH1 0x6 DUP4 ADD SSTORE PUSH2 0x25E9 JUMP JUMPDEST ADD MLOAD PUSH1 0x0 NOT PUSH1 0xF8 DUP5 PUSH1 0x3 SHL AND SHR NOT AND SWAP1 SSTORE DUP7 DUP1 DUP1 PUSH2 0x2833 JUMP JUMPDEST DUP2 DUP2 ADD MLOAD DUP4 SSTORE PUSH1 0x20 SWAP5 DUP6 ADD SWAP5 PUSH1 0x1 SWAP1 SWAP4 ADD SWAP3 SWAP1 SWAP2 ADD SWAP1 PUSH2 0x2818 JUMP JUMPDEST SWAP1 SWAP2 POP PUSH1 0x6 DUP6 ADD PUSH1 0x0 MSTORE PUSH1 0x20 PUSH1 0x0 KECCAK256 PUSH1 0x1F DUP5 ADD PUSH1 0x5 SHR DUP2 ADD PUSH1 0x20 DUP6 LT PUSH2 0x28C3 JUMPI JUMPDEST SWAP1 DUP5 SWAP4 SWAP3 SWAP2 JUMPDEST PUSH1 0x1F DUP4 ADD PUSH1 0x5 SHR DUP3 ADD DUP2 LT PUSH2 0x28B4 JUMPI POP POP PUSH2 0x25BA JUMP JUMPDEST PUSH1 0x0 DUP2 SSTORE DUP6 SWAP5 POP PUSH1 0x1 ADD PUSH2 0x289E JUMP JUMPDEST POP DUP1 PUSH2 0x2898 JUMP JUMPDEST ADD MLOAD SWAP1 POP DUP7 DUP1 PUSH2 0x2556 JUMP JUMPDEST SWAP3 POP PUSH1 0x2 DUP6 ADD PUSH1 0x0 MSTORE PUSH1 0x20 PUSH1 0x0 KECCAK256 SWAP1 PUSH1 0x0 SWAP4 JUMPDEST PUSH1 0x1F NOT DUP5 AND DUP6 LT PUSH2 0x292C JUMPI PUSH1 0x1 SWAP5 POP DUP4 PUSH1 0x1F NOT DUP2 AND LT PUSH2 0x2913 JUMPI JUMPDEST POP POP POP DUP2 SHL ADD PUSH1 0x2 DUP4 ADD SSTORE PUSH2 0x256E JUMP JUMPDEST ADD MLOAD PUSH1 0x0 NOT PUSH1 0xF8 DUP5 PUSH1 0x3 SHL AND SHR NOT AND SWAP1 SSTORE DUP7 DUP1 DUP1 PUSH2 0x2903 JUMP JUMPDEST DUP2 DUP2 ADD MLOAD DUP4 SSTORE PUSH1 0x20 SWAP5 DUP6 ADD SWAP5 PUSH1 0x1 SWAP1 SWAP4 ADD SWAP3 SWAP1 SWAP2 ADD SWAP1 PUSH2 0x28E8 JUMP JUMPDEST SWAP1 SWAP2 POP PUSH1 0x2 DUP6 ADD PUSH1 0x0 MSTORE PUSH1 0x20 PUSH1 0x0 KECCAK256 PUSH1 0x1F DUP5 ADD PUSH1 0x5 SHR DUP2 ADD PUSH1 0x20 DUP6 LT PUSH2 0x2993 JUMPI JUMPDEST SWAP1 DUP5 SWAP4 SWAP3 SWAP2 JUMPDEST PUSH1 0x1F DUP4 ADD PUSH1 0x5 SHR DUP3 ADD DUP2 LT PUSH2 0x2984 JUMPI POP POP PUSH2 0x253F JUMP JUMPDEST PUSH1 0x0 DUP2 SSTORE DUP6 SWAP5 POP PUSH1 0x1 ADD PUSH2 0x296E JUMP JUMPDEST POP DUP1 PUSH2 0x2968 JUMP JUMPDEST ADD MLOAD SWAP1 POP DUP7 DUP1 PUSH2 0x24F9 JUMP JUMPDEST SWAP3 POP PUSH1 0x1 DUP6 ADD PUSH1 0x0 MSTORE PUSH1 0x20 PUSH1 0x0 KECCAK256 SWAP1 PUSH1 0x0 SWAP4 JUMPDEST PUSH1 0x1F NOT DUP5 AND DUP6 LT PUSH2 0x29FC JUMPI PUSH1 0x1 SWAP5 POP DUP4 PUSH1 0x1F NOT DUP2 AND LT PUSH2 0x29E3 JUMPI JUMPDEST POP POP POP DUP2 SHL ADD PUSH1 0x1 DUP4 ADD SSTORE PUSH2 0x2511 JUMP JUMPDEST ADD MLOAD PUSH1 0x0 NOT PUSH1 0xF8 DUP5 PUSH1 0x3 SHL AND SHR NOT AND SWAP1 SSTORE DUP7 DUP1 DUP1 PUSH2 0x29D3 JUMP JUMPDEST DUP2 DUP2 ADD MLOAD DUP4 SSTORE PUSH1 0x20 SWAP5 DUP6 ADD SWAP5 PUSH1 0x1 SWAP1 SWAP4 ADD SWAP3 SWAP1 SWAP2 ADD SWAP1 PUSH2 0x29B8 JUMP JUMPDEST SWAP1 SWAP2 POP PUSH1 0x1 DUP6 ADD PUSH1 0x0 MSTORE PUSH1 0x20 PUSH1 0x0 KECCAK256 PUSH1 0x1F DUP5 ADD PUSH1 0x5 SHR DUP2 ADD PUSH1 0x20 DUP6 LT PUSH2 0x2A63 JUMPI JUMPDEST SWAP1 DUP5 SWAP4 SWAP3 SWAP2 JUMPDEST PUSH1 0x1F DUP4 ADD PUSH1 0x5 SHR DUP3 ADD DUP2 LT PUSH2 0x2A54 JUMPI POP POP PUSH2 0x24E2 JUMP JUMPDEST PUSH1 0x0 DUP2 SSTORE DUP6 SWAP5 POP PUSH1 0x1 ADD PUSH2 0x2A3E JUMP JUMPDEST POP DUP1 PUSH2 0x2A38 JUMP JUMPDEST PUSH1 0x40 MLOAD PUSH3 0x461BCD PUSH1 0xE5 SHL DUP2 MSTORE PUSH1 0x20 PUSH1 0x4 DUP3 ADD MSTORE PUSH1 0x14 PUSH1 0x24 DUP3 ADD MSTORE PUSH20 0x4576656E7420616C726561647920657869737473 PUSH1 0x60 SHL PUSH1 0x44 DUP3 ADD MSTORE PUSH1 0x64 SWAP1 REVERT JUMPDEST PUSH1 0x40 MLOAD PUSH3 0x461BCD PUSH1 0xE5 SHL DUP2 MSTORE PUSH1 0x20 PUSH1 0x4 DUP3 ADD MSTORE PUSH1 0x1A PUSH1 0x24 DUP3 ADD MSTORE PUSH32 0x5469636B6574204349442063616E6E6F7420626520656D707479000000000000 PUSH1 0x44 DUP3 ADD MSTORE PUSH1 0x64 SWAP1 REVERT JUMPDEST PUSH1 0x40 MLOAD PUSH3 0x461BCD PUSH1 0xE5 SHL DUP2 MSTORE PUSH1 0x20 PUSH1 0x4 DUP3 ADD MSTORE PUSH1 0x1A PUSH1 0x24 DUP3 ADD MSTORE PUSH32 0x506F73746572204349442063616E6E6F7420626520656D707479000000000000 PUSH1 0x44 DUP3 ADD MSTORE PUSH1 0x64 SWAP1 REVERT JUMPDEST PUSH1 0x40 MLOAD PUSH3 0x461BCD PUSH1 0xE5 SHL DUP2 MSTORE PUSH1 0x20 PUSH1 0x4 DUP3 ADD MSTORE PUSH1 0x1C PUSH1 0x24 DUP3 ADD MSTORE PUSH32 0x5072696365206D7573742062652067726561746572207468616E203000000000 PUSH1 0x44 DUP3 ADD MSTORE PUSH1 0x64 SWAP1 REVERT JUMPDEST PUSH1 0x40 MLOAD PUSH3 0x461BCD PUSH1 0xE5 SHL DUP2 MSTORE PUSH1 0x20 PUSH1 0x4 DUP3 ADD MSTORE PUSH1 0x1A PUSH1 0x24 DUP3 ADD MSTORE PUSH32 0x53616C65206D75737420656E64206265666F7265206576656E74000000000000 PUSH1 0x44 DUP3 ADD MSTORE PUSH1 0x64 SWAP1 REVERT JUMPDEST PUSH1 0x40 MLOAD PUSH3 0x461BCD PUSH1 0xE5 SHL DUP2 MSTORE PUSH1 0x20 PUSH1 0x4 DUP3 ADD MSTORE PUSH1 0x23 PUSH1 0x24 DUP3 ADD MSTORE PUSH32 0x53616C6520656E642064617465206D75737420626520696E2074686520667574 PUSH1 0x44 DUP3 ADD MSTORE PUSH3 0x757265 PUSH1 0xE8 SHL PUSH1 0x64 DUP3 ADD MSTORE PUSH1 0x84 SWAP1 REVERT JUMPDEST PUSH1 0x64 PUSH1 0x40 MLOAD PUSH3 0x461BCD PUSH1 0xE5 SHL DUP2 MSTORE PUSH1 0x20 PUSH1 0x4 DUP3 ADD MSTORE PUSH1 0x20 PUSH1 0x24 DUP3 ADD MSTORE PUSH32 0x4576656E742064617465206D75737420626520696E2074686520667574757265 PUSH1 0x44 DUP3 ADD MSTORE REVERT JUMPDEST PUSH1 0x40 MLOAD PUSH3 0x461BCD PUSH1 0xE5 SHL DUP2 MSTORE PUSH1 0x20 PUSH1 0x4 DUP3 ADD MSTORE PUSH1 0x19 PUSH1 0x24 DUP3 ADD MSTORE PUSH32 0x4F7267616E697A65722063616E6E6F7420626520656D70747900000000000000 PUSH1 0x44 DUP3 ADD MSTORE PUSH1 0x64 SWAP1 REVERT JUMPDEST PUSH1 0x40 MLOAD PUSH3 0x461BCD PUSH1 0xE5 SHL DUP2 MSTORE PUSH1 0x20 PUSH1 0x4 DUP3 ADD MSTORE PUSH1 0x1A PUSH1 0x24 DUP3 ADD MSTORE PUSH32 0x4576656E74206E616D652063616E6E6F7420626520656D707479000000000000 PUSH1 0x44 DUP3 ADD MSTORE PUSH1 0x64 SWAP1 REVERT JUMPDEST CALLVALUE PUSH2 0x210 JUMPI PUSH1 0x20 CALLDATASIZE PUSH1 0x3 NOT ADD SLT PUSH2 0x210 JUMPI PUSH1 0x4 CALLDATALOAD PUSH1 0x1 PUSH1 0x1 PUSH1 0x40 SHL SUB DUP2 GT PUSH2 0x210 JUMPI PUSH2 0x2D22 PUSH1 0x20 PUSH2 0x2D0F DUP2 SWAP4 CALLDATASIZE SWAP1 PUSH1 0x4 ADD PUSH2 0x3204 JUMP JUMPDEST DUP2 PUSH1 0x40 MLOAD SWAP4 DUP3 DUP6 DUP1 SWAP5 MLOAD SWAP4 DUP5 SWAP3 ADD PUSH2 0x30DD JUMP JUMPDEST DUP2 ADD PUSH1 0xB DUP2 MSTORE SUB ADD SWAP1 KECCAK256 SLOAD PUSH1 0x40 MLOAD SWAP1 DUP2 MSTORE RETURN JUMPDEST CALLVALUE PUSH2 0x210 JUMPI PUSH2 0x4D1 PUSH2 0x4CC PUSH2 0x2D49 CALLDATASIZE PUSH2 0x3125 JUMP JUMPDEST SWAP1 PUSH1 0x40 MLOAD SWAP3 PUSH2 0x2D57 DUP5 PUSH2 0x3176 JUMP JUMPDEST PUSH1 0x0 DUP5 MSTORE PUSH2 0x4BC PUSH2 0x4B7 DUP5 CALLER PUSH2 0x3545 JUMP JUMPDEST CALLVALUE PUSH2 0x210 JUMPI PUSH1 0x0 CALLDATASIZE PUSH1 0x3 NOT ADD SLT PUSH2 0x210 JUMPI PUSH2 0x2D81 PUSH2 0x336B JUMP JUMPDEST PUSH1 0x7 SLOAD PUSH1 0xFF DUP2 PUSH1 0xA0 SHR AND ISZERO PUSH2 0x2DC8 JUMPI PUSH1 0xFF PUSH1 0xA0 SHL NOT AND PUSH1 0x7 SSTORE PUSH1 0x40 MLOAD CALLER DUP2 MSTORE PUSH32 0x5DB9EE0A495BF2E6FF9C91A7834C1BA4FDD244A5E8AA4E537BD38AEAE4B073AA SWAP1 PUSH1 0x20 SWAP1 LOG1 STOP JUMPDEST PUSH1 0x40 MLOAD PUSH3 0x461BCD PUSH1 0xE5 SHL DUP2 MSTORE PUSH1 0x20 PUSH1 0x4 DUP3 ADD MSTORE PUSH1 0x14 PUSH1 0x24 DUP3 ADD MSTORE PUSH20 0x14185D5CD8589B194E881B9BDD081C185D5CD959 PUSH1 0x62 SHL PUSH1 0x44 DUP3 ADD MSTORE PUSH1 0x64 SWAP1 REVERT JUMPDEST CALLVALUE PUSH2 0x210 JUMPI PUSH1 0x0 CALLDATASIZE PUSH1 0x3 NOT ADD SLT PUSH2 0x210 JUMPI PUSH2 0x2E1D PUSH2 0x336B JUMP JUMPDEST PUSH1 0x0 DUP1 DUP1 DUP1 PUSH1 0x1 DUP1 PUSH1 0xA0 SHL SUB PUSH1 0x7 SLOAD AND SELFBALANCE SWAP1 DUP3 DUP3 ISZERO PUSH2 0x2E3F JUMPI JUMPDEST CALL ISZERO PUSH2 0x1A69 JUMPI STOP JUMPDEST POP PUSH2 0x8FC PUSH2 0x2E37 JUMP JUMPDEST CALLVALUE PUSH2 0x210 JUMPI PUSH2 0x4D1 PUSH2 0x2E59 CALLDATASIZE PUSH2 0x3125 JUMP JUMPDEST SWAP2 PUSH2 0x2E67 PUSH2 0x4B7 DUP5 CALLER PUSH2 0x3545 JUMP JUMPDEST PUSH2 0x360D JUMP JUMPDEST CALLVALUE PUSH2 0x210 JUMPI PUSH1 0x40 CALLDATASIZE PUSH1 0x3 NOT ADD SLT PUSH2 0x210 JUMPI PUSH2 0x2E85 PUSH2 0x3082 JUMP JUMPDEST POP PUSH1 0x40 MLOAD PUSH3 0x461BCD PUSH1 0xE5 SHL DUP2 MSTORE DUP1 PUSH2 0x53B PUSH1 0x4 DUP3 ADD PUSH2 0x3E0A JUMP JUMPDEST CALLVALUE PUSH2 0x210 JUMPI PUSH1 0x20 CALLDATASIZE PUSH1 0x3 NOT ADD SLT PUSH2 0x210 JUMPI PUSH1 0x20 PUSH2 0x1C28 PUSH1 0x4 CALLDATALOAD PUSH2 0x3432 JUMP JUMPDEST CALLVALUE PUSH2 0x210 JUMPI PUSH1 0x0 CALLDATASIZE PUSH1 0x3 NOT ADD SLT PUSH2 0x210 JUMPI PUSH1 0x40 MLOAD PUSH1 0x0 DUP1 SLOAD PUSH2 0x2EDE DUP2 PUSH2 0x3222 JUMP JUMPDEST DUP1 DUP5 MSTORE SWAP1 PUSH1 0x1 SWAP1 DUP2 DUP2 AND SWAP1 DUP2 ISZERO PUSH2 0xB5B JUMPI POP PUSH1 0x1 EQ PUSH2 0x2F07 JUMPI PUSH2 0x383 DUP5 PUSH2 0xAEE DUP2 DUP7 SUB DUP3 PUSH2 0x3191 JUMP JUMPDEST PUSH1 0x0 DUP1 DUP1 MSTORE SWAP3 POP PUSH32 0x290DECD9548B62A8D60345A988386FC84BA6BC95484008F6362F93160EF3E563 JUMPDEST DUP3 DUP5 LT PUSH2 0x2F48 JUMPI POP POP POP DUP2 ADD PUSH1 0x20 ADD PUSH2 0xAEE DUP3 PUSH2 0xADE JUMP JUMPDEST DUP1 SLOAD PUSH1 0x20 DUP6 DUP8 ADD DUP2 ADD SWAP2 SWAP1 SWAP2 MSTORE SWAP1 SWAP4 ADD SWAP3 DUP2 ADD PUSH2 0x2F30 JUMP JUMPDEST CALLVALUE PUSH2 0x210 JUMPI PUSH2 0x2F6E CALLDATASIZE PUSH2 0x30AE JUMP JUMPDEST SWAP1 PUSH2 0x2F77 PUSH2 0x336B JUMP JUMPDEST PUSH1 0x1 PUSH1 0x1 PUSH1 0xA0 SHL SUB AND SWAP1 DUP2 ISZERO PUSH2 0x2FD2 JUMPI PUSH1 0x20 PUSH32 0xA8EEC2D2D416E596C8297A3F142564EB940A4DC7200409B9CA519688B95A7361 SWAP2 DUP4 PUSH1 0x0 MSTORE PUSH1 0xF DUP3 MSTORE PUSH1 0x40 PUSH1 0x0 KECCAK256 SWAP1 ISZERO ISZERO SWAP1 PUSH1 0xFF NOT DUP2 SLOAD AND PUSH1 0xFF DUP4 AND OR SWAP1 SSTORE PUSH1 0x40 MLOAD SWAP1 DUP2 MSTORE LOG2 STOP JUMPDEST PUSH1 0x40 MLOAD PUSH3 0x461BCD PUSH1 0xE5 SHL DUP2 MSTORE PUSH1 0x20 PUSH1 0x4 DUP3 ADD MSTORE PUSH1 0x1A PUSH1 0x24 DUP3 ADD MSTORE PUSH32 0x496E76616C696420676174656B65657065722061646472657373000000000000 PUSH1 0x44 DUP3 ADD MSTORE PUSH1 0x64 SWAP1 REVERT JUMPDEST CALLVALUE PUSH2 0x210 JUMPI PUSH1 0x20 CALLDATASIZE PUSH1 0x3 NOT ADD SLT PUSH2 0x210 JUMPI PUSH1 0x4 CALLDATALOAD SWAP1 PUSH4 0xFFFFFFFF PUSH1 0xE0 SHL DUP3 AND DUP1 SWAP3 SUB PUSH2 0x210 JUMPI PUSH1 0x20 SWAP2 PUSH4 0x80AC58CD PUSH1 0xE0 SHL DUP2 EQ SWAP1 DUP2 ISZERO PUSH2 0x3071 JUMPI JUMPDEST DUP2 ISZERO PUSH2 0x3060 JUMPI JUMPDEST POP ISZERO ISZERO DUP2 MSTORE RETURN JUMPDEST PUSH4 0x1FFC9A7 PUSH1 0xE0 SHL EQ SWAP1 POP DUP4 PUSH2 0x3059 JUMP JUMPDEST PUSH4 0x5B5E139F PUSH1 0xE0 SHL DUP2 EQ SWAP2 POP PUSH2 0x3052 JUMP JUMPDEST PUSH1 0x4 CALLDATALOAD SWAP1 PUSH1 0x1 PUSH1 0x1 PUSH1 0xA0 SHL SUB DUP3 AND DUP3 SUB PUSH2 0x210 JUMPI JUMP JUMPDEST PUSH1 0x24 CALLDATALOAD SWAP1 PUSH1 0x1 PUSH1 0x1 PUSH1 0xA0 SHL SUB DUP3 AND DUP3 SUB PUSH2 0x210 JUMPI JUMP JUMPDEST PUSH1 0x40 SWAP1 PUSH1 0x3 NOT ADD SLT PUSH2 0x210 JUMPI PUSH1 0x4 CALLDATALOAD PUSH1 0x1 PUSH1 0x1 PUSH1 0xA0 SHL SUB DUP2 AND DUP2 SUB PUSH2 0x210 JUMPI SWAP1 PUSH1 0x24 CALLDATALOAD DUP1 ISZERO ISZERO DUP2 SUB PUSH2 0x210 JUMPI SWAP1 JUMP JUMPDEST PUSH1 0x0 JUMPDEST DUP4 DUP2 LT PUSH2 0x30F0 JUMPI POP POP PUSH1 0x0 SWAP2 ADD MSTORE JUMP JUMPDEST DUP2 DUP2 ADD MLOAD DUP4 DUP3 ADD MSTORE PUSH1 0x20 ADD PUSH2 0x30E0 JUMP JUMPDEST SWAP1 PUSH1 0x20 SWAP2 PUSH2 0x3119 DUP2 MLOAD DUP1 SWAP3 DUP2 DUP6 MSTORE DUP6 DUP1 DUP7 ADD SWAP2 ADD PUSH2 0x30DD JUMP JUMPDEST PUSH1 0x1F ADD PUSH1 0x1F NOT AND ADD ADD SWAP1 JUMP JUMPDEST PUSH1 0x60 SWAP1 PUSH1 0x3 NOT ADD SLT PUSH2 0x210 JUMPI PUSH1 0x1 PUSH1 0x1 PUSH1 0xA0 SHL SUB SWAP1 PUSH1 0x4 CALLDATALOAD DUP3 DUP2 AND DUP2 SUB PUSH2 0x210 JUMPI SWAP2 PUSH1 0x24 CALLDATALOAD SWAP1 DUP2 AND DUP2 SUB PUSH2 0x210 JUMPI SWAP1 PUSH1 0x44 CALLDATALOAD SWAP1 JUMP JUMPDEST PUSH2 0x200 DUP2 ADD SWAP1 DUP2 LT PUSH1 0x1 PUSH1 0x1 PUSH1 0x40 SHL SUB DUP3 GT OR PUSH2 0x17E3 JUMPI PUSH1 0x40 MSTORE JUMP JUMPDEST PUSH1 0x20 DUP2 ADD SWAP1 DUP2 LT PUSH1 0x1 PUSH1 0x1 PUSH1 0x40 SHL SUB DUP3 GT OR PUSH2 0x17E3 JUMPI PUSH1 0x40 MSTORE JUMP JUMPDEST SWAP1 PUSH1 0x1F DUP1 NOT SWAP2 ADD AND DUP2 ADD SWAP1 DUP2 LT PUSH1 0x1 PUSH1 0x1 PUSH1 0x40 SHL SUB DUP3 GT OR PUSH2 0x17E3 JUMPI PUSH1 0x40 MSTORE JUMP JUMPDEST PUSH1 0x1 PUSH1 0x1 PUSH1 0x40 SHL SUB DUP2 GT PUSH2 0x17E3 JUMPI PUSH1 0x1F ADD PUSH1 0x1F NOT AND PUSH1 0x20 ADD SWAP1 JUMP JUMPDEST SWAP3 SWAP2 SWAP3 PUSH2 0x31D9 DUP3 PUSH2 0x31B2 JUMP JUMPDEST SWAP2 PUSH2 0x31E7 PUSH1 0x40 MLOAD SWAP4 DUP5 PUSH2 0x3191 JUMP JUMPDEST DUP3 SWAP5 DUP2 DUP5 MSTORE DUP2 DUP4 ADD GT PUSH2 0x210 JUMPI DUP3 DUP2 PUSH1 0x20 SWAP4 DUP5 PUSH1 0x0 SWAP7 ADD CALLDATACOPY ADD ADD MSTORE JUMP JUMPDEST SWAP1 DUP1 PUSH1 0x1F DUP4 ADD SLT ISZERO PUSH2 0x210 JUMPI DUP2 PUSH1 0x20 PUSH2 0x321F SWAP4 CALLDATALOAD SWAP2 ADD PUSH2 0x31CD JUMP JUMPDEST SWAP1 JUMP JUMPDEST SWAP1 PUSH1 0x1 DUP3 DUP2 SHR SWAP3 AND DUP1 ISZERO PUSH2 0x3252 JUMPI JUMPDEST PUSH1 0x20 DUP4 LT EQ PUSH2 0x323C JUMPI JUMP JUMPDEST PUSH4 0x4E487B71 PUSH1 0xE0 SHL PUSH1 0x0 MSTORE PUSH1 0x22 PUSH1 0x4 MSTORE PUSH1 0x24 PUSH1 0x0 REVERT JUMPDEST SWAP2 PUSH1 0x7F AND SWAP2 PUSH2 0x3231 JUMP JUMPDEST SWAP1 PUSH1 0x40 MLOAD SWAP2 DUP3 PUSH1 0x0 DUP3 SLOAD SWAP3 PUSH2 0x3270 DUP5 PUSH2 0x3222 JUMP JUMPDEST SWAP1 DUP2 DUP5 MSTORE PUSH1 0x1 SWAP5 DUP6 DUP2 AND SWAP1 DUP2 PUSH1 0x0 EQ PUSH2 0x32DF JUMPI POP PUSH1 0x1 EQ PUSH2 0x329C JUMPI JUMPDEST POP POP PUSH2 0x329A SWAP3 POP SUB DUP4 PUSH2 0x3191 JUMP JUMPDEST JUMP JUMPDEST SWAP1 SWAP4 SWAP2 POP PUSH1 0x0 MSTORE PUSH1 0x20 SWAP1 DUP2 PUSH1 0x0 KECCAK256 SWAP4 PUSH1 0x0 SWAP2 JUMPDEST DUP2 DUP4 LT PUSH2 0x32C7 JUMPI POP POP PUSH2 0x329A SWAP4 POP DUP3 ADD ADD CODESIZE DUP1 PUSH2 0x328C JUMP JUMPDEST DUP6 SLOAD DUP9 DUP5 ADD DUP6 ADD MSTORE SWAP5 DUP6 ADD SWAP5 DUP8 SWAP5 POP SWAP2 DUP4 ADD SWAP2 PUSH2 0x32AF JUMP JUMPDEST SWAP2 POP POP PUSH2 0x329A SWAP5 POP PUSH1 0x20 SWAP3 POP PUSH1 0xFF NOT AND DUP3 DUP5 ADD MSTORE ISZERO ISZERO PUSH1 0x5 SHL DUP3 ADD ADD CODESIZE DUP1 PUSH2 0x328C JUMP JUMPDEST PUSH1 0x20 SWAP1 DUP2 PUSH1 0x40 DUP2 DUP4 ADD SWAP3 DUP3 DUP2 MSTORE DUP6 MLOAD DUP1 SWAP5 MSTORE ADD SWAP4 ADD SWAP2 PUSH1 0x0 JUMPDEST DUP3 DUP2 LT PUSH2 0x3329 JUMPI POP POP POP POP SWAP1 JUMP JUMPDEST DUP4 MLOAD DUP6 MSTORE SWAP4 DUP2 ADD SWAP4 SWAP3 DUP2 ADD SWAP3 PUSH1 0x1 ADD PUSH2 0x331B JUMP JUMPDEST DUP1 SLOAD DUP3 LT ISZERO PUSH2 0x3355 JUMPI PUSH1 0x0 MSTORE PUSH1 0x20 PUSH1 0x0 KECCAK256 ADD SWAP1 PUSH1 0x0 SWAP1 JUMP JUMPDEST PUSH4 0x4E487B71 PUSH1 0xE0 SHL PUSH1 0x0 MSTORE PUSH1 0x32 PUSH1 0x4 MSTORE PUSH1 0x24 PUSH1 0x0 REVERT JUMPDEST PUSH1 0x7 SLOAD PUSH1 0x1 PUSH1 0x1 PUSH1 0xA0 SHL SUB AND CALLER SUB PUSH2 0x337F JUMPI JUMP JUMPDEST PUSH1 0x64 PUSH1 0x40 MLOAD PUSH3 0x461BCD PUSH1 0xE5 SHL DUP2 MSTORE PUSH1 0x20 PUSH1 0x4 DUP3 ADD MSTORE PUSH1 0x20 PUSH1 0x24 DUP3 ADD MSTORE PUSH32 0x4F776E61626C653A2063616C6C6572206973206E6F7420746865206F776E6572 PUSH1 0x44 DUP3 ADD MSTORE REVERT JUMPDEST ISZERO PUSH2 0x33CA JUMPI JUMP JUMPDEST PUSH1 0x40 MLOAD PUSH3 0x461BCD PUSH1 0xE5 SHL DUP2 MSTORE PUSH1 0x20 PUSH1 0x4 DUP3 ADD MSTORE PUSH1 0x18 PUSH1 0x24 DUP3 ADD MSTORE PUSH32 0x4552433732313A20696E76616C696420746F6B656E2049440000000000000000 PUSH1 0x44 DUP3 ADD MSTORE PUSH1 0x64 SWAP1 REVERT JUMPDEST PUSH1 0x0 SWAP1 DUP2 MSTORE PUSH1 0x2 PUSH1 0x20 MSTORE PUSH1 0x40 SWAP1 KECCAK256 SLOAD PUSH1 0x1 PUSH1 0x1 PUSH1 0xA0 SHL SUB AND PUSH2 0x321F DUP2 ISZERO ISZERO PUSH2 0x33C3 JUMP JUMPDEST PUSH1 0x0 DUP2 DUP2 MSTORE PUSH1 0x2 PUSH1 0x20 MSTORE PUSH1 0x40 SWAP1 KECCAK256 SLOAD PUSH2 0x3455 SWAP1 PUSH1 0x1 PUSH1 0x1 PUSH1 0xA0 SHL SUB AND ISZERO ISZERO PUSH2 0x33C3 JUMP JUMPDEST PUSH1 0x0 SWAP1 DUP2 MSTORE PUSH1 0x4 PUSH1 0x20 MSTORE PUSH1 0x40 SWAP1 KECCAK256 SLOAD PUSH1 0x1 PUSH1 0x1 PUSH1 0xA0 SHL SUB AND SWAP1 JUMP JUMPDEST ISZERO PUSH2 0x3477 JUMPI JUMP JUMPDEST PUSH1 0x40 MLOAD PUSH3 0x461BCD PUSH1 0xE5 SHL DUP2 MSTORE PUSH1 0x20 PUSH1 0x4 DUP3 ADD MSTORE PUSH1 0x2D PUSH1 0x24 DUP3 ADD MSTORE PUSH32 0x4552433732313A2063616C6C6572206973206E6F7420746F6B656E206F776E65 PUSH1 0x44 DUP3 ADD MSTORE PUSH13 0x1C881BDC88185C1C1C9BDD9959 PUSH1 0x9A SHL PUSH1 0x64 DUP3 ADD MSTORE PUSH1 0x84 SWAP1 REVERT JUMPDEST PUSH1 0x80 SWAP1 PUSH1 0x20 DUP2 MSTORE PUSH1 0x32 PUSH1 0x20 DUP3 ADD MSTORE PUSH32 0x4552433732313A207472616E7366657220746F206E6F6E204552433732315265 PUSH1 0x40 DUP3 ADD MSTORE PUSH18 0x31B2B4BB32B91034B6B83632B6B2B73A32B9 PUSH1 0x71 SHL PUSH1 0x60 DUP3 ADD MSTORE ADD SWAP1 JUMP JUMPDEST ISZERO PUSH2 0x352C JUMPI JUMP JUMPDEST PUSH1 0x40 MLOAD PUSH3 0x461BCD PUSH1 0xE5 SHL DUP2 MSTORE DUP1 PUSH2 0x53B PUSH1 0x4 DUP3 ADD PUSH2 0x34D2 JUMP JUMPDEST SWAP1 PUSH1 0x1 PUSH1 0x1 PUSH1 0xA0 SHL SUB DUP1 DUP1 PUSH2 0x3559 DUP5 PUSH2 0x340F JUMP JUMPDEST AND SWAP4 AND SWAP2 DUP4 DUP4 EQ SWAP4 DUP5 ISZERO PUSH2 0x358C JUMPI JUMPDEST POP DUP4 ISZERO PUSH2 0x3576 JUMPI JUMPDEST POP POP POP SWAP1 JUMP JUMPDEST PUSH2 0x3582 SWAP2 SWAP3 SWAP4 POP PUSH2 0x3432 JUMP JUMPDEST AND EQ CODESIZE DUP1 DUP1 PUSH2 0x3570 JUMP JUMPDEST SWAP1 SWAP4 POP PUSH1 0x0 MSTORE PUSH1 0x5 PUSH1 0x20 MSTORE PUSH1 0x40 PUSH1 0x0 KECCAK256 DUP3 PUSH1 0x0 MSTORE PUSH1 0x20 MSTORE PUSH1 0xFF PUSH1 0x40 PUSH1 0x0 KECCAK256 SLOAD AND SWAP3 CODESIZE PUSH2 0x3568 JUMP JUMPDEST ISZERO PUSH2 0x35BA JUMPI JUMP JUMPDEST PUSH1 0x40 MLOAD PUSH3 0x461BCD PUSH1 0xE5 SHL DUP2 MSTORE PUSH1 0x20 PUSH1 0x4 DUP3 ADD MSTORE PUSH1 0x25 PUSH1 0x24 DUP3 ADD MSTORE PUSH32 0x4552433732313A207472616E736665722066726F6D20696E636F727265637420 PUSH1 0x44 DUP3 ADD MSTORE PUSH5 0x37BBB732B9 PUSH1 0xD9 SHL PUSH1 0x64 DUP3 ADD MSTORE PUSH1 0x84 SWAP1 REVERT JUMPDEST SWAP1 PUSH2 0x3635 SWAP2 PUSH2 0x361B DUP5 PUSH2 0x340F JUMP JUMPDEST PUSH1 0x1 PUSH1 0x1 PUSH1 0xA0 SHL SUB SWAP4 SWAP2 DUP5 AND SWAP3 DUP5 SWAP3 SWAP1 SWAP2 DUP4 AND DUP5 EQ PUSH2 0x35B3 JUMP JUMPDEST AND SWAP2 DUP3 ISZERO PUSH2 0x3733 JUMPI DUP2 ISZERO DUP1 ISZERO PUSH2 0x372B JUMPI JUMPDEST DUP1 ISZERO PUSH2 0x371E JUMPI JUMPDEST DUP1 ISZERO PUSH2 0x3702 JUMPI JUMPDEST ISZERO PUSH2 0x36E9 JUMPI DUP2 PUSH2 0x366E SWAP2 PUSH2 0x3667 DUP7 PUSH2 0x340F JUMP JUMPDEST AND EQ PUSH2 0x35B3 JUMP JUMPDEST PUSH32 0xDDF252AD1BE2C89B69C2B068FC378DAA952BA7F163C4A11628F55A4DF523B3EF PUSH1 0x0 DUP5 DUP2 MSTORE PUSH1 0x4 PUSH1 0x20 MSTORE PUSH1 0x40 DUP2 KECCAK256 PUSH1 0x1 PUSH1 0x1 PUSH1 0x60 SHL SUB PUSH1 0xA0 SHL SWAP1 DUP2 DUP2 SLOAD AND SWAP1 SSTORE DUP4 DUP3 MSTORE PUSH1 0x3 PUSH1 0x20 MSTORE PUSH1 0x40 DUP3 KECCAK256 PUSH1 0x0 NOT DUP2 SLOAD ADD SWAP1 SSTORE DUP5 DUP3 MSTORE PUSH1 0x40 DUP3 KECCAK256 PUSH1 0x1 DUP2 SLOAD ADD SWAP1 SSTORE DUP6 DUP3 MSTORE PUSH1 0x2 PUSH1 0x20 MSTORE DUP5 PUSH1 0x40 DUP4 KECCAK256 SWAP2 DUP3 SLOAD AND OR SWAP1 SSTORE DUP1 LOG4 JUMP JUMPDEST PUSH1 0x40 MLOAD PUSH3 0x461BCD PUSH1 0xE5 SHL DUP2 MSTORE DUP1 PUSH2 0x53B PUSH1 0x4 DUP3 ADD PUSH2 0x3E0A JUMP JUMPDEST POP DUP4 PUSH1 0x0 MSTORE PUSH1 0x9 PUSH1 0x20 MSTORE DUP1 PUSH1 0x8 PUSH1 0x40 PUSH1 0x0 KECCAK256 ADD SLOAD AND CALLER EQ PUSH2 0x3654 JUMP JUMPDEST POP DUP1 PUSH1 0x7 SLOAD AND CALLER EQ PUSH2 0x364D JUMP JUMPDEST POP PUSH1 0x0 PUSH2 0x3646 JUMP JUMPDEST PUSH1 0x40 MLOAD PUSH3 0x461BCD PUSH1 0xE5 SHL DUP2 MSTORE PUSH1 0x20 PUSH1 0x4 DUP3 ADD MSTORE PUSH1 0x24 DUP1 DUP3 ADD MSTORE PUSH32 0x4552433732313A207472616E7366657220746F20746865207A65726F20616464 PUSH1 0x44 DUP3 ADD MSTORE PUSH4 0x72657373 PUSH1 0xE0 SHL PUSH1 0x64 DUP3 ADD MSTORE PUSH1 0x84 SWAP1 REVERT JUMPDEST SWAP2 SWAP3 PUSH1 0x0 SWAP3 SWAP1 SWAP2 SWAP1 DUP1 EXTCODESIZE ISZERO PUSH2 0x389A JUMPI PUSH2 0x37D2 SWAP5 PUSH1 0x40 MLOAD DUP1 SWAP3 PUSH4 0xA85BD01 PUSH1 0xE1 SHL SWAP5 DUP6 DUP4 MSTORE CALLER PUSH1 0x4 DUP5 ADD MSTORE DUP8 PUSH1 0x24 DUP5 ADD MSTORE PUSH1 0x44 DUP4 ADD MSTORE PUSH1 0x80 PUSH1 0x64 DUP4 ADD MSTORE DUP2 DUP8 DUP2 PUSH1 0x20 SWAP11 DUP12 SWAP7 PUSH1 0x84 DUP4 ADD SWAP1 PUSH2 0x3100 JUMP JUMPDEST SUB SWAP3 PUSH1 0x1 PUSH1 0x1 PUSH1 0xA0 SHL SUB AND GAS CALL DUP5 SWAP2 DUP2 PUSH2 0x3856 JUMPI JUMPDEST POP PUSH2 0x3845 JUMPI POP POP POP RETURNDATASIZE PUSH1 0x0 EQ PUSH2 0x383D JUMPI RETURNDATASIZE PUSH2 0x3801 DUP2 PUSH2 0x31B2 JUMP JUMPDEST SWAP1 PUSH2 0x380F PUSH1 0x40 MLOAD SWAP3 DUP4 PUSH2 0x3191 JUMP JUMPDEST DUP2 MSTORE DUP1 SWAP2 DUP4 RETURNDATASIZE SWAP3 ADD RETURNDATACOPY JUMPDEST DUP1 MLOAD SWAP2 DUP3 PUSH2 0x383A JUMPI PUSH1 0x40 MLOAD PUSH3 0x461BCD PUSH1 0xE5 SHL DUP2 MSTORE DUP1 PUSH2 0x53B PUSH1 0x4 DUP3 ADD PUSH2 0x34D2 JUMP JUMPDEST ADD REVERT JUMPDEST POP PUSH1 0x60 PUSH2 0x3819 JUMP JUMPDEST PUSH1 0x1 PUSH1 0x1 PUSH1 0xE0 SHL SUB NOT AND EQ SWAP3 POP SWAP1 POP JUMP JUMPDEST SWAP1 SWAP2 POP DUP6 DUP2 DUP2 RETURNDATASIZE DUP4 GT PUSH2 0x3893 JUMPI JUMPDEST PUSH2 0x386E DUP2 DUP4 PUSH2 0x3191 JUMP JUMPDEST DUP2 ADD SUB SLT PUSH2 0x388F JUMPI MLOAD PUSH1 0x1 PUSH1 0x1 PUSH1 0xE0 SHL SUB NOT DUP2 AND DUP2 SUB PUSH2 0x388F JUMPI SWAP1 CODESIZE PUSH2 0x37E7 JUMP JUMPDEST DUP5 DUP1 REVERT JUMPDEST POP RETURNDATASIZE PUSH2 0x3864 JUMP JUMPDEST POP POP SWAP2 POP POP PUSH1 0x1 SWAP1 JUMP JUMPDEST SWAP3 SWAP4 PUSH1 0x0 SWAP4 SWAP1 SWAP3 SWAP2 DUP1 EXTCODESIZE ISZERO PUSH2 0x3924 JUMPI SWAP5 DUP5 SWAP2 PUSH2 0x38FE SWAP7 PUSH1 0x40 MLOAD DUP1 SWAP5 DUP2 SWAP4 PUSH4 0xA85BD01 PUSH1 0xE1 SHL SWAP8 DUP9 DUP5 MSTORE CALLER PUSH1 0x4 DUP6 ADD MSTORE PUSH1 0x1 DUP1 PUSH1 0xA0 SHL SUB DUP1 SWAP3 AND PUSH1 0x24 DUP6 ADD MSTORE PUSH1 0x44 DUP5 ADD MSTORE PUSH1 0x80 PUSH1 0x64 DUP5 ADD MSTORE DUP3 PUSH1 0x20 SWAP12 DUP13 SWAP8 PUSH1 0x84 DUP4 ADD SWAP1 PUSH2 0x3100 JUMP JUMPDEST SUB SWAP4 AND GAS CALL DUP5 SWAP2 DUP2 PUSH2 0x3856 JUMPI POP PUSH2 0x3845 JUMPI POP POP POP RETURNDATASIZE PUSH1 0x0 EQ PUSH2 0x383D JUMPI RETURNDATASIZE PUSH2 0x3801 DUP2 PUSH2 0x31B2 JUMP JUMPDEST POP POP POP SWAP2 POP POP PUSH1 0x1 SWAP1 JUMP JUMPDEST ISZERO PUSH2 0x3936 JUMPI JUMP JUMPDEST PUSH1 0x40 MLOAD PUSH3 0x461BCD PUSH1 0xE5 SHL DUP2 MSTORE PUSH1 0x20 PUSH1 0x4 DUP3 ADD MSTORE PUSH1 0x24 DUP1 DUP3 ADD MSTORE PUSH32 0x546F74616C207469636B657473206D7573742062652067726561746572207468 PUSH1 0x44 DUP3 ADD MSTORE PUSH4 0x616E203 PUSH1 0xE4 SHL PUSH1 0x64 DUP3 ADD MSTORE PUSH1 0x84 SWAP1 REVERT JUMPDEST PUSH1 0xFF PUSH1 0x7 SLOAD PUSH1 0xA0 SHR AND PUSH2 0x3996 JUMPI JUMP JUMPDEST PUSH1 0x40 MLOAD PUSH3 0x461BCD PUSH1 0xE5 SHL DUP2 MSTORE PUSH1 0x20 PUSH1 0x4 DUP3 ADD MSTORE PUSH1 0x10 PUSH1 0x24 DUP3 ADD MSTORE PUSH16 0x14185D5CD8589B194E881C185D5CD959 PUSH1 0x82 SHL PUSH1 0x44 DUP3 ADD MSTORE PUSH1 0x64 SWAP1 REVERT JUMPDEST ISZERO PUSH2 0x39D5 JUMPI JUMP JUMPDEST PUSH1 0x40 MLOAD PUSH3 0x461BCD PUSH1 0xE5 SHL DUP2 MSTORE PUSH1 0x20 PUSH1 0x4 DUP3 ADD MSTORE PUSH1 0x15 PUSH1 0x24 DUP3 ADD MSTORE PUSH21 0x151A58DAD95D08191BD95CC81B9BDD08195E1A5CDD PUSH1 0x5A SHL PUSH1 0x44 DUP3 ADD MSTORE PUSH1 0x64 SWAP1 REVERT JUMPDEST ISZERO PUSH2 0x3A19 JUMPI JUMP JUMPDEST PUSH1 0x40 MLOAD PUSH3 0x461BCD PUSH1 0xE5 SHL DUP2 MSTORE PUSH1 0x20 PUSH1 0x4 DUP3 ADD MSTORE PUSH1 0x18 PUSH1 0x24 DUP3 ADD MSTORE PUSH32 0x5469636B657420686173206265656E20726566756E6465640000000000000000 PUSH1 0x44 DUP3 ADD MSTORE PUSH1 0x64 SWAP1 REVERT JUMPDEST SWAP1 PUSH1 0x40 MLOAD DUP1 SWAP3 PUSH1 0x0 SWAP1 DUP1 SLOAD PUSH2 0x3A72 DUP2 PUSH2 0x3222 JUMP JUMPDEST SWAP2 PUSH1 0x1 SWAP2 DUP1 DUP4 AND SWAP1 DUP2 ISZERO PUSH2 0x3AD6 JUMPI POP PUSH1 0x1 EQ PUSH2 0x3A98 JUMPI JUMPDEST POP POP POP PUSH1 0x20 SWAP3 DUP2 MSTORE SUB ADD SWAP1 KECCAK256 SWAP1 JUMP JUMPDEST PUSH1 0x0 SWAP1 DUP2 MSTORE PUSH1 0x20 DUP1 DUP3 KECCAK256 SWAP7 SWAP5 POP SWAP2 JUMPDEST DUP4 DUP3 LT PUSH2 0x3AC0 JUMPI POP POP POP PUSH1 0x20 SWAP4 POP DUP3 ADD SWAP1 SWAP3 CODESIZE DUP1 PUSH2 0x3A89 JUMP JUMPDEST DUP7 SLOAD DUP9 DUP4 ADD MSTORE SWAP6 DUP7 ADD SWAP6 DUP8 SWAP6 POP SWAP1 DUP3 ADD SWAP1 PUSH2 0x3AA7 JUMP JUMPDEST PUSH1 0xFF NOT AND DUP7 MSTORE POP POP POP DUP1 ISZERO ISZERO MUL DUP3 ADD SWAP1 POP PUSH1 0x20 CODESIZE DUP1 PUSH2 0x3A89 JUMP JUMPDEST SWAP1 DUP2 SLOAD SWAP2 PUSH9 0x10000000000000000 DUP4 LT ISZERO PUSH2 0x17E3 JUMPI DUP3 PUSH2 0x7AB SWAP2 PUSH1 0x1 PUSH2 0x329A SWAP6 ADD DUP2 SSTORE PUSH2 0x333D JUMP JUMPDEST PUSH1 0x2 PUSH1 0x6 SLOAD EQ PUSH2 0x3B29 JUMPI PUSH1 0x2 PUSH1 0x6 SSTORE JUMP JUMPDEST PUSH1 0x40 MLOAD PUSH3 0x461BCD PUSH1 0xE5 SHL DUP2 MSTORE PUSH1 0x20 PUSH1 0x4 DUP3 ADD MSTORE PUSH1 0x1F PUSH1 0x24 DUP3 ADD MSTORE PUSH32 0x5265656E7472616E637947756172643A207265656E7472616E742063616C6C00 PUSH1 0x44 DUP3 ADD MSTORE PUSH1 0x64 SWAP1 REVERT JUMPDEST ISZERO PUSH2 0x3B75 JUMPI JUMP JUMPDEST PUSH1 0x40 MLOAD PUSH3 0x461BCD PUSH1 0xE5 SHL DUP2 MSTORE PUSH1 0x20 PUSH1 0x4 DUP3 ADD MSTORE PUSH1 0xF PUSH1 0x24 DUP3 ADD MSTORE PUSH15 0x151A58DAD95D081B9BDD081CDBDB19 PUSH1 0x8A SHL PUSH1 0x44 DUP3 ADD MSTORE PUSH1 0x64 SWAP1 REVERT JUMPDEST ISZERO PUSH2 0x3BB3 JUMPI JUMP JUMPDEST PUSH1 0x40 MLOAD PUSH3 0x461BCD PUSH1 0xE5 SHL DUP2 MSTORE PUSH1 0x20 PUSH1 0x4 DUP3 ADD MSTORE PUSH1 0x1C PUSH1 0x24 DUP3 ADD MSTORE PUSH32 0x4552433732313A20746F6B656E20616C7265616479206D696E74656400000000 PUSH1 0x44 DUP3 ADD MSTORE PUSH1 0x64 SWAP1 REVERT JUMPDEST PUSH1 0x0 NOT DUP2 EQ PUSH2 0x836 JUMPI PUSH1 0x1 ADD SWAP1 JUMP JUMPDEST PUSH1 0x0 SWAP1 DUP1 DUP3 MSTORE PUSH1 0x9 PUSH1 0x20 MSTORE PUSH1 0x40 DUP3 KECCAK256 SWAP1 PUSH1 0x40 MLOAD PUSH2 0x3C23 DUP2 PUSH2 0x315A JUMP JUMPDEST DUP3 SLOAD DUP2 MSTORE PUSH2 0x3C33 PUSH1 0x1 DUP5 ADD PUSH2 0x325C JUMP JUMPDEST PUSH1 0x20 DUP3 ADD MSTORE PUSH2 0x3C44 PUSH1 0x2 DUP5 ADD PUSH2 0x325C JUMP JUMPDEST PUSH1 0x40 DUP3 ADD MSTORE PUSH1 0x3 DUP4 ADD SLOAD PUSH1 0x60 DUP3 ADD MSTORE PUSH1 0x4 DUP4 ADD SLOAD PUSH1 0x80 DUP3 ADD MSTORE PUSH1 0x5 DUP4 ADD SLOAD PUSH1 0xA0 DUP3 ADD MSTORE PUSH2 0x3C73 PUSH1 0x6 DUP5 ADD PUSH2 0x325C JUMP JUMPDEST PUSH1 0xC0 DUP3 ADD MSTORE PUSH2 0x3C84 PUSH1 0x7 DUP5 ADD PUSH2 0x325C JUMP JUMPDEST PUSH1 0xE0 DUP3 ADD MSTORE PUSH1 0x1 DUP1 PUSH1 0xA0 SHL SUB SWAP3 DUP4 PUSH1 0x8 DUP3 ADD SLOAD AND PUSH2 0x100 DUP4 ADD MSTORE PUSH1 0x9 DUP2 ADD SLOAD SWAP2 DUP5 DUP4 AND PUSH2 0x120 DUP3 ADD MSTORE PUSH1 0xFF DUP4 PUSH1 0xA0 SHR AND ISZERO ISZERO PUSH2 0x140 DUP3 ADD MSTORE PUSH1 0xB PUSH1 0xFF DUP5 PUSH1 0xA8 SHR AND ISZERO SWAP3 DUP4 ISZERO PUSH2 0x160 DUP5 ADD MSTORE PUSH1 0xFF DUP1 DUP7 PUSH1 0xB0 SHR AND ISZERO ISZERO SWAP6 DUP7 PUSH2 0x180 DUP7 ADD MSTORE PUSH1 0xB8 SHR AND ISZERO ISZERO PUSH2 0x1A0 DUP5 ADD MSTORE PUSH1 0xA DUP2 ADD SLOAD PUSH2 0x1C0 DUP5 ADD MSTORE ADD SLOAD PUSH2 0x1E0 DUP3 ADD MSTORE MLOAD ISZERO PUSH2 0x3D2A JUMPI PUSH2 0x3570 JUMPI PUSH2 0x3D25 JUMPI PUSH2 0x3D17 SWAP1 PUSH2 0x340F JUMP JUMPDEST CALLER SWAP2 AND SUB PUSH2 0x321F JUMPI POP PUSH1 0x1 SWAP1 JUMP JUMPDEST POP POP SWAP1 JUMP JUMPDEST POP POP POP POP SWAP1 JUMP JUMPDEST PUSH1 0x1 PUSH1 0x1 PUSH1 0x40 SHL SUB DUP2 GT PUSH2 0x17E3 JUMPI PUSH1 0x5 SHL PUSH1 0x20 ADD SWAP1 JUMP JUMPDEST SWAP1 PUSH2 0x3D52 DUP3 PUSH2 0x3D31 JUMP JUMPDEST PUSH2 0x3D5F PUSH1 0x40 MLOAD SWAP2 DUP3 PUSH2 0x3191 JUMP JUMPDEST DUP3 DUP2 MSTORE DUP1 SWAP3 PUSH2 0x3D70 PUSH1 0x1F NOT SWAP2 PUSH2 0x3D31 JUMP JUMPDEST ADD SWAP1 PUSH1 0x20 CALLDATASIZE SWAP2 ADD CALLDATACOPY JUMP JUMPDEST DUP1 MLOAD DUP3 LT ISZERO PUSH2 0x3355 JUMPI PUSH1 0x20 SWAP2 PUSH1 0x5 SHL ADD ADD SWAP1 JUMP JUMPDEST PUSH1 0x0 CALLER DUP2 MSTORE PUSH1 0x20 SWAP1 PUSH1 0xC DUP3 MSTORE PUSH1 0x40 DUP2 KECCAK256 SWAP2 PUSH1 0x40 MLOAD DUP1 SWAP4 DUP5 SWAP2 DUP4 DUP3 SLOAD SWAP2 DUP3 DUP2 MSTORE ADD SWAP2 DUP6 MSTORE DUP4 DUP6 KECCAK256 SWAP4 DUP6 SWAP1 JUMPDEST DUP3 DUP3 LT PUSH2 0x3DF0 JUMPI POP POP POP PUSH2 0x3DCE SWAP3 POP SUB DUP4 PUSH2 0x3191 JUMP JUMPDEST DUP2 MLOAD ISZERO PUSH2 0x3DD9 JUMPI POP SWAP1 JUMP JUMPDEST PUSH1 0x40 MLOAD SWAP2 POP PUSH2 0x3DE7 DUP3 PUSH2 0x3176 JUMP JUMPDEST DUP1 DUP3 MSTORE CALLDATASIZE DUP2 CALLDATACOPY SWAP1 JUMP JUMPDEST DUP6 SLOAD DUP5 MSTORE PUSH1 0x1 SWAP6 DUP7 ADD SWAP6 DUP9 SWAP6 POP SWAP4 DUP2 ADD SWAP4 SWAP1 SWAP2 ADD SWAP1 PUSH2 0x3DB8 JUMP JUMPDEST PUSH1 0x60 SWAP1 PUSH1 0x20 DUP2 MSTORE PUSH1 0x1C PUSH1 0x20 DUP3 ADD MSTORE PUSH32 0x5469636B65747320617265206E6F6E2D7472616E7366657261626C6500000000 PUSH1 0x40 DUP3 ADD MSTORE ADD SWAP1 JUMP INVALID LOG2 PUSH5 0x6970667358 0x22 SLT KECCAK256 SAR PUSH32 0xF3ACA816BF01D7B189480248CBF4FF79514D160DB2019867A890BDE18FF66473 PUSH16 0x6C634300081300330000000000000000 "},"methodIdentifiers":{"approve(address,uint256)":"095ea7b3","balanceOf(address)":"70a08231","buyTicket(uint256)":"67dd74ca","createSale(string,string,uint256,uint256,uint256,uint256,string,string)":"45895ee5","downloadTicket(uint256)":"62469289","eventToTicketId(string)":"454270af","getApproved(uint256)":"081812fc","getAvailableTickets()":"5a8acacc","getMyTickets()":"e1d10d85","getTicket(uint256)":"7dc379fa","getTicketEntryTime(uint256)":"86fe2e0b","hasBoughtTicketForEvent(address,string)":"63ad6c6f","hasTicketBeenUsed(uint256)":"f7e05d18","isApprovedForAll(address,address)":"e985e9c5","isGatekeeper(address)":"ab736d4f","markTicketUsed(uint256)":"6c27c138","name()":"06fdde03","organizerTransferTicket(address,address,uint256)":"966fb80d","owner()":"8da5cb5b","ownerOf(uint256)":"6352211e","pause()":"8456cb59","paused()":"5c975abb","renounceOwnership()":"715018a6","resetTicketQuantities(uint256,uint256)":"48005dab","safeTransferFrom(address,address,uint256)":"42842e0e","safeTransferFrom(address,address,uint256,bytes)":"b88d4fde","setApprovalForAll(address,bool)":"a22cb465","setGatekeeper(address,bool)":"04d2abe9","supportsInterface(bytes4)":"01ffc9a7","symbol()":"95d89b41","ticketEntryTime(uint256)":"ea8457be","tickets(uint256)":"50b44712","tokenURI(uint256)":"c87b56dd","transferFrom(address,address,uint256)":"23b872dd","transferOwnership(address)":"f2fde38b","unpause()":"3f4ba83a","updateExpiredTickets()":"83bb9e21","userHasPurchased(address,uint256)":"827826e0","userPurchases(address,uint256)":"cf2c0334","verifyTicket(uint256)":"543cb81f","withdraw()":"3ccfd60b"}}}}}