{
  "_format": "hh-sol-artifact-1",
  "contractName": "TicketSale",
  "sourceName": "contracts/TicketSale.sol",
  "abi": [
    {
      "inputs": [],
      "stateMutability": "nonpayable",
      "type": "constructor"
    },
    {
      "anonymous": false,
      "inputs": [
        {
          "indexed": true,
          "internalType": "address",
          "name": "owner",
          "type": "address"
        },
        {
          "indexed": true,
          "internalType": "address",
          "name": "approved",
          "type": "address"
        },
        {
          "indexed": true,
          "internalType": "uint256",
          "name": "tokenId",
          "type": "uint256"
        }
      ],
      "name": "Approval",
      "type": "event"
    },
    {
      "anonymous": false,
      "inputs": [
        {
          "indexed": true,
          "internalType": "address",
          "name": "owner",
          "type": "address"
        },
        {
          "indexed": true,
          "internalType": "address",
          "name": "operator",
          "type": "address"
        },
        {
          "indexed": false,
          "internalType": "bool",
          "name": "approved",
          "type": "bool"
        }
      ],
      "name": "ApprovalForAll",
      "type": "event"
    },
    {
      "anonymous": false,
      "inputs": [
        {
          "indexed": true,
          "internalType": "address",
          "name": "gatekeeper",
          "type": "address"
        },
        {
          "indexed": false,
          "internalType": "bool",
          "name": "status",
          "type": "bool"
        }
      ],
      "name": "GatekeeperUpdated",
      "type": "event"
    },
    {
      "anonymous": false,
      "inputs": [
        {
          "indexed": true,
          "internalType": "address",
          "name": "previousOwner",
          "type": "address"
        },
        {
          "indexed": true,
          "internalType": "address",
          "name": "newOwner",
          "type": "address"
        }
      ],
      "name": "OwnershipTransferred",
      "type": "event"
    },
    {
      "anonymous": false,
      "inputs": [
        {
          "indexed": false,
          "internalType": "address",
          "name": "account",
          "type": "address"
        }
      ],
      "name": "Paused",
      "type": "event"
    },
    {
      "anonymous": false,
      "inputs": [
        {
          "indexed": true,
          "internalType": "uint256",
          "name": "ticketId",
          "type": "uint256"
        },
        {
          "indexed": false,
          "internalType": "string",
          "name": "eventName",
          "type": "string"
        },
        {
          "indexed": true,
          "internalType": "address",
          "name": "seller",
          "type": "address"
        },
        {
          "indexed": false,
          "internalType": "uint256",
          "name": "price",
          "type": "uint256"
        },
        {
          "indexed": false,
          "internalType": "uint256",
          "name": "eventDate",
          "type": "uint256"
        }
      ],
      "name": "TicketCreated",
      "type": "event"
    },
    {
      "anonymous": false,
      "inputs": [
        {
          "indexed": true,
          "internalType": "uint256",
          "name": "ticketId",
          "type": "uint256"
        },
        {
          "indexed": true,
          "internalType": "address",
          "name": "buyer",
          "type": "address"
        }
      ],
      "name": "TicketDownloaded",
      "type": "event"
    },
    {
      "anonymous": false,
      "inputs": [
        {
          "indexed": true,
          "internalType": "uint256",
          "name": "ticketId",
          "type": "uint256"
        },
        {
          "indexed": true,
          "internalType": "address",
          "name": "buyer",
          "type": "address"
        },
        {
          "indexed": false,
          "internalType": "uint256",
          "name": "price",
          "type": "uint256"
        }
      ],
      "name": "TicketPurchased",
      "type": "event"
    },
    {
      "anonymous": false,
      "inputs": [
        {
          "indexed": true,
          "internalType": "uint256",
          "name": "ticketId",
          "type": "uint256"
        },
        {
          "indexed": true,
          "internalType": "address",
          "name": "buyer",
          "type": "address"
        },
        {
          "indexed": false,
          "internalType": "uint256",
          "name": "refundAmount",
          "type": "uint256"
        }
      ],
      "name": "TicketRefunded",
      "type": "event"
    },
    {
      "anonymous": false,
      "inputs": [
        {
          "indexed": true,
          "internalType": "uint256",
          "name": "ticketId",
          "type": "uint256"
        },
        {
          "indexed": true,
          "internalType": "address",
          "name": "from",
          "type": "address"
        },
        {
          "indexed": true,
          "internalType": "address",
          "name": "to",
          "type": "address"
        },
        {
          "indexed": false,
          "internalType": "address",
          "name": "executedBy",
          "type": "address"
        }
      ],
      "name": "TicketTransferred",
      "type": "event"
    },
    {
      "anonymous": false,
      "inputs": [
        {
          "indexed": true,
          "internalType": "uint256",
          "name": "ticketId",
          "type": "uint256"
        },
        {
          "indexed": true,
          "internalType": "address",
          "name": "buyer",
          "type": "address"
        },
        {
          "indexed": false,
          "internalType": "uint256",
          "name": "timestamp",
          "type": "uint256"
        }
      ],
      "name": "TicketUsed",
      "type": "event"
    },
    {
      "anonymous": false,
      "inputs": [
        {
          "indexed": true,
          "internalType": "address",
          "name": "from",
          "type": "address"
        },
        {
          "indexed": true,
          "internalType": "address",
          "name": "to",
          "type": "address"
        },
        {
          "indexed": true,
          "internalType": "uint256",
          "name": "tokenId",
          "type": "uint256"
        }
      ],
      "name": "Transfer",
      "type": "event"
    },
    {
      "anonymous": false,
      "inputs": [
        {
          "indexed": false,
          "internalType": "address",
          "name": "account",
          "type": "address"
        }
      ],
      "name": "Unpaused",
      "type": "event"
    },
    {
      "inputs": [
        {
          "internalType": "address",
          "name": "to",
          "type": "address"
        },
        {
          "internalType": "uint256",
          "name": "tokenId",
          "type": "uint256"
        }
      ],
      "name": "approve",
      "outputs": [],
      "stateMutability": "nonpayable",
      "type": "function"
    },
    {
      "inputs": [
        {
          "internalType": "address",
          "name": "owner",
          "type": "address"
        }
      ],
      "name": "balanceOf",
      "outputs": [
        {
          "internalType": "uint256",
          "name": "",
          "type": "uint256"
        }
      ],
      "stateMutability": "view",
      "type": "function"
    },
    {
      "inputs": [
        {
          "internalType": "uint256",
          "name": "ticketId",
          "type": "uint256"
        }
      ],
      "name": "buyTicket",
      "outputs": [],
      "stateMutability": "payable",
      "type": "function"
    },
    {
      "inputs": [
        {
          "internalType": "string",
          "name": "eventName",
          "type": "string"
        },
        {
          "internalType": "string",
          "name": "organizer",
          "type": "string"
        },
        {
          "internalType": "uint256",
          "name": "eventDate",
          "type": "uint256"
        },
        {
          "internalType": "uint256",
          "name": "saleEndDate",
          "type": "uint256"
        },
        {
          "internalType": "uint256",
          "name": "price",
          "type": "uint256"
        },
        {
          "internalType": "uint256",
          "name": "totalTickets",
          "type": "uint256"
        },
        {
          "internalType": "string",
          "name": "posterCID",
          "type": "string"
        },
        {
          "internalType": "string",
          "name": "ticketCID",
          "type": "string"
        }
      ],
      "name": "createSale",
      "outputs": [],
      "stateMutability": "nonpayable",
      "type": "function"
    },
    {
      "inputs": [
        {
          "internalType": "uint256",
          "name": "ticketId",
          "type": "uint256"
        }
      ],
      "name": "downloadTicket",
      "outputs": [],
      "stateMutability": "nonpayable",
      "type": "function"
    },
    {
      "inputs": [
        {
          "internalType": "string",
          "name": "",
          "type": "string"
        }
      ],
      "name": "eventToTicketId",
      "outputs": [
        {
          "internalType": "uint256",
          "name": "",
          "type": "uint256"
        }
      ],
      "stateMutability": "view",
      "type": "function"
    },
    {
      "inputs": [
        {
          "internalType": "uint256",
          "name": "tokenId",
          "type": "uint256"
        }
      ],
      "name": "getApproved",
      "outputs": [
        {
          "internalType": "address",
          "name": "",
          "type": "address"
        }
      ],
      "stateMutability": "view",
      "type": "function"
    },
    {
      "inputs": [],
      "name": "getAvailableTickets",
      "outputs": [
        {
          "internalType": "uint256[]",
          "name": "",
          "type": "uint256[]"
        }
      ],
      "stateMutability": "view",
      "type": "function"
    },
    {
      "inputs": [],
      "name": "getMyTickets",
      "outputs": [
        {
          "internalType": "uint256[]",
          "name": "",
          "type": "uint256[]"
        }
      ],
      "stateMutability": "view",
      "type": "function"
    },
    {
      "inputs": [
        {
          "internalType": "uint256",
          "name": "ticketId",
          "type": "uint256"
        }
      ],
      "name": "getTicket",
      "outputs": [
        {
          "components": [
            {
              "internalType": "uint256",
              "name": "ticketId",
              "type": "uint256"
            },
            {
              "internalType": "string",
              "name": "eventName",
              "type": "string"
            },
            {
              "internalType": "string",
              "name": "organizer",
              "type": "string"
            },
            {
              "internalType": "uint256",
              "name": "eventDate",
              "type": "uint256"
            },
            {
              "internalType": "uint256",
              "name": "saleEndDate",
              "type": "uint256"
            },
            {
              "internalType": "uint256",
              "name": "price",
              "type": "uint256"
            },
            {
              "internalType": "string",
              "name": "posterUrl",
              "type": "string"
            },
            {
              "internalType": "string",
              "name": "ticketImageUrl",
              "type": "string"
            },
            {
              "internalType": "address",
              "name": "seller",
              "type": "address"
            },
            {
              "internalType": "address",
              "name": "buyer",
              "type": "address"
            },
            {
              "internalType": "bool",
              "name": "isSold",
              "type": "bool"
            },
            {
              "internalType": "bool",
              "name": "isDownloaded",
              "type": "bool"
            },
            {
              "internalType": "bool",
              "name": "isRefunded",
              "type": "bool"
            },
            {
              "internalType": "bool",
              "name": "isSecondHand",
              "type": "bool"
            },
            {
              "internalType": "uint256",
              "name": "totalTickets",
              "type": "uint256"
            },
            {
              "internalType": "uint256",
              "name": "availableTickets",
              "type": "uint256"
            }
          ],
          "internalType": "struct TicketSale.Ticket",
          "name": "",
          "type": "tuple"
        }
      ],
      "stateMutability": "view",
      "type": "function"
    },
    {
      "inputs": [
        {
          "internalType": "uint256",
          "name": "ticketId",
          "type": "uint256"
        }
      ],
      "name": "getTicketEntryTime",
      "outputs": [
        {
          "internalType": "uint256",
          "name": "",
          "type": "uint256"
        }
      ],
      "stateMutability": "view",
      "type": "function"
    },
    {
      "inputs": [
        {
          "internalType": "address",
          "name": "",
          "type": "address"
        },
        {
          "internalType": "string",
          "name": "",
          "type": "string"
        }
      ],
      "name": "hasBoughtTicketForEvent",
      "outputs": [
        {
          "internalType": "bool",
          "name": "",
          "type": "bool"
        }
      ],
      "stateMutability": "view",
      "type": "function"
    },
    {
      "inputs": [
        {
          "internalType": "uint256",
          "name": "ticketId",
          "type": "uint256"
        }
      ],
      "name": "hasTicketBeenUsed",
      "outputs": [
        {
          "internalType": "bool",
          "name": "",
          "type": "bool"
        }
      ],
      "stateMutability": "view",
      "type": "function"
    },
    {
      "inputs": [
        {
          "internalType": "address",
          "name": "owner",
          "type": "address"
        },
        {
          "internalType": "address",
          "name": "operator",
          "type": "address"
        }
      ],
      "name": "isApprovedForAll",
      "outputs": [
        {
          "internalType": "bool",
          "name": "",
          "type": "bool"
        }
      ],
      "stateMutability": "view",
      "type": "function"
    },
    {
      "inputs": [
        {
          "internalType": "address",
          "name": "",
          "type": "address"
        }
      ],
      "name": "isGatekeeper",
      "outputs": [
        {
          "internalType": "bool",
          "name": "",
          "type": "bool"
        }
      ],
      "stateMutability": "view",
      "type": "function"
    },
    {
      "inputs": [
        {
          "internalType": "uint256",
          "name": "ticketId",
          "type": "uint256"
        }
      ],
      "name": "markTicketUsed",
      "outputs": [],
      "stateMutability": "nonpayable",
      "type": "function"
    },
    {
      "inputs": [],
      "name": "name",
      "outputs": [
        {
          "internalType": "string",
          "name": "",
          "type": "string"
        }
      ],
      "stateMutability": "view",
      "type": "function"
    },
    {
      "inputs": [
        {
          "internalType": "address",
          "name": "from",
          "type": "address"
        },
        {
          "internalType": "address",
          "name": "to",
          "type": "address"
        },
        {
          "internalType": "uint256",
          "name": "ticketId",
          "type": "uint256"
        }
      ],
      "name": "organizerTransferTicket",
      "outputs": [],
      "stateMutability": "nonpayable",
      "type": "function"
    },
    {
      "inputs": [],
      "name": "owner",
      "outputs": [
        {
          "internalType": "address",
          "name": "",
          "type": "address"
        }
      ],
      "stateMutability": "view",
      "type": "function"
    },
    {
      "inputs": [
        {
          "internalType": "uint256",
          "name": "tokenId",
          "type": "uint256"
        }
      ],
      "name": "ownerOf",
      "outputs": [
        {
          "internalType": "address",
          "name": "",
          "type": "address"
        }
      ],
      "stateMutability": "view",
      "type": "function"
    },
    {
      "inputs": [],
      "name": "pause",
      "outputs": [],
      "stateMutability": "nonpayable",
      "type": "function"
    },
    {
      "inputs": [],
      "name": "paused",
      "outputs": [
        {
          "internalType": "bool",
          "name": "",
          "type": "bool"
        }
      ],
      "stateMutability": "view",
      "type": "function"
    },
    {
      "inputs": [],
      "name": "renounceOwnership",
      "outputs": [],
      "stateMutability": "nonpayable",
      "type": "function"
    },
    {
      "inputs": [
        {
          "internalType": "uint256",
          "name": "ticketId",
          "type": "uint256"
        },
        {
          "internalType": "uint256",
          "name": "newTotalTickets",
          "type": "uint256"
        }
      ],
      "name": "resetTicketQuantities",
      "outputs": [],
      "stateMutability": "nonpayable",
      "type": "function"
    },
    {
      "inputs": [
        {
          "internalType": "address",
          "name": "from",
          "type": "address"
        },
        {
          "internalType": "address",
          "name": "to",
          "type": "address"
        },
        {
          "internalType": "uint256",
          "name": "tokenId",
          "type": "uint256"
        }
      ],
      "name": "safeTransferFrom",
      "outputs": [],
      "stateMutability": "nonpayable",
      "type": "function"
    },
    {
      "inputs": [
        {
          "internalType": "address",
          "name": "from",
          "type": "address"
        },
        {
          "internalType": "address",
          "name": "to",
          "type": "address"
        },
        {
          "internalType": "uint256",
          "name": "tokenId",
          "type": "uint256"
        },
        {
          "internalType": "bytes",
          "name": "data",
          "type": "bytes"
        }
      ],
      "name": "safeTransferFrom",
      "outputs": [],
      "stateMutability": "nonpayable",
      "type": "function"
    },
    {
      "inputs": [
        {
          "internalType": "address",
          "name": "operator",
          "type": "address"
        },
        {
          "internalType": "bool",
          "name": "approved",
          "type": "bool"
        }
      ],
      "name": "setApprovalForAll",
      "outputs": [],
      "stateMutability": "nonpayable",
      "type": "function"
    },
    {
      "inputs": [
        {
          "internalType": "address",
          "name": "gatekeeper",
          "type": "address"
        },
        {
          "internalType": "bool",
          "name": "status",
          "type": "bool"
        }
      ],
      "name": "setGatekeeper",
      "outputs": [],
      "stateMutability": "nonpayable",
      "type": "function"
    },
    {
      "inputs": [
        {
          "internalType": "bytes4",
          "name": "interfaceId",
          "type": "bytes4"
        }
      ],
      "name": "supportsInterface",
      "outputs": [
        {
          "internalType": "bool",
          "name": "",
          "type": "bool"
        }
      ],
      "stateMutability": "view",
      "type": "function"
    },
    {
      "inputs": [],
      "name": "symbol",
      "outputs": [
        {
          "internalType": "string",
          "name": "",
          "type": "string"
        }
      ],
      "stateMutability": "view",
      "type": "function"
    },
    {
      "inputs": [
        {
          "internalType": "uint256",
          "name": "",
          "type": "uint256"
        }
      ],
      "name": "ticketEntryTime",
      "outputs": [
        {
          "internalType": "uint256",
          "name": "",
          "type": "uint256"
        }
      ],
      "stateMutability": "view",
      "type": "function"
    },
    {
      "inputs": [
        {
          "internalType": "uint256",
          "name": "",
          "type": "uint256"
        }
      ],
      "name": "tickets",
      "outputs": [
        {
          "internalType": "uint256",
          "name": "ticketId",
          "type": "uint256"
        },
        {
          "internalType": "string",
          "name": "eventName",
          "type": "string"
        },
        {
          "internalType": "string",
          "name": "organizer",
          "type": "string"
        },
        {
          "internalType": "uint256",
          "name": "eventDate",
          "type": "uint256"
        },
        {
          "internalType": "uint256",
          "name": "saleEndDate",
          "type": "uint256"
        },
        {
          "internalType": "uint256",
          "name": "price",
          "type": "uint256"
        },
        {
          "internalType": "string",
          "name": "posterUrl",
          "type": "string"
        },
        {
          "internalType": "string",
          "name": "ticketImageUrl",
          "type": "string"
        },
        {
          "internalType": "address",
          "name": "seller",
          "type": "address"
        },
        {
          "internalType": "address",
          "name": "buyer",
          "type": "address"
        },
        {
          "internalType": "bool",
          "name": "isSold",
          "type": "bool"
        },
        {
          "internalType": "bool",
          "name": "isDownloaded",
          "type": "bool"
        },
        {
          "internalType": "bool",
          "name": "isRefunded",
          "type": "bool"
        },
        {
          "internalType": "bool",
          "name": "isSecondHand",
          "type": "bool"
        },
        {
          "internalType": "uint256",
          "name": "totalTickets",
          "type": "uint256"
        },
        {
          "internalType": "uint256",
          "name": "availableTickets",
          "type": "uint256"
        }
      ],
      "stateMutability": "view",
      "type": "function"
    },
    {
      "inputs": [
        {
          "internalType": "uint256",
          "name": "tokenId",
          "type": "uint256"
        }
      ],
      "name": "tokenURI",
      "outputs": [
        {
          "internalType": "string",
          "name": "",
          "type": "string"
        }
      ],
      "stateMutability": "view",
      "type": "function"
    },
    {
      "inputs": [
        {
          "internalType": "address",
          "name": "from",
          "type": "address"
        },
        {
          "internalType": "address",
          "name": "to",
          "type": "address"
        },
        {
          "internalType": "uint256",
          "name": "tokenId",
          "type": "uint256"
        }
      ],
      "name": "transferFrom",
      "outputs": [],
      "stateMutability": "nonpayable",
      "type": "function"
    },
    {
      "inputs": [
        {
          "internalType": "address",
          "name": "newOwner",
          "type": "address"
        }
      ],
      "name": "transferOwnership",
      "outputs": [],
      "stateMutability": "nonpayable",
      "type": "function"
    },
    {
      "inputs": [],
      "name": "unpause",
      "outputs": [],
      "stateMutability": "nonpayable",
      "type": "function"
    },
    {
      "inputs": [],
      "name": "updateExpiredTickets",
      "outputs": [],
      "stateMutability": "nonpayable",
      "type": "function"
    },
    {
      "inputs": [
        {
          "internalType": "address",
          "name": "",
          "type": "address"
        },
        {
          "internalType": "uint256",
          "name": "",
          "type": "uint256"
        }
      ],
      "name": "userHasPurchased",
      "outputs": [
        {
          "internalType": "bool",
          "name": "",
          "type": "bool"
        }
      ],
      "stateMutability": "view",
      "type": "function"
    },
    {
      "inputs": [
        {
          "internalType": "address",
          "name": "",
          "type": "address"
        },
        {
          "internalType": "uint256",
          "name": "",
          "type": "uint256"
        }
      ],
      "name": "userPurchases",
      "outputs": [
        {
          "internalType": "uint256",
          "name": "",
          "type": "uint256"
        }
      ],
      "stateMutability": "view",
      "type": "function"
    },
    {
      "inputs": [
        {
          "internalType": "uint256",
          "name": "ticketId",
          "type": "uint256"
        }
      ],
      "name": "verifyTicket",
      "outputs": [
        {
          "internalType": "bool",
          "name": "isValid",
          "type": "bool"
        }
      ],
      "stateMutability": "view",
      "type": "function"
    },
    {
      "inputs": [],
      "name": "withdraw",
      "outputs": [],
      "stateMutability": "nonpayable",
      "type": "function"
    }
  ],
  "bytecode": "0x60803462000365576001600160401b03906040818101838111838210176200034f578152600d82526020916c10dbdb98d95c9d151a58dad95d609a1b83820152815193828501858110828211176200034f5783526006855265151250d2d15560d21b8486015281518181116200034f576000948554916001948584811c9416801562000344575b8385101462000330578190601f94858111620002dd575b508390858311600114620002795789926200026d575b5050600019600383901b1c191690851b1786555b8651928311620002595783548481811c911680156200024e575b828210146200023a57828111620001f2575b50809183116001146200018b5750849582939495926200017f575b5050600019600383901b1c191690821b1781555b60065560075490519133906001600160a01b038316907f8be0079c531659141344cd1fd0a4f28419497f9722a3daafe3b4186f6b6457e09080a36001600160a81b0319163360ff60a01b191617600755613e7890816200036b8239f35b0151905038806200010e565b90601f198316968487528287209287905b898210620001da575050838596979810620001c0575b505050811b01815562000122565b015160001960f88460031b161c19169055388080620001b2565b8087859682949686015181550195019301906200019c565b8487528187208380860160051c82019284871062000230575b0160051c019085905b82811062000224575050620000f3565b88815501859062000214565b925081926200020b565b634e487b7160e01b87526022600452602487fd5b90607f1690620000e1565b634e487b7160e01b86526041600452602486fd5b015190503880620000b3565b898052848a208894509190601f1984168b5b87828210620002c65750508411620002ac575b505050811b018655620000c7565b015160001960f88460031b161c191690553880806200029e565b8385015186558b979095019493840193016200028b565b9091508880528389208580850160051c82019286861062000326575b918991869594930160051c01915b828110620003175750506200009d565b8b815585945089910162000307565b92508192620002f9565b634e487b7160e01b88526022600452602488fd5b93607f169362000086565b634e487b7160e01b600052604160045260246000fd5b600080fdfe608080604052600436101561001357600080fd5b60003560e01c90816301ffc9a7146130175750806304d2abe914612f6057806306fdde0314612ebd578063081812fc14612e9f578063095ea7b314612e6c57806323b872dd14612e485780633ccfd60b14612e045780633f4ba83a14612d6857806342842e0e14612d35578063454270af14612cd957806345895ee51461229b57806348005dab146121ee57806350b44712146120aa578063543cb81f146120825780635a8acacc14611ead5780635c975abb14611e875780636246928914611c3a5780636352211e14611c0a57806363ad6c6f14611b8c57806367dd74ca146112795780636c27c1381461112a57806370a0823114611093578063715018a6146110365780637dc379fa14610d91578063827826e014610d4457806383bb9e2114610c0d5780638456cb5914610bab57806386fe2e0b146102d95780638da5cb5b14610b8257806395d89b4114610aa3578063966fb80d1461053f578063a22cb46514610512578063ab736d4f146104d3578063b88d4fde1461044c578063c87b56dd146103df578063cf2c033414610387578063e1d10d851461035b578063e985e9c514610305578063ea8457be146102d9578063f2fde38b146102155763f7e05d18146101e257600080fd5b3461021057602036600319011261021057600435600052600e60205260206040600020541515604051908152f35b600080fd5b346102105760203660031901126102105761022e613082565b61023661336b565b6001600160a01b0390811690811561028557600754826001600160601b0360a01b821617600755167f8be0079c531659141344cd1fd0a4f28419497f9722a3daafe3b4186f6b6457e0600080a3005b60405162461bcd60e51b815260206004820152602660248201527f4f776e61626c653a206e6577206f776e657220697320746865207a65726f206160448201526564647265737360d01b6064820152608490fd5b3461021057602036600319011261021057600435600052600e6020526020604060002054604051908152f35b346102105760403660031901126102105761031e613082565b610326613098565b9060018060a01b03809116600052600560205260406000209116600052602052602060ff604060002054166040519015158152f35b3461021057600036600319011261021057610383610377613d8e565b60405191829182613302565b0390f35b34610210576040366003190112610210576103a0613082565b6001600160a01b03166000908152600c6020526040902080546024359190821015610210576020916103d19161333d565b90546040519160031b1c8152f35b3461021057602036600319011261021057600435600090815260026020526040902054610416906001600160a01b031615156133c3565b600060405161042481613176565b5261038360405161043481613176565b60008152604051918291602083526020830190613100565b3461021057608036600319011261021057610465613082565b61046d613098565b90606435906044356001600160401b0383116102105736602384011215610210576104d1936104a96104cc9436906024816004013591016131cd565b926104bc6104b78433613545565b613470565b6104c783838361360d565b6138a4565b613525565b005b34610210576020366003190112610210576001600160a01b036104f4613082565b16600052600f602052602060ff604060002054166040519015158152f35b3461021057610520366130ae565b505060405162461bcd60e51b81528061053b60048201613e0a565b0390fd5b346102105761054d36613125565b610558929192613987565b610560613b18565b6001600160a01b0392808416918215610a5e578060005260206009815260406000209461058f865415156139ce565b6009860193845460ff8160b81c16610a08578860075416331480156109f9575b1561098e5760ff8160a81c16600014610936576105cb8561340f565b898085169116036108f15760ff905b60b01c166108ac5785600052600a835260406000209460ff6106016001809a019788613a5e565b541661085257879883169586600052600d8552604060002086600052855260406000209060ff199182815416905587600052600c865260406000208a6000905b610739575b5050908798996106db8899937f4419f53c76d7302f46aec0c9d110b7a0c6806dce4479a5f8f47102e93f6547d499969594600052600a895261068c604060002082613a5e565b8481541690558c600052600d89526040600020876000528952604060002083858254161790558c600052600c89526106c8876040600020613af0565b8c600052600a8952604060002090613a5e565b80549092161790558054600163ff00ff0160a01b0319168917600160b81b1790556000828152600260205260409020546001600160a01b0316610728575b505050604051338152a4600655005b6107319261360d565b868381610719565b81548082101561084c57899061074f838561333d565b929054600393841b1c146107735750509061076b8c9392613bf8565b909192610641565b90999a9b9c506000969594939192961992838201918211610836576107ab61079e6107c4938a61333d565b9054908d1b1c918961333d565b90919082549060031b91821b91600019901b1916179055565b8554908115610820577f4419f53c76d7302f46aec0c9d110b7a0c6806dce4479a5f8f47102e93f6547d4998b978f94806106db950192610804848461333d565b81939154921b1b19169055559293949550819b9a999850610646565b634e487b7160e01b600052603160045260246000fd5b634e487b7160e01b600052601160045260246000fd5b50610646565b60405162461bcd60e51b815260048101859052602c60248201527f526563656976657220616c7265616479206861732061207469636b657420666f60448201526b1c881d1a1a5cc8195d995b9d60a21b6064820152608490fd5b60405162461bcd60e51b815260048101849052601f60248201527f43616e6e6f74207472616e7366657220726566756e646564207469636b6574006044820152606490fd5b60405162461bcd60e51b815260048101859052601a60248201527f53656e646572206973206e6f74207469636b6574206f776e65720000000000006044820152606490fd5b888316898216036109495760ff906105da565b60405162461bcd60e51b815260048101859052601a60248201527f53656e646572206973206e6f74207469636b65742062757965720000000000006044820152606490fd5b60405162461bcd60e51b815260048101859052603d60248201527f4e6f7420617574686f72697a65643a204f6e6c79204f7267616e697a6572206f60448201527f7220436f6e7472616374204f776e65722063616e207472616e736665720000006064820152608490fd5b508860088901541633146105af565b60405162461bcd60e51b815260048101859052602860248201527f5469636b65742068617320616c7265616479206265656e207472616e73666572604482015267726564206f6e636560c01b6064820152608490fd5b60405162461bcd60e51b815260206004820152601f60248201527f43616e6e6f74207472616e7366657220746f207a65726f2061646472657373006044820152606490fd5b346102105760003660031901126102105760405160006001805490610ac782613222565b80855291818116908115610b5b5750600114610b02575b61038384610aee81860382613191565b604051918291602083526020830190613100565b600081815292507fb10e2d527612073b26eecdfd717e6a320cf44b4afac2b0732d9fcbe2b7fa0cf65b828410610b43575050508101602001610aee82610ade565b80546020858701810191909152909301928101610b2b565b60ff191660208087019190915292151560051b85019092019250610aee9150839050610ade565b34610210576000366003190112610210576007546040516001600160a01b039091168152602090f35b3461021057600036600319011261021057610bc461336b565b610bcc613987565b6007805460ff60a01b1916600160a01b1790556040513381527f62e78cea01bee320cd4e420270b5ea74000d11b0c9f74754ebdbfc544b05a25890602090a1005b3461021057600036600319011261021057610c26613987565b610c2e613b18565b600854600190815b81811115610c45576006839055005b80610c7f9160005260098160208281526040600020928354151580610d33575b80610d22575b80610d15575b610c84575b50505050613bf8565b610c36565b83019081549160ff8360a01c16610c9c575b50610c76565b60ff60b01b198316600160b01b1781556001600160a01b039283166000908152600a8352604090207f8c8fd3da31954f4657d981e2a89ea3421ef5d7bfa0998012eaff5f24a61a867a936005929091610cf790888d01613a5e565b60ff1981541690555416940154604051908152a38481818080610c96565b5060048401544211610c71565b5060ff8185015460a81c1615610c6b565b5060ff8185015460b01c1615610c65565b34610210576040366003190112610210576001600160a01b03610d65613082565b16600052600d6020526040600020602435600052602052602060ff604060002054166040519015158152f35b346102105760203660031901126102105760006101e0604051610db38161315a565b82815260606020820152606060408201528260608201528260808201528260a0820152606060c0820152606060e08201528261010082015282610120820152826101408201528261016082015282610180820152826101a0820152826101c08201520152600435806000526009602052610e3360406000205415156139ce565b60005260096020526040600020600b60405191610e4f8361315a565b80548352610e5f6001820161325c565b6020840152610e706002820161325c565b60408401526003810154606084015260048101546080840152600581015460a0840152610e9f6006820161325c565b60c0840152610eb06007820161325c565b60e084015260018060a01b0360088201541661010084015260ff600982015460018060a01b038116610120860152818160a01c161515610140860152818160a81c161515610160860152818160b01c16151561018086015260b81c1615156101a0840152600a8101546101c084015201546101e0820152604051809160208252805160208301526101e0610fbf610f5860208401516102006040870152610220860190613100565b610fa9610f77604086015192601f1993848983030160608a0152613100565b60608601516080880152608086015160a088015260a086015160c088015260c0860151838883030160e0890152613100565b9060e08501519086830301610100870152613100565b9160018060a01b036101008201511661012085015260018060a01b03610120820151166101408501526101408101511515610160850152610160810151151561018085015261018081015115156101a08501526101a081015115156101c08501526101c08101518285015201516102008301520390f35b346102105760003660031901126102105761104f61336b565b600780546001600160a01b031981169091556000906001600160a01b03167f8be0079c531659141344cd1fd0a4f28419497f9722a3daafe3b4186f6b6457e08280a3005b34610210576020366003190112610210576001600160a01b036110b4613082565b1680156110d35760005260036020526020604060002054604051908152f35b60405162461bcd60e51b815260206004820152602960248201527f4552433732313a2061646472657373207a65726f206973206e6f7420612076616044820152683634b21037bbb732b960b91b6064820152608490fd5b346102105760208060031936011261021057600435611147613987565b33600052600f825260ff604060002054161561123457806000526009825260096040600020611178815415156139ce565b0161119860ff825461118e828260a01c16613b6e565b60b01c1615613a12565b81600052600e83526040600020546111ef577f4f9c6210874b14266ea0f64418a0f7403a875226eae9483f5d9cd7663234db9a9082600052600e84524260406000205560018060a01b0390541692604051428152a3005b60405162461bcd60e51b815260048101849052601d60248201527f5469636b657420616c7265616479207573656420666f7220656e7472790000006044820152606490fd5b60405162461bcd60e51b815260048101839052601f60248201527f4f6e6c7920676174656b6565706572732063616e206d61726b20656e747279006044820152606490fd5b60203660031901126102105761128d613987565b611295613b18565b600435600052600960205260406000206112b1815415156139ce565b6112c560ff600983015460b01c1615613a12565b60048101544211611b565760058101543403611b1157600b81015415611ad55733600052600a60205260ff611301604060002060018401613a5e565b5416611a7f57600080808060018060a01b0360088601541681903415611a75575b3491f115611a6957600160085401908160085560038101546004820154600583015460018060a01b03600885015416916040519361135f8561315a565b86855261136e6001870161325c565b602086015261137f6002870161325c565b60408601526060850152608084015260a083015261139f6006840161325c565b60c08301526113b06007840161325c565b60e08301526101008201523361012082015260016101408201526000610160820152600061018082015260006101a082015260016101c082015260006101e08201528260005260096020526040600020908051825560208101518051906001600160401b0382116117e357819061142a6001860154613222565b601f8111611a16575b50602090601f83116001146119a457600092611999575b50508160011b916000199060031b1c19161760018301555b60408101518051906001600160401b0382116117e35781906114876002860154613222565b601f8111611946575b50602090601f83116001146118d4576000926118c9575b50508160011b916000199060031b1c19161760028301555b606081015160038301556080810151600483015560a0810151600583015560c08101518051906001600160401b0382116117e35781906115026006860154613222565b601f8111611876575b50602090601f8311600114611804576000926117f9575b50508160011b916000199060031b1c19161760068301555b60e08101518051906001600160401b0382116117e35761155d6007850154613222565b601f811161179c575b50602090601f8311600114611726579180600b94926101e09460009261171b575b50508160011b916000199060031b1c19161760078501555b6101008101516008850180546001600160a01b039283166001600160a01b031990911617905561012082015160098601805461014085015160ff60a01b90151560a01b16929093166001600160a81b03199093169290921717815561165b905b610160830151815460ff60a81b191690151560a81b60ff60a81b16178155610180830151815460ff60b01b191690151560b01b60ff60b01b161781556101a0830151815460ff60b81b191690151560b81b60ff60b81b16179055565b6101c0810151600a8501550151910155600b81015460001981019190821161083657600591600b82015533600052600c60205261169c836040600020613af0565b33600052600d602052604060002083600052602052604060002060ff199060018282541617905533600052600a60205260016116de6040600020828501613a5e565b918254161790550154906040519182527fdbaaf4c87ce30816c961a81d110622a3227ede77953d4383d514ff88ab2e0fd360203393a36001600655005b015190508880611587565b906007850160005260206000209160005b601f1985168110611784575092600b94926001926101e09583601f1981161061176b575b505050811b01600785015561159f565b015160001960f88460031b161c1916905588808061175b565b91926020600181928685015181550194019201611737565b600785016000526020600020601f840160051c8101602085106117dc575b601f830160051c820181106117d0575050611566565b600081556001016117ba565b50806117ba565b634e487b7160e01b600052604160045260246000fd5b015190508680611522565b9250600685016000526020600020906000935b601f198416851061185b576001945083601f19811610611842575b505050811b01600683015561153a565b015160001960f88460031b161c19169055868080611832565b81810151835560209485019460019093019290910190611817565b909150600685016000526020600020601f840160051c8101602085106118c2575b90849392915b601f830160051c820181106118b357505061150b565b6000815585945060010161189d565b5080611897565b0151905086806114a7565b9250600285016000526020600020906000935b601f198416851061192b576001945083601f19811610611912575b505050811b0160028301556114bf565b015160001960f88460031b161c19169055868080611902565b818101518355602094850194600190930192909101906118e7565b909150600285016000526020600020601f840160051c810160208510611992575b90849392915b601f830160051c82018110611983575050611490565b6000815585945060010161196d565b5080611967565b01519050868061144a565b9250600185016000526020600020906000935b601f19841685106119fb576001945083601f198116106119e2575b505050811b016001830155611462565b015160001960f88460031b161c191690558680806119d2565b818101518355602094850194600190930192909101906119b7565b909150600185016000526020600020601f840160051c810160208510611a62575b90849392915b601f830160051c82018110611a53575050611433565b60008155859450600101611a3d565b5080611a37565b6040513d6000823e3d90fd5b6108fc9150611322565b60405162461bcd60e51b815260206004820152602860248201527f596f7520616c726561647920686176652061207469636b657420666f722074686044820152671a5cc8195d995b9d60c21b6064820152608490fd5b60405162461bcd60e51b81526020600482015260146024820152734e6f207469636b65747320617661696c61626c6560601b6044820152606490fd5b60405162461bcd60e51b815260206004820152601860248201527f496e636f7272656374207061796d656e7420616d6f756e7400000000000000006044820152606490fd5b60405162461bcd60e51b815260206004820152600e60248201526d14d85b19481a185cc8195b99195960921b6044820152606490fd5b3461021057604036600319011261021057611ba5613082565b6024356001600160401b03811161021057611bf560208093611bcd60ff943690600401613204565b9060018060a01b0316600052600a8252604060002082604051948386809551938492016130dd565b82019081520301902054166040519015158152f35b34610210576020366003190112610210576020611c2860043561340f565b6040516001600160a01b039091168152f35b34610210576020806003193601126102105760043590611c58613987565b611c60613b18565b816000526009815260096040600020611c7b815415156139ce565b01908154611c8e60ff8260a01c16613b6e565b336001600160a01b03821603611e4b5760ff8160a81c16611e065760ff611cb99160b01c1615613a12565b60405190611cc682613176565b600082523315611dc357611d849160026104cc92611d02611cfc88600052600260205260018060a01b0360406000205416151590565b15613bac565b600087815260026020526040902054611d25906001600160a01b03161515611cfc565b336000526003815260406000206001815401905586600052526040600020336001600160601b0360a01b825416179055843360007fddf252ad1be2c89b69c2b068fc378daa952ba7f163c4a11628f55a4df523b3ef8180a48433613784565b805460ff60a81b1916600160a81b17905533907f4c3f8ff3b3376dbd255cab935257c5c6f095b27b816f6f0b1ae35b828e6838a8600080a36001600655005b6064906040519062461bcd60e51b825280600483015260248201527f4552433732313a206d696e7420746f20746865207a65726f20616464726573736044820152fd5b60405162461bcd60e51b815260048101839052601960248201527f5469636b657420616c726561647920646f776e6c6f61646564000000000000006044820152606490fd5b60405162461bcd60e51b81526004810183905260146024820152732737ba103a3432903a34b1b5b2ba10313abcb2b960611b6044820152606490fd5b3461021057600036600319011261021057602060ff60075460a01c166040519015158152f35b34610210576000366003190112610210576008805490611ecc82613d48565b916000916001805b83811115611f24578585611ee781613d48565b9160005b828110611f0057604051806103838682613302565b80611f0e611f1f9284613d7a565b51611f198287613d7a565b52613bf8565b611eeb565b8060005260096020818152604060002060405191611f418361315a565b81548352611f5086830161325c565b90830152611f606002820161325c565b604083015260038101546060830152600b6004820154916080840192835260058101549460a09586860152611f976006830161325c565b60c0860152611fa86007830161325c565b60e086015260018060a01b0390818a84015416610100870152820154958691821661012087015260ff9182911c161515610140860152808660a81c161515610160860152808660b01c161595861561018087015260b81c1615156101a0850152600a8101546101c0850152015491826101e0820152511515928361207a575b508261206e575b5081612064575b50612049575b61204490613bf8565b611ed4565b9361205c8186611f19612044948a613d7a565b94905061203b565b9050151587612035565b5142111591508861202e565b925089612027565b346102105760203660031901126102105760206120a0600435613c07565b6040519015158152f35b3461021057602036600319011261021057600435600052600960205260406000208054600182016120da9061325c565b916120e76002820161325c565b60038201546004830154600584015493916121046006840161325c565b6121106007850161325c565b90600160a01b60019003928360088701541697600987015495600a88015497600b0154986040519c8d9c8d528c6102006020819201528d0161215191613100565b8c810360408e015261216291613100565b9260608c015260808b015260a08a015288810360c08a015261218391613100565b87810360e089015261219491613100565b9461010087015281166101208601528060a01c60ff1615156101408601528060a81c60ff1615156101608601528060b01c60ff16151561018086015260b81c60ff1615156101a08501526101c08401526101e08301520390f35b34610210576040366003190112610210576024356004356000526009602052604060002061221e815415156139ce565b6008810154336001600160a01b039182161490811561228d575b501561225757600b9061224c83151561392f565b600a81018390550155005b60405162461bcd60e51b815260206004820152600e60248201526d139bdd08185d5d1a1bdc9a5e995960921b6044820152606490fd5b905060075416331483612238565b3461021057610100366003190112610210576004356001600160401b038111610210576122cc903690600401613204565b6024356001600160401b038111610210576122eb903690600401613204565b60c4356001600160401b0381116102105761230a903690600401613204565b9060e4356001600160401b0381116102105761232a903690600401613204565b612332613987565b835115612c9457815115612c4f57426044351115612c0b57426064351115612bba576044356064351015612b755760843515612b305761237560a435151561392f565b825115612aeb57805115612aa65760405160208186516123988183858b016130dd565b8101600b81520301902054612a6a5760016008540192836008556124236027604051926123f5828566697066733a2f2f60c81b938460208301526123e581518092602086860191016130dd565b8101036007810187520185613191565b604051948591602083015261241381518092602086860191016130dd565b8101036007810185520183613191565b604051926124308461315a565b84845285602085015260408401526044356060840152606435608084015260843560a084015260c083015260e082015233610100820152600061012082015260006101408201526000610160820152600061018082015260006101a082015260a4356101c082015260a4356101e08201528160005260096020526040600020908051825560208101518051906001600160401b0382116117e35781906124d96001860154613222565b601f8111612a17575b50602090601f83116001146129a55760009261299a575b50508160011b916000199060031b1c19161760018301555b60408101518051906001600160401b0382116117e35781906125366002860154613222565b601f8111612947575b50602090601f83116001146128d5576000926128ca575b50508160011b916000199060031b1c19161760028301555b606081015160038301556080810151600483015560a0810151600583015560c08101518051906001600160401b0382116117e35781906125b16006860154613222565b601f8111612877575b50602090601f8311600114612805576000926127fa575b50508160011b916000199060031b1c19161760068301555b60e08101518051906001600160401b0382116117e35761260c6007850154613222565b601f81116127b3575b50602090601f831160011461273d579180600b94926101e094600092612732575b50508160011b916000199060031b1c19161760078501555b6101008101516008850180546001600160a01b039283166001600160a01b031990911617905561012082015160098601805461014085015160ff60a01b90151560a01b16929093166001600160a81b0319909316929092171781556126b2906115ff565b6101c0810151600a85015501519101558060405160208185516126d88183858a016130dd565b8101600b815203019020557f57f13ab4f405dee432e813c363e9bbf98b6e2703d4e28b09ad4af92f689d5fba61271960405193606085526060850190613100565b92608435602082015260443560408201528033940390a3005b015190508880612636565b906007850160005260206000209160005b601f198516811061279b575092600b94926001926101e09583601f19811610612782575b505050811b01600785015561264e565b015160001960f88460031b161c19169055888080612772565b9192602060018192868501518155019401920161274e565b600785016000526020600020601f840160051c8101602085106127f3575b601f830160051c820181106127e7575050612615565b600081556001016127d1565b50806127d1565b0151905086806125d1565b9250600685016000526020600020906000935b601f198416851061285c576001945083601f19811610612843575b505050811b0160068301556125e9565b015160001960f88460031b161c19169055868080612833565b81810151835560209485019460019093019290910190612818565b909150600685016000526020600020601f840160051c8101602085106128c3575b90849392915b601f830160051c820181106128b45750506125ba565b6000815585945060010161289e565b5080612898565b015190508680612556565b9250600285016000526020600020906000935b601f198416851061292c576001945083601f19811610612913575b505050811b01600283015561256e565b015160001960f88460031b161c19169055868080612903565b818101518355602094850194600190930192909101906128e8565b909150600285016000526020600020601f840160051c810160208510612993575b90849392915b601f830160051c8201811061298457505061253f565b6000815585945060010161296e565b5080612968565b0151905086806124f9565b9250600185016000526020600020906000935b601f19841685106129fc576001945083601f198116106129e3575b505050811b016001830155612511565b015160001960f88460031b161c191690558680806129d3565b818101518355602094850194600190930192909101906129b8565b909150600185016000526020600020601f840160051c810160208510612a63575b90849392915b601f830160051c82018110612a545750506124e2565b60008155859450600101612a3e565b5080612a38565b60405162461bcd60e51b81526020600482015260146024820152734576656e7420616c72656164792065786973747360601b6044820152606490fd5b60405162461bcd60e51b815260206004820152601a60248201527f5469636b6574204349442063616e6e6f7420626520656d7074790000000000006044820152606490fd5b60405162461bcd60e51b815260206004820152601a60248201527f506f73746572204349442063616e6e6f7420626520656d7074790000000000006044820152606490fd5b60405162461bcd60e51b815260206004820152601c60248201527f5072696365206d7573742062652067726561746572207468616e2030000000006044820152606490fd5b60405162461bcd60e51b815260206004820152601a60248201527f53616c65206d75737420656e64206265666f7265206576656e740000000000006044820152606490fd5b60405162461bcd60e51b815260206004820152602360248201527f53616c6520656e642064617465206d75737420626520696e207468652066757460448201526275726560e81b6064820152608490fd5b606460405162461bcd60e51b815260206004820152602060248201527f4576656e742064617465206d75737420626520696e20746865206675747572656044820152fd5b60405162461bcd60e51b815260206004820152601960248201527f4f7267616e697a65722063616e6e6f7420626520656d707479000000000000006044820152606490fd5b60405162461bcd60e51b815260206004820152601a60248201527f4576656e74206e616d652063616e6e6f7420626520656d7074790000000000006044820152606490fd5b34610210576020366003190112610210576004356001600160401b03811161021057612d226020612d0f81933690600401613204565b81604051938285809451938492016130dd565b8101600b81520301902054604051908152f35b34610210576104d16104cc612d4936613125565b9060405192612d5784613176565b600084526104bc6104b78433613545565b3461021057600036600319011261021057612d8161336b565b60075460ff8160a01c1615612dc85760ff60a01b19166007556040513381527f5db9ee0a495bf2e6ff9c91a7834c1ba4fdd244a5e8aa4e537bd38aeae4b073aa90602090a1005b60405162461bcd60e51b815260206004820152601460248201527314185d5cd8589b194e881b9bdd081c185d5cd95960621b6044820152606490fd5b3461021057600036600319011261021057612e1d61336b565b600080808060018060a01b03600754164790828215612e3f575bf115611a6957005b506108fc612e37565b34610210576104d1612e5936613125565b91612e676104b78433613545565b61360d565b3461021057604036600319011261021057612e85613082565b5060405162461bcd60e51b81528061053b60048201613e0a565b34610210576020366003190112610210576020611c28600435613432565b346102105760003660031901126102105760405160008054612ede81613222565b80845290600190818116908115610b5b5750600114612f075761038384610aee81860382613191565b600080805292507f290decd9548b62a8d60345a988386fc84ba6bc95484008f6362f93160ef3e5635b828410612f48575050508101602001610aee82610ade565b80546020858701810191909152909301928101612f30565b3461021057612f6e366130ae565b90612f7761336b565b6001600160a01b0316908115612fd25760207fa8eec2d2d416e596c8297a3f142564eb940a4dc7200409b9ca519688b95a73619183600052600f825260406000209015159060ff1981541660ff8316179055604051908152a2005b60405162461bcd60e51b815260206004820152601a60248201527f496e76616c696420676174656b656570657220616464726573730000000000006044820152606490fd5b34610210576020366003190112610210576004359063ffffffff60e01b8216809203610210576020916380ac58cd60e01b8114908115613071575b8115613060575b5015158152f35b6301ffc9a760e01b14905083613059565b635b5e139f60e01b81149150613052565b600435906001600160a01b038216820361021057565b602435906001600160a01b038216820361021057565b6040906003190112610210576004356001600160a01b0381168103610210579060243580151581036102105790565b60005b8381106130f05750506000910152565b81810151838201526020016130e0565b90602091613119815180928185528580860191016130dd565b601f01601f1916010190565b6060906003190112610210576001600160a01b0390600435828116810361021057916024359081168103610210579060443590565b61020081019081106001600160401b038211176117e357604052565b602081019081106001600160401b038211176117e357604052565b90601f801991011681019081106001600160401b038211176117e357604052565b6001600160401b0381116117e357601f01601f191660200190565b9291926131d9826131b2565b916131e76040519384613191565b829481845281830111610210578281602093846000960137010152565b9080601f830112156102105781602061321f933591016131cd565b90565b90600182811c92168015613252575b602083101461323c57565b634e487b7160e01b600052602260045260246000fd5b91607f1691613231565b906040519182600082549261327084613222565b9081845260019485811690816000146132df575060011461329c575b505061329a92500383613191565b565b9093915060005260209081600020936000915b8183106132c757505061329a9350820101388061328c565b855488840185015294850194879450918301916132af565b91505061329a94506020925060ff191682840152151560051b820101388061328c565b6020908160408183019282815285518094520193019160005b828110613329575050505090565b83518552938101939281019260010161331b565b80548210156133555760005260206000200190600090565b634e487b7160e01b600052603260045260246000fd5b6007546001600160a01b0316330361337f57565b606460405162461bcd60e51b815260206004820152602060248201527f4f776e61626c653a2063616c6c6572206973206e6f7420746865206f776e65726044820152fd5b156133ca57565b60405162461bcd60e51b815260206004820152601860248201527f4552433732313a20696e76616c696420746f6b656e20494400000000000000006044820152606490fd5b6000908152600260205260409020546001600160a01b031661321f8115156133c3565b600081815260026020526040902054613455906001600160a01b031615156133c3565b6000908152600460205260409020546001600160a01b031690565b1561347757565b60405162461bcd60e51b815260206004820152602d60248201527f4552433732313a2063616c6c6572206973206e6f7420746f6b656e206f776e6560448201526c1c881bdc88185c1c1c9bdd9959609a1b6064820152608490fd5b60809060208152603260208201527f4552433732313a207472616e7366657220746f206e6f6e20455243373231526560408201527131b2b4bb32b91034b6b83632b6b2b73a32b960711b60608201520190565b1561352c57565b60405162461bcd60e51b81528061053b600482016134d2565b906001600160a01b0380806135598461340f565b1693169183831493841561358c575b508315613576575b50505090565b61358291929350613432565b1614388080613570565b909350600052600560205260406000208260005260205260ff604060002054169238613568565b156135ba57565b60405162461bcd60e51b815260206004820152602560248201527f4552433732313a207472616e736665722066726f6d20696e636f72726563742060448201526437bbb732b960d91b6064820152608490fd5b906136359161361b8461340f565b6001600160a01b03939184169284929091831684146135b3565b16918215613733578115801561372b575b801561371e575b8015613702575b156136e9578161366e916136678661340f565b16146135b3565b7fddf252ad1be2c89b69c2b068fc378daa952ba7f163c4a11628f55a4df523b3ef60008481526004602052604081206001600160601b0360a01b9081815416905583825260036020526040822060001981540190558482526040822060018154019055858252600260205284604083209182541617905580a4565b60405162461bcd60e51b81528061053b60048201613e0a565b5083600052600960205280600860406000200154163314613654565b508060075416331461364d565b506000613646565b60405162461bcd60e51b8152602060048201526024808201527f4552433732313a207472616e7366657220746f20746865207a65726f206164646044820152637265737360e01b6064820152608490fd5b9192600092909190803b1561389a576137d2946040518092630a85bd0160e11b9485835233600484015287602484015260448301526080606483015281878160209a8b966084830190613100565b03926001600160a01b03165af1849181613856575b50613845575050503d60001461383d573d613801816131b2565b9061380f6040519283613191565b81528091833d92013e5b8051918261383a5760405162461bcd60e51b81528061053b600482016134d2565b01fd5b506060613819565b6001600160e01b0319161492509050565b9091508581813d8311613893575b61386e8183613191565b8101031261388f57516001600160e01b03198116810361388f5790386137e7565b8480fd5b503d613864565b5050915050600190565b9293600093909291803b15613924579484916138fe9660405180948193630a85bd0160e11b9788845233600485015260018060a01b0380921660248501526044840152608060648401528260209b8c976084830190613100565b0393165af18491816138565750613845575050503d60001461383d573d613801816131b2565b505050915050600190565b1561393657565b60405162461bcd60e51b8152602060048201526024808201527f546f74616c207469636b657473206d75737420626520677265617465722074686044820152630616e20360e41b6064820152608490fd5b60ff60075460a01c1661399657565b60405162461bcd60e51b815260206004820152601060248201526f14185d5cd8589b194e881c185d5cd95960821b6044820152606490fd5b156139d557565b60405162461bcd60e51b8152602060048201526015602482015274151a58dad95d08191bd95cc81b9bdd08195e1a5cdd605a1b6044820152606490fd5b15613a1957565b60405162461bcd60e51b815260206004820152601860248201527f5469636b657420686173206265656e20726566756e64656400000000000000006044820152606490fd5b9060405180926000908054613a7281613222565b91600191808316908115613ad65750600114613a98575b50505060209281520301902090565b60009081526020808220969450915b838210613ac05750505060209350820190923880613a89565b8654888301529586019587955090820190613aa7565b60ff19168652505050801515028201905060203880613a89565b90815491680100000000000000008310156117e357826107ab91600161329a9501815561333d565b600260065414613b29576002600655565b60405162461bcd60e51b815260206004820152601f60248201527f5265656e7472616e637947756172643a207265656e7472616e742063616c6c006044820152606490fd5b15613b7557565b60405162461bcd60e51b815260206004820152600f60248201526e151a58dad95d081b9bdd081cdbdb19608a1b6044820152606490fd5b15613bb357565b60405162461bcd60e51b815260206004820152601c60248201527f4552433732313a20746f6b656e20616c7265616479206d696e746564000000006044820152606490fd5b60001981146108365760010190565b60009080825260096020526040822090604051613c238161315a565b82548152613c336001840161325c565b6020820152613c446002840161325c565b60408201526003830154606082015260048301546080820152600583015460a0820152613c736006840161325c565b60c0820152613c846007840161325c565b60e082015260018060a01b03928360088201541661010083015260098101549184831661012082015260ff8360a01c161515610140820152600b60ff8460a81c161592831561016084015260ff808660b01c161515958661018086015260b81c1615156101a0840152600a8101546101c084015201546101e08201525115613d2a5761357057613d2557613d179061340f565b3391160361321f5750600190565b505090565b5050505090565b6001600160401b0381116117e35760051b60200190565b90613d5282613d31565b613d5f6040519182613191565b8281528092613d70601f1991613d31565b0190602036910137565b80518210156133555760209160051b010190565b6000338152602090600c825260408120916040518093849183825491828152019185528385209385905b828210613df057505050613dce92500383613191565b815115613dd9575090565b6040519150613de782613176565b80825236813790565b855484526001958601958895509381019390910190613db8565b60609060208152601c60208201527f5469636b65747320617265206e6f6e2d7472616e7366657261626c65000000006040820152019056fea26469706673582212201d7ff3aca816bf01d7b189480248cbf4ff79514d160db2019867a890bde18ff664736f6c63430008130033",
  "linkReferences": {},
  "deployedLinkReferences": {}
}