{
  "_format": "hh-sol-artifact-1",
  "contractName": "TicketSale",
  "sourceName": "contracts/TicketSale.sol",
  "abi": [
    {
      "inputs": [],
      "stateMutability": "nonpayable",
      "type": "constructor"
    },
    {
      "anonymous": false,
      "inputs": [
        {
          "indexed": true,
          "internalType": "address",
          "name": "owner",
          "type": "address"
        },
        {
          "indexed": true,
          "internalType": "address",
          "name": "approved",
          "type": "address"
        },
        {
          "indexed": true,
          "internalType": "uint256",
          "name": "tokenId",
          "type": "uint256"
        }
      ],
      "name": "Approval",
      "type": "event"
    },
    {
      "anonymous": false,
      "inputs": [
        {
          "indexed": true,
          "internalType": "address",
          "name": "owner",
          "type": "address"
        },
        {
          "indexed": true,
          "internalType": "address",
          "name": "operator",
          "type": "address"
        },
        {
          "indexed": false,
          "internalType": "bool",
          "name": "approved",
          "type": "bool"
        }
      ],
      "name": "ApprovalForAll",
      "type": "event"
    },
    {
      "anonymous": false,
      "inputs": [
        {
          "indexed": true,
          "internalType": "address",
          "name": "previousOwner",
          "type": "address"
        },
        {
          "indexed": true,
          "internalType": "address",
          "name": "newOwner",
          "type": "address"
        }
      ],
      "name": "OwnershipTransferred",
      "type": "event"
    },
    {
      "anonymous": false,
      "inputs": [
        {
          "indexed": false,
          "internalType": "address",
          "name": "account",
          "type": "address"
        }
      ],
      "name": "Paused",
      "type": "event"
    },
    {
      "anonymous": false,
      "inputs": [
        {
          "indexed": true,
          "internalType": "uint256",
          "name": "ticketId",
          "type": "uint256"
        },
        {
          "indexed": false,
          "internalType": "string",
          "name": "eventName",
          "type": "string"
        },
        {
          "indexed": true,
          "internalType": "address",
          "name": "seller",
          "type": "address"
        },
        {
          "indexed": false,
          "internalType": "uint256",
          "name": "price",
          "type": "uint256"
        },
        {
          "indexed": false,
          "internalType": "uint256",
          "name": "eventDate",
          "type": "uint256"
        }
      ],
      "name": "TicketCreated",
      "type": "event"
    },
    {
      "anonymous": false,
      "inputs": [
        {
          "indexed": true,
          "internalType": "uint256",
          "name": "ticketId",
          "type": "uint256"
        },
        {
          "indexed": true,
          "internalType": "address",
          "name": "buyer",
          "type": "address"
        }
      ],
      "name": "TicketDownloaded",
      "type": "event"
    },
    {
      "anonymous": false,
      "inputs": [
        {
          "indexed": true,
          "internalType": "uint256",
          "name": "ticketId",
          "type": "uint256"
        },
        {
          "indexed": true,
          "internalType": "address",
          "name": "buyer",
          "type": "address"
        },
        {
          "indexed": false,
          "internalType": "uint256",
          "name": "price",
          "type": "uint256"
        }
      ],
      "name": "TicketPurchased",
      "type": "event"
    },
    {
      "anonymous": false,
      "inputs": [
        {
          "indexed": true,
          "internalType": "uint256",
          "name": "ticketId",
          "type": "uint256"
        },
        {
          "indexed": true,
          "internalType": "address",
          "name": "buyer",
          "type": "address"
        },
        {
          "indexed": false,
          "internalType": "uint256",
          "name": "refundAmount",
          "type": "uint256"
        }
      ],
      "name": "TicketRefunded",
      "type": "event"
    },
    {
      "anonymous": false,
      "inputs": [
        {
          "indexed": true,
          "internalType": "uint256",
          "name": "ticketId",
          "type": "uint256"
        },
        {
          "indexed": true,
          "internalType": "address",
          "name": "from",
          "type": "address"
        },
        {
          "indexed": true,
          "internalType": "address",
          "name": "to",
          "type": "address"
        },
        {
          "indexed": false,
          "internalType": "address",
          "name": "executedBy",
          "type": "address"
        }
      ],
      "name": "TicketTransferred",
      "type": "event"
    },
    {
      "anonymous": false,
      "inputs": [
        {
          "indexed": true,
          "internalType": "address",
          "name": "from",
          "type": "address"
        },
        {
          "indexed": true,
          "internalType": "address",
          "name": "to",
          "type": "address"
        },
        {
          "indexed": true,
          "internalType": "uint256",
          "name": "tokenId",
          "type": "uint256"
        }
      ],
      "name": "Transfer",
      "type": "event"
    },
    {
      "anonymous": false,
      "inputs": [
        {
          "indexed": false,
          "internalType": "address",
          "name": "account",
          "type": "address"
        }
      ],
      "name": "Unpaused",
      "type": "event"
    },
    {
      "inputs": [
        {
          "internalType": "address",
          "name": "from",
          "type": "address"
        },
        {
          "internalType": "address",
          "name": "to",
          "type": "address"
        },
        {
          "internalType": "uint256",
          "name": "ticketId",
          "type": "uint256"
        }
      ],
      "name": "adminTransferTicket",
      "outputs": [],
      "stateMutability": "nonpayable",
      "type": "function"
    },
    {
      "inputs": [
        {
          "internalType": "address",
          "name": "to",
          "type": "address"
        },
        {
          "internalType": "uint256",
          "name": "tokenId",
          "type": "uint256"
        }
      ],
      "name": "approve",
      "outputs": [],
      "stateMutability": "nonpayable",
      "type": "function"
    },
    {
      "inputs": [
        {
          "internalType": "address",
          "name": "owner",
          "type": "address"
        }
      ],
      "name": "balanceOf",
      "outputs": [
        {
          "internalType": "uint256",
          "name": "",
          "type": "uint256"
        }
      ],
      "stateMutability": "view",
      "type": "function"
    },
    {
      "inputs": [
        {
          "internalType": "uint256",
          "name": "ticketId",
          "type": "uint256"
        }
      ],
      "name": "buyTicket",
      "outputs": [],
      "stateMutability": "payable",
      "type": "function"
    },
    {
      "inputs": [
        {
          "internalType": "string",
          "name": "eventName",
          "type": "string"
        },
        {
          "internalType": "string",
          "name": "organizer",
          "type": "string"
        },
        {
          "internalType": "uint256",
          "name": "eventDate",
          "type": "uint256"
        },
        {
          "internalType": "uint256",
          "name": "saleEndDate",
          "type": "uint256"
        },
        {
          "internalType": "uint256",
          "name": "price",
          "type": "uint256"
        },
        {
          "internalType": "uint256",
          "name": "totalTickets",
          "type": "uint256"
        },
        {
          "internalType": "string",
          "name": "posterCID",
          "type": "string"
        },
        {
          "internalType": "string",
          "name": "ticketCID",
          "type": "string"
        }
      ],
      "name": "createSale",
      "outputs": [],
      "stateMutability": "nonpayable",
      "type": "function"
    },
    {
      "inputs": [
        {
          "internalType": "uint256",
          "name": "ticketId",
          "type": "uint256"
        }
      ],
      "name": "downloadTicket",
      "outputs": [],
      "stateMutability": "nonpayable",
      "type": "function"
    },
    {
      "inputs": [
        {
          "internalType": "string",
          "name": "",
          "type": "string"
        }
      ],
      "name": "eventToTicketId",
      "outputs": [
        {
          "internalType": "uint256",
          "name": "",
          "type": "uint256"
        }
      ],
      "stateMutability": "view",
      "type": "function"
    },
    {
      "inputs": [
        {
          "internalType": "uint256",
          "name": "tokenId",
          "type": "uint256"
        }
      ],
      "name": "getApproved",
      "outputs": [
        {
          "internalType": "address",
          "name": "",
          "type": "address"
        }
      ],
      "stateMutability": "view",
      "type": "function"
    },
    {
      "inputs": [],
      "name": "getAvailableTickets",
      "outputs": [
        {
          "internalType": "uint256[]",
          "name": "",
          "type": "uint256[]"
        }
      ],
      "stateMutability": "view",
      "type": "function"
    },
    {
      "inputs": [],
      "name": "getMyTickets",
      "outputs": [
        {
          "internalType": "uint256[]",
          "name": "",
          "type": "uint256[]"
        }
      ],
      "stateMutability": "view",
      "type": "function"
    },
    {
      "inputs": [
        {
          "internalType": "uint256",
          "name": "ticketId",
          "type": "uint256"
        }
      ],
      "name": "getTicket",
      "outputs": [
        {
          "components": [
            {
              "internalType": "uint256",
              "name": "ticketId",
              "type": "uint256"
            },
            {
              "internalType": "string",
              "name": "eventName",
              "type": "string"
            },
            {
              "internalType": "string",
              "name": "organizer",
              "type": "string"
            },
            {
              "internalType": "uint256",
              "name": "eventDate",
              "type": "uint256"
            },
            {
              "internalType": "uint256",
              "name": "saleEndDate",
              "type": "uint256"
            },
            {
              "internalType": "uint256",
              "name": "price",
              "type": "uint256"
            },
            {
              "internalType": "string",
              "name": "posterUrl",
              "type": "string"
            },
            {
              "internalType": "string",
              "name": "ticketImageUrl",
              "type": "string"
            },
            {
              "internalType": "address",
              "name": "seller",
              "type": "address"
            },
            {
              "internalType": "address",
              "name": "buyer",
              "type": "address"
            },
            {
              "internalType": "bool",
              "name": "isSold",
              "type": "bool"
            },
            {
              "internalType": "bool",
              "name": "isDownloaded",
              "type": "bool"
            },
            {
              "internalType": "bool",
              "name": "isRefunded",
              "type": "bool"
            },
            {
              "internalType": "bool",
              "name": "isSecondHand",
              "type": "bool"
            },
            {
              "internalType": "uint256",
              "name": "totalTickets",
              "type": "uint256"
            },
            {
              "internalType": "uint256",
              "name": "availableTickets",
              "type": "uint256"
            }
          ],
          "internalType": "struct TicketSale.Ticket",
          "name": "",
          "type": "tuple"
        }
      ],
      "stateMutability": "view",
      "type": "function"
    },
    {
      "inputs": [
        {
          "internalType": "address",
          "name": "",
          "type": "address"
        },
        {
          "internalType": "string",
          "name": "",
          "type": "string"
        }
      ],
      "name": "hasBoughtTicketForEvent",
      "outputs": [
        {
          "internalType": "bool",
          "name": "",
          "type": "bool"
        }
      ],
      "stateMutability": "view",
      "type": "function"
    },
    {
      "inputs": [
        {
          "internalType": "address",
          "name": "owner",
          "type": "address"
        },
        {
          "internalType": "address",
          "name": "operator",
          "type": "address"
        }
      ],
      "name": "isApprovedForAll",
      "outputs": [
        {
          "internalType": "bool",
          "name": "",
          "type": "bool"
        }
      ],
      "stateMutability": "view",
      "type": "function"
    },
    {
      "inputs": [],
      "name": "name",
      "outputs": [
        {
          "internalType": "string",
          "name": "",
          "type": "string"
        }
      ],
      "stateMutability": "view",
      "type": "function"
    },
    {
      "inputs": [],
      "name": "owner",
      "outputs": [
        {
          "internalType": "address",
          "name": "",
          "type": "address"
        }
      ],
      "stateMutability": "view",
      "type": "function"
    },
    {
      "inputs": [
        {
          "internalType": "uint256",
          "name": "tokenId",
          "type": "uint256"
        }
      ],
      "name": "ownerOf",
      "outputs": [
        {
          "internalType": "address",
          "name": "",
          "type": "address"
        }
      ],
      "stateMutability": "view",
      "type": "function"
    },
    {
      "inputs": [],
      "name": "pause",
      "outputs": [],
      "stateMutability": "nonpayable",
      "type": "function"
    },
    {
      "inputs": [],
      "name": "paused",
      "outputs": [
        {
          "internalType": "bool",
          "name": "",
          "type": "bool"
        }
      ],
      "stateMutability": "view",
      "type": "function"
    },
    {
      "inputs": [],
      "name": "renounceOwnership",
      "outputs": [],
      "stateMutability": "nonpayable",
      "type": "function"
    },
    {
      "inputs": [
        {
          "internalType": "uint256",
          "name": "ticketId",
          "type": "uint256"
        },
        {
          "internalType": "uint256",
          "name": "newTotalTickets",
          "type": "uint256"
        }
      ],
      "name": "resetTicketQuantities",
      "outputs": [],
      "stateMutability": "nonpayable",
      "type": "function"
    },
    {
      "inputs": [
        {
          "internalType": "address",
          "name": "from",
          "type": "address"
        },
        {
          "internalType": "address",
          "name": "to",
          "type": "address"
        },
        {
          "internalType": "uint256",
          "name": "tokenId",
          "type": "uint256"
        }
      ],
      "name": "safeTransferFrom",
      "outputs": [],
      "stateMutability": "nonpayable",
      "type": "function"
    },
    {
      "inputs": [
        {
          "internalType": "address",
          "name": "from",
          "type": "address"
        },
        {
          "internalType": "address",
          "name": "to",
          "type": "address"
        },
        {
          "internalType": "uint256",
          "name": "tokenId",
          "type": "uint256"
        },
        {
          "internalType": "bytes",
          "name": "data",
          "type": "bytes"
        }
      ],
      "name": "safeTransferFrom",
      "outputs": [],
      "stateMutability": "nonpayable",
      "type": "function"
    },
    {
      "inputs": [
        {
          "internalType": "address",
          "name": "operator",
          "type": "address"
        },
        {
          "internalType": "bool",
          "name": "approved",
          "type": "bool"
        }
      ],
      "name": "setApprovalForAll",
      "outputs": [],
      "stateMutability": "nonpayable",
      "type": "function"
    },
    {
      "inputs": [
        {
          "internalType": "bytes4",
          "name": "interfaceId",
          "type": "bytes4"
        }
      ],
      "name": "supportsInterface",
      "outputs": [
        {
          "internalType": "bool",
          "name": "",
          "type": "bool"
        }
      ],
      "stateMutability": "view",
      "type": "function"
    },
    {
      "inputs": [],
      "name": "symbol",
      "outputs": [
        {
          "internalType": "string",
          "name": "",
          "type": "string"
        }
      ],
      "stateMutability": "view",
      "type": "function"
    },
    {
      "inputs": [
        {
          "internalType": "uint256",
          "name": "",
          "type": "uint256"
        }
      ],
      "name": "tickets",
      "outputs": [
        {
          "internalType": "uint256",
          "name": "ticketId",
          "type": "uint256"
        },
        {
          "internalType": "string",
          "name": "eventName",
          "type": "string"
        },
        {
          "internalType": "string",
          "name": "organizer",
          "type": "string"
        },
        {
          "internalType": "uint256",
          "name": "eventDate",
          "type": "uint256"
        },
        {
          "internalType": "uint256",
          "name": "saleEndDate",
          "type": "uint256"
        },
        {
          "internalType": "uint256",
          "name": "price",
          "type": "uint256"
        },
        {
          "internalType": "string",
          "name": "posterUrl",
          "type": "string"
        },
        {
          "internalType": "string",
          "name": "ticketImageUrl",
          "type": "string"
        },
        {
          "internalType": "address",
          "name": "seller",
          "type": "address"
        },
        {
          "internalType": "address",
          "name": "buyer",
          "type": "address"
        },
        {
          "internalType": "bool",
          "name": "isSold",
          "type": "bool"
        },
        {
          "internalType": "bool",
          "name": "isDownloaded",
          "type": "bool"
        },
        {
          "internalType": "bool",
          "name": "isRefunded",
          "type": "bool"
        },
        {
          "internalType": "bool",
          "name": "isSecondHand",
          "type": "bool"
        },
        {
          "internalType": "uint256",
          "name": "totalTickets",
          "type": "uint256"
        },
        {
          "internalType": "uint256",
          "name": "availableTickets",
          "type": "uint256"
        }
      ],
      "stateMutability": "view",
      "type": "function"
    },
    {
      "inputs": [
        {
          "internalType": "uint256",
          "name": "tokenId",
          "type": "uint256"
        }
      ],
      "name": "tokenURI",
      "outputs": [
        {
          "internalType": "string",
          "name": "",
          "type": "string"
        }
      ],
      "stateMutability": "view",
      "type": "function"
    },
    {
      "inputs": [
        {
          "internalType": "address",
          "name": "from",
          "type": "address"
        },
        {
          "internalType": "address",
          "name": "to",
          "type": "address"
        },
        {
          "internalType": "uint256",
          "name": "tokenId",
          "type": "uint256"
        }
      ],
      "name": "transferFrom",
      "outputs": [],
      "stateMutability": "nonpayable",
      "type": "function"
    },
    {
      "inputs": [
        {
          "internalType": "address",
          "name": "newOwner",
          "type": "address"
        }
      ],
      "name": "transferOwnership",
      "outputs": [],
      "stateMutability": "nonpayable",
      "type": "function"
    },
    {
      "inputs": [],
      "name": "unpause",
      "outputs": [],
      "stateMutability": "nonpayable",
      "type": "function"
    },
    {
      "inputs": [],
      "name": "updateExpiredTickets",
      "outputs": [],
      "stateMutability": "nonpayable",
      "type": "function"
    },
    {
      "inputs": [
        {
          "internalType": "address",
          "name": "",
          "type": "address"
        },
        {
          "internalType": "uint256",
          "name": "",
          "type": "uint256"
        }
      ],
      "name": "userHasPurchased",
      "outputs": [
        {
          "internalType": "bool",
          "name": "",
          "type": "bool"
        }
      ],
      "stateMutability": "view",
      "type": "function"
    },
    {
      "inputs": [
        {
          "internalType": "address",
          "name": "",
          "type": "address"
        },
        {
          "internalType": "uint256",
          "name": "",
          "type": "uint256"
        }
      ],
      "name": "userPurchases",
      "outputs": [
        {
          "internalType": "uint256",
          "name": "",
          "type": "uint256"
        }
      ],
      "stateMutability": "view",
      "type": "function"
    },
    {
      "inputs": [
        {
          "internalType": "uint256",
          "name": "ticketId",
          "type": "uint256"
        }
      ],
      "name": "verifyTicket",
      "outputs": [
        {
          "internalType": "bool",
          "name": "isValid",
          "type": "bool"
        }
      ],
      "stateMutability": "view",
      "type": "function"
    },
    {
      "inputs": [],
      "name": "withdraw",
      "outputs": [],
      "stateMutability": "nonpayable",
      "type": "function"
    }
  ],
  "bytecode": "0x60803462000365576001600160401b03906040818101838111838210176200034f578152600d82526020916c10dbdb98d95c9d151a58dad95d609a1b83820152815193828501858110828211176200034f5783526006855265151250d2d15560d21b8486015281518181116200034f576000948554916001948584811c9416801562000344575b8385101462000330578190601f94858111620002dd575b508390858311600114620002795789926200026d575b5050600019600383901b1c191690851b1786555b8651928311620002595783548481811c911680156200024e575b828210146200023a57828111620001f2575b50809183116001146200018b5750849582939495926200017f575b5050600019600383901b1c191690821b1781555b60065560075490519133906001600160a01b038316907f8be0079c531659141344cd1fd0a4f28419497f9722a3daafe3b4186f6b6457e09080a36001600160a81b0319163360ff60a01b191617600755613b6a90816200036b8239f35b0151905038806200010e565b90601f198316968487528287209287905b898210620001da575050838596979810620001c0575b505050811b01815562000122565b015160001960f88460031b161c19169055388080620001b2565b8087859682949686015181550195019301906200019c565b8487528187208380860160051c82019284871062000230575b0160051c019085905b82811062000224575050620000f3565b88815501859062000214565b925081926200020b565b634e487b7160e01b87526022600452602487fd5b90607f1690620000e1565b634e487b7160e01b86526041600452602486fd5b015190503880620000b3565b898052848a208894509190601f1984168b5b87828210620002c65750508411620002ac575b505050811b018655620000c7565b015160001960f88460031b161c191690553880806200029e565b8385015186558b979095019493840193016200028b565b9091508880528389208580850160051c82019286861062000326575b918991869594930160051c01915b828110620003175750506200009d565b8b815585945089910162000307565b92508192620002f9565b634e487b7160e01b88526022600452602488fd5b93607f169362000086565b634e487b7160e01b600052604160045260246000fd5b600080fdfe608080604052600436101561001357600080fd5b60003560e01c90816301ffc9a714612d765750806306fdde0314612cd3578063081812fc14612cb5578063095ea7b314612c8257806323b872dd14612c5e5780633ccfd60b14612c1a5780633f4ba83a14612b7e57806342842e0e14612b4b578063454270af14612aef57806345895ee5146120b157806348005dab1461200457806350b4471214611ec0578063543cb81f14611e985780635a8acacc14611cc35780635c975abb14611c9d5780636246928914611a1c5780636352211e146119ec57806363ad6c6f1461196e57806367dd74ca1461105b5780636fcd5e6814610b0057806370a0823114610a69578063715018a614610a0c5780637dc379fa14610767578063827826e01461071a57806383bb9e21146105e35780638456cb59146105815780638da5cb5b1461055857806395d89b4114610479578063a22cb46514610437578063b88d4fde146103b0578063c87b56dd14610343578063cf2c0334146102eb578063e1d10d85146102bf578063e985e9c5146102695763f2fde38b146101a057600080fd5b34610264576020366003190112610264576101b9612e29565b6101c161309b565b6001600160a01b0390811690811561021057600754826001600160601b0360a01b821617600755167f8be0079c531659141344cd1fd0a4f28419497f9722a3daafe3b4186f6b6457e0600080a3005b60405162461bcd60e51b815260206004820152602660248201527f4f776e61626c653a206e6577206f776e657220697320746865207a65726f206160448201526564647265737360d01b6064820152608490fd5b600080fd5b3461026457604036600319011261026457610282612e29565b61028a612e3f565b9060018060a01b03809116600052600560205260406000209116600052602052602060ff604060002054166040519015158152f35b34610264576000366003190112610264576102e76102db613a80565b60405191829182613032565b0390f35b3461026457604036600319011261026457610304612e29565b6001600160a01b03166000908152600c6020526040902080546024359190821015610264576020916103359161306d565b90546040519160031b1c8152f35b346102645760203660031901126102645760043560009081526002602052604090205461037a906001600160a01b031615156130f3565b600060405161038881612ea6565b526102e760405161039881612ea6565b60008152604051918291602083526020830190612e04565b34610264576080366003190112610264576103c9612e29565b6103d1612e3f565b90606435906044356001600160401b0383116102645736602384011215610264576104359361040d610430943690602481600401359101612efd565b9261042061041b8433613275565b6131a0565b61042b83838361333d565b6135d4565b613255565b005b3461026457604036600319011261026457610450612e29565b50602435801515036102645760405162461bcd60e51b81528061047560048201613afc565b0390fd5b34610264576000366003190112610264576040516000600180549061049d82612f52565b8085529181811690811561053157506001146104d8575b6102e7846104c481860382612ec1565b604051918291602083526020830190612e04565b600081815292507fb10e2d527612073b26eecdfd717e6a320cf44b4afac2b0732d9fcbe2b7fa0cf65b8284106105195750505081016020016104c4826104b4565b80546020858701810191909152909301928101610501565b60ff191660208087019190915292151560051b850190920192506104c491508390506104b4565b34610264576000366003190112610264576007546040516001600160a01b039091168152602090f35b346102645760003660031901126102645761059a61309b565b6105a26136b7565b6007805460ff60a01b1916600160a01b1790556040513381527f62e78cea01bee320cd4e420270b5ea74000d11b0c9f74754ebdbfc544b05a25890602090a1005b34610264576000366003190112610264576105fc6136b7565b610604613848565b600854600190815b8181111561061b576006839055005b806106559160005260098160208281526040600020928354151580610709575b806106f8575b806106eb575b61065a575b505050506138ea565b61060c565b83019081549160ff8360a01c16610672575b5061064c565b60ff60b01b198316600160b01b1781556001600160a01b039283166000908152600a8352604090207f8c8fd3da31954f4657d981e2a89ea3421ef5d7bfa0998012eaff5f24a61a867a9360059290916106cd90888d0161378e565b60ff1981541690555416940154604051908152a3848181808061066c565b5060048401544211610647565b5060ff8185015460a81c1615610641565b5060ff8185015460b01c161561063b565b34610264576040366003190112610264576001600160a01b0361073b612e29565b16600052600d6020526040600020602435600052602052602060ff604060002054166040519015158152f35b346102645760203660031901126102645760006101e060405161078981612e8a565b82815260606020820152606060408201528260608201528260808201528260a0820152606060c0820152606060e08201528261010082015282610120820152826101408201528261016082015282610180820152826101a0820152826101c0820152015260043580600052600960205261080960406000205415156136fe565b60005260096020526040600020600b6040519161082583612e8a565b8054835261083560018201612f8c565b602084015261084660028201612f8c565b60408401526003810154606084015260048101546080840152600581015460a084015261087560068201612f8c565b60c084015261088660078201612f8c565b60e084015260018060a01b0360088201541661010084015260ff600982015460018060a01b038116610120860152818160a01c161515610140860152818160a81c161515610160860152818160b01c16151561018086015260b81c1615156101a0840152600a8101546101c084015201546101e0820152604051809160208252805160208301526101e061099561092e60208401516102006040870152610220860190612e04565b61097f61094d604086015192601f1993848983030160608a0152612e04565b60608601516080880152608086015160a088015260a086015160c088015260c0860151838883030160e0890152612e04565b9060e08501519086830301610100870152612e04565b9160018060a01b036101008201511661012085015260018060a01b03610120820151166101408501526101408101511515610160850152610160810151151561018085015261018081015115156101a08501526101a081015115156101c08501526101c08101518285015201516102008301520390f35b3461026457600036600319011261026457610a2561309b565b600780546001600160a01b031981169091556000906001600160a01b03167f8be0079c531659141344cd1fd0a4f28419497f9722a3daafe3b4186f6b6457e08280a3005b34610264576020366003190112610264576001600160a01b03610a8a612e29565b168015610aa95760005260036020526020604060002054604051908152f35b60405162461bcd60e51b815260206004820152602960248201527f4552433732313a2061646472657373207a65726f206973206e6f7420612076616044820152683634b21037bbb732b960b91b6064820152608490fd5b3461026457610b0e36612e55565b610b199291926136b7565b610b21613848565b6001600160a01b03928084169182156110165780600052602060098152604060002094610b50865415156136fe565b6009860193845460ff8160b81c16610fc057886007541633148015610fb1575b15610f4f5760ff8160a81c16600014610ef757610b8c8561313f565b89808516911603610eb25760ff905b60b01c16610e6d5785600052600a835260406000209460ff610bc26001809a01978861378e565b5416610e1357879883169586600052600d8552604060002086600052855260406000209060ff199182815416905587600052600c865260406000208a6000905b610cfa575b505090879899610c9c8899937f4419f53c76d7302f46aec0c9d110b7a0c6806dce4479a5f8f47102e93f6547d499969594600052600a8952610c4d60406000208261378e565b8481541690558c600052600d89526040600020876000528952604060002083858254161790558c600052600c8952610c89876040600020613820565b8c600052600a895260406000209061378e565b80549092161790558054600163ff00ff0160a01b0319168917600160b81b1790556000828152600260205260409020546001600160a01b0316610ce9575b505050604051338152a4600655005b610cf29261333d565b868381610cda565b815480821015610e0d578990610d10838561306d565b929054600393841b1c14610d3457505090610d2c8c93926138ea565b909192610c02565b90999a9b9c506000969594939192961992838201918211610df757610d6c610d5f610d85938a61306d565b9054908d1b1c918961306d565b90919082549060031b91821b91600019901b1916179055565b8554908115610de1577f4419f53c76d7302f46aec0c9d110b7a0c6806dce4479a5f8f47102e93f6547d4998b978f9480610c9c950192610dc5848461306d565b81939154921b1b19169055559293949550819b9a999850610c07565b634e487b7160e01b600052603160045260246000fd5b634e487b7160e01b600052601160045260246000fd5b50610c07565b60405162461bcd60e51b815260048101859052602c60248201527f526563656976657220616c7265616479206861732061207469636b657420666f60448201526b1c881d1a1a5cc8195d995b9d60a21b6064820152608490fd5b60405162461bcd60e51b815260048101849052601f60248201527f43616e6e6f74207472616e7366657220726566756e646564207469636b6574006044820152606490fd5b60405162461bcd60e51b815260048101859052601a60248201527f53656e646572206973206e6f74207469636b6574206f776e65720000000000006044820152606490fd5b88831689821603610f0a5760ff90610b9b565b60405162461bcd60e51b815260048101859052601a60248201527f53656e646572206973206e6f74207469636b65742062757965720000000000006044820152606490fd5b60405162461bcd60e51b815260048101859052603460248201527f4e6f7420617574686f72697a65643a204f6e6c79204f7267616e697a6572206f604482015273391020b236b4b71031b0b7103a3930b739b332b960611b6064820152608490fd5b50886008890154163314610b70565b60405162461bcd60e51b815260048101859052602860248201527f5469636b65742068617320616c7265616479206265656e207472616e73666572604482015267726564206f6e636560c01b6064820152608490fd5b60405162461bcd60e51b815260206004820152601f60248201527f43616e6e6f74207472616e7366657220746f207a65726f2061646472657373006044820152606490fd5b60203660031901126102645761106f6136b7565b611077613848565b60043560005260096020526040600020611093815415156136fe565b6110a760ff600983015460b01c1615613742565b6004810154421161193857600581015434036118f357600b810154156118b75733600052600a60205260ff6110e360406000206001840161378e565b541661186157600080808060018060a01b0360088601541681903415611857575b3491f11561184b57600160085401908160085560038101546004820154600583015460018060a01b03600885015416916040519361114185612e8a565b86855261115060018701612f8c565b602086015261116160028701612f8c565b60408601526060850152608084015260a083015261118160068401612f8c565b60c083015261119260078401612f8c565b60e08301526101008201523361012082015260016101408201526000610160820152600061018082015260006101a082015260016101c082015260006101e08201528260005260096020526040600020908051825560208101518051906001600160401b0382116115c557819061120c6001860154612f52565b601f81116117f8575b50602090601f83116001146117865760009261177b575b50508160011b916000199060031b1c19161760018301555b60408101518051906001600160401b0382116115c55781906112696002860154612f52565b601f8111611728575b50602090601f83116001146116b6576000926116ab575b50508160011b916000199060031b1c19161760028301555b606081015160038301556080810151600483015560a0810151600583015560c08101518051906001600160401b0382116115c55781906112e46006860154612f52565b601f8111611658575b50602090601f83116001146115e6576000926115db575b50508160011b916000199060031b1c19161760068301555b60e08101518051906001600160401b0382116115c55761133f6007850154612f52565b601f811161157e575b50602090601f8311600114611508579180600b94926101e0946000926114fd575b50508160011b916000199060031b1c19161760078501555b6101008101516008850180546001600160a01b039283166001600160a01b031990911617905561012082015160098601805461014085015160ff60a01b90151560a01b16929093166001600160a81b03199093169290921717815561143d905b610160830151815460ff60a81b191690151560a81b60ff60a81b16178155610180830151815460ff60b01b191690151560b01b60ff60b01b161781556101a0830151815460ff60b81b191690151560b81b60ff60b81b16179055565b6101c0810151600a8501550151910155600b810154600019810191908211610df757600591600b82015533600052600c60205261147e836040600020613820565b33600052600d602052604060002083600052602052604060002060ff199060018282541617905533600052600a60205260016114c0604060002082850161378e565b918254161790550154906040519182527fdbaaf4c87ce30816c961a81d110622a3227ede77953d4383d514ff88ab2e0fd360203393a36001600655005b015190508880611369565b906007850160005260206000209160005b601f1985168110611566575092600b94926001926101e09583601f1981161061154d575b505050811b016007850155611381565b015160001960f88460031b161c1916905588808061153d565b91926020600181928685015181550194019201611519565b600785016000526020600020601f840160051c8101602085106115be575b601f830160051c820181106115b2575050611348565b6000815560010161159c565b508061159c565b634e487b7160e01b600052604160045260246000fd5b015190508680611304565b9250600685016000526020600020906000935b601f198416851061163d576001945083601f19811610611624575b505050811b01600683015561131c565b015160001960f88460031b161c19169055868080611614565b818101518355602094850194600190930192909101906115f9565b909150600685016000526020600020601f840160051c8101602085106116a4575b90849392915b601f830160051c820181106116955750506112ed565b6000815585945060010161167f565b5080611679565b015190508680611289565b9250600285016000526020600020906000935b601f198416851061170d576001945083601f198116106116f4575b505050811b0160028301556112a1565b015160001960f88460031b161c191690558680806116e4565b818101518355602094850194600190930192909101906116c9565b909150600285016000526020600020601f840160051c810160208510611774575b90849392915b601f830160051c82018110611765575050611272565b6000815585945060010161174f565b5080611749565b01519050868061122c565b9250600185016000526020600020906000935b601f19841685106117dd576001945083601f198116106117c4575b505050811b016001830155611244565b015160001960f88460031b161c191690558680806117b4565b81810151835560209485019460019093019290910190611799565b909150600185016000526020600020601f840160051c810160208510611844575b90849392915b601f830160051c82018110611835575050611215565b6000815585945060010161181f565b5080611819565b6040513d6000823e3d90fd5b6108fc9150611104565b60405162461bcd60e51b815260206004820152602860248201527f596f7520616c726561647920686176652061207469636b657420666f722074686044820152671a5cc8195d995b9d60c21b6064820152608490fd5b60405162461bcd60e51b81526020600482015260146024820152734e6f207469636b65747320617661696c61626c6560601b6044820152606490fd5b60405162461bcd60e51b815260206004820152601860248201527f496e636f7272656374207061796d656e7420616d6f756e7400000000000000006044820152606490fd5b60405162461bcd60e51b815260206004820152600e60248201526d14d85b19481a185cc8195b99195960921b6044820152606490fd5b3461026457604036600319011261026457611987612e29565b6024356001600160401b038111610264576119d7602080936119af60ff943690600401612f34565b9060018060a01b0316600052600a825260406000208260405194838680955193849201612de1565b82019081520301902054166040519015158152f35b34610264576020366003190112610264576020611a0a60043561313f565b6040516001600160a01b039091168152f35b34610264576020806003193601126102645760043590611a3a6136b7565b611a42613848565b816000526009815260096040600020611a5d815415156136fe565b0190815460ff8160a01c1615611c6657336001600160a01b03821603611c2a5760ff8160a81c16611be55760ff611a989160b01c1615613742565b60405190611aa582612ea6565b600082523315611ba257611b6391600261043092611ae1611adb88600052600260205260018060a01b0360406000205416151590565b1561389e565b600087815260026020526040902054611b04906001600160a01b03161515611adb565b336000526003815260406000206001815401905586600052526040600020336001600160601b0360a01b825416179055843360007fddf252ad1be2c89b69c2b068fc378daa952ba7f163c4a11628f55a4df523b3ef8180a484336134b4565b805460ff60a81b1916600160a81b17905533907f4c3f8ff3b3376dbd255cab935257c5c6f095b27b816f6f0b1ae35b828e6838a8600080a36001600655005b6064906040519062461bcd60e51b825280600483015260248201527f4552433732313a206d696e7420746f20746865207a65726f20616464726573736044820152fd5b60405162461bcd60e51b815260048101839052601960248201527f5469636b657420616c726561647920646f776e6c6f61646564000000000000006044820152606490fd5b60405162461bcd60e51b81526004810183905260146024820152732737ba103a3432903a34b1b5b2ba10313abcb2b960611b6044820152606490fd5b60405162461bcd60e51b815260048101839052600f60248201526e151a58dad95d081b9bdd081cdbdb19608a1b6044820152606490fd5b3461026457600036600319011261026457602060ff60075460a01c166040519015158152f35b34610264576000366003190112610264576008805490611ce282613a3a565b916000916001805b83811115611d3a578585611cfd81613a3a565b9160005b828110611d1657604051806102e78682613032565b80611d24611d359284613a6c565b51611d2f8287613a6c565b526138ea565b611d01565b8060005260096020818152604060002060405191611d5783612e8a565b81548352611d66868301612f8c565b90830152611d7660028201612f8c565b604083015260038101546060830152600b6004820154916080840192835260058101549460a09586860152611dad60068301612f8c565b60c0860152611dbe60078301612f8c565b60e086015260018060a01b0390818a84015416610100870152820154958691821661012087015260ff9182911c161515610140860152808660a81c161515610160860152808660b01c161595861561018087015260b81c1615156101a0850152600a8101546101c0850152015491826101e08201525115159283611e90575b5082611e84575b5081611e7a575b50611e5f575b611e5a906138ea565b611cea565b93611e728186611d2f611e5a948a613a6c565b949050611e51565b9050151587611e4b565b51421115915088611e44565b925089611e3d565b34610264576020366003190112610264576020611eb66004356138f9565b6040519015158152f35b346102645760203660031901126102645760043560005260096020526040600020805460018201611ef090612f8c565b91611efd60028201612f8c565b6003820154600483015460058401549391611f1a60068401612f8c565b611f2660078501612f8c565b90600160a01b60019003928360088701541697600987015495600a88015497600b0154986040519c8d9c8d528c6102006020819201528d01611f6791612e04565b8c810360408e0152611f7891612e04565b9260608c015260808b015260a08a015288810360c08a0152611f9991612e04565b87810360e0890152611faa91612e04565b9461010087015281166101208601528060a01c60ff1615156101408601528060a81c60ff1615156101608601528060b01c60ff16151561018086015260b81c60ff1615156101a08501526101c08401526101e08301520390f35b346102645760403660031901126102645760243560043560005260096020526040600020612034815415156136fe565b6008810154336001600160a01b03918216149081156120a3575b501561206d57600b9061206283151561365f565b600a81018390550155005b60405162461bcd60e51b815260206004820152600e60248201526d139bdd08185d5d1a1bdc9a5e995960921b6044820152606490fd5b90506007541633148361204e565b3461026457610100366003190112610264576004356001600160401b038111610264576120e2903690600401612f34565b6024356001600160401b03811161026457612101903690600401612f34565b60c4356001600160401b03811161026457612120903690600401612f34565b9060e4356001600160401b03811161026457612140903690600401612f34565b6121486136b7565b835115612aaa57815115612a6557426044351115612a21574260643511156129d057604435606435101561298b57608435156129465761218b60a435151561365f565b825115612901578051156128bc5760405160208186516121ae8183858b01612de1565b8101600b8152030190205461288057600160085401928360085561223960276040519261220b828566697066733a2f2f60c81b938460208301526121fb8151809260208686019101612de1565b8101036007810187520185612ec1565b60405194859160208301526122298151809260208686019101612de1565b8101036007810185520183612ec1565b6040519261224684612e8a565b84845285602085015260408401526044356060840152606435608084015260843560a084015260c083015260e082015233610100820152600061012082015260006101408201526000610160820152600061018082015260006101a082015260a4356101c082015260a4356101e08201528160005260096020526040600020908051825560208101518051906001600160401b0382116115c55781906122ef6001860154612f52565b601f811161282d575b50602090601f83116001146127bb576000926127b0575b50508160011b916000199060031b1c19161760018301555b60408101518051906001600160401b0382116115c557819061234c6002860154612f52565b601f811161275d575b50602090601f83116001146126eb576000926126e0575b50508160011b916000199060031b1c19161760028301555b606081015160038301556080810151600483015560a0810151600583015560c08101518051906001600160401b0382116115c55781906123c76006860154612f52565b601f811161268d575b50602090601f831160011461261b57600092612610575b50508160011b916000199060031b1c19161760068301555b60e08101518051906001600160401b0382116115c5576124226007850154612f52565b601f81116125c9575b50602090601f8311600114612553579180600b94926101e094600092612548575b50508160011b916000199060031b1c19161760078501555b6101008101516008850180546001600160a01b039283166001600160a01b031990911617905561012082015160098601805461014085015160ff60a01b90151560a01b16929093166001600160a81b0319909316929092171781556124c8906113e1565b6101c0810151600a85015501519101558060405160208185516124ee8183858a01612de1565b8101600b815203019020557f57f13ab4f405dee432e813c363e9bbf98b6e2703d4e28b09ad4af92f689d5fba61252f60405193606085526060850190612e04565b92608435602082015260443560408201528033940390a3005b01519050888061244c565b906007850160005260206000209160005b601f19851681106125b1575092600b94926001926101e09583601f19811610612598575b505050811b016007850155612464565b015160001960f88460031b161c19169055888080612588565b91926020600181928685015181550194019201612564565b600785016000526020600020601f840160051c810160208510612609575b601f830160051c820181106125fd57505061242b565b600081556001016125e7565b50806125e7565b0151905086806123e7565b9250600685016000526020600020906000935b601f1984168510612672576001945083601f19811610612659575b505050811b0160068301556123ff565b015160001960f88460031b161c19169055868080612649565b8181015183556020948501946001909301929091019061262e565b909150600685016000526020600020601f840160051c8101602085106126d9575b90849392915b601f830160051c820181106126ca5750506123d0565b600081558594506001016126b4565b50806126ae565b01519050868061236c565b9250600285016000526020600020906000935b601f1984168510612742576001945083601f19811610612729575b505050811b016002830155612384565b015160001960f88460031b161c19169055868080612719565b818101518355602094850194600190930192909101906126fe565b909150600285016000526020600020601f840160051c8101602085106127a9575b90849392915b601f830160051c8201811061279a575050612355565b60008155859450600101612784565b508061277e565b01519050868061230f565b9250600185016000526020600020906000935b601f1984168510612812576001945083601f198116106127f9575b505050811b016001830155612327565b015160001960f88460031b161c191690558680806127e9565b818101518355602094850194600190930192909101906127ce565b909150600185016000526020600020601f840160051c810160208510612879575b90849392915b601f830160051c8201811061286a5750506122f8565b60008155859450600101612854565b508061284e565b60405162461bcd60e51b81526020600482015260146024820152734576656e7420616c72656164792065786973747360601b6044820152606490fd5b60405162461bcd60e51b815260206004820152601a60248201527f5469636b6574204349442063616e6e6f7420626520656d7074790000000000006044820152606490fd5b60405162461bcd60e51b815260206004820152601a60248201527f506f73746572204349442063616e6e6f7420626520656d7074790000000000006044820152606490fd5b60405162461bcd60e51b815260206004820152601c60248201527f5072696365206d7573742062652067726561746572207468616e2030000000006044820152606490fd5b60405162461bcd60e51b815260206004820152601a60248201527f53616c65206d75737420656e64206265666f7265206576656e740000000000006044820152606490fd5b60405162461bcd60e51b815260206004820152602360248201527f53616c6520656e642064617465206d75737420626520696e207468652066757460448201526275726560e81b6064820152608490fd5b606460405162461bcd60e51b815260206004820152602060248201527f4576656e742064617465206d75737420626520696e20746865206675747572656044820152fd5b60405162461bcd60e51b815260206004820152601960248201527f4f7267616e697a65722063616e6e6f7420626520656d707479000000000000006044820152606490fd5b60405162461bcd60e51b815260206004820152601a60248201527f4576656e74206e616d652063616e6e6f7420626520656d7074790000000000006044820152606490fd5b34610264576020366003190112610264576004356001600160401b03811161026457612b386020612b2581933690600401612f34565b8160405193828580945193849201612de1565b8101600b81520301902054604051908152f35b3461026457610435610430612b5f36612e55565b9060405192612b6d84612ea6565b6000845261042061041b8433613275565b3461026457600036600319011261026457612b9761309b565b60075460ff8160a01c1615612bde5760ff60a01b19166007556040513381527f5db9ee0a495bf2e6ff9c91a7834c1ba4fdd244a5e8aa4e537bd38aeae4b073aa90602090a1005b60405162461bcd60e51b815260206004820152601460248201527314185d5cd8589b194e881b9bdd081c185d5cd95960621b6044820152606490fd5b3461026457600036600319011261026457612c3361309b565b600080808060018060a01b03600754164790828215612c55575bf11561184b57005b506108fc612c4d565b3461026457610435612c6f36612e55565b91612c7d61041b8433613275565b61333d565b3461026457604036600319011261026457612c9b612e29565b5060405162461bcd60e51b81528061047560048201613afc565b34610264576020366003190112610264576020611a0a600435613162565b346102645760003660031901126102645760405160008054612cf481612f52565b808452906001908181169081156105315750600114612d1d576102e7846104c481860382612ec1565b600080805292507f290decd9548b62a8d60345a988386fc84ba6bc95484008f6362f93160ef3e5635b828410612d5e5750505081016020016104c4826104b4565b80546020858701810191909152909301928101612d46565b34610264576020366003190112610264576004359063ffffffff60e01b8216809203610264576020916380ac58cd60e01b8114908115612dd0575b8115612dbf575b5015158152f35b6301ffc9a760e01b14905083612db8565b635b5e139f60e01b81149150612db1565b60005b838110612df45750506000910152565b8181015183820152602001612de4565b90602091612e1d81518092818552858086019101612de1565b601f01601f1916010190565b600435906001600160a01b038216820361026457565b602435906001600160a01b038216820361026457565b6060906003190112610264576001600160a01b0390600435828116810361026457916024359081168103610264579060443590565b61020081019081106001600160401b038211176115c557604052565b602081019081106001600160401b038211176115c557604052565b90601f801991011681019081106001600160401b038211176115c557604052565b6001600160401b0381116115c557601f01601f191660200190565b929192612f0982612ee2565b91612f176040519384612ec1565b829481845281830111610264578281602093846000960137010152565b9080601f8301121561026457816020612f4f93359101612efd565b90565b90600182811c92168015612f82575b6020831014612f6c57565b634e487b7160e01b600052602260045260246000fd5b91607f1691612f61565b9060405191826000825492612fa084612f52565b90818452600194858116908160001461300f5750600114612fcc575b5050612fca92500383612ec1565b565b9093915060005260209081600020936000915b818310612ff7575050612fca93508201013880612fbc565b85548884018501529485019487945091830191612fdf565b915050612fca94506020925060ff191682840152151560051b8201013880612fbc565b6020908160408183019282815285518094520193019160005b828110613059575050505090565b83518552938101939281019260010161304b565b80548210156130855760005260206000200190600090565b634e487b7160e01b600052603260045260246000fd5b6007546001600160a01b031633036130af57565b606460405162461bcd60e51b815260206004820152602060248201527f4f776e61626c653a2063616c6c6572206973206e6f7420746865206f776e65726044820152fd5b156130fa57565b60405162461bcd60e51b815260206004820152601860248201527f4552433732313a20696e76616c696420746f6b656e20494400000000000000006044820152606490fd5b6000908152600260205260409020546001600160a01b0316612f4f8115156130f3565b600081815260026020526040902054613185906001600160a01b031615156130f3565b6000908152600460205260409020546001600160a01b031690565b156131a757565b60405162461bcd60e51b815260206004820152602d60248201527f4552433732313a2063616c6c6572206973206e6f7420746f6b656e206f776e6560448201526c1c881bdc88185c1c1c9bdd9959609a1b6064820152608490fd5b60809060208152603260208201527f4552433732313a207472616e7366657220746f206e6f6e20455243373231526560408201527131b2b4bb32b91034b6b83632b6b2b73a32b960711b60608201520190565b1561325c57565b60405162461bcd60e51b81528061047560048201613202565b906001600160a01b0380806132898461313f565b169316918383149384156132bc575b5083156132a6575b50505090565b6132b291929350613162565b16143880806132a0565b909350600052600560205260406000208260005260205260ff604060002054169238613298565b156132ea57565b60405162461bcd60e51b815260206004820152602560248201527f4552433732313a207472616e736665722066726f6d20696e636f72726563742060448201526437bbb732b960d91b6064820152608490fd5b906133659161334b8461313f565b6001600160a01b03939184169284929091831684146132e3565b16918215613463578115801561345b575b801561344e575b8015613432575b15613419578161339e916133978661313f565b16146132e3565b7fddf252ad1be2c89b69c2b068fc378daa952ba7f163c4a11628f55a4df523b3ef60008481526004602052604081206001600160601b0360a01b9081815416905583825260036020526040822060001981540190558482526040822060018154019055858252600260205284604083209182541617905580a4565b60405162461bcd60e51b81528061047560048201613afc565b5083600052600960205280600860406000200154163314613384565b508060075416331461337d565b506000613376565b60405162461bcd60e51b8152602060048201526024808201527f4552433732313a207472616e7366657220746f20746865207a65726f206164646044820152637265737360e01b6064820152608490fd5b9192600092909190803b156135ca57613502946040518092630a85bd0160e11b9485835233600484015287602484015260448301526080606483015281878160209a8b966084830190612e04565b03926001600160a01b03165af1849181613586575b50613575575050503d60001461356d573d61353181612ee2565b9061353f6040519283612ec1565b81528091833d92013e5b8051918261356a5760405162461bcd60e51b81528061047560048201613202565b01fd5b506060613549565b6001600160e01b0319161492509050565b9091508581813d83116135c3575b61359e8183612ec1565b810103126135bf57516001600160e01b0319811681036135bf579038613517565b8480fd5b503d613594565b5050915050600190565b9293600093909291803b156136545794849161362e9660405180948193630a85bd0160e11b9788845233600485015260018060a01b0380921660248501526044840152608060648401528260209b8c976084830190612e04565b0393165af18491816135865750613575575050503d60001461356d573d61353181612ee2565b505050915050600190565b1561366657565b60405162461bcd60e51b8152602060048201526024808201527f546f74616c207469636b657473206d75737420626520677265617465722074686044820152630616e20360e41b6064820152608490fd5b60ff60075460a01c166136c657565b60405162461bcd60e51b815260206004820152601060248201526f14185d5cd8589b194e881c185d5cd95960821b6044820152606490fd5b1561370557565b60405162461bcd60e51b8152602060048201526015602482015274151a58dad95d08191bd95cc81b9bdd08195e1a5cdd605a1b6044820152606490fd5b1561374957565b60405162461bcd60e51b815260206004820152601860248201527f5469636b657420686173206265656e20726566756e64656400000000000000006044820152606490fd5b90604051809260009080546137a281612f52565b9160019180831690811561380657506001146137c8575b50505060209281520301902090565b60009081526020808220969450915b8382106137f057505050602093508201909238806137b9565b86548883015295860195879550908201906137d7565b60ff191686525050508015150282019050602038806137b9565b90815491680100000000000000008310156115c55782610d6c916001612fca9501815561306d565b600260065414613859576002600655565b60405162461bcd60e51b815260206004820152601f60248201527f5265656e7472616e637947756172643a207265656e7472616e742063616c6c006044820152606490fd5b156138a557565b60405162461bcd60e51b815260206004820152601c60248201527f4552433732313a20746f6b656e20616c7265616479206d696e746564000000006044820152606490fd5b6000198114610df75760010190565b6000908082526009602052604082209060405161391581612e8a565b8254815261392560018401612f8c565b602082015261393660028401612f8c565b60408201526003830154606082015260048301546080820152600583015460a082015261396560068401612f8c565b60c082015261397660078401612f8c565b60e082015260018060a01b03928360088201541661010083015260098101549184831661012082015260ff8360a01c161515610140820152600b60ff8460a81c161592831561016084015260ff808660b01c161515958661018086015260b81c1615156101a0840152600a8101546101c084015201546101e08201525115613a1c576132a057613a1757613a099061313f565b33911603612f4f5750600190565b505090565b5050505090565b6001600160401b0381116115c55760051b60200190565b90613a4482613a23565b613a516040519182612ec1565b8281528092613a62601f1991613a23565b0190602036910137565b80518210156130855760209160051b010190565b6000338152602090600c825260408120916040518093849183825491828152019185528385209385905b828210613ae257505050613ac092500383612ec1565b815115613acb575090565b6040519150613ad982612ea6565b80825236813790565b855484526001958601958895509381019390910190613aaa565b60609060208152601c60208201527f5469636b65747320617265206e6f6e2d7472616e7366657261626c65000000006040820152019056fea26469706673582212204cb745e1681af31dfc13d9040a9a38bdbe67c7e34b6903b09d827c01d9f18cb964736f6c63430008130033",
  "linkReferences": {},
  "deployedLinkReferences": {}
}