{
  "_format": "hh-sol-artifact-1",
  "contractName": "TicketSale",
  "sourceName": "contracts/TicketSale.sol",
  "abi": [
    {
      "inputs": [],
      "stateMutability": "nonpayable",
      "type": "constructor"
    },
    {
      "anonymous": false,
      "inputs": [
        {
          "indexed": true,
          "internalType": "address",
          "name": "owner",
          "type": "address"
        },
        {
          "indexed": true,
          "internalType": "address",
          "name": "approved",
          "type": "address"
        },
        {
          "indexed": true,
          "internalType": "uint256",
          "name": "tokenId",
          "type": "uint256"
        }
      ],
      "name": "Approval",
      "type": "event"
    },
    {
      "anonymous": false,
      "inputs": [
        {
          "indexed": true,
          "internalType": "address",
          "name": "owner",
          "type": "address"
        },
        {
          "indexed": true,
          "internalType": "address",
          "name": "operator",
          "type": "address"
        },
        {
          "indexed": false,
          "internalType": "bool",
          "name": "approved",
          "type": "bool"
        }
      ],
      "name": "ApprovalForAll",
      "type": "event"
    },
    {
      "anonymous": false,
      "inputs": [
        {
          "indexed": true,
          "internalType": "address",
          "name": "previousOwner",
          "type": "address"
        },
        {
          "indexed": true,
          "internalType": "address",
          "name": "newOwner",
          "type": "address"
        }
      ],
      "name": "OwnershipTransferred",
      "type": "event"
    },
    {
      "anonymous": false,
      "inputs": [
        {
          "indexed": false,
          "internalType": "address",
          "name": "account",
          "type": "address"
        }
      ],
      "name": "Paused",
      "type": "event"
    },
    {
      "anonymous": false,
      "inputs": [
        {
          "indexed": true,
          "internalType": "uint256",
          "name": "ticketId",
          "type": "uint256"
        },
        {
          "indexed": false,
          "internalType": "string",
          "name": "eventName",
          "type": "string"
        },
        {
          "indexed": true,
          "internalType": "address",
          "name": "seller",
          "type": "address"
        },
        {
          "indexed": false,
          "internalType": "uint256",
          "name": "price",
          "type": "uint256"
        },
        {
          "indexed": false,
          "internalType": "uint256",
          "name": "eventDate",
          "type": "uint256"
        }
      ],
      "name": "TicketCreated",
      "type": "event"
    },
    {
      "anonymous": false,
      "inputs": [
        {
          "indexed": true,
          "internalType": "uint256",
          "name": "ticketId",
          "type": "uint256"
        },
        {
          "indexed": true,
          "internalType": "address",
          "name": "buyer",
          "type": "address"
        }
      ],
      "name": "TicketDownloaded",
      "type": "event"
    },
    {
      "anonymous": false,
      "inputs": [
        {
          "indexed": true,
          "internalType": "uint256",
          "name": "ticketId",
          "type": "uint256"
        },
        {
          "indexed": true,
          "internalType": "address",
          "name": "buyer",
          "type": "address"
        },
        {
          "indexed": false,
          "internalType": "uint256",
          "name": "price",
          "type": "uint256"
        }
      ],
      "name": "TicketPurchased",
      "type": "event"
    },
    {
      "anonymous": false,
      "inputs": [
        {
          "indexed": true,
          "internalType": "uint256",
          "name": "ticketId",
          "type": "uint256"
        },
        {
          "indexed": true,
          "internalType": "address",
          "name": "buyer",
          "type": "address"
        },
        {
          "indexed": false,
          "internalType": "uint256",
          "name": "refundAmount",
          "type": "uint256"
        }
      ],
      "name": "TicketRefunded",
      "type": "event"
    },
    {
      "anonymous": false,
      "inputs": [
        {
          "indexed": true,
          "internalType": "address",
          "name": "from",
          "type": "address"
        },
        {
          "indexed": true,
          "internalType": "address",
          "name": "to",
          "type": "address"
        },
        {
          "indexed": true,
          "internalType": "uint256",
          "name": "tokenId",
          "type": "uint256"
        }
      ],
      "name": "Transfer",
      "type": "event"
    },
    {
      "anonymous": false,
      "inputs": [
        {
          "indexed": false,
          "internalType": "address",
          "name": "account",
          "type": "address"
        }
      ],
      "name": "Unpaused",
      "type": "event"
    },
    {
      "inputs": [
        {
          "internalType": "address",
          "name": "to",
          "type": "address"
        },
        {
          "internalType": "uint256",
          "name": "tokenId",
          "type": "uint256"
        }
      ],
      "name": "approve",
      "outputs": [],
      "stateMutability": "nonpayable",
      "type": "function"
    },
    {
      "inputs": [
        {
          "internalType": "address",
          "name": "owner",
          "type": "address"
        }
      ],
      "name": "balanceOf",
      "outputs": [
        {
          "internalType": "uint256",
          "name": "",
          "type": "uint256"
        }
      ],
      "stateMutability": "view",
      "type": "function"
    },
    {
      "inputs": [
        {
          "internalType": "uint256",
          "name": "ticketId",
          "type": "uint256"
        }
      ],
      "name": "buyTicket",
      "outputs": [],
      "stateMutability": "payable",
      "type": "function"
    },
    {
      "inputs": [
        {
          "internalType": "string",
          "name": "eventName",
          "type": "string"
        },
        {
          "internalType": "string",
          "name": "organizer",
          "type": "string"
        },
        {
          "internalType": "uint256",
          "name": "eventDate",
          "type": "uint256"
        },
        {
          "internalType": "uint256",
          "name": "saleEndDate",
          "type": "uint256"
        },
        {
          "internalType": "uint256",
          "name": "price",
          "type": "uint256"
        },
        {
          "internalType": "uint256",
          "name": "totalTickets",
          "type": "uint256"
        },
        {
          "internalType": "string",
          "name": "posterCID",
          "type": "string"
        },
        {
          "internalType": "string",
          "name": "ticketCID",
          "type": "string"
        }
      ],
      "name": "createSale",
      "outputs": [],
      "stateMutability": "nonpayable",
      "type": "function"
    },
    {
      "inputs": [
        {
          "internalType": "uint256",
          "name": "ticketId",
          "type": "uint256"
        }
      ],
      "name": "downloadTicket",
      "outputs": [],
      "stateMutability": "nonpayable",
      "type": "function"
    },
    {
      "inputs": [
        {
          "internalType": "string",
          "name": "",
          "type": "string"
        }
      ],
      "name": "eventToTicketId",
      "outputs": [
        {
          "internalType": "uint256",
          "name": "",
          "type": "uint256"
        }
      ],
      "stateMutability": "view",
      "type": "function"
    },
    {
      "inputs": [
        {
          "internalType": "uint256",
          "name": "tokenId",
          "type": "uint256"
        }
      ],
      "name": "getApproved",
      "outputs": [
        {
          "internalType": "address",
          "name": "",
          "type": "address"
        }
      ],
      "stateMutability": "view",
      "type": "function"
    },
    {
      "inputs": [],
      "name": "getAvailableTickets",
      "outputs": [
        {
          "internalType": "uint256[]",
          "name": "",
          "type": "uint256[]"
        }
      ],
      "stateMutability": "view",
      "type": "function"
    },
    {
      "inputs": [],
      "name": "getMyTickets",
      "outputs": [
        {
          "internalType": "uint256[]",
          "name": "",
          "type": "uint256[]"
        }
      ],
      "stateMutability": "view",
      "type": "function"
    },
    {
      "inputs": [
        {
          "internalType": "uint256",
          "name": "ticketId",
          "type": "uint256"
        }
      ],
      "name": "getTicket",
      "outputs": [
        {
          "components": [
            {
              "internalType": "uint256",
              "name": "ticketId",
              "type": "uint256"
            },
            {
              "internalType": "string",
              "name": "eventName",
              "type": "string"
            },
            {
              "internalType": "string",
              "name": "organizer",
              "type": "string"
            },
            {
              "internalType": "uint256",
              "name": "eventDate",
              "type": "uint256"
            },
            {
              "internalType": "uint256",
              "name": "saleEndDate",
              "type": "uint256"
            },
            {
              "internalType": "uint256",
              "name": "price",
              "type": "uint256"
            },
            {
              "internalType": "string",
              "name": "posterUrl",
              "type": "string"
            },
            {
              "internalType": "string",
              "name": "ticketImageUrl",
              "type": "string"
            },
            {
              "internalType": "address",
              "name": "seller",
              "type": "address"
            },
            {
              "internalType": "address",
              "name": "buyer",
              "type": "address"
            },
            {
              "internalType": "bool",
              "name": "isSold",
              "type": "bool"
            },
            {
              "internalType": "bool",
              "name": "isDownloaded",
              "type": "bool"
            },
            {
              "internalType": "bool",
              "name": "isRefunded",
              "type": "bool"
            },
            {
              "internalType": "uint256",
              "name": "totalTickets",
              "type": "uint256"
            },
            {
              "internalType": "uint256",
              "name": "availableTickets",
              "type": "uint256"
            }
          ],
          "internalType": "struct TicketSale.Ticket",
          "name": "",
          "type": "tuple"
        }
      ],
      "stateMutability": "view",
      "type": "function"
    },
    {
      "inputs": [
        {
          "internalType": "address",
          "name": "",
          "type": "address"
        },
        {
          "internalType": "string",
          "name": "",
          "type": "string"
        }
      ],
      "name": "hasBoughtTicketForEvent",
      "outputs": [
        {
          "internalType": "bool",
          "name": "",
          "type": "bool"
        }
      ],
      "stateMutability": "view",
      "type": "function"
    },
    {
      "inputs": [
        {
          "internalType": "address",
          "name": "owner",
          "type": "address"
        },
        {
          "internalType": "address",
          "name": "operator",
          "type": "address"
        }
      ],
      "name": "isApprovedForAll",
      "outputs": [
        {
          "internalType": "bool",
          "name": "",
          "type": "bool"
        }
      ],
      "stateMutability": "view",
      "type": "function"
    },
    {
      "inputs": [],
      "name": "name",
      "outputs": [
        {
          "internalType": "string",
          "name": "",
          "type": "string"
        }
      ],
      "stateMutability": "view",
      "type": "function"
    },
    {
      "inputs": [],
      "name": "owner",
      "outputs": [
        {
          "internalType": "address",
          "name": "",
          "type": "address"
        }
      ],
      "stateMutability": "view",
      "type": "function"
    },
    {
      "inputs": [
        {
          "internalType": "uint256",
          "name": "tokenId",
          "type": "uint256"
        }
      ],
      "name": "ownerOf",
      "outputs": [
        {
          "internalType": "address",
          "name": "",
          "type": "address"
        }
      ],
      "stateMutability": "view",
      "type": "function"
    },
    {
      "inputs": [],
      "name": "pause",
      "outputs": [],
      "stateMutability": "nonpayable",
      "type": "function"
    },
    {
      "inputs": [],
      "name": "paused",
      "outputs": [
        {
          "internalType": "bool",
          "name": "",
          "type": "bool"
        }
      ],
      "stateMutability": "view",
      "type": "function"
    },
    {
      "inputs": [],
      "name": "renounceOwnership",
      "outputs": [],
      "stateMutability": "nonpayable",
      "type": "function"
    },
    {
      "inputs": [
        {
          "internalType": "uint256",
          "name": "ticketId",
          "type": "uint256"
        },
        {
          "internalType": "uint256",
          "name": "newTotalTickets",
          "type": "uint256"
        }
      ],
      "name": "resetTicketQuantities",
      "outputs": [],
      "stateMutability": "nonpayable",
      "type": "function"
    },
    {
      "inputs": [
        {
          "internalType": "address",
          "name": "from",
          "type": "address"
        },
        {
          "internalType": "address",
          "name": "to",
          "type": "address"
        },
        {
          "internalType": "uint256",
          "name": "tokenId",
          "type": "uint256"
        }
      ],
      "name": "safeTransferFrom",
      "outputs": [],
      "stateMutability": "nonpayable",
      "type": "function"
    },
    {
      "inputs": [
        {
          "internalType": "address",
          "name": "from",
          "type": "address"
        },
        {
          "internalType": "address",
          "name": "to",
          "type": "address"
        },
        {
          "internalType": "uint256",
          "name": "tokenId",
          "type": "uint256"
        },
        {
          "internalType": "bytes",
          "name": "data",
          "type": "bytes"
        }
      ],
      "name": "safeTransferFrom",
      "outputs": [],
      "stateMutability": "nonpayable",
      "type": "function"
    },
    {
      "inputs": [
        {
          "internalType": "address",
          "name": "operator",
          "type": "address"
        },
        {
          "internalType": "bool",
          "name": "approved",
          "type": "bool"
        }
      ],
      "name": "setApprovalForAll",
      "outputs": [],
      "stateMutability": "nonpayable",
      "type": "function"
    },
    {
      "inputs": [
        {
          "internalType": "bytes4",
          "name": "interfaceId",
          "type": "bytes4"
        }
      ],
      "name": "supportsInterface",
      "outputs": [
        {
          "internalType": "bool",
          "name": "",
          "type": "bool"
        }
      ],
      "stateMutability": "view",
      "type": "function"
    },
    {
      "inputs": [],
      "name": "symbol",
      "outputs": [
        {
          "internalType": "string",
          "name": "",
          "type": "string"
        }
      ],
      "stateMutability": "view",
      "type": "function"
    },
    {
      "inputs": [
        {
          "internalType": "uint256",
          "name": "",
          "type": "uint256"
        }
      ],
      "name": "tickets",
      "outputs": [
        {
          "internalType": "uint256",
          "name": "ticketId",
          "type": "uint256"
        },
        {
          "internalType": "string",
          "name": "eventName",
          "type": "string"
        },
        {
          "internalType": "string",
          "name": "organizer",
          "type": "string"
        },
        {
          "internalType": "uint256",
          "name": "eventDate",
          "type": "uint256"
        },
        {
          "internalType": "uint256",
          "name": "saleEndDate",
          "type": "uint256"
        },
        {
          "internalType": "uint256",
          "name": "price",
          "type": "uint256"
        },
        {
          "internalType": "string",
          "name": "posterUrl",
          "type": "string"
        },
        {
          "internalType": "string",
          "name": "ticketImageUrl",
          "type": "string"
        },
        {
          "internalType": "address",
          "name": "seller",
          "type": "address"
        },
        {
          "internalType": "address",
          "name": "buyer",
          "type": "address"
        },
        {
          "internalType": "bool",
          "name": "isSold",
          "type": "bool"
        },
        {
          "internalType": "bool",
          "name": "isDownloaded",
          "type": "bool"
        },
        {
          "internalType": "bool",
          "name": "isRefunded",
          "type": "bool"
        },
        {
          "internalType": "uint256",
          "name": "totalTickets",
          "type": "uint256"
        },
        {
          "internalType": "uint256",
          "name": "availableTickets",
          "type": "uint256"
        }
      ],
      "stateMutability": "view",
      "type": "function"
    },
    {
      "inputs": [
        {
          "internalType": "uint256",
          "name": "tokenId",
          "type": "uint256"
        }
      ],
      "name": "tokenURI",
      "outputs": [
        {
          "internalType": "string",
          "name": "",
          "type": "string"
        }
      ],
      "stateMutability": "view",
      "type": "function"
    },
    {
      "inputs": [
        {
          "internalType": "address",
          "name": "from",
          "type": "address"
        },
        {
          "internalType": "address",
          "name": "to",
          "type": "address"
        },
        {
          "internalType": "uint256",
          "name": "tokenId",
          "type": "uint256"
        }
      ],
      "name": "transferFrom",
      "outputs": [],
      "stateMutability": "nonpayable",
      "type": "function"
    },
    {
      "inputs": [
        {
          "internalType": "address",
          "name": "newOwner",
          "type": "address"
        }
      ],
      "name": "transferOwnership",
      "outputs": [],
      "stateMutability": "nonpayable",
      "type": "function"
    },
    {
      "inputs": [],
      "name": "unpause",
      "outputs": [],
      "stateMutability": "nonpayable",
      "type": "function"
    },
    {
      "inputs": [],
      "name": "updateExpiredTickets",
      "outputs": [],
      "stateMutability": "nonpayable",
      "type": "function"
    },
    {
      "inputs": [
        {
          "internalType": "address",
          "name": "",
          "type": "address"
        },
        {
          "internalType": "uint256",
          "name": "",
          "type": "uint256"
        }
      ],
      "name": "userHasPurchased",
      "outputs": [
        {
          "internalType": "bool",
          "name": "",
          "type": "bool"
        }
      ],
      "stateMutability": "view",
      "type": "function"
    },
    {
      "inputs": [
        {
          "internalType": "address",
          "name": "",
          "type": "address"
        },
        {
          "internalType": "uint256",
          "name": "",
          "type": "uint256"
        }
      ],
      "name": "userPurchases",
      "outputs": [
        {
          "internalType": "uint256",
          "name": "",
          "type": "uint256"
        }
      ],
      "stateMutability": "view",
      "type": "function"
    },
    {
      "inputs": [
        {
          "internalType": "uint256",
          "name": "ticketId",
          "type": "uint256"
        }
      ],
      "name": "verifyTicket",
      "outputs": [
        {
          "internalType": "bool",
          "name": "isValid",
          "type": "bool"
        }
      ],
      "stateMutability": "view",
      "type": "function"
    },
    {
      "inputs": [],
      "name": "withdraw",
      "outputs": [],
      "stateMutability": "nonpayable",
      "type": "function"
    }
  ],
  "bytecode": "0x60803462000365576001600160401b03906040818101838111838210176200034f578152600d82526020916c10dbdb98d95c9d151a58dad95d609a1b83820152815193828501858110828211176200034f5783526006855265151250d2d15560d21b8486015281518181116200034f576000948554916001948584811c9416801562000344575b8385101462000330578190601f94858111620002dd575b508390858311600114620002795789926200026d575b5050600019600383901b1c191690851b1786555b8651928311620002595783548481811c911680156200024e575b828210146200023a57828111620001f2575b50809183116001146200018b5750849582939495926200017f575b5050600019600383901b1c191690821b1781555b60065560075490519133906001600160a01b038316907f8be0079c531659141344cd1fd0a4f28419497f9722a3daafe3b4186f6b6457e09080a36001600160a81b0319163360ff60a01b19161760075561341e90816200036b8239f35b0151905038806200010e565b90601f198316968487528287209287905b898210620001da575050838596979810620001c0575b505050811b01815562000122565b015160001960f88460031b161c19169055388080620001b2565b8087859682949686015181550195019301906200019c565b8487528187208380860160051c82019284871062000230575b0160051c019085905b82811062000224575050620000f3565b88815501859062000214565b925081926200020b565b634e487b7160e01b87526022600452602487fd5b90607f1690620000e1565b634e487b7160e01b86526041600452602486fd5b015190503880620000b3565b898052848a208894509190601f1984168b5b87828210620002c65750508411620002ac575b505050811b018655620000c7565b015160001960f88460031b161c191690553880806200029e565b8385015186558b979095019493840193016200028b565b9091508880528389208580850160051c82019286861062000326575b918991869594930160051c01915b828110620003175750506200009d565b8b815585945089910162000307565b92508192620002f9565b634e487b7160e01b88526022600452602488fd5b93607f169362000086565b634e487b7160e01b600052604160045260246000fd5b600080fdfe608080604052600436101561001357600080fd5b60003560e01c90816301ffc9a7146127295750806306fdde0314612686578063081812fc14612668578063095ea7b31461263557806323b872dd146126115780633ccfd60b146125cd5780633f4ba83a1461253157806342842e0e146124fe578063454270af146124a257806345895ee514611a6c57806348005dab146119bf57806350b447121461188a578063543cb81f146118625780635a8acacc1461169a5780635c975abb1461167457806362469289146113f35780636352211e146113c357806363ad6c6f1461134557806367dd74ca14610aae57806370a0823114610a17578063715018a6146109ba5780637dc379fa14610738578063827826e0146106eb57806383bb9e21146105d85780638456cb59146105765780638da5cb5b1461054d57806395d89b411461046e578063a22cb4651461042c578063b88d4fde146103a5578063c87b56dd14610338578063cf2c0334146102e0578063e1d10d85146102b4578063e985e9c51461025e5763f2fde38b1461019557600080fd5b34610259576020366003190112610259576101ae6127dc565b6101b6612a4e565b6001600160a01b0390811690811561020557600754826001600160601b0360a01b821617600755167f8be0079c531659141344cd1fd0a4f28419497f9722a3daafe3b4186f6b6457e0600080a3005b60405162461bcd60e51b815260206004820152602660248201527f4f776e61626c653a206e6577206f776e657220697320746865207a65726f206160448201526564647265737360d01b6064820152608490fd5b600080fd5b34610259576040366003190112610259576102776127dc565b61027f6127f2565b9060018060a01b03809116600052600560205260406000209116600052602052602060ff604060002054166040519015158152f35b34610259576000366003190112610259576102dc6102d0613334565b604051918291826129e5565b0390f35b34610259576040366003190112610259576102f96127dc565b6001600160a01b03166000908152600c60205260409020805460243591908210156102595760209161032a91612a20565b90546040519160031b1c8152f35b346102595760203660031901126102595760043560009081526002602052604090205461036f906001600160a01b03161515612aa6565b600060405161037d81612859565b526102dc60405161038d81612859565b600081526040519182916020835260208301906127b7565b34610259576080366003190112610259576103be6127dc565b6103c66127f2565b90606435906044356001600160401b03831161025957366023840112156102595761042a936104026104259436906024816004013591016128b0565b926104156104108433612c28565b612b53565b610420838383612cf0565b612f50565b612c08565b005b34610259576040366003190112610259576104456127dc565b50602435801515036102595760405162461bcd60e51b81528061046a600482016133b0565b0390fd5b34610259576000366003190112610259576040516000600180549061049282612905565b8085529181811690811561052657506001146104cd575b6102dc846104b981860382612874565b6040519182916020835260208301906127b7565b600081815292507fb10e2d527612073b26eecdfd717e6a320cf44b4afac2b0732d9fcbe2b7fa0cf65b82841061050e5750505081016020016104b9826104a9565b805460208587018101919091529093019281016104f6565b60ff191660208087019190915292151560051b850190920192506104b991508390506104a9565b34610259576000366003190112610259576007546040516001600160a01b039091168152602090f35b346102595760003660031901126102595761058f612a4e565b610597613033565b6007805460ff60a01b1916600160a01b1790556040513381527f62e78cea01bee320cd4e420270b5ea74000d11b0c9f74754ebdbfc544b05a25890602090a1005b34610259576000366003190112610259576105f1613033565b6105f961310a565b60085460015b8181111561060e576001600655005b806106499160005260098160209180835260406000209081541515806106da575b806106c9575b806106bc575b61064e575b505050506132c8565b6105ff565b81019283549360ff8560a01c16610666575b50610640565b60ff60b01b198516600160b01b1790556005909101546040519081526001600160a01b03909316927f8c8fd3da31954f4657d981e2a89ea3421ef5d7bfa0998012eaff5f24a61a867a9190a38381818080610660565b506004820154421161063b565b5060ff8183015460a81c1615610635565b5060ff8183015460b01c161561062f565b34610259576040366003190112610259576001600160a01b0361070c6127dc565b16600052600d6020526040600020602435600052602052602060ff604060002054166040519015158152f35b346102595760203660031901126102595760006101c060405161075a8161283d565b82815260606020820152606060408201528260608201528260808201528260a0820152606060c0820152606060e08201528261010082015282610120820152826101408201528261016082015282610180820152826101a082015201526004358060005260096020526107d3604060002054151561307a565b60005260096020526040600020600b604051916107ef8361283d565b805483526107ff6001820161293f565b60208401526108106002820161293f565b60408401526003810154606084015260048101546080840152600581015460a084015261083f6006820161293f565b60c08401526108506007820161293f565b60e084015260018060a01b0360088201541661010084015260ff600982015460018060a01b038116610120860152818160a01c161515610140860152818160a81c16151561016086015260b01c161515610180840152600a8101546101a084015201546101c0820152604051809160208252805160208301526101c06109516108ea60208401516101e060408701526102008601906127b7565b61093b610909604086015192601f1993848983030160608a01526127b7565b60608601516080880152608086015160a088015260a086015160c088015260c0860151838883030160e08901526127b7565b9060e085015190868303016101008701526127b7565b9160018060a01b036101008201511661012085015260018060a01b03610120820151166101408501526101408101511515610160850152610160810151151561018085015261018081015115156101a08501526101a08101518285015201516101e08301520390f35b34610259576000366003190112610259576109d3612a4e565b600780546001600160a01b031981169091556000906001600160a01b03167f8be0079c531659141344cd1fd0a4f28419497f9722a3daafe3b4186f6b6457e08280a3005b34610259576020366003190112610259576001600160a01b03610a386127dc565b168015610a575760005260036020526020604060002054604051908152f35b60405162461bcd60e51b815260206004820152602960248201527f4552433732313a2061646472657373207a65726f206973206e6f7420612076616044820152683634b21037bbb732b960b91b6064820152608490fd5b602036600319011261025957610ac2613033565b610aca61310a565b60043560005260096020526040600020610ae68154151561307a565b610afa60ff600983015460b01c16156130be565b6004810154421161130f57600581015434036112ca57600b8101541561128e57600080808060018060a01b0360088601541681903415611284575b3491f11561127857600160085401908160085560038101546004820154600583015460018060a01b036008850154169160405193610b728561283d565b868552610b816001870161293f565b6020860152610b926002870161293f565b60408601526060850152608084015260a0830152610bb26006840161293f565b60c0830152610bc36007840161293f565b60e08301526101008201523361012082015260016101408201526000610160820152600061018082015260016101a082015260006101c08201528260005260096020526040600020908051825560208101518051906001600160401b038211610f14578190610c356001860154612905565b601f8111611225575b50602090601f83116001146111b3576000926111a8575b50508160011b916000199060031b1c19161760018301555b60408101518051906001600160401b038211610f14578190610c926002860154612905565b601f8111611155575b50602090601f83116001146110e3576000926110d8575b50508160011b916000199060031b1c19161760028301555b606081015160038301556080810151600483015560a0810151600583015560c08101518051906001600160401b038211610f14578190610d0d6006860154612905565b601f8111611085575b50602090601f831160011461101357600092611008575b50508160011b916000199060031b1c19161760068301555b60e08101518051906001600160401b038211610f1457610d686007850154612905565b601f8111610fc1575b50602090601f8311600114610f4b579180600b94926101c094600092610f40575b50508160011b916000199060031b1c19161760078501555b6101008101516008850180546001600160a01b039283166001600160a01b031990911617905561012082015160098601805461014085015160ff60a01b90151560a01b16929093166001600160a81b031990931692909217178155610e48905b610160830151815460ff60a81b191690151560a81b60ff60a81b16178155610180830151815460ff60b01b191690151560b01b60ff60b01b16179055565b6101a0810151600a8501550151910155600b8101546000199190828101908111610f2a57600b82015533600052600c60205260406000209182549268010000000000000000841015610f145783610ea6916001600596018155612a20565b819291549060031b9186831b921b191617905533600052600d6020526040600020836000526020526040600020600160ff198254161790550154906040519182527fdbaaf4c87ce30816c961a81d110622a3227ede77953d4383d514ff88ab2e0fd360203393a36001600655005b634e487b7160e01b600052604160045260246000fd5b634e487b7160e01b600052601160045260246000fd5b015190508880610d92565b906007850160005260206000209160005b601f1985168110610fa9575092600b94926001926101c09583601f19811610610f90575b505050811b016007850155610daa565b015160001960f88460031b161c19169055888080610f80565b91926020600181928685015181550194019201610f5c565b600785016000526020600020601f840160051c810160208510611001575b601f830160051c82018110610ff5575050610d71565b60008155600101610fdf565b5080610fdf565b015190508680610d2d565b9250600685016000526020600020906000935b601f198416851061106a576001945083601f19811610611051575b505050811b016006830155610d45565b015160001960f88460031b161c19169055868080611041565b81810151835560209485019460019093019290910190611026565b909150600685016000526020600020601f840160051c8101602085106110d1575b90849392915b601f830160051c820181106110c2575050610d16565b600081558594506001016110ac565b50806110a6565b015190508680610cb2565b9250600285016000526020600020906000935b601f198416851061113a576001945083601f19811610611121575b505050811b016002830155610cca565b015160001960f88460031b161c19169055868080611111565b818101518355602094850194600190930192909101906110f6565b909150600285016000526020600020601f840160051c8101602085106111a1575b90849392915b601f830160051c82018110611192575050610c9b565b6000815585945060010161117c565b5080611176565b015190508680610c55565b9250600185016000526020600020906000935b601f198416851061120a576001945083601f198116106111f1575b505050811b016001830155610c6d565b015160001960f88460031b161c191690558680806111e1565b818101518355602094850194600190930192909101906111c6565b909150600185016000526020600020601f840160051c810160208510611271575b90849392915b601f830160051c82018110611262575050610c3e565b6000815585945060010161124c565b5080611246565b6040513d6000823e3d90fd5b6108fc9150610b35565b60405162461bcd60e51b81526020600482015260146024820152734e6f207469636b65747320617661696c61626c6560601b6044820152606490fd5b60405162461bcd60e51b815260206004820152601860248201527f496e636f7272656374207061796d656e7420616d6f756e7400000000000000006044820152606490fd5b60405162461bcd60e51b815260206004820152600e60248201526d14d85b19481a185cc8195b99195960921b6044820152606490fd5b346102595760403660031901126102595761135e6127dc565b6024356001600160401b038111610259576113ae6020809361138660ff9436906004016128e7565b9060018060a01b0316600052600a825260406000208260405194838680955193849201612794565b82019081520301902054166040519015158152f35b346102595760203660031901126102595760206113e1600435612af2565b6040516001600160a01b039091168152f35b34610259576020806003193601126102595760043590611411613033565b61141961310a565b8160005260098152600960406000206114348154151561307a565b0190815460ff8160a01c161561163d57336001600160a01b038216036116015760ff8160a81c166115bc5760ff61146f9160b01c16156130be565b6040519061147c82612859565b6000825233156115795761153a916002610425926114b86114b288600052600260205260018060a01b0360406000205416151590565b15613160565b6000878152600260205260409020546114db906001600160a01b031615156114b2565b336000526003815260406000206001815401905586600052526040600020336001600160601b0360a01b825416179055843360007fddf252ad1be2c89b69c2b068fc378daa952ba7f163c4a11628f55a4df523b3ef8180a48433612e30565b805460ff60a81b1916600160a81b17905533907f4c3f8ff3b3376dbd255cab935257c5c6f095b27b816f6f0b1ae35b828e6838a8600080a36001600655005b6064906040519062461bcd60e51b825280600483015260248201527f4552433732313a206d696e7420746f20746865207a65726f20616464726573736044820152fd5b60405162461bcd60e51b815260048101839052601960248201527f5469636b657420616c726561647920646f776e6c6f61646564000000000000006044820152606490fd5b60405162461bcd60e51b81526004810183905260146024820152732737ba103a3432903a34b1b5b2ba10313abcb2b960611b6044820152606490fd5b60405162461bcd60e51b815260048101839052600f60248201526e151a58dad95d081b9bdd081cdbdb19608a1b6044820152606490fd5b3461025957600036600319011261025957602060ff60075460a01c166040519015158152f35b346102595760003660031901126102595760088054906116b9826132ee565b916000916001805b838111156117115785856116d4816132ee565b9160005b8281106116ed57604051806102dc86826129e5565b806116fb61170c9284613320565b516117068287613320565b526132c8565b6116d8565b80600052600960208181526040600020916040519161172f8361283d565b8354835261173e86850161293f565b9083015261174e6002840161293f565b604083015260038301546060830152600b6004840154916080840192835260058501549060a091828601526117856006870161293f565b60c08601526117966007870161293f565b60e086015260018060a01b0390818a88015416610100870152860154918291821661012087015260ff9283911c161515610140860152818160a81c16151561016086015260b01c1615938415610180850152600a8101546101a0850152015491826101c0820152511515928361185a575b508261184e575b5081611844575b50611829575b611824906132c8565b6116c1565b9361183c8186611706611824948a613320565b94905061181b565b9050151587611815565b5142111591508861180e565b925089611807565b346102595760203660031901126102595760206118806004356131ac565b6040519015158152f35b3461025957602036600319011261025957600435600052600960205260406000208054600182016118ba9061293f565b916118c76002820161293f565b60038201546004830154600584015493916118e46006840161293f565b6118f06007850161293f565b90600160a01b60019003928360088701541697600987015495600a88015497600b0154986040519c8d9c8d528c6101e06020819201528d01611931916127b7565b8c810360408e0152611942916127b7565b9260608c015260808b015260a08a015288810360c08a0152611963916127b7565b87810360e0890152611974916127b7565b9461010087015281166101208601528060a01c60ff1615156101408601528060a81c60ff16151561016086015260b01c60ff1615156101808501526101a08401526101c08301520390f35b3461025957604036600319011261025957602435600435600052600960205260406000206119ef8154151561307a565b6008810154336001600160a01b0391821614908115611a5e575b5015611a2857600b90611a1d831515612fdb565b600a81018390550155005b60405162461bcd60e51b815260206004820152600e60248201526d139bdd08185d5d1a1bdc9a5e995960921b6044820152606490fd5b905060075416331483611a09565b3461025957610100366003190112610259576004356001600160401b03811161025957611a9d9036906004016128e7565b6024356001600160401b03811161025957611abc9036906004016128e7565b60c4356001600160401b03811161025957611adb9036906004016128e7565b9060e4356001600160401b03811161025957611afb9036906004016128e7565b611b03613033565b83511561245d57815115612418574260443511156123d45742606435111561238357604435606435101561233e57608435156122f957611b4660a4351515612fdb565b8251156122b45780511561226f576040516020818651611b698183858b01612794565b8101600b81520301902054612233576001600854019283600855611bf4602760405192611bc6828566697066733a2f2f60c81b93846020830152611bb68151809260208686019101612794565b8101036007810187520185612874565b6040519485916020830152611be48151809260208686019101612794565b8101036007810185520183612874565b60405192611c018461283d565b84845285602085015260408401526044356060840152606435608084015260843560a084015260c083015260e082015233610100820152600061012082015260006101408201526000610160820152600061018082015260a4356101a082015260a4356101c08201528160005260096020526040600020908051825560208101518051906001600160401b038211610f14578190611ca26001860154612905565b601f81116121e0575b50602090601f831160011461216e57600092612163575b50508160011b916000199060031b1c19161760018301555b60408101518051906001600160401b038211610f14578190611cff6002860154612905565b601f8111612110575b50602090601f831160011461209e57600092612093575b50508160011b916000199060031b1c19161760028301555b606081015160038301556080810151600483015560a0810151600583015560c08101518051906001600160401b038211610f14578190611d7a6006860154612905565b601f8111612040575b50602090601f8311600114611fce57600092611fc3575b50508160011b916000199060031b1c19161760068301555b60e08101518051906001600160401b038211610f1457611dd56007850154612905565b601f8111611f7c575b50602090601f8311600114611f06579180600b94926101c094600092611efb575b50508160011b916000199060031b1c19161760078501555b6101008101516008850180546001600160a01b039283166001600160a01b031990911617905561012082015160098601805461014085015160ff60a01b90151560a01b16929093166001600160a81b031990931692909217178155611e7b90610e0a565b6101a0810151600a8501550151910155806040516020818551611ea18183858a01612794565b8101600b815203019020557f57f13ab4f405dee432e813c363e9bbf98b6e2703d4e28b09ad4af92f689d5fba611ee2604051936060855260608501906127b7565b92608435602082015260443560408201528033940390a3005b015190508880611dff565b906007850160005260206000209160005b601f1985168110611f64575092600b94926001926101c09583601f19811610611f4b575b505050811b016007850155611e17565b015160001960f88460031b161c19169055888080611f3b565b91926020600181928685015181550194019201611f17565b600785016000526020600020601f840160051c810160208510611fbc575b601f830160051c82018110611fb0575050611dde565b60008155600101611f9a565b5080611f9a565b015190508680611d9a565b9250600685016000526020600020906000935b601f1984168510612025576001945083601f1981161061200c575b505050811b016006830155611db2565b015160001960f88460031b161c19169055868080611ffc565b81810151835560209485019460019093019290910190611fe1565b909150600685016000526020600020601f840160051c81016020851061208c575b90849392915b601f830160051c8201811061207d575050611d83565b60008155859450600101612067565b5080612061565b015190508680611d1f565b9250600285016000526020600020906000935b601f19841685106120f5576001945083601f198116106120dc575b505050811b016002830155611d37565b015160001960f88460031b161c191690558680806120cc565b818101518355602094850194600190930192909101906120b1565b909150600285016000526020600020601f840160051c81016020851061215c575b90849392915b601f830160051c8201811061214d575050611d08565b60008155859450600101612137565b5080612131565b015190508680611cc2565b9250600185016000526020600020906000935b601f19841685106121c5576001945083601f198116106121ac575b505050811b016001830155611cda565b015160001960f88460031b161c1916905586808061219c565b81810151835560209485019460019093019290910190612181565b909150600185016000526020600020601f840160051c81016020851061222c575b90849392915b601f830160051c8201811061221d575050611cab565b60008155859450600101612207565b5080612201565b60405162461bcd60e51b81526020600482015260146024820152734576656e7420616c72656164792065786973747360601b6044820152606490fd5b60405162461bcd60e51b815260206004820152601a60248201527f5469636b6574204349442063616e6e6f7420626520656d7074790000000000006044820152606490fd5b60405162461bcd60e51b815260206004820152601a60248201527f506f73746572204349442063616e6e6f7420626520656d7074790000000000006044820152606490fd5b60405162461bcd60e51b815260206004820152601c60248201527f5072696365206d7573742062652067726561746572207468616e2030000000006044820152606490fd5b60405162461bcd60e51b815260206004820152601a60248201527f53616c65206d75737420656e64206265666f7265206576656e740000000000006044820152606490fd5b60405162461bcd60e51b815260206004820152602360248201527f53616c6520656e642064617465206d75737420626520696e207468652066757460448201526275726560e81b6064820152608490fd5b606460405162461bcd60e51b815260206004820152602060248201527f4576656e742064617465206d75737420626520696e20746865206675747572656044820152fd5b60405162461bcd60e51b815260206004820152601960248201527f4f7267616e697a65722063616e6e6f7420626520656d707479000000000000006044820152606490fd5b60405162461bcd60e51b815260206004820152601a60248201527f4576656e74206e616d652063616e6e6f7420626520656d7074790000000000006044820152606490fd5b34610259576020366003190112610259576004356001600160401b038111610259576124eb60206124d8819336906004016128e7565b8160405193828580945193849201612794565b8101600b81520301902054604051908152f35b346102595761042a61042561251236612808565b906040519261252084612859565b600084526104156104108433612c28565b346102595760003660031901126102595761254a612a4e565b60075460ff8160a01c16156125915760ff60a01b19166007556040513381527f5db9ee0a495bf2e6ff9c91a7834c1ba4fdd244a5e8aa4e537bd38aeae4b073aa90602090a1005b60405162461bcd60e51b815260206004820152601460248201527314185d5cd8589b194e881b9bdd081c185d5cd95960621b6044820152606490fd5b34610259576000366003190112610259576125e6612a4e565b600080808060018060a01b03600754164790828215612608575bf11561127857005b506108fc612600565b346102595761042a61262236612808565b916126306104108433612c28565b612cf0565b346102595760403660031901126102595761264e6127dc565b5060405162461bcd60e51b81528061046a600482016133b0565b346102595760203660031901126102595760206113e1600435612b15565b3461025957600036600319011261025957604051600080546126a781612905565b8084529060019081811690811561052657506001146126d0576102dc846104b981860382612874565b600080805292507f290decd9548b62a8d60345a988386fc84ba6bc95484008f6362f93160ef3e5635b8284106127115750505081016020016104b9826104a9565b805460208587018101919091529093019281016126f9565b34610259576020366003190112610259576004359063ffffffff60e01b8216809203610259576020916380ac58cd60e01b8114908115612783575b8115612772575b5015158152f35b6301ffc9a760e01b1490508361276b565b635b5e139f60e01b81149150612764565b60005b8381106127a75750506000910152565b8181015183820152602001612797565b906020916127d081518092818552858086019101612794565b601f01601f1916010190565b600435906001600160a01b038216820361025957565b602435906001600160a01b038216820361025957565b6060906003190112610259576001600160a01b0390600435828116810361025957916024359081168103610259579060443590565b6101e081019081106001600160401b03821117610f1457604052565b602081019081106001600160401b03821117610f1457604052565b90601f801991011681019081106001600160401b03821117610f1457604052565b6001600160401b038111610f1457601f01601f191660200190565b9291926128bc82612895565b916128ca6040519384612874565b829481845281830111610259578281602093846000960137010152565b9080601f8301121561025957816020612902933591016128b0565b90565b90600182811c92168015612935575b602083101461291f57565b634e487b7160e01b600052602260045260246000fd5b91607f1691612914565b906040519182600082549261295384612905565b9081845260019485811690816000146129c2575060011461297f575b505061297d92500383612874565b565b9093915060005260209081600020936000915b8183106129aa57505061297d9350820101388061296f565b85548884018501529485019487945091830191612992565b91505061297d94506020925060ff191682840152151560051b820101388061296f565b6020908160408183019282815285518094520193019160005b828110612a0c575050505090565b8351855293810193928101926001016129fe565b8054821015612a385760005260206000200190600090565b634e487b7160e01b600052603260045260246000fd5b6007546001600160a01b03163303612a6257565b606460405162461bcd60e51b815260206004820152602060248201527f4f776e61626c653a2063616c6c6572206973206e6f7420746865206f776e65726044820152fd5b15612aad57565b60405162461bcd60e51b815260206004820152601860248201527f4552433732313a20696e76616c696420746f6b656e20494400000000000000006044820152606490fd5b6000908152600260205260409020546001600160a01b0316612902811515612aa6565b600081815260026020526040902054612b38906001600160a01b03161515612aa6565b6000908152600460205260409020546001600160a01b031690565b15612b5a57565b60405162461bcd60e51b815260206004820152602d60248201527f4552433732313a2063616c6c6572206973206e6f7420746f6b656e206f776e6560448201526c1c881bdc88185c1c1c9bdd9959609a1b6064820152608490fd5b60809060208152603260208201527f4552433732313a207472616e7366657220746f206e6f6e20455243373231526560408201527131b2b4bb32b91034b6b83632b6b2b73a32b960711b60608201520190565b15612c0f57565b60405162461bcd60e51b81528061046a60048201612bb5565b906001600160a01b038080612c3c84612af2565b16931691838314938415612c6f575b508315612c59575b50505090565b612c6591929350612b15565b1614388080612c53565b909350600052600560205260406000208260005260205260ff604060002054169238612c4b565b15612c9d57565b60405162461bcd60e51b815260206004820152602560248201527f4552433732313a207472616e736665722066726f6d20696e636f72726563742060448201526437bbb732b960d91b6064820152608490fd5b90612d1891612cfe84612af2565b6001600160a01b0393918416928492909183168414612c96565b16918215612ddf5781158015612dd7575b15612dbe5781612d4391612d3c86612af2565b1614612c96565b7fddf252ad1be2c89b69c2b068fc378daa952ba7f163c4a11628f55a4df523b3ef60008481526004602052604081206001600160601b0360a01b9081815416905583825260036020526040822060001981540190558482526040822060018154019055858252600260205284604083209182541617905580a4565b60405162461bcd60e51b81528061046a600482016133b0565b506000612d29565b60405162461bcd60e51b8152602060048201526024808201527f4552433732313a207472616e7366657220746f20746865207a65726f206164646044820152637265737360e01b6064820152608490fd5b9192600092909190803b15612f4657612e7e946040518092630a85bd0160e11b9485835233600484015287602484015260448301526080606483015281878160209a8b9660848301906127b7565b03926001600160a01b03165af1849181612f02575b50612ef1575050503d600014612ee9573d612ead81612895565b90612ebb6040519283612874565b81528091833d92013e5b80519182612ee65760405162461bcd60e51b81528061046a60048201612bb5565b01fd5b506060612ec5565b6001600160e01b0319161492509050565b9091508581813d8311612f3f575b612f1a8183612874565b81010312612f3b57516001600160e01b031981168103612f3b579038612e93565b8480fd5b503d612f10565b5050915050600190565b9293600093909291803b15612fd057948491612faa9660405180948193630a85bd0160e11b9788845233600485015260018060a01b0380921660248501526044840152608060648401528260209b8c9760848301906127b7565b0393165af1849181612f025750612ef1575050503d600014612ee9573d612ead81612895565b505050915050600190565b15612fe257565b60405162461bcd60e51b8152602060048201526024808201527f546f74616c207469636b657473206d75737420626520677265617465722074686044820152630616e20360e41b6064820152608490fd5b60ff60075460a01c1661304257565b60405162461bcd60e51b815260206004820152601060248201526f14185d5cd8589b194e881c185d5cd95960821b6044820152606490fd5b1561308157565b60405162461bcd60e51b8152602060048201526015602482015274151a58dad95d08191bd95cc81b9bdd08195e1a5cdd605a1b6044820152606490fd5b156130c557565b60405162461bcd60e51b815260206004820152601860248201527f5469636b657420686173206265656e20726566756e64656400000000000000006044820152606490fd5b60026006541461311b576002600655565b60405162461bcd60e51b815260206004820152601f60248201527f5265656e7472616e637947756172643a207265656e7472616e742063616c6c006044820152606490fd5b1561316757565b60405162461bcd60e51b815260206004820152601c60248201527f4552433732313a20746f6b656e20616c7265616479206d696e746564000000006044820152606490fd5b60009080825260096020526040822090604051916131c98361283d565b805483526131d96001820161293f565b60208401526131ea6002820161293f565b60408401526003810154606084015260048101546080840152600581015460a08401526132196006820161293f565b60c084015261322a6007820161293f565b60e084015260018060a01b03928360088301541661010082015260098201549084821661012082015260ff8260a01c161515610140820152600b60ff808460a81c161593841561016085015260b01c1615159384610180840152600a8101546101a084015201546101c082015251156132c157612c53576132bc576132ae90612af2565b339116036129025750600190565b505090565b5050505090565b6000198114610f2a5760010190565b6001600160401b038111610f145760051b60200190565b906132f8826132d7565b6133056040519182612874565b8281528092613316601f19916132d7565b0190602036910137565b8051821015612a385760209160051b010190565b6000338152602090600c825260408120916040518093849183825491828152019185528385209385905b8282106133965750505061337492500383612874565b81511561337f575090565b604051915061338d82612859565b80825236813790565b85548452600195860195889550938101939091019061335e565b60609060208152601c60208201527f5469636b65747320617265206e6f6e2d7472616e7366657261626c65000000006040820152019056fea26469706673582212204d226b272f4bd7c53d5a2d43889d83cf50d136cb90454c7272315d3e3b20626364736f6c63430008130033",
  "linkReferences": {},
  "deployedLinkReferences": {}
}