{
  "_format": "hh-sol-artifact-1",
  "contractName": "TicketSale",
  "sourceName": "contracts/TicketSale.sol",
  "abi": [
    {
      "inputs": [],
      "stateMutability": "nonpayable",
      "type": "constructor"
    },
    {
      "anonymous": false,
      "inputs": [
        {
          "indexed": true,
          "internalType": "address",
          "name": "owner",
          "type": "address"
        },
        {
          "indexed": true,
          "internalType": "address",
          "name": "approved",
          "type": "address"
        },
        {
          "indexed": true,
          "internalType": "uint256",
          "name": "tokenId",
          "type": "uint256"
        }
      ],
      "name": "Approval",
      "type": "event"
    },
    {
      "anonymous": false,
      "inputs": [
        {
          "indexed": true,
          "internalType": "address",
          "name": "owner",
          "type": "address"
        },
        {
          "indexed": true,
          "internalType": "address",
          "name": "operator",
          "type": "address"
        },
        {
          "indexed": false,
          "internalType": "bool",
          "name": "approved",
          "type": "bool"
        }
      ],
      "name": "ApprovalForAll",
      "type": "event"
    },
    {
      "anonymous": false,
      "inputs": [
        {
          "indexed": true,
          "internalType": "address",
          "name": "previousOwner",
          "type": "address"
        },
        {
          "indexed": true,
          "internalType": "address",
          "name": "newOwner",
          "type": "address"
        }
      ],
      "name": "OwnershipTransferred",
      "type": "event"
    },
    {
      "anonymous": false,
      "inputs": [
        {
          "indexed": false,
          "internalType": "address",
          "name": "account",
          "type": "address"
        }
      ],
      "name": "Paused",
      "type": "event"
    },
    {
      "anonymous": false,
      "inputs": [
        {
          "indexed": true,
          "internalType": "uint256",
          "name": "ticketId",
          "type": "uint256"
        },
        {
          "indexed": false,
          "internalType": "string",
          "name": "eventName",
          "type": "string"
        },
        {
          "indexed": true,
          "internalType": "address",
          "name": "seller",
          "type": "address"
        },
        {
          "indexed": false,
          "internalType": "uint256",
          "name": "price",
          "type": "uint256"
        },
        {
          "indexed": false,
          "internalType": "uint256",
          "name": "eventDate",
          "type": "uint256"
        }
      ],
      "name": "TicketCreated",
      "type": "event"
    },
    {
      "anonymous": false,
      "inputs": [
        {
          "indexed": true,
          "internalType": "uint256",
          "name": "ticketId",
          "type": "uint256"
        },
        {
          "indexed": true,
          "internalType": "address",
          "name": "buyer",
          "type": "address"
        }
      ],
      "name": "TicketDownloaded",
      "type": "event"
    },
    {
      "anonymous": false,
      "inputs": [
        {
          "indexed": true,
          "internalType": "uint256",
          "name": "ticketId",
          "type": "uint256"
        },
        {
          "indexed": true,
          "internalType": "address",
          "name": "buyer",
          "type": "address"
        },
        {
          "indexed": false,
          "internalType": "uint256",
          "name": "price",
          "type": "uint256"
        }
      ],
      "name": "TicketPurchased",
      "type": "event"
    },
    {
      "anonymous": false,
      "inputs": [
        {
          "indexed": true,
          "internalType": "uint256",
          "name": "ticketId",
          "type": "uint256"
        },
        {
          "indexed": true,
          "internalType": "address",
          "name": "buyer",
          "type": "address"
        },
        {
          "indexed": false,
          "internalType": "uint256",
          "name": "refundAmount",
          "type": "uint256"
        }
      ],
      "name": "TicketRefunded",
      "type": "event"
    },
    {
      "anonymous": false,
      "inputs": [
        {
          "indexed": true,
          "internalType": "uint256",
          "name": "ticketId",
          "type": "uint256"
        },
        {
          "indexed": true,
          "internalType": "address",
          "name": "from",
          "type": "address"
        },
        {
          "indexed": true,
          "internalType": "address",
          "name": "to",
          "type": "address"
        },
        {
          "indexed": false,
          "internalType": "address",
          "name": "executedBy",
          "type": "address"
        }
      ],
      "name": "TicketTransferred",
      "type": "event"
    },
    {
      "anonymous": false,
      "inputs": [
        {
          "indexed": true,
          "internalType": "address",
          "name": "from",
          "type": "address"
        },
        {
          "indexed": true,
          "internalType": "address",
          "name": "to",
          "type": "address"
        },
        {
          "indexed": true,
          "internalType": "uint256",
          "name": "tokenId",
          "type": "uint256"
        }
      ],
      "name": "Transfer",
      "type": "event"
    },
    {
      "anonymous": false,
      "inputs": [
        {
          "indexed": false,
          "internalType": "address",
          "name": "account",
          "type": "address"
        }
      ],
      "name": "Unpaused",
      "type": "event"
    },
    {
      "inputs": [
        {
          "internalType": "address",
          "name": "from",
          "type": "address"
        },
        {
          "internalType": "address",
          "name": "to",
          "type": "address"
        },
        {
          "internalType": "uint256",
          "name": "ticketId",
          "type": "uint256"
        }
      ],
      "name": "adminTransferTicket",
      "outputs": [],
      "stateMutability": "nonpayable",
      "type": "function"
    },
    {
      "inputs": [
        {
          "internalType": "address",
          "name": "to",
          "type": "address"
        },
        {
          "internalType": "uint256",
          "name": "tokenId",
          "type": "uint256"
        }
      ],
      "name": "approve",
      "outputs": [],
      "stateMutability": "nonpayable",
      "type": "function"
    },
    {
      "inputs": [
        {
          "internalType": "address",
          "name": "owner",
          "type": "address"
        }
      ],
      "name": "balanceOf",
      "outputs": [
        {
          "internalType": "uint256",
          "name": "",
          "type": "uint256"
        }
      ],
      "stateMutability": "view",
      "type": "function"
    },
    {
      "inputs": [
        {
          "internalType": "uint256",
          "name": "ticketId",
          "type": "uint256"
        }
      ],
      "name": "buyTicket",
      "outputs": [],
      "stateMutability": "payable",
      "type": "function"
    },
    {
      "inputs": [
        {
          "internalType": "string",
          "name": "eventName",
          "type": "string"
        },
        {
          "internalType": "string",
          "name": "organizer",
          "type": "string"
        },
        {
          "internalType": "uint256",
          "name": "eventDate",
          "type": "uint256"
        },
        {
          "internalType": "uint256",
          "name": "saleEndDate",
          "type": "uint256"
        },
        {
          "internalType": "uint256",
          "name": "price",
          "type": "uint256"
        },
        {
          "internalType": "uint256",
          "name": "totalTickets",
          "type": "uint256"
        },
        {
          "internalType": "string",
          "name": "posterCID",
          "type": "string"
        },
        {
          "internalType": "string",
          "name": "ticketCID",
          "type": "string"
        }
      ],
      "name": "createSale",
      "outputs": [],
      "stateMutability": "nonpayable",
      "type": "function"
    },
    {
      "inputs": [
        {
          "internalType": "uint256",
          "name": "ticketId",
          "type": "uint256"
        }
      ],
      "name": "downloadTicket",
      "outputs": [],
      "stateMutability": "nonpayable",
      "type": "function"
    },
    {
      "inputs": [
        {
          "internalType": "string",
          "name": "",
          "type": "string"
        }
      ],
      "name": "eventToTicketId",
      "outputs": [
        {
          "internalType": "uint256",
          "name": "",
          "type": "uint256"
        }
      ],
      "stateMutability": "view",
      "type": "function"
    },
    {
      "inputs": [
        {
          "internalType": "uint256",
          "name": "tokenId",
          "type": "uint256"
        }
      ],
      "name": "getApproved",
      "outputs": [
        {
          "internalType": "address",
          "name": "",
          "type": "address"
        }
      ],
      "stateMutability": "view",
      "type": "function"
    },
    {
      "inputs": [],
      "name": "getAvailableTickets",
      "outputs": [
        {
          "internalType": "uint256[]",
          "name": "",
          "type": "uint256[]"
        }
      ],
      "stateMutability": "view",
      "type": "function"
    },
    {
      "inputs": [],
      "name": "getMyTickets",
      "outputs": [
        {
          "internalType": "uint256[]",
          "name": "",
          "type": "uint256[]"
        }
      ],
      "stateMutability": "view",
      "type": "function"
    },
    {
      "inputs": [
        {
          "internalType": "uint256",
          "name": "ticketId",
          "type": "uint256"
        }
      ],
      "name": "getTicket",
      "outputs": [
        {
          "components": [
            {
              "internalType": "uint256",
              "name": "ticketId",
              "type": "uint256"
            },
            {
              "internalType": "string",
              "name": "eventName",
              "type": "string"
            },
            {
              "internalType": "string",
              "name": "organizer",
              "type": "string"
            },
            {
              "internalType": "uint256",
              "name": "eventDate",
              "type": "uint256"
            },
            {
              "internalType": "uint256",
              "name": "saleEndDate",
              "type": "uint256"
            },
            {
              "internalType": "uint256",
              "name": "price",
              "type": "uint256"
            },
            {
              "internalType": "string",
              "name": "posterUrl",
              "type": "string"
            },
            {
              "internalType": "string",
              "name": "ticketImageUrl",
              "type": "string"
            },
            {
              "internalType": "address",
              "name": "seller",
              "type": "address"
            },
            {
              "internalType": "address",
              "name": "buyer",
              "type": "address"
            },
            {
              "internalType": "bool",
              "name": "isSold",
              "type": "bool"
            },
            {
              "internalType": "bool",
              "name": "isDownloaded",
              "type": "bool"
            },
            {
              "internalType": "bool",
              "name": "isRefunded",
              "type": "bool"
            },
            {
              "internalType": "uint256",
              "name": "totalTickets",
              "type": "uint256"
            },
            {
              "internalType": "uint256",
              "name": "availableTickets",
              "type": "uint256"
            }
          ],
          "internalType": "struct TicketSale.Ticket",
          "name": "",
          "type": "tuple"
        }
      ],
      "stateMutability": "view",
      "type": "function"
    },
    {
      "inputs": [
        {
          "internalType": "address",
          "name": "",
          "type": "address"
        },
        {
          "internalType": "string",
          "name": "",
          "type": "string"
        }
      ],
      "name": "hasBoughtTicketForEvent",
      "outputs": [
        {
          "internalType": "bool",
          "name": "",
          "type": "bool"
        }
      ],
      "stateMutability": "view",
      "type": "function"
    },
    {
      "inputs": [
        {
          "internalType": "address",
          "name": "owner",
          "type": "address"
        },
        {
          "internalType": "address",
          "name": "operator",
          "type": "address"
        }
      ],
      "name": "isApprovedForAll",
      "outputs": [
        {
          "internalType": "bool",
          "name": "",
          "type": "bool"
        }
      ],
      "stateMutability": "view",
      "type": "function"
    },
    {
      "inputs": [],
      "name": "name",
      "outputs": [
        {
          "internalType": "string",
          "name": "",
          "type": "string"
        }
      ],
      "stateMutability": "view",
      "type": "function"
    },
    {
      "inputs": [],
      "name": "owner",
      "outputs": [
        {
          "internalType": "address",
          "name": "",
          "type": "address"
        }
      ],
      "stateMutability": "view",
      "type": "function"
    },
    {
      "inputs": [
        {
          "internalType": "uint256",
          "name": "tokenId",
          "type": "uint256"
        }
      ],
      "name": "ownerOf",
      "outputs": [
        {
          "internalType": "address",
          "name": "",
          "type": "address"
        }
      ],
      "stateMutability": "view",
      "type": "function"
    },
    {
      "inputs": [],
      "name": "pause",
      "outputs": [],
      "stateMutability": "nonpayable",
      "type": "function"
    },
    {
      "inputs": [],
      "name": "paused",
      "outputs": [
        {
          "internalType": "bool",
          "name": "",
          "type": "bool"
        }
      ],
      "stateMutability": "view",
      "type": "function"
    },
    {
      "inputs": [],
      "name": "renounceOwnership",
      "outputs": [],
      "stateMutability": "nonpayable",
      "type": "function"
    },
    {
      "inputs": [
        {
          "internalType": "uint256",
          "name": "ticketId",
          "type": "uint256"
        },
        {
          "internalType": "uint256",
          "name": "newTotalTickets",
          "type": "uint256"
        }
      ],
      "name": "resetTicketQuantities",
      "outputs": [],
      "stateMutability": "nonpayable",
      "type": "function"
    },
    {
      "inputs": [
        {
          "internalType": "address",
          "name": "from",
          "type": "address"
        },
        {
          "internalType": "address",
          "name": "to",
          "type": "address"
        },
        {
          "internalType": "uint256",
          "name": "tokenId",
          "type": "uint256"
        }
      ],
      "name": "safeTransferFrom",
      "outputs": [],
      "stateMutability": "nonpayable",
      "type": "function"
    },
    {
      "inputs": [
        {
          "internalType": "address",
          "name": "from",
          "type": "address"
        },
        {
          "internalType": "address",
          "name": "to",
          "type": "address"
        },
        {
          "internalType": "uint256",
          "name": "tokenId",
          "type": "uint256"
        },
        {
          "internalType": "bytes",
          "name": "data",
          "type": "bytes"
        }
      ],
      "name": "safeTransferFrom",
      "outputs": [],
      "stateMutability": "nonpayable",
      "type": "function"
    },
    {
      "inputs": [
        {
          "internalType": "address",
          "name": "operator",
          "type": "address"
        },
        {
          "internalType": "bool",
          "name": "approved",
          "type": "bool"
        }
      ],
      "name": "setApprovalForAll",
      "outputs": [],
      "stateMutability": "nonpayable",
      "type": "function"
    },
    {
      "inputs": [
        {
          "internalType": "bytes4",
          "name": "interfaceId",
          "type": "bytes4"
        }
      ],
      "name": "supportsInterface",
      "outputs": [
        {
          "internalType": "bool",
          "name": "",
          "type": "bool"
        }
      ],
      "stateMutability": "view",
      "type": "function"
    },
    {
      "inputs": [],
      "name": "symbol",
      "outputs": [
        {
          "internalType": "string",
          "name": "",
          "type": "string"
        }
      ],
      "stateMutability": "view",
      "type": "function"
    },
    {
      "inputs": [
        {
          "internalType": "uint256",
          "name": "",
          "type": "uint256"
        }
      ],
      "name": "tickets",
      "outputs": [
        {
          "internalType": "uint256",
          "name": "ticketId",
          "type": "uint256"
        },
        {
          "internalType": "string",
          "name": "eventName",
          "type": "string"
        },
        {
          "internalType": "string",
          "name": "organizer",
          "type": "string"
        },
        {
          "internalType": "uint256",
          "name": "eventDate",
          "type": "uint256"
        },
        {
          "internalType": "uint256",
          "name": "saleEndDate",
          "type": "uint256"
        },
        {
          "internalType": "uint256",
          "name": "price",
          "type": "uint256"
        },
        {
          "internalType": "string",
          "name": "posterUrl",
          "type": "string"
        },
        {
          "internalType": "string",
          "name": "ticketImageUrl",
          "type": "string"
        },
        {
          "internalType": "address",
          "name": "seller",
          "type": "address"
        },
        {
          "internalType": "address",
          "name": "buyer",
          "type": "address"
        },
        {
          "internalType": "bool",
          "name": "isSold",
          "type": "bool"
        },
        {
          "internalType": "bool",
          "name": "isDownloaded",
          "type": "bool"
        },
        {
          "internalType": "bool",
          "name": "isRefunded",
          "type": "bool"
        },
        {
          "internalType": "uint256",
          "name": "totalTickets",
          "type": "uint256"
        },
        {
          "internalType": "uint256",
          "name": "availableTickets",
          "type": "uint256"
        }
      ],
      "stateMutability": "view",
      "type": "function"
    },
    {
      "inputs": [
        {
          "internalType": "uint256",
          "name": "tokenId",
          "type": "uint256"
        }
      ],
      "name": "tokenURI",
      "outputs": [
        {
          "internalType": "string",
          "name": "",
          "type": "string"
        }
      ],
      "stateMutability": "view",
      "type": "function"
    },
    {
      "inputs": [
        {
          "internalType": "address",
          "name": "from",
          "type": "address"
        },
        {
          "internalType": "address",
          "name": "to",
          "type": "address"
        },
        {
          "internalType": "uint256",
          "name": "tokenId",
          "type": "uint256"
        }
      ],
      "name": "transferFrom",
      "outputs": [],
      "stateMutability": "nonpayable",
      "type": "function"
    },
    {
      "inputs": [
        {
          "internalType": "address",
          "name": "newOwner",
          "type": "address"
        }
      ],
      "name": "transferOwnership",
      "outputs": [],
      "stateMutability": "nonpayable",
      "type": "function"
    },
    {
      "inputs": [],
      "name": "unpause",
      "outputs": [],
      "stateMutability": "nonpayable",
      "type": "function"
    },
    {
      "inputs": [],
      "name": "updateExpiredTickets",
      "outputs": [],
      "stateMutability": "nonpayable",
      "type": "function"
    },
    {
      "inputs": [
        {
          "internalType": "address",
          "name": "",
          "type": "address"
        },
        {
          "internalType": "uint256",
          "name": "",
          "type": "uint256"
        }
      ],
      "name": "userHasPurchased",
      "outputs": [
        {
          "internalType": "bool",
          "name": "",
          "type": "bool"
        }
      ],
      "stateMutability": "view",
      "type": "function"
    },
    {
      "inputs": [
        {
          "internalType": "address",
          "name": "",
          "type": "address"
        },
        {
          "internalType": "uint256",
          "name": "",
          "type": "uint256"
        }
      ],
      "name": "userPurchases",
      "outputs": [
        {
          "internalType": "uint256",
          "name": "",
          "type": "uint256"
        }
      ],
      "stateMutability": "view",
      "type": "function"
    },
    {
      "inputs": [
        {
          "internalType": "uint256",
          "name": "ticketId",
          "type": "uint256"
        }
      ],
      "name": "verifyTicket",
      "outputs": [
        {
          "internalType": "bool",
          "name": "isValid",
          "type": "bool"
        }
      ],
      "stateMutability": "view",
      "type": "function"
    },
    {
      "inputs": [],
      "name": "withdraw",
      "outputs": [],
      "stateMutability": "nonpayable",
      "type": "function"
    }
  ],
  "bytecode": "0x60803462000365576001600160401b03906040818101838111838210176200034f578152600d82526020916c10dbdb98d95c9d151a58dad95d609a1b83820152815193828501858110828211176200034f5783526006855265151250d2d15560d21b8486015281518181116200034f576000948554916001948584811c9416801562000344575b8385101462000330578190601f94858111620002dd575b508390858311600114620002795789926200026d575b5050600019600383901b1c191690851b1786555b8651928311620002595783548481811c911680156200024e575b828210146200023a57828111620001f2575b50809183116001146200018b5750849582939495926200017f575b5050600019600383901b1c191690821b1781555b60065560075490519133906001600160a01b038316907f8be0079c531659141344cd1fd0a4f28419497f9722a3daafe3b4186f6b6457e09080a36001600160a81b0319163360ff60a01b19161760075561384c90816200036b8239f35b0151905038806200010e565b90601f198316968487528287209287905b898210620001da575050838596979810620001c0575b505050811b01815562000122565b015160001960f88460031b161c19169055388080620001b2565b8087859682949686015181550195019301906200019c565b8487528187208380860160051c82019284871062000230575b0160051c019085905b82811062000224575050620000f3565b88815501859062000214565b925081926200020b565b634e487b7160e01b87526022600452602487fd5b90607f1690620000e1565b634e487b7160e01b86526041600452602486fd5b015190503880620000b3565b898052848a208894509190601f1984168b5b87828210620002c65750508411620002ac575b505050811b018655620000c7565b015160001960f88460031b161c191690553880806200029e565b8385015186558b979095019493840193016200028b565b9091508880528389208580850160051c82019286861062000326575b918991869594930160051c01915b828110620003175750506200009d565b8b815585945089910162000307565b92508192620002f9565b634e487b7160e01b88526022600452602488fd5b93607f169362000086565b634e487b7160e01b600052604160045260246000fd5b600080fdfe608080604052600436101561001357600080fd5b60003560e01c90816301ffc9a714612af85750806306fdde0314612a55578063081812fc14612a37578063095ea7b314612a0457806323b872dd146129e05780633ccfd60b1461299c5780633f4ba83a1461290057806342842e0e146128cd578063454270af1461287157806345895ee514611e3b57806348005dab14611d8e57806350b4471214611c59578063543cb81f14611c315780635a8acacc14611a695780635c975abb14611a4357806362469289146117c25780636352211e1461179257806363ad6c6f1461171457806367dd74ca14610ec35780636fcd5e6814610ab957806370a0823114610a22578063715018a6146109c55780637dc379fa14610743578063827826e0146106f657806383bb9e21146105e35780638456cb59146105815780638da5cb5b1461055857806395d89b4114610479578063a22cb46514610437578063b88d4fde146103b0578063c87b56dd14610343578063cf2c0334146102eb578063e1d10d85146102bf578063e985e9c5146102695763f2fde38b146101a057600080fd5b34610264576020366003190112610264576101b9612bab565b6101c1612e1d565b6001600160a01b0390811690811561021057600754826001600160601b0360a01b821617600755167f8be0079c531659141344cd1fd0a4f28419497f9722a3daafe3b4186f6b6457e0600080a3005b60405162461bcd60e51b815260206004820152602660248201527f4f776e61626c653a206e6577206f776e657220697320746865207a65726f206160448201526564647265737360d01b6064820152608490fd5b600080fd5b3461026457604036600319011261026457610282612bab565b61028a612bc1565b9060018060a01b03809116600052600560205260406000209116600052602052602060ff604060002054166040519015158152f35b34610264576000366003190112610264576102e76102db613762565b60405191829182612db4565b0390f35b3461026457604036600319011261026457610304612bab565b6001600160a01b03166000908152600c60205260409020805460243591908210156102645760209161033591612def565b90546040519160031b1c8152f35b346102645760203660031901126102645760043560009081526002602052604090205461037a906001600160a01b03161515612e75565b600060405161038881612c28565b526102e760405161039881612c28565b60008152604051918291602083526020830190612b86565b34610264576080366003190112610264576103c9612bab565b6103d1612bc1565b90606435906044356001600160401b0383116102645736602384011215610264576104359361040d610430943690602481600401359101612c7f565b9261042061041b8433612ff7565b612f22565b61042b8383836130bf565b613356565b612fd7565b005b3461026457604036600319011261026457610450612bab565b50602435801515036102645760405162461bcd60e51b815280610475600482016137de565b0390fd5b34610264576000366003190112610264576040516000600180549061049d82612cd4565b8085529181811690811561053157506001146104d8575b6102e7846104c481860382612c43565b604051918291602083526020830190612b86565b600081815292507fb10e2d527612073b26eecdfd717e6a320cf44b4afac2b0732d9fcbe2b7fa0cf65b8284106105195750505081016020016104c4826104b4565b80546020858701810191909152909301928101610501565b60ff191660208087019190915292151560051b850190920192506104c491508390506104b4565b34610264576000366003190112610264576007546040516001600160a01b039091168152602090f35b346102645760003660031901126102645761059a612e1d565b6105a2613439565b6007805460ff60a01b1916600160a01b1790556040513381527f62e78cea01bee320cd4e420270b5ea74000d11b0c9f74754ebdbfc544b05a25890602090a1005b34610264576000366003190112610264576105fc613439565b610604613538565b60085460015b81811115610619576001600655005b806106549160005260098160209180835260406000209081541515806106e5575b806106d4575b806106c7575b610659575b505050506135da565b61060a565b81019283549360ff8560a01c16610671575b5061064b565b60ff60b01b198516600160b01b1790556005909101546040519081526001600160a01b03909316927f8c8fd3da31954f4657d981e2a89ea3421ef5d7bfa0998012eaff5f24a61a867a9190a3838181808061066b565b5060048201544211610646565b5060ff8183015460a81c1615610640565b5060ff8183015460b01c161561063a565b34610264576040366003190112610264576001600160a01b03610717612bab565b16600052600d6020526040600020602435600052602052602060ff604060002054166040519015158152f35b346102645760203660031901126102645760006101c060405161076581612c0c565b82815260606020820152606060408201528260608201528260808201528260a0820152606060c0820152606060e08201528261010082015282610120820152826101408201528261016082015282610180820152826101a082015201526004358060005260096020526107de6040600020541515613480565b60005260096020526040600020600b604051916107fa83612c0c565b8054835261080a60018201612d0e565b602084015261081b60028201612d0e565b60408401526003810154606084015260048101546080840152600581015460a084015261084a60068201612d0e565b60c084015261085b60078201612d0e565b60e084015260018060a01b0360088201541661010084015260ff600982015460018060a01b038116610120860152818160a01c161515610140860152818160a81c16151561016086015260b01c161515610180840152600a8101546101a084015201546101c0820152604051809160208252805160208301526101c061095c6108f560208401516101e06040870152610200860190612b86565b610946610914604086015192601f1993848983030160608a0152612b86565b60608601516080880152608086015160a088015260a086015160c088015260c0860151838883030160e0890152612b86565b9060e08501519086830301610100870152612b86565b9160018060a01b036101008201511661012085015260018060a01b03610120820151166101408501526101408101511515610160850152610160810151151561018085015261018081015115156101a08501526101a08101518285015201516101e08301520390f35b34610264576000366003190112610264576109de612e1d565b600780546001600160a01b031981169091556000906001600160a01b03167f8be0079c531659141344cd1fd0a4f28419497f9722a3daafe3b4186f6b6457e08280a3005b34610264576020366003190112610264576001600160a01b03610a43612bab565b168015610a625760005260036020526020604060002054604051908152f35b60405162461bcd60e51b815260206004820152602960248201527f4552433732313a2061646472657373207a65726f206973206e6f7420612076616044820152683634b21037bbb732b960b91b6064820152608490fd5b3461026457610ac736612bd7565b610acf613439565b610ad7613538565b6001600160a01b03828116939091908415610e7e5781600052602090600982526040600020610b0881541515613480565b846007541633148015610e6f575b15610e0d5760090193845460ff8160a81c16600014610db557610b3885612ec1565b82808516911603610d705760ff905b60b01c16610d2b5781169384600052600d8352604060002084600052835260406000209560ff199687815416905585600052600c845260406000209160005b835480821015610cfd578790610b9c8387612def565b929054600393841b1c14610bba575050610bb5906135da565b610b86565b989997986000199892818a01918211610ce757610bea610bdd610c039389612def565b905490851b1c9188612def565b90919082549060031b91821b91600019901b1916179055565b8454948515610cd157887f4419f53c76d7302f46aec0c9d110b7a0c6806dce4479a5f8f47102e93f6547d4998b970192610c3d8484612def565b81939154921b1b19169055555b89600052600d86526040600020846000528652600160406000209182541617905588600052600c8552610c81836040600020613510565b8054600161ff0160a01b031916891790556000828152600260205260409020546001600160a01b0316610cc0575b505050604051338152a46001600655005b610cc9926130bf565b858381610caf565b634e487b7160e01b600052603160045260246000fd5b634e487b7160e01b600052601160045260246000fd5b50508596977f4419f53c76d7302f46aec0c9d110b7a0c6806dce4479a5f8f47102e93f6547d4969350610c4a565b60405162461bcd60e51b815260048101849052601f60248201527f43616e6e6f74207472616e7366657220726566756e646564207469636b6574006044820152606490fd5b60405162461bcd60e51b815260048101859052601a60248201527f53656e646572206973206e6f74207469636b6574206f776e65720000000000006044820152606490fd5b81831682821603610dc85760ff90610b47565b60405162461bcd60e51b815260048101859052601a60248201527f53656e646572206973206e6f74207469636b65742062757965720000000000006044820152606490fd5b60405162461bcd60e51b815260048101849052603460248201527f4e6f7420617574686f72697a65643a204f6e6c79204f7267616e697a6572206f604482015273391020b236b4b71031b0b7103a3930b739b332b960611b6064820152608490fd5b50846008820154163314610b16565b60405162461bcd60e51b815260206004820152601f60248201527f43616e6e6f74207472616e7366657220746f207a65726f2061646472657373006044820152606490fd5b602036600319011261026457610ed7613439565b610edf613538565b60043560005260096020526040600020610efb81541515613480565b610f0f60ff600983015460b01c16156134c4565b600481015442116116de576005810154340361169957600b8101541561165d57600080808060018060a01b0360088601541681903415611653575b3491f11561164757600160085401908160085560038101546004820154600583015460018060a01b036008850154169160405193610f8785612c0c565b868552610f9660018701612d0e565b6020860152610fa760028701612d0e565b60408601526060850152608084015260a0830152610fc760068401612d0e565b60c0830152610fd860078401612d0e565b60e08301526101008201523361012082015260016101408201526000610160820152600061018082015260016101a082015260006101c08201528260005260096020526040600020908051825560208101518051906001600160401b0382116113c157819061104a6001860154612cd4565b601f81116115f4575b50602090601f831160011461158257600092611577575b50508160011b916000199060031b1c19161760018301555b60408101518051906001600160401b0382116113c15781906110a76002860154612cd4565b601f8111611524575b50602090601f83116001146114b2576000926114a7575b50508160011b916000199060031b1c19161760028301555b606081015160038301556080810151600483015560a0810151600583015560c08101518051906001600160401b0382116113c15781906111226006860154612cd4565b601f8111611454575b50602090601f83116001146113e2576000926113d7575b50508160011b916000199060031b1c19161760068301555b60e08101518051906001600160401b0382116113c15761117d6007850154612cd4565b601f811161137a575b50602090601f8311600114611304579180600b94926101c0946000926112f9575b50508160011b916000199060031b1c19161760078501555b6101008101516008850180546001600160a01b039283166001600160a01b031990911617905561012082015160098601805461014085015160ff60a01b90151560a01b16929093166001600160a81b03199093169290921717815561125d905b610160830151815460ff60a81b191690151560a81b60ff60a81b16178155610180830151815460ff60b01b191690151560b01b60ff60b01b16179055565b6101a0810151600a8501550151910155600b810154600019810191908211610ce757600591600b82015533600052600c60205261129e836040600020613510565b33600052600d6020526040600020836000526020526040600020600160ff198254161790550154906040519182527fdbaaf4c87ce30816c961a81d110622a3227ede77953d4383d514ff88ab2e0fd360203393a36001600655005b0151905088806111a7565b906007850160005260206000209160005b601f1985168110611362575092600b94926001926101c09583601f19811610611349575b505050811b0160078501556111bf565b015160001960f88460031b161c19169055888080611339565b91926020600181928685015181550194019201611315565b600785016000526020600020601f840160051c8101602085106113ba575b601f830160051c820181106113ae575050611186565b60008155600101611398565b5080611398565b634e487b7160e01b600052604160045260246000fd5b015190508680611142565b9250600685016000526020600020906000935b601f1984168510611439576001945083601f19811610611420575b505050811b01600683015561115a565b015160001960f88460031b161c19169055868080611410565b818101518355602094850194600190930192909101906113f5565b909150600685016000526020600020601f840160051c8101602085106114a0575b90849392915b601f830160051c8201811061149157505061112b565b6000815585945060010161147b565b5080611475565b0151905086806110c7565b9250600285016000526020600020906000935b601f1984168510611509576001945083601f198116106114f0575b505050811b0160028301556110df565b015160001960f88460031b161c191690558680806114e0565b818101518355602094850194600190930192909101906114c5565b909150600285016000526020600020601f840160051c810160208510611570575b90849392915b601f830160051c820181106115615750506110b0565b6000815585945060010161154b565b5080611545565b01519050868061106a565b9250600185016000526020600020906000935b601f19841685106115d9576001945083601f198116106115c0575b505050811b016001830155611082565b015160001960f88460031b161c191690558680806115b0565b81810151835560209485019460019093019290910190611595565b909150600185016000526020600020601f840160051c810160208510611640575b90849392915b601f830160051c82018110611631575050611053565b6000815585945060010161161b565b5080611615565b6040513d6000823e3d90fd5b6108fc9150610f4a565b60405162461bcd60e51b81526020600482015260146024820152734e6f207469636b65747320617661696c61626c6560601b6044820152606490fd5b60405162461bcd60e51b815260206004820152601860248201527f496e636f7272656374207061796d656e7420616d6f756e7400000000000000006044820152606490fd5b60405162461bcd60e51b815260206004820152600e60248201526d14d85b19481a185cc8195b99195960921b6044820152606490fd5b346102645760403660031901126102645761172d612bab565b6024356001600160401b0381116102645761177d6020809361175560ff943690600401612cb6565b9060018060a01b0316600052600a825260406000208260405194838680955193849201612b63565b82019081520301902054166040519015158152f35b346102645760203660031901126102645760206117b0600435612ec1565b6040516001600160a01b039091168152f35b346102645760208060031936011261026457600435906117e0613439565b6117e8613538565b81600052600981526009604060002061180381541515613480565b0190815460ff8160a01c1615611a0c57336001600160a01b038216036119d05760ff8160a81c1661198b5760ff61183e9160b01c16156134c4565b6040519061184b82612c28565b600082523315611948576119099160026104309261188761188188600052600260205260018060a01b0360406000205416151590565b1561358e565b6000878152600260205260409020546118aa906001600160a01b03161515611881565b336000526003815260406000206001815401905586600052526040600020336001600160601b0360a01b825416179055843360007fddf252ad1be2c89b69c2b068fc378daa952ba7f163c4a11628f55a4df523b3ef8180a48433613236565b805460ff60a81b1916600160a81b17905533907f4c3f8ff3b3376dbd255cab935257c5c6f095b27b816f6f0b1ae35b828e6838a8600080a36001600655005b6064906040519062461bcd60e51b825280600483015260248201527f4552433732313a206d696e7420746f20746865207a65726f20616464726573736044820152fd5b60405162461bcd60e51b815260048101839052601960248201527f5469636b657420616c726561647920646f776e6c6f61646564000000000000006044820152606490fd5b60405162461bcd60e51b81526004810183905260146024820152732737ba103a3432903a34b1b5b2ba10313abcb2b960611b6044820152606490fd5b60405162461bcd60e51b815260048101839052600f60248201526e151a58dad95d081b9bdd081cdbdb19608a1b6044820152606490fd5b3461026457600036600319011261026457602060ff60075460a01c166040519015158152f35b34610264576000366003190112610264576008805490611a888261371c565b916000916001805b83811115611ae0578585611aa38161371c565b9160005b828110611abc57604051806102e78682612db4565b80611aca611adb928461374e565b51611ad5828761374e565b526135da565b611aa7565b806000526009602081815260406000209160405191611afe83612c0c565b83548352611b0d868501612d0e565b90830152611b1d60028401612d0e565b604083015260038301546060830152600b6004840154916080840192835260058501549060a09182860152611b5460068701612d0e565b60c0860152611b6560078701612d0e565b60e086015260018060a01b0390818a88015416610100870152860154918291821661012087015260ff9283911c161515610140860152818160a81c16151561016086015260b01c1615938415610180850152600a8101546101a0850152015491826101c08201525115159283611c29575b5082611c1d575b5081611c13575b50611bf8575b611bf3906135da565b611a90565b93611c0b8186611ad5611bf3948a61374e565b949050611bea565b9050151587611be4565b51421115915088611bdd565b925089611bd6565b34610264576020366003190112610264576020611c4f6004356135e9565b6040519015158152f35b346102645760203660031901126102645760043560005260096020526040600020805460018201611c8990612d0e565b91611c9660028201612d0e565b6003820154600483015460058401549391611cb360068401612d0e565b611cbf60078501612d0e565b90600160a01b60019003928360088701541697600987015495600a88015497600b0154986040519c8d9c8d528c6101e06020819201528d01611d0091612b86565b8c810360408e0152611d1191612b86565b9260608c015260808b015260a08a015288810360c08a0152611d3291612b86565b87810360e0890152611d4391612b86565b9461010087015281166101208601528060a01c60ff1615156101408601528060a81c60ff16151561016086015260b01c60ff1615156101808501526101a08401526101c08301520390f35b346102645760403660031901126102645760243560043560005260096020526040600020611dbe81541515613480565b6008810154336001600160a01b0391821614908115611e2d575b5015611df757600b90611dec8315156133e1565b600a81018390550155005b60405162461bcd60e51b815260206004820152600e60248201526d139bdd08185d5d1a1bdc9a5e995960921b6044820152606490fd5b905060075416331483611dd8565b3461026457610100366003190112610264576004356001600160401b03811161026457611e6c903690600401612cb6565b6024356001600160401b03811161026457611e8b903690600401612cb6565b60c4356001600160401b03811161026457611eaa903690600401612cb6565b9060e4356001600160401b03811161026457611eca903690600401612cb6565b611ed2613439565b83511561282c578151156127e7574260443511156127a35742606435111561275257604435606435101561270d57608435156126c857611f1560a43515156133e1565b8251156126835780511561263e576040516020818651611f388183858b01612b63565b8101600b81520301902054612602576001600854019283600855611fc3602760405192611f95828566697066733a2f2f60c81b93846020830152611f858151809260208686019101612b63565b8101036007810187520185612c43565b6040519485916020830152611fb38151809260208686019101612b63565b8101036007810185520183612c43565b60405192611fd084612c0c565b84845285602085015260408401526044356060840152606435608084015260843560a084015260c083015260e082015233610100820152600061012082015260006101408201526000610160820152600061018082015260a4356101a082015260a4356101c08201528160005260096020526040600020908051825560208101518051906001600160401b0382116113c15781906120716001860154612cd4565b601f81116125af575b50602090601f831160011461253d57600092612532575b50508160011b916000199060031b1c19161760018301555b60408101518051906001600160401b0382116113c15781906120ce6002860154612cd4565b601f81116124df575b50602090601f831160011461246d57600092612462575b50508160011b916000199060031b1c19161760028301555b606081015160038301556080810151600483015560a0810151600583015560c08101518051906001600160401b0382116113c15781906121496006860154612cd4565b601f811161240f575b50602090601f831160011461239d57600092612392575b50508160011b916000199060031b1c19161760068301555b60e08101518051906001600160401b0382116113c1576121a46007850154612cd4565b601f811161234b575b50602090601f83116001146122d5579180600b94926101c0946000926122ca575b50508160011b916000199060031b1c19161760078501555b6101008101516008850180546001600160a01b039283166001600160a01b031990911617905561012082015160098601805461014085015160ff60a01b90151560a01b16929093166001600160a81b03199093169290921717815561224a9061121f565b6101a0810151600a85015501519101558060405160208185516122708183858a01612b63565b8101600b815203019020557f57f13ab4f405dee432e813c363e9bbf98b6e2703d4e28b09ad4af92f689d5fba6122b160405193606085526060850190612b86565b92608435602082015260443560408201528033940390a3005b0151905088806121ce565b906007850160005260206000209160005b601f1985168110612333575092600b94926001926101c09583601f1981161061231a575b505050811b0160078501556121e6565b015160001960f88460031b161c1916905588808061230a565b919260206001819286850151815501940192016122e6565b600785016000526020600020601f840160051c81016020851061238b575b601f830160051c8201811061237f5750506121ad565b60008155600101612369565b5080612369565b015190508680612169565b9250600685016000526020600020906000935b601f19841685106123f4576001945083601f198116106123db575b505050811b016006830155612181565b015160001960f88460031b161c191690558680806123cb565b818101518355602094850194600190930192909101906123b0565b909150600685016000526020600020601f840160051c81016020851061245b575b90849392915b601f830160051c8201811061244c575050612152565b60008155859450600101612436565b5080612430565b0151905086806120ee565b9250600285016000526020600020906000935b601f19841685106124c4576001945083601f198116106124ab575b505050811b016002830155612106565b015160001960f88460031b161c1916905586808061249b565b81810151835560209485019460019093019290910190612480565b909150600285016000526020600020601f840160051c81016020851061252b575b90849392915b601f830160051c8201811061251c5750506120d7565b60008155859450600101612506565b5080612500565b015190508680612091565b9250600185016000526020600020906000935b601f1984168510612594576001945083601f1981161061257b575b505050811b0160018301556120a9565b015160001960f88460031b161c1916905586808061256b565b81810151835560209485019460019093019290910190612550565b909150600185016000526020600020601f840160051c8101602085106125fb575b90849392915b601f830160051c820181106125ec57505061207a565b600081558594506001016125d6565b50806125d0565b60405162461bcd60e51b81526020600482015260146024820152734576656e7420616c72656164792065786973747360601b6044820152606490fd5b60405162461bcd60e51b815260206004820152601a60248201527f5469636b6574204349442063616e6e6f7420626520656d7074790000000000006044820152606490fd5b60405162461bcd60e51b815260206004820152601a60248201527f506f73746572204349442063616e6e6f7420626520656d7074790000000000006044820152606490fd5b60405162461bcd60e51b815260206004820152601c60248201527f5072696365206d7573742062652067726561746572207468616e2030000000006044820152606490fd5b60405162461bcd60e51b815260206004820152601a60248201527f53616c65206d75737420656e64206265666f7265206576656e740000000000006044820152606490fd5b60405162461bcd60e51b815260206004820152602360248201527f53616c6520656e642064617465206d75737420626520696e207468652066757460448201526275726560e81b6064820152608490fd5b606460405162461bcd60e51b815260206004820152602060248201527f4576656e742064617465206d75737420626520696e20746865206675747572656044820152fd5b60405162461bcd60e51b815260206004820152601960248201527f4f7267616e697a65722063616e6e6f7420626520656d707479000000000000006044820152606490fd5b60405162461bcd60e51b815260206004820152601a60248201527f4576656e74206e616d652063616e6e6f7420626520656d7074790000000000006044820152606490fd5b34610264576020366003190112610264576004356001600160401b038111610264576128ba60206128a781933690600401612cb6565b8160405193828580945193849201612b63565b8101600b81520301902054604051908152f35b34610264576104356104306128e136612bd7565b90604051926128ef84612c28565b6000845261042061041b8433612ff7565b3461026457600036600319011261026457612919612e1d565b60075460ff8160a01c16156129605760ff60a01b19166007556040513381527f5db9ee0a495bf2e6ff9c91a7834c1ba4fdd244a5e8aa4e537bd38aeae4b073aa90602090a1005b60405162461bcd60e51b815260206004820152601460248201527314185d5cd8589b194e881b9bdd081c185d5cd95960621b6044820152606490fd5b34610264576000366003190112610264576129b5612e1d565b600080808060018060a01b036007541647908282156129d7575bf11561164757005b506108fc6129cf565b34610264576104356129f136612bd7565b916129ff61041b8433612ff7565b6130bf565b3461026457604036600319011261026457612a1d612bab565b5060405162461bcd60e51b815280610475600482016137de565b346102645760203660031901126102645760206117b0600435612ee4565b346102645760003660031901126102645760405160008054612a7681612cd4565b808452906001908181169081156105315750600114612a9f576102e7846104c481860382612c43565b600080805292507f290decd9548b62a8d60345a988386fc84ba6bc95484008f6362f93160ef3e5635b828410612ae05750505081016020016104c4826104b4565b80546020858701810191909152909301928101612ac8565b34610264576020366003190112610264576004359063ffffffff60e01b8216809203610264576020916380ac58cd60e01b8114908115612b52575b8115612b41575b5015158152f35b6301ffc9a760e01b14905083612b3a565b635b5e139f60e01b81149150612b33565b60005b838110612b765750506000910152565b8181015183820152602001612b66565b90602091612b9f81518092818552858086019101612b63565b601f01601f1916010190565b600435906001600160a01b038216820361026457565b602435906001600160a01b038216820361026457565b6060906003190112610264576001600160a01b0390600435828116810361026457916024359081168103610264579060443590565b6101e081019081106001600160401b038211176113c157604052565b602081019081106001600160401b038211176113c157604052565b90601f801991011681019081106001600160401b038211176113c157604052565b6001600160401b0381116113c157601f01601f191660200190565b929192612c8b82612c64565b91612c996040519384612c43565b829481845281830111610264578281602093846000960137010152565b9080601f8301121561026457816020612cd193359101612c7f565b90565b90600182811c92168015612d04575b6020831014612cee57565b634e487b7160e01b600052602260045260246000fd5b91607f1691612ce3565b9060405191826000825492612d2284612cd4565b908184526001948581169081600014612d915750600114612d4e575b5050612d4c92500383612c43565b565b9093915060005260209081600020936000915b818310612d79575050612d4c93508201013880612d3e565b85548884018501529485019487945091830191612d61565b915050612d4c94506020925060ff191682840152151560051b8201013880612d3e565b6020908160408183019282815285518094520193019160005b828110612ddb575050505090565b835185529381019392810192600101612dcd565b8054821015612e075760005260206000200190600090565b634e487b7160e01b600052603260045260246000fd5b6007546001600160a01b03163303612e3157565b606460405162461bcd60e51b815260206004820152602060248201527f4f776e61626c653a2063616c6c6572206973206e6f7420746865206f776e65726044820152fd5b15612e7c57565b60405162461bcd60e51b815260206004820152601860248201527f4552433732313a20696e76616c696420746f6b656e20494400000000000000006044820152606490fd5b6000908152600260205260409020546001600160a01b0316612cd1811515612e75565b600081815260026020526040902054612f07906001600160a01b03161515612e75565b6000908152600460205260409020546001600160a01b031690565b15612f2957565b60405162461bcd60e51b815260206004820152602d60248201527f4552433732313a2063616c6c6572206973206e6f7420746f6b656e206f776e6560448201526c1c881bdc88185c1c1c9bdd9959609a1b6064820152608490fd5b60809060208152603260208201527f4552433732313a207472616e7366657220746f206e6f6e20455243373231526560408201527131b2b4bb32b91034b6b83632b6b2b73a32b960711b60608201520190565b15612fde57565b60405162461bcd60e51b81528061047560048201612f84565b906001600160a01b03808061300b84612ec1565b1693169183831493841561303e575b508315613028575b50505090565b61303491929350612ee4565b1614388080613022565b909350600052600560205260406000208260005260205260ff60406000205416923861301a565b1561306c57565b60405162461bcd60e51b815260206004820152602560248201527f4552433732313a207472616e736665722066726f6d20696e636f72726563742060448201526437bbb732b960d91b6064820152608490fd5b906130e7916130cd84612ec1565b6001600160a01b0393918416928492909183168414613065565b169182156131e557811580156131dd575b80156131d0575b80156131b4575b1561319b57816131209161311986612ec1565b1614613065565b7fddf252ad1be2c89b69c2b068fc378daa952ba7f163c4a11628f55a4df523b3ef60008481526004602052604081206001600160601b0360a01b9081815416905583825260036020526040822060001981540190558482526040822060018154019055858252600260205284604083209182541617905580a4565b60405162461bcd60e51b815280610475600482016137de565b5083600052600960205280600860406000200154163314613106565b50806007541633146130ff565b5060006130f8565b60405162461bcd60e51b8152602060048201526024808201527f4552433732313a207472616e7366657220746f20746865207a65726f206164646044820152637265737360e01b6064820152608490fd5b9192600092909190803b1561334c57613284946040518092630a85bd0160e11b9485835233600484015287602484015260448301526080606483015281878160209a8b966084830190612b86565b03926001600160a01b03165af1849181613308575b506132f7575050503d6000146132ef573d6132b381612c64565b906132c16040519283612c43565b81528091833d92013e5b805191826132ec5760405162461bcd60e51b81528061047560048201612f84565b01fd5b5060606132cb565b6001600160e01b0319161492509050565b9091508581813d8311613345575b6133208183612c43565b8101031261334157516001600160e01b031981168103613341579038613299565b8480fd5b503d613316565b5050915050600190565b9293600093909291803b156133d6579484916133b09660405180948193630a85bd0160e11b9788845233600485015260018060a01b0380921660248501526044840152608060648401528260209b8c976084830190612b86565b0393165af184918161330857506132f7575050503d6000146132ef573d6132b381612c64565b505050915050600190565b156133e857565b60405162461bcd60e51b8152602060048201526024808201527f546f74616c207469636b657473206d75737420626520677265617465722074686044820152630616e20360e41b6064820152608490fd5b60ff60075460a01c1661344857565b60405162461bcd60e51b815260206004820152601060248201526f14185d5cd8589b194e881c185d5cd95960821b6044820152606490fd5b1561348757565b60405162461bcd60e51b8152602060048201526015602482015274151a58dad95d08191bd95cc81b9bdd08195e1a5cdd605a1b6044820152606490fd5b156134cb57565b60405162461bcd60e51b815260206004820152601860248201527f5469636b657420686173206265656e20726566756e64656400000000000000006044820152606490fd5b90815491680100000000000000008310156113c15782610bea916001612d4c95018155612def565b600260065414613549576002600655565b60405162461bcd60e51b815260206004820152601f60248201527f5265656e7472616e637947756172643a207265656e7472616e742063616c6c006044820152606490fd5b1561359557565b60405162461bcd60e51b815260206004820152601c60248201527f4552433732313a20746f6b656e20616c7265616479206d696e746564000000006044820152606490fd5b6000198114610ce75760010190565b600090808252600960205260408220906040519161360683612c0c565b8054835261361660018201612d0e565b602084015261362760028201612d0e565b60408401526003810154606084015260048101546080840152600581015460a084015261365660068201612d0e565b60c084015261366760078201612d0e565b60e084015260018060a01b03928360088301541661010082015260098201549084821661012082015260ff8260a01c161515610140820152600b60ff808460a81c161593841561016085015260b01c1615159384610180840152600a8101546101a084015201546101c082015251156136fe57613022576136f9576136eb90612ec1565b33911603612cd15750600190565b505090565b5050505090565b6001600160401b0381116113c15760051b60200190565b9061372682613705565b6137336040519182612c43565b8281528092613744601f1991613705565b0190602036910137565b8051821015612e075760209160051b010190565b6000338152602090600c825260408120916040518093849183825491828152019185528385209385905b8282106137c4575050506137a292500383612c43565b8151156137ad575090565b60405191506137bb82612c28565b80825236813790565b85548452600195860195889550938101939091019061378c565b60609060208152601c60208201527f5469636b65747320617265206e6f6e2d7472616e7366657261626c65000000006040820152019056fea264697066735822122053daf73cbf35048cc92ea130af2e7bc08dcf9e9a9b30b32edd1546cdf97b893d64736f6c63430008130033",
  "linkReferences": {},
  "deployedLinkReferences": {}
}